{
  "_format": "hh-sol-artifact-1",
  "contractName": "SparkLink",
  "sourceName": "contracts/SparkLink.sol",
  "abi": [
    {
      "inputs": [],
      "stateMutability": "nonpayable",
      "type": "constructor"
    },
    {
      "anonymous": false,
      "inputs": [
        {
          "indexed": true,
          "internalType": "address",
          "name": "owner",
          "type": "address"
        },
        {
          "indexed": true,
          "internalType": "address",
          "name": "approved",
          "type": "address"
        },
        {
          "indexed": true,
          "internalType": "uint256",
          "name": "tokenId",
          "type": "uint256"
        }
      ],
      "name": "Approval",
      "type": "event"
    },
    {
      "anonymous": false,
      "inputs": [
        {
          "indexed": true,
          "internalType": "address",
          "name": "owner",
          "type": "address"
        },
        {
          "indexed": true,
          "internalType": "address",
          "name": "operator",
          "type": "address"
        },
        {
          "indexed": false,
          "internalType": "bool",
          "name": "approved",
          "type": "bool"
        }
      ],
      "name": "ApprovalForAll",
      "type": "event"
    },
    {
      "anonymous": false,
      "inputs": [
        {
          "indexed": true,
          "internalType": "uint64",
          "name": "NFT_id",
          "type": "uint64"
        },
        {
          "indexed": true,
          "internalType": "address",
          "name": "receiver",
          "type": "address"
        },
        {
          "indexed": false,
          "internalType": "uint128",
          "name": "amount",
          "type": "uint128"
        }
      ],
      "name": "Claim",
      "type": "event"
    },
    {
      "anonymous": false,
      "inputs": [
        {
          "indexed": true,
          "internalType": "uint64",
          "name": "NFT_id",
          "type": "uint64"
        },
        {
          "indexed": false,
          "internalType": "uint128",
          "name": "transfer_price",
          "type": "uint128"
        }
      ],
      "name": "DeterminePrice",
      "type": "event"
    },
    {
      "anonymous": false,
      "inputs": [
        {
          "indexed": true,
          "internalType": "uint64",
          "name": "NFT_id",
          "type": "uint64"
        },
        {
          "indexed": false,
          "internalType": "uint128",
          "name": "transfer_price",
          "type": "uint128"
        },
        {
          "indexed": true,
          "internalType": "address",
          "name": "to",
          "type": "address"
        }
      ],
      "name": "DeterminePriceAndApprove",
      "type": "event"
    },
    {
      "anonymous": false,
      "inputs": [
        {
          "indexed": true,
          "internalType": "uint64",
          "name": "NFT_id",
          "type": "uint64"
        },
        {
          "indexed": false,
          "internalType": "string",
          "name": "content",
          "type": "string"
        }
      ],
      "name": "Label",
      "type": "event"
    },
    {
      "anonymous": false,
      "inputs": [
        {
          "indexed": true,
          "internalType": "uint32",
          "name": "issue_id",
          "type": "uint32"
        },
        {
          "indexed": true,
          "internalType": "address",
          "name": "publisher",
          "type": "address"
        },
        {
          "indexed": false,
          "internalType": "uint64",
          "name": "rootNFTId",
          "type": "uint64"
        },
        {
          "indexed": false,
          "internalType": "address",
          "name": "token_addr",
          "type": "address"
        }
      ],
      "name": "Publish",
      "type": "event"
    },
    {
      "anonymous": false,
      "inputs": [
        {
          "indexed": true,
          "internalType": "uint64",
          "name": "NFT_id",
          "type": "uint64"
        },
        {
          "indexed": false,
          "internalType": "bytes32",
          "name": "old_URI",
          "type": "bytes32"
        },
        {
          "indexed": false,
          "internalType": "bytes32",
          "name": "new_URI",
          "type": "bytes32"
        }
      ],
      "name": "SetURI",
      "type": "event"
    },
    {
      "anonymous": false,
      "inputs": [
        {
          "indexed": true,
          "internalType": "address",
          "name": "from",
          "type": "address"
        },
        {
          "indexed": true,
          "internalType": "address",
          "name": "to",
          "type": "address"
        },
        {
          "indexed": true,
          "internalType": "uint256",
          "name": "tokenId",
          "type": "uint256"
        }
      ],
      "name": "Transfer",
      "type": "event"
    },
    {
      "inputs": [
        {
          "internalType": "uint64",
          "name": "_NFT_id",
          "type": "uint64"
        }
      ],
      "name": "acceptShill",
      "outputs": [],
      "stateMutability": "payable",
      "type": "function"
    },
    {
      "inputs": [
        {
          "internalType": "address",
          "name": "to",
          "type": "address"
        },
        {
          "internalType": "uint256",
          "name": "tokenId",
          "type": "uint256"
        }
      ],
      "name": "approve",
      "outputs": [],
      "stateMutability": "nonpayable",
      "type": "function"
    },
    {
      "inputs": [
        {
          "internalType": "address",
          "name": "owner",
          "type": "address"
        }
      ],
      "name": "balanceOf",
      "outputs": [
        {
          "internalType": "uint256",
          "name": "",
          "type": "uint256"
        }
      ],
      "stateMutability": "view",
      "type": "function"
    },
    {
      "inputs": [
        {
          "internalType": "uint64",
          "name": "_NFT_id",
          "type": "uint64"
        }
      ],
      "name": "claimProfit",
      "outputs": [],
      "stateMutability": "nonpayable",
      "type": "function"
    },
    {
      "inputs": [
        {
          "internalType": "uint64",
          "name": "_NFT_id",
          "type": "uint64"
        },
        {
          "internalType": "uint128",
          "name": "_price",
          "type": "uint128"
        }
      ],
      "name": "determinePrice",
      "outputs": [],
      "stateMutability": "nonpayable",
      "type": "function"
    },
    {
      "inputs": [
        {
          "internalType": "uint64",
          "name": "_NFT_id",
          "type": "uint64"
        },
        {
          "internalType": "uint128",
          "name": "_price",
          "type": "uint128"
        },
        {
          "internalType": "address",
          "name": "_to",
          "type": "address"
        }
      ],
      "name": "determinePriceAndApprove",
      "outputs": [],
      "stateMutability": "nonpayable",
      "type": "function"
    },
    {
      "inputs": [
        {
          "internalType": "uint256",
          "name": "tokenId",
          "type": "uint256"
        }
      ],
      "name": "getApproved",
      "outputs": [
        {
          "internalType": "address",
          "name": "",
          "type": "address"
        }
      ],
      "stateMutability": "view",
      "type": "function"
    },
    {
      "inputs": [
        {
          "internalType": "uint64",
          "name": "_NFT_id",
          "type": "uint64"
        }
      ],
      "name": "getDepthByNFTId",
      "outputs": [
        {
          "internalType": "uint64",
          "name": "",
          "type": "uint64"
        }
      ],
      "stateMutability": "view",
      "type": "function"
    },
    {
      "inputs": [
        {
          "internalType": "uint64",
          "name": "_NFT_id",
          "type": "uint64"
        }
      ],
      "name": "getEditionIdByNFTId",
      "outputs": [
        {
          "internalType": "uint32",
          "name": "",
          "type": "uint32"
        }
      ],
      "stateMutability": "pure",
      "type": "function"
    },
    {
      "inputs": [
        {
          "internalType": "uint64",
          "name": "_NFT_id",
          "type": "uint64"
        }
      ],
      "name": "getFatherByNFTId",
      "outputs": [
        {
          "internalType": "uint64",
          "name": "",
          "type": "uint64"
        }
      ],
      "stateMutability": "view",
      "type": "function"
    },
    {
      "inputs": [
        {
          "internalType": "uint64",
          "name": "_NFT_id",
          "type": "uint64"
        }
      ],
      "name": "getIssueIdByNFTId",
      "outputs": [
        {
          "internalType": "uint32",
          "name": "",
          "type": "uint32"
        }
      ],
      "stateMutability": "pure",
      "type": "function"
    },
    {
      "inputs": [],
      "name": "getLossRatio",
      "outputs": [
        {
          "internalType": "uint8",
          "name": "",
          "type": "uint8"
        }
      ],
      "stateMutability": "pure",
      "type": "function"
    },
    {
      "inputs": [
        {
          "internalType": "uint64",
          "name": "_NFT_id",
          "type": "uint64"
        }
      ],
      "name": "getProfitByNFTId",
      "outputs": [
        {
          "internalType": "uint128",
          "name": "",
          "type": "uint128"
        }
      ],
      "stateMutability": "view",
      "type": "function"
    },
    {
      "inputs": [
        {
          "internalType": "uint64",
          "name": "_NFT_id",
          "type": "uint64"
        }
      ],
      "name": "getRemainShillTimesByNFTId",
      "outputs": [
        {
          "internalType": "uint16",
          "name": "",
          "type": "uint16"
        }
      ],
      "stateMutability": "view",
      "type": "function"
    },
    {
      "inputs": [
        {
          "internalType": "uint32",
          "name": "_issue_id",
          "type": "uint32"
        }
      ],
      "name": "getRootNFTIdByIssueId",
      "outputs": [
        {
          "internalType": "uint64",
          "name": "",
          "type": "uint64"
        }
      ],
      "stateMutability": "pure",
      "type": "function"
    },
    {
      "inputs": [
        {
          "internalType": "uint32",
          "name": "_issue_id",
          "type": "uint32"
        }
      ],
      "name": "getRoyaltyFeeByIssueId",
      "outputs": [
        {
          "internalType": "uint8",
          "name": "",
          "type": "uint8"
        }
      ],
      "stateMutability": "view",
      "type": "function"
    },
    {
      "inputs": [
        {
          "internalType": "uint64",
          "name": "_NFT_id",
          "type": "uint64"
        }
      ],
      "name": "getShillPriceByNFTId",
      "outputs": [
        {
          "internalType": "uint128",
          "name": "",
          "type": "uint128"
        }
      ],
      "stateMutability": "view",
      "type": "function"
    },
    {
      "inputs": [
        {
          "internalType": "uint32",
          "name": "_issue_id",
          "type": "uint32"
        }
      ],
      "name": "getShillTimesByIssueId",
      "outputs": [
        {
          "internalType": "uint16",
          "name": "",
          "type": "uint16"
        }
      ],
      "stateMutability": "view",
      "type": "function"
    },
    {
      "inputs": [
        {
          "internalType": "uint32",
          "name": "_issue_id",
          "type": "uint32"
        }
      ],
      "name": "getTokenAddrByIssueId",
      "outputs": [
        {
          "internalType": "address",
          "name": "",
          "type": "address"
        }
      ],
      "stateMutability": "view",
      "type": "function"
    },
    {
      "inputs": [
        {
          "internalType": "uint64",
          "name": "_NFT_id",
          "type": "uint64"
        }
      ],
      "name": "getTokenAddrByNFTId",
      "outputs": [
        {
          "internalType": "address",
          "name": "",
          "type": "address"
        }
      ],
      "stateMutability": "view",
      "type": "function"
    },
    {
      "inputs": [
        {
          "internalType": "uint32",
          "name": "_issue_id",
          "type": "uint32"
        }
      ],
      "name": "getTotalAmountByIssueId",
      "outputs": [
        {
          "internalType": "uint32",
          "name": "",
          "type": "uint32"
        }
      ],
      "stateMutability": "view",
      "type": "function"
    },
    {
      "inputs": [
        {
          "internalType": "uint64",
          "name": "_NFT_id",
          "type": "uint64"
        }
      ],
      "name": "getTransferPriceByNFTId",
      "outputs": [
        {
          "internalType": "uint128",
          "name": "",
          "type": "uint128"
        }
      ],
      "stateMutability": "view",
      "type": "function"
    },
    {
      "inputs": [
        {
          "internalType": "address",
          "name": "owner",
          "type": "address"
        },
        {
          "internalType": "address",
          "name": "operator",
          "type": "address"
        }
      ],
      "name": "isApprovedForAll",
      "outputs": [
        {
          "internalType": "bool",
          "name": "",
          "type": "bool"
        }
      ],
      "stateMutability": "view",
      "type": "function"
    },
    {
      "inputs": [
        {
          "internalType": "uint64",
          "name": "_NFT_id",
          "type": "uint64"
        }
      ],
      "name": "isEditionExisting",
      "outputs": [
        {
          "internalType": "bool",
          "name": "",
          "type": "bool"
        }
      ],
      "stateMutability": "view",
      "type": "function"
    },
    {
      "inputs": [
        {
          "internalType": "uint32",
          "name": "_issue_id",
          "type": "uint32"
        }
      ],
      "name": "isIssueExisting",
      "outputs": [
        {
          "internalType": "bool",
          "name": "",
          "type": "bool"
        }
      ],
      "stateMutability": "view",
      "type": "function"
    },
    {
      "inputs": [
        {
          "internalType": "uint64",
          "name": "_NFT_id",
          "type": "uint64"
        }
      ],
      "name": "isRootNFT",
      "outputs": [
        {
          "internalType": "bool",
          "name": "",
          "type": "bool"
        }
      ],
      "stateMutability": "pure",
      "type": "function"
    },
    {
      "inputs": [
        {
          "internalType": "uint64",
          "name": "_NFT_id",
          "type": "uint64"
        },
        {
          "internalType": "string",
          "name": "content",
          "type": "string"
        }
      ],
      "name": "label",
      "outputs": [],
      "stateMutability": "nonpayable",
      "type": "function"
    },
    {
      "inputs": [],
      "name": "name",
      "outputs": [
        {
          "internalType": "string",
          "name": "",
          "type": "string"
        }
      ],
      "stateMutability": "view",
      "type": "function"
    },
    {
      "inputs": [
        {
          "internalType": "uint256",
          "name": "tokenId",
          "type": "uint256"
        }
      ],
      "name": "ownerOf",
      "outputs": [
        {
          "internalType": "address",
          "name": "",
          "type": "address"
        }
      ],
      "stateMutability": "view",
      "type": "function"
    },
    {
      "inputs": [
        {
          "internalType": "uint128",
          "name": "_first_sell_price",
          "type": "uint128"
        },
        {
          "internalType": "uint8",
          "name": "_royalty_fee",
          "type": "uint8"
        },
        {
          "internalType": "uint16",
          "name": "_shill_times",
          "type": "uint16"
        },
        {
          "internalType": "bytes32",
          "name": "_ipfs_hash",
          "type": "bytes32"
        },
        {
          "internalType": "address",
          "name": "_token_addr",
          "type": "address"
        }
      ],
      "name": "publish",
      "outputs": [],
      "stateMutability": "nonpayable",
      "type": "function"
    },
    {
      "inputs": [
        {
          "internalType": "address",
          "name": "from",
          "type": "address"
        },
        {
          "internalType": "address",
          "name": "to",
          "type": "address"
        },
        {
          "internalType": "uint256",
          "name": "tokenId",
          "type": "uint256"
        }
      ],
      "name": "safeTransferFrom",
      "outputs": [],
      "stateMutability": "payable",
      "type": "function"
    },
    {
      "inputs": [
        {
          "internalType": "address",
          "name": "from",
          "type": "address"
        },
        {
          "internalType": "address",
          "name": "to",
          "type": "address"
        },
        {
          "internalType": "uint256",
          "name": "tokenId",
          "type": "uint256"
        },
        {
          "internalType": "bytes",
          "name": "_data",
          "type": "bytes"
        }
      ],
      "name": "safeTransferFrom",
      "outputs": [],
      "stateMutability": "payable",
      "type": "function"
    },
    {
      "inputs": [
        {
          "internalType": "address",
          "name": "operator",
          "type": "address"
        },
        {
          "internalType": "bool",
          "name": "approved",
          "type": "bool"
        }
      ],
      "name": "setApprovalForAll",
      "outputs": [],
      "stateMutability": "nonpayable",
      "type": "function"
    },
    {
      "inputs": [
        {
          "internalType": "uint64",
          "name": "_NFT_id",
          "type": "uint64"
        },
        {
          "internalType": "bytes32",
          "name": "ipfs_hash",
          "type": "bytes32"
        }
      ],
      "name": "setURI",
      "outputs": [],
      "stateMutability": "nonpayable",
      "type": "function"
    },
    {
      "inputs": [
        {
          "internalType": "bytes4",
          "name": "interfaceId",
          "type": "bytes4"
        }
      ],
      "name": "supportsInterface",
      "outputs": [
        {
          "internalType": "bool",
          "name": "",
          "type": "bool"
        }
      ],
      "stateMutability": "view",
      "type": "function"
    },
    {
      "inputs": [],
      "name": "symbol",
      "outputs": [
        {
          "internalType": "string",
          "name": "",
          "type": "string"
        }
      ],
      "stateMutability": "view",
      "type": "function"
    },
    {
      "inputs": [
        {
          "internalType": "uint256",
          "name": "tokenId",
          "type": "uint256"
        }
      ],
      "name": "tokenURI",
      "outputs": [
        {
          "internalType": "string",
          "name": "",
          "type": "string"
        }
      ],
      "stateMutability": "view",
      "type": "function"
    },
    {
      "inputs": [
        {
          "internalType": "address",
          "name": "from",
          "type": "address"
        },
        {
          "internalType": "address",
          "name": "to",
          "type": "address"
        },
        {
          "internalType": "uint256",
          "name": "tokenId",
          "type": "uint256"
        }
      ],
      "name": "transferFrom",
      "outputs": [],
      "stateMutability": "payable",
      "type": "function"
    }
  ],
  "bytecode": "0x60806040523480156200001157600080fd5b5060408051808201909152600980825268537061726b4c696e6b60b81b6020909201918252620000449160019162000078565b506040805180820190915260038082526214d41360ea1b6020909201918252620000719160029162000078565b506200015b565b82805462000086906200011e565b90600052602060002090601f016020900481019282620000aa5760008555620000f5565b82601f10620000c557805160ff1916838001178555620000f5565b82800160010185558215620000f5579182015b82811115620000f5578251825591602001919060010190620000d8565b506200010392915062000107565b5090565b5b8082111562000103576000815560010162000108565b600181811c908216806200013357607f821691505b602082108114156200015557634e487b7160e01b600052602260045260246000fd5b50919050565b613af2806200016b6000396000f3fe6080604052600436106102255760003560e01c806392e6f9ac11610123578063bdea26fa116100ab578063f1ac67d31161006f578063f1ac67d3146106db578063f208c0f3146106fb578063f6e9274d1461072b578063fc6b6dea1461074b578063fee032991461076b57600080fd5b8063bdea26fa14610612578063c87b56dd14610632578063d8a288bd14610652578063d8d17e7914610672578063e985e9c51461069257600080fd5b8063a7c9e881116100f2578063a7c9e88114610574578063afabf6e4146105ac578063b88d4fde146105cc578063bbe07d79146105df578063bd3355ed146105f257600080fd5b806392e6f9ac146104f857806395d89b411461051f578063a22cb46514610534578063a3d5d55b1461055457600080fd5b80632b9e0d72116101b15780636579aea2116101755780636579aea21461044a57806365cb8c931461046a578063668432081461048a57806370a08231146104aa57806377738ad2146104d857600080fd5b80632b9e0d72146103a457806342842e0e146103c45780635a034b3b146103d75780635e7efa2e146103f75780636352211e1461042a57600080fd5b8063095ea7b3116101f8578063095ea7b3146102db578063177e67f2146102fd5780631dab1af71461033957806323b872dd146103715780632ac961441461038457600080fd5b806301ffc9a71461022a5780630292ec361461025f57806306fdde0314610281578063081812fc146102a3575b600080fd5b34801561023657600080fd5b5061024a6102453660046133b4565b61078b565b60405190151581526020015b60405180910390f35b34801561026b57600080fd5b50605a5b60405160ff9091168152602001610256565b34801561028d57600080fd5b506102966107dd565b60405161025691906136e6565b3480156102af57600080fd5b506102c36102be366004613458565b61086f565b6040516001600160a01b039091168152602001610256565b3480156102e757600080fd5b506102fb6102f636600461336f565b61091c565b005b34801561030957600080fd5b506103246103183660046134ac565b60201c63ffffffff1690565b60405163ffffffff9091168152602001610256565b34801561034557600080fd5b506103596103543660046134ac565b610a3c565b6040516001600160401b039091168152602001610256565b6102fb61037f366004613269565b610a91565b34801561039057600080fd5b506102c361039f366004613488565b610aa4565b3480156103b057600080fd5b5061024a6103bf3660046134ac565b610aed565b6102fb6103d2366004613269565b610b16565b3480156103e357600080fd5b506102fb6103f23660046134ac565b610b39565b34801561040357600080fd5b50610417610412366004613488565b610d8f565b60405161ffff9091168152602001610256565b34801561043657600080fd5b506102c3610445366004613458565b610de5565b34801561045657600080fd5b506102c36104653660046134ac565b610e7f565b34801561047657600080fd5b506102fb6104853660046134e1565b610e94565b34801561049657600080fd5b506102fb6104a53660046134c6565b610f53565b3480156104b657600080fd5b506104ca6104c536600461321d565b610fde565b604051908152602001610256565b3480156104e457600080fd5b506102fb6104f33660046135c6565b611071565b34801561050457600080fd5b5061024a6105133660046134ac565b63ffffffff1660011490565b34801561052b57600080fd5b506102966110dd565b34801561054057600080fd5b506102fb61054f366004613339565b6110ec565b34801561056057600080fd5b506102fb61056f3660046133ec565b6111b1565b34801561058057600080fd5b5061059461058f3660046134ac565b611578565b6040516001600160801b039091168152602001610256565b3480156105b857600080fd5b5061024a6105c7366004613488565b6115cb565b6102fb6105da3660046132a4565b6115e6565b6102fb6105ed3660046134ac565b611637565b3480156105fe57600080fd5b5061059461060d3660046134ac565b6119b7565b34801561061e57600080fd5b5061035961062d3660046134ac565b611a79565b34801561063e57600080fd5b5061029661064d366004613458565b611b2b565b34801561065e57600080fd5b5061032461066d366004613488565b611c3c565b34801561067e57600080fd5b5061041761068d3660046134ac565b611c91565b34801561069e57600080fd5b5061024a6106ad366004613237565b6001600160a01b03918216600090815260056020908152604080832093909416825291909152205460ff1690565b3480156106e757600080fd5b506103246106f63660046134ac565b611cdf565b34801561070757600080fd5b50610359610716366004613488565b63ffffffff60201b60209190911b1660011790565b34801561073757600080fd5b506105946107463660046134ac565b611ced565b34801561075757600080fd5b5061026f610766366004613488565b611d3c565b34801561077757600080fd5b506102fb61078636600461359d565b611d91565b60006001600160e01b031982166380ac58cd60e01b14806107bc57506001600160e01b03198216635b5e139f60e01b145b806107d757506301ffc9a760e01b6001600160e01b03198316145b92915050565b6060600180546107ec90613992565b80601f016020809104026020016040519081016040528092919081815260200182805461081890613992565b80156108655780601f1061083a57610100808354040283529160200191610865565b820191906000526020600020905b81548152906001019060200180831161084857829003601f168201915b5050505050905090565b600061087d6103bf83611ea0565b6108e65760405162461bcd60e51b815260206004820152602f60248201527f537061726b4c696e6b3a20417070726f76656420717565727920666f72206e6f60448201526e3732bc34b9ba32b73a103a37b5b2b760891b60648201526084015b60405180910390fd5b600460006108f384611ea0565b6001600160401b031681526020810191909152604001600020546001600160a01b031692915050565b600061092782610de5565b9050806001600160a01b0316836001600160a01b031614156109975760405162461bcd60e51b8152602060048201526024808201527f537061726b4c696e6b3a20417070726f76616c20746f2063757272656e74206f6044820152633bb732b960e11b60648201526084016108dd565b336001600160a01b03821614806109b357506109b381336106ad565b610a255760405162461bcd60e51b815260206004820152603b60248201527f537061726b4c696e6b3a20417070726f76652063616c6c6572206973206e6f7460448201527f206f776e6572206e6f7220617070726f76656420666f7220616c6c000000000060648201526084016108dd565b610a3783610a3284611ea0565b611f0d565b505050565b6000610a4782610aed565b610a635760405162461bcd60e51b81526004016108dd906137d3565b60005b600163ffffffff8416146107d757610a7f600182613842565b9050610a8a83611a79565b9250610a66565b610a378383610a9f84611ea0565b611f83565b6000610aaf826115cb565b610acb5760405162461bcd60e51b81526004016108dd906136f9565b5063ffffffff166000908152600760205260409020546001600160a01b031690565b6001600160401b03166000908152600660205260409020600101546001600160a01b0316151590565b610a378383610b2484611ea0565b604051806020016040528060008152506123b7565b610b4281610aed565b610b9d5760405162461bcd60e51b815260206004820152602660248201527f537061726b4c696e6b3a20546869732065646974696f6e20646f6573206e6f7460448201526508195e1a5cdd60d21b60648201526084016108dd565b6001600160401b038116600090815260066020526040902060030154600160801b90046001600160801b031615610d8c576001600160401b0381166000908152600660209081526040822060030154600160801b90046001600160801b03169190610c109084901c63ffffffff16610aa4565b6001600160401b038416600090815260066020526040902060030180546001600160801b03169055905063ffffffff8316600114610c88576000610c6683610c61602087901c63ffffffff16611d3c565b6123f0565b9050610c7a610c7485611a79565b82612412565b610c8481846138ec565b9250505b6001600160a01b038116610cef57610ca8836001600160401b0316610de5565b6001600160a01b03166108fc836001600160801b03169081150290604051600060405180830381858888f19350505050158015610ce9573d6000803e3d6000fd5b50610d1e565b610d1e610d04846001600160401b0316610de5565b6001600160a01b038316906001600160801b038516612484565b610d30836001600160401b0316610de5565b6001600160a01b0316836001600160401b03167f3dc1a77733195d8bbde8f8bc719f598f47f377c9c4b854d561b4d607a8e81f6284604051610d8191906001600160801b0391909116815260200190565b60405180910390a350505b50565b6000610d9a826115cb565b610db65760405162461bcd60e51b81526004016108dd906136f9565b63ffffffff60201b602083811b9190911660011760009081526006909152604090205460281c61ffff166107d7565b60008060066000610df585611ea0565b6001600160401b031681526020810191909152604001600020600101546001600160a01b03169050806107d75760405162461bcd60e51b815260206004820152602c60248201527f537061726b4c696e6b3a204f776e657220717565727920666f72206e6f6e657860448201526b34b9ba32b73a103a37b5b2b760a11b60648201526084016108dd565b60006107d7602083901c63ffffffff16610aa4565b33610ea76001600160401b038416610de5565b6001600160a01b031614610f0e5760405162461bcd60e51b815260206004820152602860248201527f537061726b4c696e6b3a204f6e6c79206f776e65722063616e206c6162656c206044820152671d1a1a5cc813919560c21b60648201526084016108dd565b816001600160401b03167f07fabc8249b7822cdf933a532a49e1b0589177b1683b4145ee271dbd66700dfa82604051610f4791906136e6565b60405180910390a25050565b33610f666001600160401b038416610de5565b6001600160a01b031614610fd05760405162461bcd60e51b815260206004820152602b60248201527f537061726b4c696e6b3a204f6e6c79206f776e65722063616e2073657420746860448201526a6520746f6b656e2055524960a81b60648201526084016108dd565b610fda82826124e7565b5050565b60006001600160a01b03821661104c5760405162461bcd60e51b815260206004820152602d60248201527f537061726b4c696e6b3a2042616c616e636520717565727920666f722074686560448201526c207a65726f206164647265737360981b60648201526084016108dd565b506001600160a01b03166000908152600360205260409020546001600160401b031690565b61107b8383611d91565b61108e81846001600160401b031661091c565b6040516001600160801b03831681526001600160a01b038216906001600160401b038516907ff4a029974225230e783a906bf72b4c1037aee2b37958b9a6b5e689da1477729b90602001610d81565b6060600280546107ec90613992565b6001600160a01b0382163314156111455760405162461bcd60e51b815260206004820152601c60248201527f537061726b4c696e6b3a20417070726f766520746f2063616c6c65720000000060448201526064016108dd565b3360008181526005602090815260408083206001600160a01b03871680855290835292819020805460ff191686151590811790915590519081529192917f17307eab39ab6107e8899845ad3d59bd9653f200f220920489ca2b5937696c31910160405180910390a35050565b60648460ff1611156112175760405162461bcd60e51b815260206004820152602960248201527f537061726b4c696e6b3a20526f79616c7479206665652073686f756c64206265604482015268101e1e90189818129760b91b60648201526084016108dd565b611225600080546001019055565b63ffffffff61123360005490565b11156112925760405162461bcd60e51b815260206004820152602860248201527f537061726b4c696e6b3a2056616c756520646f65736e27742066697420696e206044820152671999103134ba399760c11b60648201526084016108dd565b6001600160a01b03811615611361576000816001600160a01b03166318160ddd6040518163ffffffff1660e01b815260040160206040518083038186803b1580156112dc57600080fd5b505afa1580156112f0573d6000803e3d6000fd5b505050506040513d601f19601f820116820180604052508101906113149190613470565b116113615760405162461bcd60e51b815260206004820152601f60248201527f4e6f7420612076616c696420455243323020746f6b656e20616464726573730060448201526064016108dd565b60008054906001602083901b63ffffffff60201b161790506113956000338360405180602001604052806000815250612549565b6113b15760405162461bcd60e51b81526004016108dd9061377e565b6001600160401b038116600090815260066020526040902066ffff000000000019603888901b16602887901b176113e9600182613842565b63ffffffff8516600090815260076020908152604080832080546001600160a01b038b166001600160a01b03199182161790915586546001600160801b038f16600160401b02600160401b600160c01b031961ffff8f16600160c01b0267ffffffffffffffff61ffff60c01b01199093166001600160401b03808a169190911793909317161788556001888101805490931633908117909355600289018d90559185526003909352908320805494955090939092916114aa91859116613842565b92506101000a8154816001600160401b0302191690836001600160401b03160217905550826001600160401b0316336001600160a01b031660006001600160a01b03167fddf252ad1be2c89b69c2b068fc378daa952ba7f163c4a11628f55a4df523b3ef60405160405180910390a4604080516001600160401b03851681526001600160a01b0387166020820152339163ffffffff8716917f4b25b7136229543eb768e15e7273fa4af7a401e10cecc98245c87a4ca63a706d910160405180910390a3505050505050505050565b600061158382610aed565b61159f5760405162461bcd60e51b81526004016108dd906137d3565b506001600160401b0316600090815260066020526040902054600160401b90046001600160801b031690565b60006107d76001602084901b63ffffffff60201b1617610aed565b61163085856115f486611ea0565b85858080601f0160208091040260200160405190810160405280939291908181526020018383808284376000920191909152506123b792505050565b5050505050565b61164081610aed565b61165c5760405162461bcd60e51b81526004016108dd9061373c565b6001600160401b038116600090815260066020526040902054600160c01b900461ffff166116f25760405162461bcd60e51b815260206004820152603860248201527f537061726b4c696e6b3a205468657265206973206e6f2072656d61696e696e6760448201527f207368696c6c2074696d6520666f722074686973204e4654000000000000000060648201526084016108dd565b6000611707602083901c63ffffffff16610aa4565b90506001600160a01b0381166117c0576001600160401b038216600090815260066020526040902054600160401b90046001600160801b031634146117875760405162461bcd60e51b8152602060048201526016602482015275537061726b4c696e6b3a2057726f6e6720707269636560501b60448201526064016108dd565b6001600160401b0382166000908152600660205260409020546117bb908390600160401b90046001600160801b0316612412565b611918565b6040516370a0823160e01b81523060048201526000906001600160a01b038316906370a082319060240160206040518083038186803b15801561180257600080fd5b505afa158015611816573d6000803e3d6000fd5b505050506040513d601f19601f8201168201806040525081019061183a9190613470565b6001600160401b03841660009081526006602052604090205490915061187e906001600160a01b0384169033903090600160401b90046001600160801b0316612656565b6040516370a0823160e01b81523060048201526119169084906119119084906001600160a01b038716906370a08231906024015b60206040518083038186803b1580156118ca57600080fd5b505afa1580156118de573d6000803e3d6000fd5b505050506040513d601f19601f820116820180604052508101906119029190613470565b61190c919061392f565b61268e565b612412565b505b6001600160401b038216600090815260066020526040902080546001919060189061194f908490600160c01b900461ffff16613914565b92506101000a81548161ffff021916908361ffff16021790555061197382336126f8565b506001600160401b038216600090815260066020526040902054600160c01b900461ffff16610fda57610a37826119b2846001600160401b0316610de5565b6126f8565b60006119c282610aed565b6119de5760405162461bcd60e51b81526004016108dd906137d3565b6001600160401b038216600090815260066020526040902060030154600160801b90046001600160801b0316611a1a8363ffffffff1660011490565b6107d7576001600160401b038316600090815260066020526040812060030154611a65906001600160801b03600160801b90910416610c616107668763ffffffff60209190911c1690565b9050611a7181836138ec565b949350505050565b6000611a8482610aed565b611aa05760405162461bcd60e51b81526004016108dd906137d3565b600163ffffffff83161415611b0c5760405162461bcd60e51b815260206004820152602c60248201527f537061726b4c696e6b3a20526f6f74204e465420646f65736e2774206861766560448201526b103330ba3432b91027232a1760a11b60648201526084016108dd565b506001600160401b039081166000908152600660205260409020541690565b6060611b396103bf83611ea0565b611b985760405162461bcd60e51b815260206004820152602a60248201527f537061726b4c696e6b3a2055524920717565727920666f72206e6f6e657869736044820152693a32b73a103a37b5b2b760b11b60648201526084016108dd565b600060066000611ba785611ea0565b6001600160401b03166001600160401b031681526020019081526020016000206002015490506000611bd8826128f9565b90506000611c0e60408051808201909152601581527468747470733a2f2f697066732e696f2f697066732f60581b602082015290565b90508082604051602001611c23929190613672565b6040516020818303038152906040529350505050919050565b6000611c47826115cb565b611c635760405162461bcd60e51b81526004016108dd906136f9565b63ffffffff60201b602083811b9190911660011760009081526006909152604090205463ffffffff166107d7565b6000611c9c82610aed565b611cb85760405162461bcd60e51b81526004016108dd906137d3565b506001600160401b0316600090815260066020526040902054600160c01b900461ffff1690565b600063ffffffff82166107d7565b6000611cf882610aed565b611d145760405162461bcd60e51b81526004016108dd906137d3565b506001600160401b03166000908152600660205260409020600301546001600160801b031690565b6000611d47826115cb565b611d635760405162461bcd60e51b81526004016108dd906136f9565b63ffffffff60201b602083811b9190911660011760009081526006909152604090205460381c60ff166107d7565b611d9a82610aed565b611db65760405162461bcd60e51b81526004016108dd9061373c565b611dc8826001600160401b0316610de5565b6001600160a01b0316336001600160a01b031614611e385760405162461bcd60e51b815260206004820152602760248201527f537061726b4c696e6b3a204f6e6c79206f776e65722063616e207365742074686044820152666520707269636560c81b60648201526084016108dd565b6001600160401b03821660008181526006602090815260409182902060030180546001600160801b0319166001600160801b03861690811790915591519182527fca72e8ac93611c80ca0e2046cbd0f09834fcca6a61e4979bd62bb6765ff7a9e79101610f47565b60006001600160401b03821115611f095760405162461bcd60e51b815260206004820152602760248201527f537061726b4c696e6b3a2056616c756520646f65736e27742066697420696e206044820152663634206269747360c81b60648201526084016108dd565b5090565b6001600160401b038116600081815260046020526040902080546001600160a01b0319166001600160a01b038516908117909155611f4a82610de5565b6001600160a01b03167f8c5be1e5ebec7d5bd14f71427d1e84f3dd0314c0f7b2291e5b200ac8c7c3b92560405160405180910390a45050565b826001600160a01b0316611f9f826001600160401b0316610de5565b6001600160a01b03161461200a5760405162461bcd60e51b815260206004820152602c60248201527f537061726b4c696e6b3a205472616e73666572206f6620746f6b656e2074686160448201526b3a1034b9903737ba1037bbb760a11b60648201526084016108dd565b6120143382612b0f565b61207d5760405162461bcd60e51b815260206004820152603460248201527f537061726b4c696e6b3a205472616e736665722063616c6c6572206973206e6f6044820152731d081bdddb995c881b9bdc88185c1c1c9bdd995960621b60648201526084016108dd565b6001600160a01b0382166120e35760405162461bcd60e51b815260206004820152602760248201527f537061726b4c696e6b3a205472616e7366657220746f20746865207a65726f206044820152666164647265737360c81b60648201526084016108dd565b6120f5816001600160401b0316610de5565b6001600160a01b0316336001600160a01b0316146122a3576000612122602083901c63ffffffff16610aa4565b6001600160401b0383166000908152600660205260409020600301549091506001600160801b03166001600160a01b0382166121bf57806001600160801b031634146121b05760405162461bcd60e51b815260206004820152601860248201527f537061726b4c696e6b3a205072696365206e6f74206d6574000000000000000060448201526064016108dd565b6121ba8382612412565b612293565b6040516370a0823160e01b81523060048201526000906001600160a01b038416906370a082319060240160206040518083038186803b15801561220157600080fd5b505afa158015612215573d6000803e3d6000fd5b505050506040513d601f19601f820116820180604052508101906122399190613470565b90506122596001600160a01b03841633306001600160801b038616612656565b6040516370a0823160e01b81523060048201526122919085906119119084906001600160a01b038816906370a08231906024016118b2565b505b61229c83610b39565b50506122ac565b6122ac81610b39565b6122b581612c0a565b6001600160a01b03831660009081526003602052604081208054600192906122e79084906001600160401b0316613946565b82546101009290920a6001600160401b038181021990931691831602179091556001600160a01b0384166000908152600360205260408120805460019450909261233391859116613842565b82546101009290920a6001600160401b03818102199093169183160217909155821660008181526006602052604080822060010180546001600160a01b0319166001600160a01b0388811691821790925591519394509092908716917fddf252ad1be2c89b69c2b068fc378daa952ba7f163c4a11628f55a4df523b3ef91a4505050565b6123c2848484611f83565b6123ce84848484612549565b6123ea5760405162461bcd60e51b81526004016108dd9061377e565b50505050565b6000606461240160ff84168561389e565b61240b9190613864565b9392505050565b6001600160401b038216600090815260066020526040902060030154612449908290600160801b90046001600160801b0316613808565b6001600160401b03909216600090815260066020526040902060030180546001600160801b03938416600160801b0293169290921790915550565b6040516001600160a01b038316602482015260448101829052610a3790849063a9059cbb60e01b906064015b60408051601f198184030181529190526020810180516001600160e01b03166001600160e01b031990931692909217909152612c3f565b6001600160401b038216600081815260066020908152604091829020600201805490859055825181815291820185905292917f901ae3afe5e7d5594d462fab7cb487880c27d5fc0e3863487a5cfd2a08d350ed910160405180910390a2505050565b60006001600160a01b0384163b1561264b57604051630a85bd0160e11b81526001600160a01b0385169063150b7a029061258d9033908990889088906004016136a1565b602060405180830381600087803b1580156125a757600080fd5b505af19250505080156125d7575060408051601f3d908101601f191682019092526125d4918101906133d0565b60015b612631573d808015612605576040519150601f19603f3d011682016040523d82523d6000602084013e61260a565b606091505b5080516126295760405162461bcd60e51b81526004016108dd9061377e565b805181602001fd5b6001600160e01b031916630a85bd0160e11b149050611a71565b506001949350505050565b6040516001600160a01b03808516602483015283166044820152606481018290526123ea9085906323b872dd60e01b906084016124b0565b60006001600160801b03821115611f095760405162461bcd60e51b815260206004820152602860248201527f537061726b4c696e6b3a2056616c756520646f65736e27742066697420696e20604482015267313238206269747360c01b60648201526084016108dd565b600063ffffffff602084901c1661270e81612d11565b600061271982611c3c565b9050600063ffffffff60201b602084901b1663ffffffff83161790506127516000868360405180602001604052806000815250612549565b61276d5760405162461bcd60e51b81526004016108dd9061377e565b6001600160401b038116600090815260066020526040902061278e84610d8f565b815467ffffffffffffffff61ffff60c01b011916600160c01b61ffff929092169190910267ffffffffffffffff1916176001600160401b03881690811782556000908152600660205260409020546127f790600160401b90046001600160801b0316605a6123f0565b81546001600160801b0391909116600160401b02600160401b600160c01b0319909116178155600180820180546001600160a01b0389166001600160a01b031990911681179091556001600160401b03808a1660009081526006602090815260408083206002908101549088015593825260039052918220805490929161288091859116613842565b92506101000a8154816001600160401b0302191690836001600160401b03160217905550816001600160401b0316866001600160a01b031660006001600160a01b03167fddf252ad1be2c89b69c2b068fc378daa952ba7f163c4a11628f55a4df523b3ef60405160405180910390a45095945050505050565b60606000604051806040016040528060028152602001609160f51b81525083604051602001612929929190613650565b60408051601f1981840301815281835261082083018252925060009190602082016108008036833701905050905060008160008151811061297a57634e487b7160e01b600052603260045260246000fd5b60ff90921660209283029190910190910152600160005b8351811015612aeb5760008482815181106129bc57634e487b7160e01b600052603260045260246000fd5b016020015160f81c905060005b8360ff16811015612a72578481815181106129f457634e487b7160e01b600052603260045260246000fd5b602002602001015160ff16610100612a0c91906138cd565b612a16908361382a565b9150612a23603a83613a08565b858281518110612a4357634e487b7160e01b600052603260045260246000fd5b60ff90921660209283029190910190910152612a60603a8361388a565b9150612a6b816139cd565b90506129c9565b505b8015612ada57612a85603a82613a08565b848460ff1681518110612aa857634e487b7160e01b600052603260045260246000fd5b60ff9092166020928302919091019091015282612ac4816139e8565b9350612ad39050603a8261388a565b9050612a74565b50612ae4816139cd565b9050612991565b50612b06612b01612afc8484612de5565b612ec0565b612fae565b95945050505050565b6000612b1a82610aed565b612b7e5760405162461bcd60e51b815260206004820152602f60248201527f537061726b4c696e6b3a204f70657261746f7220717565727920666f72206e6f60448201526e3732bc34b9ba32b73a103a37b5b2b760891b60648201526084016108dd565b6000612b92836001600160401b0316610de5565b9050806001600160a01b0316846001600160a01b03161480612bd65750836001600160a01b0316612bcb846001600160401b031661086f565b6001600160a01b0316145b80611a7157506001600160a01b0380821660009081526005602090815260408083209388168352929052205460ff16611a71565b612c15600082611f0d565b6001600160401b0316600090815260066020526040902060030180546001600160801b0319169055565b6000612c94826040518060400160405280602081526020017f5361666545524332303a206c6f772d6c6576656c2063616c6c206661696c6564815250856001600160a01b03166130c89092919063ffffffff16565b805190915015610a375780806020019051810190612cb29190613398565b610a375760405162461bcd60e51b815260206004820152602a60248201527f5361666545524332303a204552433230206f7065726174696f6e20646964206e6044820152691bdd081cdd58d8d9595960b21b60648201526084016108dd565b63ffffffff612d1f82611c3c565b63ffffffff1610612d855760405162461bcd60e51b815260206004820152602a60248201527f537061726b4c696e6b3a205468657265206973206e6f206c65667420696e20746044820152693434b99034b9b9bab29760b11b60648201526084016108dd565b6001602082811b63ffffffff60201b16821760009081526006909152604081208054909190612dbe9084906001600160401b0316613842565b92506101000a8154816001600160401b0302191690836001600160401b0316021790555050565b606060008260ff166001600160401b03811115612e1257634e487b7160e01b600052604160045260246000fd5b604051908082528060200260200182016040528015612e3b578160200160208202803683370190505b50905060005b8360ff16811015612eb857848181518110612e6c57634e487b7160e01b600052603260045260246000fd5b6020026020010151828281518110612e9457634e487b7160e01b600052603260045260246000fd5b60ff9092166020928302919091019091015280612eb0816139cd565b915050612e41565b509392505050565b6060600082516001600160401b03811115612eeb57634e487b7160e01b600052604160045260246000fd5b604051908082528060200260200182016040528015612f14578160200160208202803683370190505b50905060005b8351811015612fa757838160018651612f33919061392f565b612f3d919061392f565b81518110612f5b57634e487b7160e01b600052603260045260246000fd5b6020026020010151828281518110612f8357634e487b7160e01b600052603260045260246000fd5b60ff9092166020928302919091019091015280612f9f816139cd565b915050612f1a565b5092915050565b6060600082516001600160401b03811115612fd957634e487b7160e01b600052604160045260246000fd5b6040519080825280601f01601f191660200182016040528015613003576020820181803683370190505b50905060005b8351811015612fa7576040518060600160405280603a8152602001613a83603a913984828151811061304b57634e487b7160e01b600052603260045260246000fd5b602002602001015160ff168151811061307457634e487b7160e01b600052603260045260246000fd5b602001015160f81c60f81b82828151811061309f57634e487b7160e01b600052603260045260246000fd5b60200101906001600160f81b031916908160001a905350806130c0816139cd565b915050613009565b6060611a71848460008585843b6131215760405162461bcd60e51b815260206004820152601d60248201527f416464726573733a2063616c6c20746f206e6f6e2d636f6e747261637400000060448201526064016108dd565b600080866001600160a01b0316858760405161313d9190613634565b60006040518083038185875af1925050503d806000811461317a576040519150601f19603f3d011682016040523d82523d6000602084013e61317f565b606091505b509150915061318f82828661319a565b979650505050505050565b606083156131a957508161240b565b8251156131b95782518084602001fd5b8160405162461bcd60e51b81526004016108dd91906136e6565b80356001600160a01b03811681146131ea57600080fd5b919050565b80356001600160801b03811681146131ea57600080fd5b80356001600160401b03811681146131ea57600080fd5b60006020828403121561322e578081fd5b61240b826131d3565b60008060408385031215613249578081fd5b613252836131d3565b9150613260602084016131d3565b90509250929050565b60008060006060848603121561327d578081fd5b613286846131d3565b9250613294602085016131d3565b9150604084013590509250925092565b6000806000806000608086880312156132bb578081fd5b6132c4866131d3565b94506132d2602087016131d3565b93506040860135925060608601356001600160401b03808211156132f4578283fd5b818801915088601f830112613307578283fd5b813581811115613315578384fd5b896020828501011115613326578384fd5b9699959850939650602001949392505050565b6000806040838503121561334b578182fd5b613354836131d3565b9150602083013561336481613a5e565b809150509250929050565b60008060408385031215613381578182fd5b61338a836131d3565b946020939093013593505050565b6000602082840312156133a9578081fd5b815161240b81613a5e565b6000602082840312156133c5578081fd5b813561240b81613a6c565b6000602082840312156133e1578081fd5b815161240b81613a6c565b600080600080600060a08688031215613403578081fd5b61340c866131ef565b9450602086013560ff81168114613421578182fd5b9350604086013561ffff81168114613437578182fd5b92506060860135915061344c608087016131d3565b90509295509295909350565b600060208284031215613469578081fd5b5035919050565b600060208284031215613481578081fd5b5051919050565b600060208284031215613499578081fd5b813563ffffffff8116811461240b578182fd5b6000602082840312156134bd578081fd5b61240b82613206565b600080604083850312156134d8578182fd5b61338a83613206565b600080604083850312156134f3578182fd5b6134fc83613206565b915060208301356001600160401b0380821115613517578283fd5b818501915085601f83011261352a578283fd5b81358181111561353c5761353c613a48565b604051601f8201601f19908116603f0116810190838211818310171561356457613564613a48565b8160405282815288602084870101111561357c578586fd5b82602086016020830137856020848301015280955050505050509250929050565b600080604083850312156135af578182fd5b6135b883613206565b9150613260602084016131ef565b6000806000606084860312156135da578081fd5b6135e384613206565b92506135f1602085016131ef565b91506135ff604085016131d3565b90509250925092565b60008151808452613620816020860160208601613966565b601f01601f19169290920160200192915050565b60008251613646818460208701613966565b9190910192915050565b60008351613662818460208801613966565b9190910191825250602001919050565b60008351613684818460208801613966565b835190830190613698818360208801613966565b01949350505050565b6001600160a01b038581168252841660208201526001600160401b03831660408201526080606082018190526000906136dc90830184613608565b9695505050505050565b60208152600061240b6020830184613608565b60208082526023908201527f537061726b4c696e6b3a2054686973206973737565206973206e6f742065786960408201526239ba1760e91b606082015260800190565b60208082526022908201527f537061726b4c696e6b3a2054686973204e465420646f6573206e6f74206578696040820152611cdd60f21b606082015260800190565b60208082526035908201527f537061726b4c696e6b3a205472616e7366657220746f206e6f6e20455243373260408201527418a932b1b2b4bb32b91034b6b83632b6b2b73a32b960591b606082015260800190565b6020808252818101527f537061726b4c696e6b3a2045646974696f6e206973206e6f742065786973742e604082015260600190565b60006001600160801b0380831681851680830382111561369857613698613a1c565b6000821982111561383d5761383d613a1c565b500190565b60006001600160401b0380831681851680830382111561369857613698613a1c565b60006001600160801b038084168061387e5761387e613a32565b92169190910492915050565b60008261389957613899613a32565b500490565b60006001600160801b03808316818516818304811182151516156138c4576138c4613a1c565b02949350505050565b60008160001904831182151516156138e7576138e7613a1c565b500290565b60006001600160801b038381169083168181101561390c5761390c613a1c565b039392505050565b600061ffff8381169083168181101561390c5761390c613a1c565b60008282101561394157613941613a1c565b500390565b60006001600160401b038381169083168181101561390c5761390c613a1c565b60005b83811015613981578181015183820152602001613969565b838111156123ea5750506000910152565b600181811c908216806139a657607f821691505b602082108114156139c757634e487b7160e01b600052602260045260246000fd5b50919050565b60006000198214156139e1576139e1613a1c565b5060010190565b600060ff821660ff8114156139ff576139ff613a1c565b60010192915050565b600082613a1757613a17613a32565b500690565b634e487b7160e01b600052601160045260246000fd5b634e487b7160e01b600052601260045260246000fd5b634e487b7160e01b600052604160045260246000fd5b8015158114610d8c57600080fd5b6001600160e01b031981168114610d8c57600080fdfe31323334353637383941424344454647484a4b4c4d4e505152535455565758595a6162636465666768696a6b6d6e6f707172737475767778797aa2646970667358221220729a0804d15cb9dc18e1e2dad76a8d2d41d2a62f5e1eb3eddecf8883b0f2bec364736f6c63430008040033",
  "linkReferences": {},
  "deployedLinkReferences": {}
}