{
  "_format": "hh-sol-artifact-1",
  "contractName": "SparkLink",
  "sourceName": "contracts/SparkLink.sol",
  "abi": [
    {
      "inputs": [],
      "stateMutability": "nonpayable",
      "type": "constructor"
    },
    {
      "anonymous": false,
      "inputs": [
        {
          "indexed": true,
          "internalType": "address",
          "name": "owner",
          "type": "address"
        },
        {
          "indexed": true,
          "internalType": "address",
          "name": "approved",
          "type": "address"
        },
        {
          "indexed": true,
          "internalType": "uint256",
          "name": "tokenId",
          "type": "uint256"
        }
      ],
      "name": "Approval",
      "type": "event"
    },
    {
      "anonymous": false,
      "inputs": [
        {
          "indexed": true,
          "internalType": "address",
          "name": "owner",
          "type": "address"
        },
        {
          "indexed": true,
          "internalType": "address",
          "name": "operator",
          "type": "address"
        },
        {
          "indexed": false,
          "internalType": "bool",
          "name": "approved",
          "type": "bool"
        }
      ],
      "name": "ApprovalForAll",
      "type": "event"
    },
    {
      "anonymous": false,
      "inputs": [
        {
          "indexed": true,
          "internalType": "uint64",
          "name": "NFT_id",
          "type": "uint64"
        },
        {
          "indexed": true,
          "internalType": "address",
          "name": "receiver",
          "type": "address"
        },
        {
          "indexed": false,
          "internalType": "uint128",
          "name": "amount",
          "type": "uint128"
        }
      ],
      "name": "Claim",
      "type": "event"
    },
    {
      "anonymous": false,
      "inputs": [
        {
          "indexed": true,
          "internalType": "uint64",
          "name": "NFT_id",
          "type": "uint64"
        },
        {
          "indexed": false,
          "internalType": "uint128",
          "name": "transfer_price",
          "type": "uint128"
        }
      ],
      "name": "DeterminePrice",
      "type": "event"
    },
    {
      "anonymous": false,
      "inputs": [
        {
          "indexed": true,
          "internalType": "uint64",
          "name": "NFT_id",
          "type": "uint64"
        },
        {
          "indexed": false,
          "internalType": "uint128",
          "name": "transfer_price",
          "type": "uint128"
        },
        {
          "indexed": true,
          "internalType": "address",
          "name": "to",
          "type": "address"
        }
      ],
      "name": "DeterminePriceAndApprove",
      "type": "event"
    },
    {
      "anonymous": false,
      "inputs": [
        {
          "indexed": true,
          "internalType": "uint64",
          "name": "NFT_id",
          "type": "uint64"
        },
        {
          "indexed": false,
          "internalType": "string",
          "name": "content",
          "type": "string"
        }
      ],
      "name": "Label",
      "type": "event"
    },
    {
      "anonymous": false,
      "inputs": [
        {
          "indexed": true,
          "internalType": "uint32",
          "name": "issue_id",
          "type": "uint32"
        },
        {
          "indexed": true,
          "internalType": "address",
          "name": "publisher",
          "type": "address"
        },
        {
          "indexed": false,
          "internalType": "uint64",
          "name": "rootNFTId",
          "type": "uint64"
        }
      ],
      "name": "Publish",
      "type": "event"
    },
    {
      "anonymous": false,
      "inputs": [
        {
          "indexed": true,
          "internalType": "uint64",
          "name": "NFT_id",
          "type": "uint64"
        },
        {
          "indexed": false,
          "internalType": "bytes32",
          "name": "old_URI",
          "type": "bytes32"
        },
        {
          "indexed": false,
          "internalType": "bytes32",
          "name": "new_URI",
          "type": "bytes32"
        }
      ],
      "name": "SetURI",
      "type": "event"
    },
    {
      "anonymous": false,
      "inputs": [
        {
          "indexed": true,
          "internalType": "address",
          "name": "from",
          "type": "address"
        },
        {
          "indexed": true,
          "internalType": "address",
          "name": "to",
          "type": "address"
        },
        {
          "indexed": true,
          "internalType": "uint256",
          "name": "tokenId",
          "type": "uint256"
        }
      ],
      "name": "Transfer",
      "type": "event"
    },
    {
      "inputs": [
        {
          "internalType": "uint64",
          "name": "_NFT_id",
          "type": "uint64"
        }
      ],
      "name": "acceptShill",
      "outputs": [],
      "stateMutability": "payable",
      "type": "function"
    },
    {
      "inputs": [
        {
          "internalType": "address",
          "name": "to",
          "type": "address"
        },
        {
          "internalType": "uint256",
          "name": "tokenId",
          "type": "uint256"
        }
      ],
      "name": "approve",
      "outputs": [],
      "stateMutability": "nonpayable",
      "type": "function"
    },
    {
      "inputs": [
        {
          "internalType": "address",
          "name": "owner",
          "type": "address"
        }
      ],
      "name": "balanceOf",
      "outputs": [
        {
          "internalType": "uint256",
          "name": "",
          "type": "uint256"
        }
      ],
      "stateMutability": "view",
      "type": "function"
    },
    {
      "inputs": [
        {
          "internalType": "uint64",
          "name": "_NFT_id",
          "type": "uint64"
        }
      ],
      "name": "claimProfit",
      "outputs": [],
      "stateMutability": "nonpayable",
      "type": "function"
    },
    {
      "inputs": [
        {
          "internalType": "uint64",
          "name": "_NFT_id",
          "type": "uint64"
        },
        {
          "internalType": "uint128",
          "name": "_price",
          "type": "uint128"
        }
      ],
      "name": "determinePrice",
      "outputs": [],
      "stateMutability": "nonpayable",
      "type": "function"
    },
    {
      "inputs": [
        {
          "internalType": "uint64",
          "name": "_NFT_id",
          "type": "uint64"
        },
        {
          "internalType": "uint128",
          "name": "_price",
          "type": "uint128"
        },
        {
          "internalType": "address",
          "name": "_to",
          "type": "address"
        }
      ],
      "name": "determinePriceAndApprove",
      "outputs": [],
      "stateMutability": "nonpayable",
      "type": "function"
    },
    {
      "inputs": [
        {
          "internalType": "uint256",
          "name": "tokenId",
          "type": "uint256"
        }
      ],
      "name": "getApproved",
      "outputs": [
        {
          "internalType": "address",
          "name": "",
          "type": "address"
        }
      ],
      "stateMutability": "view",
      "type": "function"
    },
    {
      "inputs": [
        {
          "internalType": "uint64",
          "name": "_NFT_id",
          "type": "uint64"
        }
      ],
      "name": "getDepthByNFTId",
      "outputs": [
        {
          "internalType": "uint64",
          "name": "",
          "type": "uint64"
        }
      ],
      "stateMutability": "view",
      "type": "function"
    },
    {
      "inputs": [
        {
          "internalType": "uint64",
          "name": "_NFT_id",
          "type": "uint64"
        }
      ],
      "name": "getEditionIdByNFTId",
      "outputs": [
        {
          "internalType": "uint32",
          "name": "",
          "type": "uint32"
        }
      ],
      "stateMutability": "pure",
      "type": "function"
    },
    {
      "inputs": [
        {
          "internalType": "uint64",
          "name": "_NFT_id",
          "type": "uint64"
        }
      ],
      "name": "getFatherByNFTId",
      "outputs": [
        {
          "internalType": "uint64",
          "name": "",
          "type": "uint64"
        }
      ],
      "stateMutability": "view",
      "type": "function"
    },
    {
      "inputs": [
        {
          "internalType": "uint64",
          "name": "_NFT_id",
          "type": "uint64"
        }
      ],
      "name": "getIssueIdByNFTId",
      "outputs": [
        {
          "internalType": "uint32",
          "name": "",
          "type": "uint32"
        }
      ],
      "stateMutability": "pure",
      "type": "function"
    },
    {
      "inputs": [],
      "name": "getLossRatio",
      "outputs": [
        {
          "internalType": "uint8",
          "name": "",
          "type": "uint8"
        }
      ],
      "stateMutability": "pure",
      "type": "function"
    },
    {
      "inputs": [
        {
          "internalType": "uint64",
          "name": "_NFT_id",
          "type": "uint64"
        }
      ],
      "name": "getProfitByNFTId",
      "outputs": [
        {
          "internalType": "uint128",
          "name": "",
          "type": "uint128"
        }
      ],
      "stateMutability": "view",
      "type": "function"
    },
    {
      "inputs": [
        {
          "internalType": "uint64",
          "name": "_NFT_id",
          "type": "uint64"
        }
      ],
      "name": "getRemainShillTimesByNFTId",
      "outputs": [
        {
          "internalType": "uint8",
          "name": "",
          "type": "uint8"
        }
      ],
      "stateMutability": "view",
      "type": "function"
    },
    {
      "inputs": [
        {
          "internalType": "uint32",
          "name": "_issue_id",
          "type": "uint32"
        }
      ],
      "name": "getRootNFTIdByIssueId",
      "outputs": [
        {
          "internalType": "uint64",
          "name": "",
          "type": "uint64"
        }
      ],
      "stateMutability": "pure",
      "type": "function"
    },
    {
      "inputs": [
        {
          "internalType": "uint32",
          "name": "_issue_id",
          "type": "uint32"
        }
      ],
      "name": "getRoyaltyFeeByIssueId",
      "outputs": [
        {
          "internalType": "uint8",
          "name": "",
          "type": "uint8"
        }
      ],
      "stateMutability": "view",
      "type": "function"
    },
    {
      "inputs": [
        {
          "internalType": "uint64",
          "name": "_NFT_id",
          "type": "uint64"
        }
      ],
      "name": "getShillPriceByNFTId",
      "outputs": [
        {
          "internalType": "uint128",
          "name": "",
          "type": "uint128"
        }
      ],
      "stateMutability": "view",
      "type": "function"
    },
    {
      "inputs": [
        {
          "internalType": "uint32",
          "name": "_issue_id",
          "type": "uint32"
        }
      ],
      "name": "getShillTimesByIssueId",
      "outputs": [
        {
          "internalType": "uint8",
          "name": "",
          "type": "uint8"
        }
      ],
      "stateMutability": "view",
      "type": "function"
    },
    {
      "inputs": [
        {
          "internalType": "uint32",
          "name": "_issue_id",
          "type": "uint32"
        }
      ],
      "name": "getTotalAmountByIssueId",
      "outputs": [
        {
          "internalType": "uint32",
          "name": "",
          "type": "uint32"
        }
      ],
      "stateMutability": "view",
      "type": "function"
    },
    {
      "inputs": [
        {
          "internalType": "uint64",
          "name": "_NFT_id",
          "type": "uint64"
        }
      ],
      "name": "getTransferPriceByNFTId",
      "outputs": [
        {
          "internalType": "uint128",
          "name": "",
          "type": "uint128"
        }
      ],
      "stateMutability": "view",
      "type": "function"
    },
    {
      "inputs": [
        {
          "internalType": "address",
          "name": "owner",
          "type": "address"
        },
        {
          "internalType": "address",
          "name": "operator",
          "type": "address"
        }
      ],
      "name": "isApprovedForAll",
      "outputs": [
        {
          "internalType": "bool",
          "name": "",
          "type": "bool"
        }
      ],
      "stateMutability": "view",
      "type": "function"
    },
    {
      "inputs": [
        {
          "internalType": "uint64",
          "name": "_NFT_id",
          "type": "uint64"
        }
      ],
      "name": "isEditionExisting",
      "outputs": [
        {
          "internalType": "bool",
          "name": "",
          "type": "bool"
        }
      ],
      "stateMutability": "view",
      "type": "function"
    },
    {
      "inputs": [
        {
          "internalType": "uint32",
          "name": "_issue_id",
          "type": "uint32"
        }
      ],
      "name": "isIssueExisting",
      "outputs": [
        {
          "internalType": "bool",
          "name": "",
          "type": "bool"
        }
      ],
      "stateMutability": "view",
      "type": "function"
    },
    {
      "inputs": [
        {
          "internalType": "uint64",
          "name": "_NFT_id",
          "type": "uint64"
        }
      ],
      "name": "isRootNFT",
      "outputs": [
        {
          "internalType": "bool",
          "name": "",
          "type": "bool"
        }
      ],
      "stateMutability": "pure",
      "type": "function"
    },
    {
      "inputs": [
        {
          "internalType": "uint64",
          "name": "_NFT_id",
          "type": "uint64"
        },
        {
          "internalType": "string",
          "name": "content",
          "type": "string"
        }
      ],
      "name": "label",
      "outputs": [],
      "stateMutability": "nonpayable",
      "type": "function"
    },
    {
      "inputs": [],
      "name": "name",
      "outputs": [
        {
          "internalType": "string",
          "name": "",
          "type": "string"
        }
      ],
      "stateMutability": "view",
      "type": "function"
    },
    {
      "inputs": [
        {
          "internalType": "uint256",
          "name": "tokenId",
          "type": "uint256"
        }
      ],
      "name": "ownerOf",
      "outputs": [
        {
          "internalType": "address",
          "name": "",
          "type": "address"
        }
      ],
      "stateMutability": "view",
      "type": "function"
    },
    {
      "inputs": [
        {
          "internalType": "uint128",
          "name": "_first_sell_price",
          "type": "uint128"
        },
        {
          "internalType": "uint8",
          "name": "_royalty_fee",
          "type": "uint8"
        },
        {
          "internalType": "uint8",
          "name": "_shill_times",
          "type": "uint8"
        },
        {
          "internalType": "bytes32",
          "name": "_ipfs_hash",
          "type": "bytes32"
        }
      ],
      "name": "publish",
      "outputs": [],
      "stateMutability": "nonpayable",
      "type": "function"
    },
    {
      "inputs": [
        {
          "internalType": "address",
          "name": "from",
          "type": "address"
        },
        {
          "internalType": "address",
          "name": "to",
          "type": "address"
        },
        {
          "internalType": "uint256",
          "name": "tokenId",
          "type": "uint256"
        }
      ],
      "name": "safeTransferFrom",
      "outputs": [],
      "stateMutability": "payable",
      "type": "function"
    },
    {
      "inputs": [
        {
          "internalType": "address",
          "name": "from",
          "type": "address"
        },
        {
          "internalType": "address",
          "name": "to",
          "type": "address"
        },
        {
          "internalType": "uint256",
          "name": "tokenId",
          "type": "uint256"
        },
        {
          "internalType": "bytes",
          "name": "_data",
          "type": "bytes"
        }
      ],
      "name": "safeTransferFrom",
      "outputs": [],
      "stateMutability": "payable",
      "type": "function"
    },
    {
      "inputs": [
        {
          "internalType": "address",
          "name": "operator",
          "type": "address"
        },
        {
          "internalType": "bool",
          "name": "approved",
          "type": "bool"
        }
      ],
      "name": "setApprovalForAll",
      "outputs": [],
      "stateMutability": "nonpayable",
      "type": "function"
    },
    {
      "inputs": [
        {
          "internalType": "uint64",
          "name": "_NFT_id",
          "type": "uint64"
        },
        {
          "internalType": "bytes32",
          "name": "ipfs_hash",
          "type": "bytes32"
        }
      ],
      "name": "setURI",
      "outputs": [],
      "stateMutability": "nonpayable",
      "type": "function"
    },
    {
      "inputs": [
        {
          "internalType": "bytes4",
          "name": "interfaceId",
          "type": "bytes4"
        }
      ],
      "name": "supportsInterface",
      "outputs": [
        {
          "internalType": "bool",
          "name": "",
          "type": "bool"
        }
      ],
      "stateMutability": "view",
      "type": "function"
    },
    {
      "inputs": [],
      "name": "symbol",
      "outputs": [
        {
          "internalType": "string",
          "name": "",
          "type": "string"
        }
      ],
      "stateMutability": "view",
      "type": "function"
    },
    {
      "inputs": [
        {
          "internalType": "uint256",
          "name": "tokenId",
          "type": "uint256"
        }
      ],
      "name": "tokenURI",
      "outputs": [
        {
          "internalType": "string",
          "name": "",
          "type": "string"
        }
      ],
      "stateMutability": "view",
      "type": "function"
    },
    {
      "inputs": [
        {
          "internalType": "address",
          "name": "from",
          "type": "address"
        },
        {
          "internalType": "address",
          "name": "to",
          "type": "address"
        },
        {
          "internalType": "uint256",
          "name": "tokenId",
          "type": "uint256"
        }
      ],
      "name": "transferFrom",
      "outputs": [],
      "stateMutability": "payable",
      "type": "function"
    }
  ],
  "bytecode": "0x60806040523480156200001157600080fd5b5060408051808201909152600980825268537061726b4c696e6b60b81b6020909201918252620000449160019162000078565b506040805180820190915260038082526214d41360ea1b6020909201918252620000719160029162000078565b506200015b565b82805462000086906200011e565b90600052602060002090601f016020900481019282620000aa5760008555620000f5565b82601f10620000c557805160ff1916838001178555620000f5565b82800160010185558215620000f5579182015b82811115620000f5578251825591602001919060010190620000d8565b506200010392915062000107565b5090565b5b8082111562000103576000815560010162000108565b600181811c908216806200013357607f821691505b602082108114156200015557634e487b7160e01b600052602260045260246000fd5b50919050565b6132f3806200016b6000396000f3fe60806040526004361061020f5760003560e01c806392e6f9ac11610118578063c87b56dd116100a0578063f1ac67d31161006f578063f1ac67d314610672578063f208c0f314610692578063f6e9274d146106c2578063fc6b6dea146106e2578063fee032991461070257600080fd5b8063c87b56dd146105c9578063d8a288bd146105e9578063d8d17e7914610609578063e985e9c51461062957600080fd5b8063afabf6e4116100e7578063afabf6e414610543578063b88d4fde14610563578063bbe07d7914610576578063bd3355ed14610589578063bdea26fa146105a957600080fd5b806392e6f9ac146104af57806395d89b41146104d6578063a22cb465146104eb578063a7c9e8811461050b57600080fd5b806342842e0e1161019b5780636352211e1161016a5780636352211e1461040157806365cb8c9314610421578063668432081461044157806370a082311461046157806377738ad21461048f57600080fd5b806342842e0e1461038e5780635a034b3b146103a15780635ca01327146103c15780635e7efa2e146103e157600080fd5b8063095ea7b3116101e2578063095ea7b3146102c5578063177e67f2146102e75780631dab1af71461032357806323b872dd1461035b5780632b9e0d721461036e57600080fd5b806301ffc9a7146102145780630292ec361461024957806306fdde031461026b578063081812fc1461028d575b600080fd5b34801561022057600080fd5b5061023461022f366004612c11565b610722565b60405190151581526020015b60405180910390f35b34801561025557600080fd5b50605a5b60405160ff9091168152602001610240565b34801561027757600080fd5b50610280610774565b6040516102409190612eed565b34801561029957600080fd5b506102ad6102a8366004612c93565b610806565b6040516001600160a01b039091168152602001610240565b3480156102d157600080fd5b506102e56102e0366004612be8565b6108b3565b005b3480156102f357600080fd5b5061030e610302366004612ccf565b60201c63ffffffff1690565b60405163ffffffff9091168152602001610240565b34801561032f57600080fd5b5061034361033e366004612ccf565b6109d3565b6040516001600160401b039091168152602001610240565b6102e5610369366004612ade565b610a28565b34801561037a57600080fd5b50610234610389366004612ccf565b610a3b565b6102e561039c366004612ade565b610a64565b3480156103ad57600080fd5b506102e56103bc366004612ccf565b610a87565b3480156103cd57600080fd5b506102e56103dc366004612c49565b610c61565b3480156103ed57600080fd5b506102596103fc366004612cab565b610f1d565b34801561040d57600080fd5b506102ad61041c366004612c93565b610f84565b34801561042d57600080fd5b506102e561043c366004612d04565b61101e565b34801561044d57600080fd5b506102e561045c366004612ce9565b6110dd565b34801561046d57600080fd5b5061048161047c366004612a92565b611168565b604051908152602001610240565b34801561049b57600080fd5b506102e56104aa366004612de9565b6111fb565b3480156104bb57600080fd5b506102346104ca366004612ccf565b63ffffffff1660011490565b3480156104e257600080fd5b5061028061126f565b3480156104f757600080fd5b506102e5610506366004612bae565b61127e565b34801561051757600080fd5b5061052b610526366004612ccf565b61133c565b6040516001600160801b039091168152602001610240565b34801561054f57600080fd5b5061023461055e366004612cab565b61138f565b6102e5610571366004612b19565b6113aa565b6102e5610584366004612ccf565b6113fb565b34801561059557600080fd5b5061052b6105a4366004612ccf565b6115f4565b3480156105b557600080fd5b506103436105c4366004612ccf565b6116b6565b3480156105d557600080fd5b506102806105e4366004612c93565b611768565b3480156105f557600080fd5b5061030e610604366004612cab565b611879565b34801561061557600080fd5b50610259610624366004612ccf565b6118ce565b34801561063557600080fd5b50610234610644366004612aac565b6001600160a01b03918216600090815260056020908152604080832093909416825291909152205460ff1690565b34801561067e57600080fd5b5061030e61068d366004612ccf565b61191b565b34801561069e57600080fd5b506103436106ad366004612cab565b63ffffffff60201b60209190911b1660011790565b3480156106ce57600080fd5b5061052b6106dd366004612ccf565b611929565b3480156106ee57600080fd5b506102596106fd366004612cab565b611978565b34801561070e57600080fd5b506102e561071d366004612dc0565b6119be565b60006001600160e01b031982166380ac58cd60e01b148061075357506001600160e01b03198216635b5e139f60e01b145b8061076e57506301ffc9a760e01b6001600160e01b03198316145b92915050565b606060018054610783906131a1565b80601f01602080910402602001604051908101604052809291908181526020018280546107af906131a1565b80156107fc5780601f106107d1576101008083540402835291602001916107fc565b820191906000526020600020905b8154815290600101906020018083116107df57829003601f168201915b5050505050905090565b600061081461038983611acd565b61087d5760405162461bcd60e51b815260206004820152602f60248201527f537061726b4c696e6b3a20417070726f76656420717565727920666f72206e6f60448201526e3732bc34b9ba32b73a103a37b5b2b760891b60648201526084015b60405180910390fd5b6004600061088a84611acd565b6001600160401b031681526020810191909152604001600020546001600160a01b031692915050565b60006108be82610f84565b9050806001600160a01b0316836001600160a01b0316141561092e5760405162461bcd60e51b8152602060048201526024808201527f537061726b4c696e6b3a20417070726f76616c20746f2063757272656e74206f6044820152633bb732b960e11b6064820152608401610874565b336001600160a01b038216148061094a575061094a8133610644565b6109bc5760405162461bcd60e51b815260206004820152603b60248201527f537061726b4c696e6b3a20417070726f76652063616c6c6572206973206e6f7460448201527f206f776e6572206e6f7220617070726f76656420666f7220616c6c00000000006064820152608401610874565b6109ce836109c984611acd565b611b3a565b505050565b60006109de82610a3b565b6109fa5760405162461bcd60e51b815260040161087490612fda565b60005b600163ffffffff84161461076e57610a16600182613049565b9050610a21836116b6565b92506109fd565b6109ce8383610a3684611acd565b611bb0565b6001600160401b03166000908152600660205260409020600101546001600160a01b0316151590565b6109ce8383610a7284611acd565b60405180602001604052806000815250611eff565b610a9081610a3b565b610aeb5760405162461bcd60e51b815260206004820152602660248201527f537061726b4c696e6b3a20546869732065646974696f6e20646f6573206e6f7460448201526508195e1a5cdd60d21b6064820152608401610874565b6001600160401b038116600090815260066020526040902060030154600160801b90046001600160801b031615610c5e576001600160401b038116600090815260066020526040902060030180546001600160801b03808216909255600160801b90041663ffffffff8216600114610b9d576000610b7b82610b76602086901c63ffffffff16611978565b611f38565b9050610b8f610b89846116b6565b82611f5a565b610b9981836130f3565b9150505b610baf826001600160401b0316610f84565b6001600160a01b03166108fc826001600160801b03169081150290604051600060405180830381858888f19350505050158015610bf0573d6000803e3d6000fd5b50610c03826001600160401b0316610f84565b6001600160a01b0316826001600160401b03167f3dc1a77733195d8bbde8f8bc719f598f47f377c9c4b854d561b4d607a8e81f6283604051610c5491906001600160801b0391909116815260200190565b60405180910390a3505b50565b60648360ff161115610cc75760405162461bcd60e51b815260206004820152602960248201527f537061726b4c696e6b3a20526f79616c7479206665652073686f756c64206265604482015268101e1e90189818129760b91b6064820152608401610874565b610cd5600080546001019055565b63ffffffff610ce360005490565b1115610d425760405162461bcd60e51b815260206004820152602860248201527f537061726b4c696e6b3a2056616c756520646f65736e27742066697420696e206044820152671999103134ba399760c11b6064820152608401610874565b60008054906001602083901b63ffffffff60201b16179050610d766000338360405180602001604052806000815250611fcc565b610d925760405162461bcd60e51b815260040161087490612f85565b6001600160401b038116600090815260066020526040902066ff00000000000019603887901b16603086901b17610dca600182613049565b82546001600160401b0382811667ffffffffffffffff60ff60c01b011990921691909117600160c01b60ff8a160217600160401b600160c01b031916600160401b6001600160801b038c160217845560018085018054336001600160a01b031990911681179091556002860189905560009081526003602052604081208054949550919391929091610e5e91859116613049565b92506101000a8154816001600160401b0302191690836001600160401b03160217905550826001600160401b0316336001600160a01b031660006001600160a01b03167fddf252ad1be2c89b69c2b068fc378daa952ba7f163c4a11628f55a4df523b3ef60405160405180910390a46040516001600160401b0384168152339063ffffffff8616907f7076939bab881558c26bdfd19cefffacd29a6dcea17a02353fbceb3e9a53c2999060200160405180910390a35050505050505050565b6000610f288261138f565b610f445760405162461bcd60e51b815260040161087490612f00565b61076e6030600660006001602087901b63ffffffff60201b16175b6001600160401b0390811682526020820192909252604001600020541660ff911c1690565b60008060066000610f9485611acd565b6001600160401b031681526020810191909152604001600020600101546001600160a01b031690508061076e5760405162461bcd60e51b815260206004820152602c60248201527f537061726b4c696e6b3a204f776e657220717565727920666f72206e6f6e657860448201526b34b9ba32b73a103a37b5b2b760a11b6064820152608401610874565b336110316001600160401b038416610f84565b6001600160a01b0316146110985760405162461bcd60e51b815260206004820152602860248201527f537061726b4c696e6b3a204f6e6c79206f776e65722063616e206c6162656c206044820152671d1a1a5cc813919560c21b6064820152608401610874565b816001600160401b03167f07fabc8249b7822cdf933a532a49e1b0589177b1683b4145ee271dbd66700dfa826040516110d19190612eed565b60405180910390a25050565b336110f06001600160401b038416610f84565b6001600160a01b03161461115a5760405162461bcd60e51b815260206004820152602b60248201527f537061726b4c696e6b3a204f6e6c79206f776e65722063616e2073657420746860448201526a6520746f6b656e2055524960a81b6064820152608401610874565b61116482826120d9565b5050565b60006001600160a01b0382166111d65760405162461bcd60e51b815260206004820152602d60248201527f537061726b4c696e6b3a2042616c616e636520717565727920666f722074686560448201526c207a65726f206164647265737360981b6064820152608401610874565b506001600160a01b03166000908152600360205260409020546001600160401b031690565b61120583836119be565b61121881846001600160401b03166108b3565b6040516001600160801b03831681526001600160a01b038216906001600160401b038516907ff4a029974225230e783a906bf72b4c1037aee2b37958b9a6b5e689da1477729b9060200160405180910390a3505050565b606060028054610783906131a1565b6001600160a01b0382163314156112d75760405162461bcd60e51b815260206004820152601c60248201527f537061726b4c696e6b3a20417070726f766520746f2063616c6c6572000000006044820152606401610874565b3360008181526005602090815260408083206001600160a01b03871680855290835292819020805460ff191686151590811790915590519081529192917f17307eab39ab6107e8899845ad3d59bd9653f200f220920489ca2b5937696c319101610c54565b600061134782610a3b565b6113635760405162461bcd60e51b815260040161087490612fda565b506001600160401b0316600090815260066020526040902054600160401b90046001600160801b031690565b600061076e6001602084901b63ffffffff60201b1617610a3b565b6113f485856113b886611acd565b85858080601f016020809104026020016040519081016040528093929190818152602001838380828437600092019190915250611eff92505050565b5050505050565b61140481610a3b565b6114205760405162461bcd60e51b815260040161087490612f43565b6001600160401b038116600090815260066020526040902054600160c01b900460ff166114b55760405162461bcd60e51b815260206004820152603860248201527f537061726b4c696e6b3a205468657265206973206e6f2072656d61696e696e6760448201527f207368696c6c2074696d6520666f722074686973204e465400000000000000006064820152608401610874565b6001600160401b038116600090815260066020526040902054600160401b90046001600160801b031634146115255760405162461bcd60e51b8152602060048201526016602482015275537061726b4c696e6b3a2057726f6e6720707269636560501b6044820152606401610874565b6001600160401b038116600090815260066020526040902054611559908290600160401b90046001600160801b0316611f5a565b6001600160401b038116600090815260066020526040902080546001919060189061158f908490600160c01b900460ff16613152565b92506101000a81548160ff021916908360ff1602179055506115b1813361213b565b506001600160401b038116600090815260066020526040902054600160c01b900460ff16610c5e57611164816115ef836001600160401b0316610f84565b61213b565b60006115ff82610a3b565b61161b5760405162461bcd60e51b815260040161087490612fda565b6001600160401b038216600090815260066020526040902060030154600160801b90046001600160801b03166116578363ffffffff1660011490565b61076e576001600160401b0383166000908152600660205260408120600301546116a2906001600160801b03600160801b90910416610b766106fd8763ffffffff60209190911c1690565b90506116ae81836130f3565b949350505050565b60006116c182610a3b565b6116dd5760405162461bcd60e51b815260040161087490612fda565b600163ffffffff831614156117495760405162461bcd60e51b815260206004820152602c60248201527f537061726b4c696e6b3a20526f6f74204e465420646f65736e2774206861766560448201526b103330ba3432b91027232a1760a11b6064820152608401610874565b506001600160401b039081166000908152600660205260409020541690565b606061177661038983611acd565b6117d55760405162461bcd60e51b815260206004820152602a60248201527f537061726b4c696e6b3a2055524920717565727920666f72206e6f6e657869736044820152693a32b73a103a37b5b2b760b11b6064820152608401610874565b6000600660006117e485611acd565b6001600160401b03166001600160401b0316815260200190815260200160002060020154905060006118158261233a565b9050600061184b60408051808201909152601581527468747470733a2f2f697066732e696f2f697066732f60581b602082015290565b90508082604051602001611860929190612e79565b6040516020818303038152906040529350505050919050565b60006118848261138f565b6118a05760405162461bcd60e51b815260040161087490612f00565b63ffffffff60201b602083811b9190911660011760009081526006909152604090205463ffffffff1661076e565b60006118d982610a3b565b6118f55760405162461bcd60e51b815260040161087490612fda565b506001600160401b0316600090815260066020526040902054600160c01b900460ff1690565b600063ffffffff821661076e565b600061193482610a3b565b6119505760405162461bcd60e51b815260040161087490612fda565b506001600160401b03166000908152600660205260409020600301546001600160801b031690565b60006119838261138f565b61199f5760405162461bcd60e51b815260040161087490612f00565b61076e6038600660006001602087901b63ffffffff60201b1617610f5f565b6119c782610a3b565b6119e35760405162461bcd60e51b815260040161087490612f43565b6119f5826001600160401b0316610f84565b6001600160a01b0316336001600160a01b031614611a655760405162461bcd60e51b815260206004820152602760248201527f537061726b4c696e6b3a204f6e6c79206f776e65722063616e207365742074686044820152666520707269636560c81b6064820152608401610874565b6001600160401b03821660008181526006602090815260409182902060030180546001600160801b0319166001600160801b03861690811790915591519182527fca72e8ac93611c80ca0e2046cbd0f09834fcca6a61e4979bd62bb6765ff7a9e791016110d1565b60006001600160401b03821115611b365760405162461bcd60e51b815260206004820152602760248201527f537061726b4c696e6b3a2056616c756520646f65736e27742066697420696e206044820152663634206269747360c81b6064820152608401610874565b5090565b6001600160401b038116600081815260046020526040902080546001600160a01b0319166001600160a01b038516908117909155611b7782610f84565b6001600160a01b03167f8c5be1e5ebec7d5bd14f71427d1e84f3dd0314c0f7b2291e5b200ac8c7c3b92560405160405180910390a45050565b826001600160a01b0316611bcc826001600160401b0316610f84565b6001600160a01b031614611c375760405162461bcd60e51b815260206004820152602c60248201527f537061726b4c696e6b3a205472616e73666572206f6620746f6b656e2074686160448201526b3a1034b9903737ba1037bbb760a11b6064820152608401610874565b611c413382612550565b611caa5760405162461bcd60e51b815260206004820152603460248201527f537061726b4c696e6b3a205472616e736665722063616c6c6572206973206e6f6044820152731d081bdddb995c881b9bdc88185c1c1c9bdd995960621b6064820152608401610874565b6001600160a01b038216611d105760405162461bcd60e51b815260206004820152602760248201527f537061726b4c696e6b3a205472616e7366657220746f20746865207a65726f206044820152666164647265737360c81b6064820152608401610874565b611d22816001600160401b0316610f84565b6001600160a01b0316336001600160a01b031614611deb576001600160401b0381166000908152600660205260409020600301546001600160801b03163414611dad5760405162461bcd60e51b815260206004820152601860248201527f537061726b4c696e6b3a205072696365206e6f74206d657400000000000000006044820152606401610874565b6001600160401b038116600090815260066020526040902060030154611ddd9082906001600160801b0316611f5a565b611de681610a87565b611df4565b611df481610a87565b611dfd8161264b565b6001600160a01b0383166000908152600360205260408120805460019290611e2f9084906001600160401b0316613132565b82546101009290920a6001600160401b038181021990931691831602179091556001600160a01b03841660009081526003602052604081208054600194509092611e7b91859116613049565b82546101009290920a6001600160401b03818102199093169183160217909155821660008181526006602052604080822060010180546001600160a01b0319166001600160a01b0388811691821790925591519394509092908716917fddf252ad1be2c89b69c2b068fc378daa952ba7f163c4a11628f55a4df523b3ef91a4505050565b611f0a848484611bb0565b611f1684848484611fcc565b611f325760405162461bcd60e51b815260040161087490612f85565b50505050565b60006064611f4960ff8416856130a5565b611f53919061306b565b9392505050565b6001600160401b038216600090815260066020526040902060030154611f91908290600160801b90046001600160801b031661300f565b6001600160401b03909216600090815260066020526040902060030180546001600160801b03938416600160801b0293169290921790915550565b60006001600160a01b0384163b156120ce57604051630a85bd0160e11b81526001600160a01b0385169063150b7a0290612010903390899088908890600401612ea8565b602060405180830381600087803b15801561202a57600080fd5b505af192505050801561205a575060408051601f3d908101601f1916820190925261205791810190612c2d565b60015b6120b4573d808015612088576040519150601f19603f3d011682016040523d82523d6000602084013e61208d565b606091505b5080516120ac5760405162461bcd60e51b815260040161087490612f85565b805181602001fd5b6001600160e01b031916630a85bd0160e11b1490506116ae565b506001949350505050565b6001600160401b038216600081815260066020908152604091829020600201805490859055825181815291820185905292917f901ae3afe5e7d5594d462fab7cb487880c27d5fc0e3863487a5cfd2a08d350ed910160405180910390a2505050565b600063ffffffff602084901c1661215181612680565b600061215c82611879565b9050600063ffffffff60201b602084901b1663ffffffff83161790506121946000868360405180602001604052806000815250611fcc565b6121b05760405162461bcd60e51b815260040161087490612f85565b6001600160401b03811660009081526006602052604090206121d184610f1d565b815467ffffffffffffffff60ff60c01b011916600160c01b60ff929092169190910267ffffffffffffffff1916176001600160401b038816908117825560009081526006602052604090205461223890600160401b90046001600160801b0316605a611f38565b81546001600160801b0391909116600160401b02600160401b600160c01b0319909116178155600180820180546001600160a01b0389166001600160a01b031990911681179091556001600160401b03808a166000908152600660209081526040808320600290810154908801559382526003905291822080549092916122c191859116613049565b92506101000a8154816001600160401b0302191690836001600160401b03160217905550816001600160401b0316866001600160a01b031660006001600160a01b03167fddf252ad1be2c89b69c2b068fc378daa952ba7f163c4a11628f55a4df523b3ef60405160405180910390a45095945050505050565b60606000604051806040016040528060028152602001609160f51b8152508360405160200161236a929190612e57565b60408051601f198184030181528183526108208301825292506000919060208201610800803683370190505090506000816000815181106123bb57634e487b7160e01b600052603260045260246000fd5b60ff90921660209283029190910190910152600160005b835181101561252c5760008482815181106123fd57634e487b7160e01b600052603260045260246000fd5b016020015160f81c905060005b8360ff168110156124b35784818151811061243557634e487b7160e01b600052603260045260246000fd5b602002602001015160ff1661010061244d91906130d4565b6124579083613031565b9150612464603a83613217565b85828151811061248457634e487b7160e01b600052603260045260246000fd5b60ff909216602092830291909101909101526124a1603a83613091565b91506124ac816131dc565b905061240a565b505b801561251b576124c6603a82613217565b848460ff16815181106124e957634e487b7160e01b600052603260045260246000fd5b60ff9092166020928302919091019091015282612505816131f7565b93506125149050603a82613091565b90506124b5565b50612525816131dc565b90506123d2565b5061254761254261253d8484612754565b61282f565b61291d565b95945050505050565b600061255b82610a3b565b6125bf5760405162461bcd60e51b815260206004820152602f60248201527f537061726b4c696e6b3a204f70657261746f7220717565727920666f72206e6f60448201526e3732bc34b9ba32b73a103a37b5b2b760891b6064820152608401610874565b60006125d3836001600160401b0316610f84565b9050806001600160a01b0316846001600160a01b031614806126175750836001600160a01b031661260c846001600160401b0316610806565b6001600160a01b0316145b806116ae57506001600160a01b0380821660009081526005602090815260408083209388168352929052205460ff166116ae565b612656600082611b3a565b6001600160401b0316600090815260066020526040902060030180546001600160801b0319169055565b63ffffffff61268e82611879565b63ffffffff16106126f45760405162461bcd60e51b815260206004820152602a60248201527f537061726b4c696e6b3a205468657265206973206e6f206c65667420696e20746044820152693434b99034b9b9bab29760b11b6064820152608401610874565b6001602082811b63ffffffff60201b1682176000908152600690915260408120805490919061272d9084906001600160401b0316613049565b92506101000a8154816001600160401b0302191690836001600160401b0316021790555050565b606060008260ff166001600160401b0381111561278157634e487b7160e01b600052604160045260246000fd5b6040519080825280602002602001820160405280156127aa578160200160208202803683370190505b50905060005b8360ff16811015612827578481815181106127db57634e487b7160e01b600052603260045260246000fd5b602002602001015182828151811061280357634e487b7160e01b600052603260045260246000fd5b60ff909216602092830291909101909101528061281f816131dc565b9150506127b0565b509392505050565b6060600082516001600160401b0381111561285a57634e487b7160e01b600052604160045260246000fd5b604051908082528060200260200182016040528015612883578160200160208202803683370190505b50905060005b8351811015612916578381600186516128a2919061311b565b6128ac919061311b565b815181106128ca57634e487b7160e01b600052603260045260246000fd5b60200260200101518282815181106128f257634e487b7160e01b600052603260045260246000fd5b60ff909216602092830291909101909101528061290e816131dc565b915050612889565b5092915050565b6060600082516001600160401b0381111561294857634e487b7160e01b600052604160045260246000fd5b6040519080825280601f01601f191660200182016040528015612972576020820181803683370190505b50905060005b8351811015612916576040518060600160405280603a8152602001613284603a91398482815181106129ba57634e487b7160e01b600052603260045260246000fd5b602002602001015160ff16815181106129e357634e487b7160e01b600052603260045260246000fd5b602001015160f81c60f81b828281518110612a0e57634e487b7160e01b600052603260045260246000fd5b60200101906001600160f81b031916908160001a90535080612a2f816131dc565b915050612978565b80356001600160a01b0381168114612a4e57600080fd5b919050565b80356001600160801b0381168114612a4e57600080fd5b80356001600160401b0381168114612a4e57600080fd5b803560ff81168114612a4e57600080fd5b600060208284031215612aa3578081fd5b611f5382612a37565b60008060408385031215612abe578081fd5b612ac783612a37565b9150612ad560208401612a37565b90509250929050565b600080600060608486031215612af2578081fd5b612afb84612a37565b9250612b0960208501612a37565b9150604084013590509250925092565b600080600080600060808688031215612b30578081fd5b612b3986612a37565b9450612b4760208701612a37565b93506040860135925060608601356001600160401b0380821115612b69578283fd5b818801915088601f830112612b7c578283fd5b813581811115612b8a578384fd5b896020828501011115612b9b578384fd5b9699959850939650602001949392505050565b60008060408385031215612bc0578182fd5b612bc983612a37565b915060208301358015158114612bdd578182fd5b809150509250929050565b60008060408385031215612bfa578182fd5b612c0383612a37565b946020939093013593505050565b600060208284031215612c22578081fd5b8135611f538161326d565b600060208284031215612c3e578081fd5b8151611f538161326d565b60008060008060808587031215612c5e578384fd5b612c6785612a53565b9350612c7560208601612a81565b9250612c8360408601612a81565b9396929550929360600135925050565b600060208284031215612ca4578081fd5b5035919050565b600060208284031215612cbc578081fd5b813563ffffffff81168114611f53578182fd5b600060208284031215612ce0578081fd5b611f5382612a6a565b60008060408385031215612cfb578182fd5b612c0383612a6a565b60008060408385031215612d16578182fd5b612d1f83612a6a565b915060208301356001600160401b0380821115612d3a578283fd5b818501915085601f830112612d4d578283fd5b813581811115612d5f57612d5f613257565b604051601f8201601f19908116603f01168101908382118183101715612d8757612d87613257565b81604052828152886020848701011115612d9f578586fd5b82602086016020830137856020848301015280955050505050509250929050565b60008060408385031215612dd2578182fd5b612ddb83612a6a565b9150612ad560208401612a53565b600080600060608486031215612dfd578081fd5b612e0684612a6a565b9250612e1460208501612a53565b9150612e2260408501612a37565b90509250925092565b60008151808452612e43816020860160208601613175565b601f01601f19169290920160200192915050565b60008351612e69818460208801613175565b9190910191825250602001919050565b60008351612e8b818460208801613175565b835190830190612e9f818360208801613175565b01949350505050565b6001600160a01b038581168252841660208201526001600160401b0383166040820152608060608201819052600090612ee390830184612e2b565b9695505050505050565b602081526000611f536020830184612e2b565b60208082526023908201527f537061726b4c696e6b3a2054686973206973737565206973206e6f742065786960408201526239ba1760e91b606082015260800190565b60208082526022908201527f537061726b4c696e6b3a2054686973204e465420646f6573206e6f74206578696040820152611cdd60f21b606082015260800190565b60208082526035908201527f537061726b4c696e6b3a205472616e7366657220746f206e6f6e20455243373260408201527418a932b1b2b4bb32b91034b6b83632b6b2b73a32b960591b606082015260800190565b6020808252818101527f537061726b4c696e6b3a2045646974696f6e206973206e6f742065786973742e604082015260600190565b60006001600160801b03808316818516808303821115612e9f57612e9f61322b565b600082198211156130445761304461322b565b500190565b60006001600160401b03808316818516808303821115612e9f57612e9f61322b565b60006001600160801b038084168061308557613085613241565b92169190910492915050565b6000826130a0576130a0613241565b500490565b60006001600160801b03808316818516818304811182151516156130cb576130cb61322b565b02949350505050565b60008160001904831182151516156130ee576130ee61322b565b500290565b60006001600160801b03838116908316818110156131135761311361322b565b039392505050565b60008282101561312d5761312d61322b565b500390565b60006001600160401b03838116908316818110156131135761311361322b565b600060ff821660ff84168082101561316c5761316c61322b565b90039392505050565b60005b83811015613190578181015183820152602001613178565b83811115611f325750506000910152565b600181811c908216806131b557607f821691505b602082108114156131d657634e487b7160e01b600052602260045260246000fd5b50919050565b60006000198214156131f0576131f061322b565b5060010190565b600060ff821660ff81141561320e5761320e61322b565b60010192915050565b60008261322657613226613241565b500690565b634e487b7160e01b600052601160045260246000fd5b634e487b7160e01b600052601260045260246000fd5b634e487b7160e01b600052604160045260246000fd5b6001600160e01b031981168114610c5e57600080fdfe31323334353637383941424344454647484a4b4c4d4e505152535455565758595a6162636465666768696a6b6d6e6f707172737475767778797aa2646970667358221220bbec8e098ece43b99a72a958dfa5e3a19cacb859a8f5054753626b88ee21c29064736f6c63430008040033",
  "linkReferences": {},
  "deployedLinkReferences": {}
}