{
  "_format": "hh-sol-artifact-1",
  "contractName": "SparkLink",
  "sourceName": "contracts/SparkLink.sol",
  "abi": [
    {
      "inputs": [
        {
          "internalType": "address",
          "name": "DAO_router_address01",
          "type": "address"
        },
        {
          "internalType": "address",
          "name": "DAO_router_address02",
          "type": "address"
        },
        {
          "internalType": "address",
          "name": "uniswapRouterAddress",
          "type": "address"
        },
        {
          "internalType": "address",
          "name": "factoryAddress",
          "type": "address"
        }
      ],
      "stateMutability": "nonpayable",
      "type": "constructor"
    },
    {
      "anonymous": false,
      "inputs": [
        {
          "indexed": true,
          "internalType": "address",
          "name": "owner",
          "type": "address"
        },
        {
          "indexed": true,
          "internalType": "address",
          "name": "approved",
          "type": "address"
        },
        {
          "indexed": true,
          "internalType": "uint256",
          "name": "tokenId",
          "type": "uint256"
        }
      ],
      "name": "Approval",
      "type": "event"
    },
    {
      "anonymous": false,
      "inputs": [
        {
          "indexed": true,
          "internalType": "address",
          "name": "owner",
          "type": "address"
        },
        {
          "indexed": true,
          "internalType": "address",
          "name": "operator",
          "type": "address"
        },
        {
          "indexed": false,
          "internalType": "bool",
          "name": "approved",
          "type": "bool"
        }
      ],
      "name": "ApprovalForAll",
      "type": "event"
    },
    {
      "anonymous": false,
      "inputs": [
        {
          "indexed": true,
          "internalType": "uint64",
          "name": "NFT_id",
          "type": "uint64"
        },
        {
          "indexed": true,
          "internalType": "address",
          "name": "receiver",
          "type": "address"
        },
        {
          "indexed": false,
          "internalType": "uint128",
          "name": "amount",
          "type": "uint128"
        }
      ],
      "name": "Claim",
      "type": "event"
    },
    {
      "anonymous": false,
      "inputs": [
        {
          "indexed": true,
          "internalType": "uint64",
          "name": "NFT_id",
          "type": "uint64"
        },
        {
          "indexed": true,
          "internalType": "address",
          "name": "writer",
          "type": "address"
        },
        {
          "indexed": false,
          "internalType": "string",
          "name": "content",
          "type": "string"
        }
      ],
      "name": "Label",
      "type": "event"
    },
    {
      "anonymous": false,
      "inputs": [
        {
          "indexed": true,
          "internalType": "address",
          "name": "previousOwner",
          "type": "address"
        },
        {
          "indexed": true,
          "internalType": "address",
          "name": "newOwner",
          "type": "address"
        }
      ],
      "name": "OwnershipTransferred",
      "type": "event"
    },
    {
      "anonymous": false,
      "inputs": [
        {
          "indexed": true,
          "internalType": "address",
          "name": "publisher",
          "type": "address"
        },
        {
          "indexed": true,
          "internalType": "uint64",
          "name": "rootNFTId",
          "type": "uint64"
        },
        {
          "indexed": false,
          "internalType": "address",
          "name": "token_addr",
          "type": "address"
        }
      ],
      "name": "Publish",
      "type": "event"
    },
    {
      "anonymous": false,
      "inputs": [
        {
          "indexed": false,
          "internalType": "uint8",
          "name": "old_DAO_fee",
          "type": "uint8"
        }
      ],
      "name": "SetDAOFee",
      "type": "event"
    },
    {
      "anonymous": false,
      "inputs": [
        {
          "indexed": false,
          "internalType": "address",
          "name": "old_router_address",
          "type": "address"
        }
      ],
      "name": "SetDAORouter01",
      "type": "event"
    },
    {
      "anonymous": false,
      "inputs": [
        {
          "indexed": false,
          "internalType": "address",
          "name": "old_router_address",
          "type": "address"
        }
      ],
      "name": "SetDAORouter02",
      "type": "event"
    },
    {
      "anonymous": false,
      "inputs": [
        {
          "indexed": true,
          "internalType": "uint64",
          "name": "NFT_id",
          "type": "uint64"
        },
        {
          "indexed": false,
          "internalType": "uint128",
          "name": "old_shill_price",
          "type": "uint128"
        }
      ],
      "name": "SetShillPrice",
      "type": "event"
    },
    {
      "anonymous": false,
      "inputs": [
        {
          "indexed": true,
          "internalType": "uint64",
          "name": "NFT_id",
          "type": "uint64"
        },
        {
          "indexed": false,
          "internalType": "bytes32",
          "name": "old_URI",
          "type": "bytes32"
        }
      ],
      "name": "SetURI",
      "type": "event"
    },
    {
      "anonymous": false,
      "inputs": [
        {
          "indexed": true,
          "internalType": "address",
          "name": "from",
          "type": "address"
        },
        {
          "indexed": true,
          "internalType": "address",
          "name": "to",
          "type": "address"
        },
        {
          "indexed": true,
          "internalType": "uint256",
          "name": "tokenId",
          "type": "uint256"
        }
      ],
      "name": "Transfer",
      "type": "event"
    },
    {
      "inputs": [],
      "name": "DAO_fee",
      "outputs": [
        {
          "internalType": "uint8",
          "name": "",
          "type": "uint8"
        }
      ],
      "stateMutability": "view",
      "type": "function"
    },
    {
      "inputs": [],
      "name": "DAO_router01",
      "outputs": [
        {
          "internalType": "address",
          "name": "",
          "type": "address"
        }
      ],
      "stateMutability": "view",
      "type": "function"
    },
    {
      "inputs": [],
      "name": "DAO_router02",
      "outputs": [
        {
          "internalType": "address",
          "name": "",
          "type": "address"
        }
      ],
      "stateMutability": "view",
      "type": "function"
    },
    {
      "inputs": [],
      "name": "MAX_DAO_FEE",
      "outputs": [
        {
          "internalType": "uint8",
          "name": "",
          "type": "uint8"
        }
      ],
      "stateMutability": "view",
      "type": "function"
    },
    {
      "inputs": [
        {
          "internalType": "uint64",
          "name": "_NFT_id",
          "type": "uint64"
        }
      ],
      "name": "acceptShill",
      "outputs": [],
      "stateMutability": "payable",
      "type": "function"
    },
    {
      "inputs": [
        {
          "internalType": "uint64",
          "name": "_NFT_id",
          "type": "uint64"
        },
        {
          "internalType": "uint128",
          "name": "_amount",
          "type": "uint128"
        }
      ],
      "name": "addProfitFromMsgSender",
      "outputs": [],
      "stateMutability": "payable",
      "type": "function"
    },
    {
      "inputs": [
        {
          "internalType": "uint64",
          "name": "_NFT_id",
          "type": "uint64"
        },
        {
          "internalType": "uint128",
          "name": "_amount",
          "type": "uint128"
        }
      ],
      "name": "addProfitFromtxOrigin",
      "outputs": [],
      "stateMutability": "payable",
      "type": "function"
    },
    {
      "inputs": [
        {
          "internalType": "address",
          "name": "to",
          "type": "address"
        },
        {
          "internalType": "uint256",
          "name": "tokenId",
          "type": "uint256"
        }
      ],
      "name": "approve",
      "outputs": [],
      "stateMutability": "nonpayable",
      "type": "function"
    },
    {
      "inputs": [
        {
          "internalType": "address",
          "name": "owner",
          "type": "address"
        }
      ],
      "name": "balanceOf",
      "outputs": [
        {
          "internalType": "uint256",
          "name": "",
          "type": "uint256"
        }
      ],
      "stateMutability": "view",
      "type": "function"
    },
    {
      "inputs": [
        {
          "internalType": "uint64",
          "name": "_NFT_id",
          "type": "uint64"
        }
      ],
      "name": "claimProfit",
      "outputs": [],
      "stateMutability": "nonpayable",
      "type": "function"
    },
    {
      "inputs": [
        {
          "internalType": "uint256",
          "name": "tokenId",
          "type": "uint256"
        }
      ],
      "name": "getApproved",
      "outputs": [
        {
          "internalType": "address",
          "name": "",
          "type": "address"
        }
      ],
      "stateMutability": "view",
      "type": "function"
    },
    {
      "inputs": [
        {
          "internalType": "uint64",
          "name": "_NFT_id",
          "type": "uint64"
        }
      ],
      "name": "getDepthByNFTId",
      "outputs": [
        {
          "internalType": "uint64",
          "name": "",
          "type": "uint64"
        }
      ],
      "stateMutability": "view",
      "type": "function"
    },
    {
      "inputs": [
        {
          "internalType": "uint64",
          "name": "_NFT_id",
          "type": "uint64"
        }
      ],
      "name": "getEditionIdByNFTId",
      "outputs": [
        {
          "internalType": "uint32",
          "name": "",
          "type": "uint32"
        }
      ],
      "stateMutability": "pure",
      "type": "function"
    },
    {
      "inputs": [
        {
          "internalType": "uint64",
          "name": "_NFT_id",
          "type": "uint64"
        }
      ],
      "name": "getFatherByNFTId",
      "outputs": [
        {
          "internalType": "uint64",
          "name": "",
          "type": "uint64"
        }
      ],
      "stateMutability": "view",
      "type": "function"
    },
    {
      "inputs": [
        {
          "internalType": "uint64",
          "name": "_NFT_id",
          "type": "uint64"
        }
      ],
      "name": "getIsNDByNFTId",
      "outputs": [
        {
          "internalType": "bool",
          "name": "",
          "type": "bool"
        }
      ],
      "stateMutability": "view",
      "type": "function"
    },
    {
      "inputs": [
        {
          "internalType": "uint64",
          "name": "_NFT_id",
          "type": "uint64"
        }
      ],
      "name": "getNFTInfoByNFTID",
      "outputs": [
        {
          "internalType": "uint64",
          "name": "issue_information",
          "type": "uint64"
        },
        {
          "internalType": "uint64",
          "name": "father_id",
          "type": "uint64"
        },
        {
          "internalType": "uint128",
          "name": "shill_price",
          "type": "uint128"
        },
        {
          "internalType": "uint16",
          "name": "remain_shill_times",
          "type": "uint16"
        },
        {
          "internalType": "uint128",
          "name": "profit",
          "type": "uint128"
        },
        {
          "internalType": "string",
          "name": "metadata",
          "type": "string"
        }
      ],
      "stateMutability": "view",
      "type": "function"
    },
    {
      "inputs": [
        {
          "internalType": "uint64",
          "name": "_NFT_id",
          "type": "uint64"
        }
      ],
      "name": "getProfitByNFTId",
      "outputs": [
        {
          "internalType": "uint128",
          "name": "",
          "type": "uint128"
        }
      ],
      "stateMutability": "view",
      "type": "function"
    },
    {
      "inputs": [
        {
          "internalType": "uint64",
          "name": "_NFT_id",
          "type": "uint64"
        }
      ],
      "name": "getRemainShillTimesByNFTId",
      "outputs": [
        {
          "internalType": "uint16",
          "name": "",
          "type": "uint16"
        }
      ],
      "stateMutability": "view",
      "type": "function"
    },
    {
      "inputs": [
        {
          "internalType": "uint64",
          "name": "_NFT_id",
          "type": "uint64"
        }
      ],
      "name": "getRootNFTIdByNFTId",
      "outputs": [
        {
          "internalType": "uint64",
          "name": "",
          "type": "uint64"
        }
      ],
      "stateMutability": "pure",
      "type": "function"
    },
    {
      "inputs": [
        {
          "internalType": "uint64",
          "name": "_NFT_id",
          "type": "uint64"
        }
      ],
      "name": "getRoyaltyFeeByNFTId",
      "outputs": [
        {
          "internalType": "uint8",
          "name": "",
          "type": "uint8"
        }
      ],
      "stateMutability": "view",
      "type": "function"
    },
    {
      "inputs": [
        {
          "internalType": "uint64",
          "name": "_NFT_id",
          "type": "uint64"
        }
      ],
      "name": "getRoyaltyPriceByNFTId",
      "outputs": [
        {
          "internalType": "uint128",
          "name": "",
          "type": "uint128"
        }
      ],
      "stateMutability": "view",
      "type": "function"
    },
    {
      "inputs": [
        {
          "internalType": "uint64",
          "name": "_NFT_id",
          "type": "uint64"
        }
      ],
      "name": "getShillPriceByNFTId",
      "outputs": [
        {
          "internalType": "uint128",
          "name": "",
          "type": "uint128"
        }
      ],
      "stateMutability": "view",
      "type": "function"
    },
    {
      "inputs": [
        {
          "internalType": "uint64",
          "name": "_NFT_id",
          "type": "uint64"
        }
      ],
      "name": "getShillTimesByNFTId",
      "outputs": [
        {
          "internalType": "uint16",
          "name": "",
          "type": "uint16"
        }
      ],
      "stateMutability": "view",
      "type": "function"
    },
    {
      "inputs": [
        {
          "internalType": "uint64",
          "name": "_NFT_id",
          "type": "uint64"
        }
      ],
      "name": "getTokenAddrByNFTId",
      "outputs": [
        {
          "internalType": "address",
          "name": "",
          "type": "address"
        }
      ],
      "stateMutability": "view",
      "type": "function"
    },
    {
      "inputs": [
        {
          "internalType": "uint64",
          "name": "_NFT_id",
          "type": "uint64"
        }
      ],
      "name": "getTotalAmountByNFTId",
      "outputs": [
        {
          "internalType": "uint32",
          "name": "",
          "type": "uint32"
        }
      ],
      "stateMutability": "view",
      "type": "function"
    },
    {
      "inputs": [
        {
          "internalType": "address",
          "name": "owner",
          "type": "address"
        },
        {
          "internalType": "address",
          "name": "operator",
          "type": "address"
        }
      ],
      "name": "isApprovedForAll",
      "outputs": [
        {
          "internalType": "bool",
          "name": "",
          "type": "bool"
        }
      ],
      "stateMutability": "view",
      "type": "function"
    },
    {
      "inputs": [
        {
          "internalType": "uint64",
          "name": "_NFT_id",
          "type": "uint64"
        }
      ],
      "name": "isEditionExisting",
      "outputs": [
        {
          "internalType": "bool",
          "name": "",
          "type": "bool"
        }
      ],
      "stateMutability": "view",
      "type": "function"
    },
    {
      "inputs": [
        {
          "internalType": "uint64",
          "name": "_NFT_id",
          "type": "uint64"
        }
      ],
      "name": "isRootNFT",
      "outputs": [
        {
          "internalType": "bool",
          "name": "",
          "type": "bool"
        }
      ],
      "stateMutability": "pure",
      "type": "function"
    },
    {
      "inputs": [
        {
          "internalType": "uint64",
          "name": "_NFT_id",
          "type": "uint64"
        },
        {
          "internalType": "string",
          "name": "content",
          "type": "string"
        }
      ],
      "name": "label",
      "outputs": [],
      "stateMutability": "nonpayable",
      "type": "function"
    },
    {
      "inputs": [],
      "name": "name",
      "outputs": [
        {
          "internalType": "string",
          "name": "",
          "type": "string"
        }
      ],
      "stateMutability": "view",
      "type": "function"
    },
    {
      "inputs": [],
      "name": "owner",
      "outputs": [
        {
          "internalType": "address",
          "name": "",
          "type": "address"
        }
      ],
      "stateMutability": "view",
      "type": "function"
    },
    {
      "inputs": [
        {
          "internalType": "uint256",
          "name": "tokenId",
          "type": "uint256"
        }
      ],
      "name": "ownerOf",
      "outputs": [
        {
          "internalType": "address",
          "name": "",
          "type": "address"
        }
      ],
      "stateMutability": "view",
      "type": "function"
    },
    {
      "inputs": [
        {
          "internalType": "uint128",
          "name": "_first_sell_price",
          "type": "uint128"
        },
        {
          "internalType": "uint128",
          "name": "_royalty_price",
          "type": "uint128"
        },
        {
          "internalType": "uint8",
          "name": "_royalty_fee",
          "type": "uint8"
        },
        {
          "internalType": "uint16",
          "name": "_shill_times",
          "type": "uint16"
        },
        {
          "internalType": "bytes32",
          "name": "_ipfs_hash",
          "type": "bytes32"
        },
        {
          "internalType": "address",
          "name": "_token_addr",
          "type": "address"
        },
        {
          "internalType": "bool",
          "name": "_is_ND",
          "type": "bool"
        }
      ],
      "name": "publish",
      "outputs": [],
      "stateMutability": "nonpayable",
      "type": "function"
    },
    {
      "inputs": [],
      "name": "renounceOwnership",
      "outputs": [],
      "stateMutability": "nonpayable",
      "type": "function"
    },
    {
      "inputs": [
        {
          "internalType": "address",
          "name": "from",
          "type": "address"
        },
        {
          "internalType": "address",
          "name": "to",
          "type": "address"
        },
        {
          "internalType": "uint256",
          "name": "tokenId",
          "type": "uint256"
        }
      ],
      "name": "safeTransferFrom",
      "outputs": [],
      "stateMutability": "payable",
      "type": "function"
    },
    {
      "inputs": [
        {
          "internalType": "address",
          "name": "from",
          "type": "address"
        },
        {
          "internalType": "address",
          "name": "to",
          "type": "address"
        },
        {
          "internalType": "uint256",
          "name": "tokenId",
          "type": "uint256"
        },
        {
          "internalType": "bytes",
          "name": "_data",
          "type": "bytes"
        }
      ],
      "name": "safeTransferFrom",
      "outputs": [],
      "stateMutability": "payable",
      "type": "function"
    },
    {
      "inputs": [
        {
          "internalType": "address",
          "name": "operator",
          "type": "address"
        },
        {
          "internalType": "bool",
          "name": "approved",
          "type": "bool"
        }
      ],
      "name": "setApprovalForAll",
      "outputs": [],
      "stateMutability": "nonpayable",
      "type": "function"
    },
    {
      "inputs": [
        {
          "internalType": "uint8",
          "name": "_DAO_fee",
          "type": "uint8"
        }
      ],
      "name": "setDAOFee",
      "outputs": [],
      "stateMutability": "nonpayable",
      "type": "function"
    },
    {
      "inputs": [
        {
          "internalType": "address",
          "name": "_DAO_router01",
          "type": "address"
        }
      ],
      "name": "setDAORouter01",
      "outputs": [],
      "stateMutability": "nonpayable",
      "type": "function"
    },
    {
      "inputs": [
        {
          "internalType": "address",
          "name": "_DAO_router02",
          "type": "address"
        }
      ],
      "name": "setDAORouter02",
      "outputs": [],
      "stateMutability": "nonpayable",
      "type": "function"
    },
    {
      "inputs": [
        {
          "internalType": "uint64",
          "name": "_NFT_id",
          "type": "uint64"
        },
        {
          "internalType": "uint128",
          "name": "_shill_price",
          "type": "uint128"
        }
      ],
      "name": "setShillPrice",
      "outputs": [],
      "stateMutability": "nonpayable",
      "type": "function"
    },
    {
      "inputs": [
        {
          "internalType": "uint64",
          "name": "_NFT_id",
          "type": "uint64"
        },
        {
          "internalType": "bytes32",
          "name": "ipfs_hash",
          "type": "bytes32"
        }
      ],
      "name": "setURI",
      "outputs": [],
      "stateMutability": "nonpayable",
      "type": "function"
    },
    {
      "inputs": [
        {
          "internalType": "address",
          "name": "_uniswapV2Factory",
          "type": "address"
        }
      ],
      "name": "setUniswapV2Factory",
      "outputs": [],
      "stateMutability": "nonpayable",
      "type": "function"
    },
    {
      "inputs": [
        {
          "internalType": "address",
          "name": "_uniswapV2Router",
          "type": "address"
        }
      ],
      "name": "setUniswapV2Router",
      "outputs": [],
      "stateMutability": "nonpayable",
      "type": "function"
    },
    {
      "inputs": [
        {
          "internalType": "bytes4",
          "name": "interfaceId",
          "type": "bytes4"
        }
      ],
      "name": "supportsInterface",
      "outputs": [
        {
          "internalType": "bool",
          "name": "",
          "type": "bool"
        }
      ],
      "stateMutability": "view",
      "type": "function"
    },
    {
      "inputs": [],
      "name": "symbol",
      "outputs": [
        {
          "internalType": "string",
          "name": "",
          "type": "string"
        }
      ],
      "stateMutability": "view",
      "type": "function"
    },
    {
      "inputs": [
        {
          "internalType": "uint256",
          "name": "tokenId",
          "type": "uint256"
        }
      ],
      "name": "tokenURI",
      "outputs": [
        {
          "internalType": "string",
          "name": "",
          "type": "string"
        }
      ],
      "stateMutability": "view",
      "type": "function"
    },
    {
      "inputs": [
        {
          "internalType": "address",
          "name": "from",
          "type": "address"
        },
        {
          "internalType": "address",
          "name": "to",
          "type": "address"
        },
        {
          "internalType": "uint256",
          "name": "tokenId",
          "type": "uint256"
        }
      ],
      "name": "transferFrom",
      "outputs": [],
      "stateMutability": "payable",
      "type": "function"
    },
    {
      "inputs": [
        {
          "internalType": "address",
          "name": "newOwner",
          "type": "address"
        }
      ],
      "name": "transferOwnership",
      "outputs": [],
      "stateMutability": "nonpayable",
      "type": "function"
    },
    {
      "inputs": [],
      "name": "uniswapV2Factory",
      "outputs": [
        {
          "internalType": "contract IUniswapV2Factory",
          "name": "",
          "type": "address"
        }
      ],
      "stateMutability": "view",
      "type": "function"
    },
    {
      "inputs": [],
      "name": "uniswapV2Router",
      "outputs": [
        {
          "internalType": "contract IUniswapV2Router02",
          "name": "",
          "type": "address"
        }
      ],
      "stateMutability": "view",
      "type": "function"
    },
    {
      "inputs": [
        {
          "internalType": "uint64",
          "name": "_NFT_id",
          "type": "uint64"
        }
      ],
      "name": "updateURI",
      "outputs": [],
      "stateMutability": "nonpayable",
      "type": "function"
    }
  ],
  "bytecode": "0x60806040526004805460ff191660021790553480156200001e57600080fd5b5060405162004c5738038062004c5783398101604081905262000041916200021e565b6200004c336200010b565b600680546001600160a01b03199081166001600160a01b038581169190911790925560078054821684841617905560048054610100600160a81b031916610100888516021790556005805490911691851691909117905560408051808201909152600980825268537061726b4c696e6b60b81b6020909201918252620000d5916002916200015b565b506040805180820190915260038082526214d41360ea1b60209092019182526200010091816200015b565b5050505050620002b7565b600080546001600160a01b038381166001600160a01b0319831681178455604051919092169283917f8be0079c531659141344cd1fd0a4f28419497f9722a3daafe3b4186f6b6457e09190a35050565b82805462000169906200027a565b90600052602060002090601f0160209004810192826200018d5760008555620001d8565b82601f10620001a857805160ff1916838001178555620001d8565b82800160010185558215620001d8579182015b82811115620001d8578251825591602001919060010190620001bb565b50620001e6929150620001ea565b5090565b5b80821115620001e65760008155600101620001eb565b80516001600160a01b03811681146200021957600080fd5b919050565b6000806000806080858703121562000234578384fd5b6200023f8562000201565b93506200024f6020860162000201565b92506200025f6040860162000201565b91506200026f6060860162000201565b905092959194509250565b600181811c908216806200028f57607f821691505b60208210811415620002b157634e487b7160e01b600052602260045260246000fd5b50919050565b61499080620002c76000396000f3fe6080604052600436106102ff5760003560e01c806370a0823111610190578063bbe07d79116100dc578063d8d17e7911610095578063e9a5a3721161006f578063e9a5a37214610987578063f1ac67d3146109a7578063f2fde38b146109c7578063ff0eac45146109e757600080fd5b8063d8d17e79146108fe578063de029b1f1461091e578063e985e9c51461093e57600080fd5b8063bbe07d791461083c578063bd3355ed1461084f578063bdea26fa1461086f578063bf1a96571461088f578063c87b56dd146108c4578063cfc02f5f146108e457600080fd5b806395d89b4111610149578063ac03d00111610123578063ac03d001146107ca578063ae72e098146107f4578063b5c2bc2014610809578063b88d4fde1461082957600080fd5b806395d89b4114610775578063a22cb4651461078a578063a7c9e881146107aa57600080fd5b806370a082311461069b578063715018a6146106c95780638ba51d61146106de5780638da5cb5b146106fe578063927ef5461461071c57806392e6f9ac1461074e57600080fd5b806347bb09581161024f578063600f11db116102085780636579aea2116101e25780636579aea21461062857806365cb8c93146106485780636684320814610668578063671389b51461068857600080fd5b8063600f11db146105c857806361bc8a53146105e85780636352211e1461060857600080fd5b806347bb0958146104e65780634940df031461051857806350d93ca41461053d57806352f079781461057557806359d0f713146105885780635a034b3b146105a857600080fd5b80631694505e116102bc57806324d4401a1161029657806324d4401a146104735780632524ba4d146104935780632b9e0d72146104b357806342842e0e146104d357600080fd5b80631694505e146104085780631dab1af71461042857806323b872dd1461046057600080fd5b806301ffc9a71461030457806306fdde0314610339578063081812fc1461035b578063095ea7b3146103935780631419841d146103b557806316468b5c146103d5575b600080fd5b34801561031057600080fd5b5061032461031f366004614158565b610a07565b60405190151581526020015b60405180910390f35b34801561034557600080fd5b5061034e610a59565b6040516103309190614467565b34801561036757600080fd5b5061037b61037636600461421c565b610aeb565b6040516001600160a01b039091168152602001610330565b34801561039f57600080fd5b506103b36103ae366004614111565b610b54565b005b3480156103c157600080fd5b506103b36103d0366004613f9b565b610c74565b3480156103e157600080fd5b506103f56103f036600461424c565b610cc0565b60405161ffff9091168152602001610330565b34801561041457600080fd5b5060065461037b906001600160a01b031681565b34801561043457600080fd5b5061044861044336600461424c565b610d0f565b6040516001600160401b039091168152602001610330565b6103b361046e36600461400b565b610d64565b34801561047f57600080fd5b506103b361048e366004613f9b565b610d77565b34801561049f57600080fd5b506103b36104ae366004613f9b565b610df6565b3480156104bf57600080fd5b506103246104ce36600461424c565b610e79565b6103b36104e136600461400b565b610ea6565b3480156104f257600080fd5b5061050661050136600461424c565b610ec9565b60405160ff9091168152602001610330565b34801561052457600080fd5b5060045461037b9061010090046001600160a01b031681565b34801561054957600080fd5b5061055d61055836600461424c565b610f17565b6040516001600160801b039091168152602001610330565b6103b361058336600461433d565b610f65565b34801561059457600080fd5b5060075461037b906001600160a01b031681565b3480156105b457600080fd5b506103b36105c336600461424c565b611150565b3480156105d457600080fd5b506103246105e336600461424c565b6115d5565b3480156105f457600080fd5b506103b361060336600461424c565b611622565b34801561061457600080fd5b5061037b61062336600461421c565b6116d5565b34801561063457600080fd5b5061037b61064336600461424c565b611773565b34801561065457600080fd5b506103b3610663366004614281565b6117c1565b34801561067457600080fd5b506103b3610683366004614266565b611835565b6103b361069636600461433d565b61196c565b3480156106a757600080fd5b506106bb6106b6366004613f9b565b611a4b565b604051908152602001610330565b3480156106d557600080fd5b506103b3611ade565b3480156106ea57600080fd5b506103b36106f9366004613f9b565b611b14565b34801561070a57600080fd5b506000546001600160a01b031661037b565b34801561072857600080fd5b5061073c61073736600461424c565b611b60565b60405161033096959493929190614638565b34801561075a57600080fd5b5061032461076936600461424c565b63ffffffff1660011490565b34801561078157600080fd5b5061034e611bfe565b34801561079657600080fd5b506103b36107a53660046140e4565b611c0d565b3480156107b657600080fd5b5061055d6107c536600461424c565b611ccb565b3480156107d657600080fd5b506104486107e536600461424c565b63ffffffff60201b1660011790565b34801561080057600080fd5b50610506600581565b34801561081557600080fd5b506103b3610824366004614190565b611d1a565b6103b361083736600461404b565b61222c565b6103b361084a36600461424c565b61227d565b34801561085b57600080fd5b5061055d61086a36600461424c565b612693565b34801561087b57600080fd5b5061044861088a36600461424c565b612748565b34801561089b57600080fd5b506108af6108aa36600461424c565b6127a5565b60405163ffffffff9091168152602001610330565b3480156108d057600080fd5b5061034e6108df36600461421c565b6127f3565b3480156108f057600080fd5b506004546105069060ff1681565b34801561090a57600080fd5b506103f561091936600461424c565b612904565b34801561092a57600080fd5b506103b361093936600461433d565b612952565b34801561094a57600080fd5b50610324610959366004613fd3565b6001600160a01b039182166000908152600a6020908152604080832093909416825291909152205460ff1690565b34801561099357600080fd5b5060055461037b906001600160a01b031681565b3480156109b357600080fd5b506108af6109c236600461424c565b612ac2565b3480156109d357600080fd5b506103b36109e2366004613f9b565b612ad0565b3480156109f357600080fd5b506103b3610a0236600461436f565b612b68565b60006001600160e01b031982166380ac58cd60e01b1480610a3857506001600160e01b03198216635b5e139f60e01b145b80610a5357506301ffc9a760e01b6001600160e01b03198316145b92915050565b606060028054610a689061481b565b80601f0160208091040260200160405190810160405280929190818152602001828054610a949061481b565b8015610ae15780601f10610ab657610100808354040283529160200191610ae1565b820191906000526020600020905b815481529060010190602001808311610ac457829003601f168201915b5050505050905090565b6000610af96104ce83612c34565b610b1e5760405162461bcd60e51b8152600401610b15906144e6565b60405180910390fd5b60096000610b2b84612c34565b6001600160401b031681526020810191909152604001600020546001600160a01b031692915050565b6000610b5f826116d5565b9050806001600160a01b0316836001600160a01b03161415610bcf5760405162461bcd60e51b8152602060048201526024808201527f537061726b4c696e6b3a20417070726f76616c20746f2063757272656e74206f6044820152633bb732b960e11b6064820152608401610b15565b336001600160a01b0382161480610beb5750610beb8133610959565b610c5d5760405162461bcd60e51b815260206004820152603b60248201527f537061726b4c696e6b3a20417070726f76652063616c6c6572206973206e6f7460448201527f206f776e6572206e6f7220617070726f76656420666f7220616c6c00000000006064820152608401610b15565b610c6f83610c6a84612c34565b612ca1565b505050565b6000546001600160a01b03163314610c9e5760405162461bcd60e51b8152600401610b15906144b1565b600680546001600160a01b0319166001600160a01b0392909216919091179055565b6000610ccb82610e79565b610ce75760405162461bcd60e51b8152600401610b159061458a565b63ffffffff60201b82166001176000908152600c602052604090205460281c61ffff16610a53565b6000610d1a82610e79565b610d365760405162461bcd60e51b8152600401610b159061458a565b60005b600163ffffffff841614610a5357610d526001826146cb565b9050610d5d83612748565b9250610d39565b610c6f8383610d7284612c34565b612d17565b6000546001600160a01b03163314610da15760405162461bcd60e51b8152600401610b15906144b1565b600580546001600160a01b0319166001600160a01b0383169081179091556040519081527fad9f5d3a0262397ea3bce025a8e83caec6c9366b95c90b6e082a36a7085c5c2b906020015b60405180910390a150565b6000546001600160a01b03163314610e205760405162461bcd60e51b8152600401610b15906144b1565b60048054610100600160a81b0319166101006001600160a01b038481168202929092179283905560405192041681527fad9f5d3a0262397ea3bce025a8e83caec6c9366b95c90b6e082a36a7085c5c2b90602001610deb565b6001600160401b03166000908152600c6020526040902054600160501b90046001600160a01b0316151590565b610c6f8383610eb484612c34565b60405180602001604052806000815250612fa8565b6000610ed482610e79565b610ef05760405162461bcd60e51b8152600401610b159061458a565b63ffffffff60201b82166001176000908152600c602052604090205460381c60ff16610a53565b6000610f2282610e79565b610f3e5760405162461bcd60e51b8152600401610b159061458a565b5063ffffffff602091821c166000908152600b90915260409020546001600160801b031690565b6000610f7083611773565b905060006001600160a01b038216610fb157826001600160801b03163414610faa5760405162461bcd60e51b8152600401610b159061447a565b50816110dc565b6040516370a0823160e01b81523060048201526000906001600160a01b038416906370a082319060240160206040518083038186803b158015610ff357600080fd5b505afa158015611007573d6000803e3d6000fd5b505050506040513d601f19601f8201168201806040525081019061102b9190614234565b905061104b6001600160a01b03841633306001600160801b038816612fe1565b6040516370a0823160e01b81523060048201526110d89082906001600160a01b038616906370a08231906024015b60206040518083038186803b15801561109157600080fd5b505afa1580156110a5573d6000803e3d6000fd5b505050506040513d601f19601f820116820180604052508101906110c99190614234565b6110d391906147b8565b61304c565b9150505b6001600160401b0384166000908152600c6020526040902060020154611113908290600160801b90046001600160801b0316614691565b6001600160401b039094166000908152600c6020526040902060020180546001600160801b03958616600160801b02951694909417909355505050565b61115981610e79565b6111b45760405162461bcd60e51b815260206004820152602660248201527f537061726b4c696e6b3a20546869732065646974696f6e20646f6573206e6f7460448201526508195e1a5cdd60d21b6064820152608401610b15565b6001600160401b0381166000908152600c6020526040902060020154600160801b90046001600160801b0316156115d2576001600160401b0381166000908152600c6020526040812060020154600160801b90046001600160801b03169061121b83611773565b60045490915060ff16156113f85760045460009061123d90849060ff166130b6565b90506112498184614775565b92506001600160a01b0382166112a8576004546040516001600160a01b0361010090920491909116906001600160801b03831680156108fc02916000818181858888f193505050501580156112a2573d6000803e3d6000fd5b506113f6565b600754600654604080516315ab88c960e31b815290516000936001600160a01b039081169363e6a43905938893919092169163ad5c4648916004808301926020929190829003018186803b1580156112ff57600080fd5b505afa158015611313573d6000803e3d6000fd5b505050506040513d601f19601f820116820180604052508101906113379190613fb7565b6040516001600160e01b031960e085901b1681526001600160a01b0392831660048201529116602482015260440160206040518083038186803b15801561137d57600080fd5b505afa158015611391573d6000803e3d6000fd5b505050506040513d601f19601f820116820180604052508101906113b59190613fb7565b6001600160a01b031614156113ec576005546113e7906001600160a01b0384811691166001600160801b0384166130d8565b6113f6565b6113f68282613108565b505b6001600160401b0383166000908152600c6020526040902060020180546001600160801b0316905563ffffffff83166001146114ce5760006114428361143d86610ec9565b6130b6565b9050600061144f85612748565b6001600160401b0381166000908152600c6020526040902060020154909150611489908390600160801b90046001600160801b0316614691565b6001600160401b0382166000908152600c6020526040902060020180546001600160801b03928316600160801b0292169190911790556114c98285614775565b935050505b6001600160a01b038116611535576114ee836001600160401b03166116d5565b6001600160a01b03166108fc836001600160801b03169081150290604051600060405180830381858888f1935050505015801561152f573d6000803e3d6000fd5b50611564565b61156461154a846001600160401b03166116d5565b6001600160a01b038316906001600160801b0385166130d8565b611576836001600160401b03166116d5565b6001600160a01b0316836001600160401b03167f3dc1a77733195d8bbde8f8bc719f598f47f377c9c4b854d561b4d607a8e81f62846040516115c791906001600160801b0391909116815260200190565b60405180910390a350505b50565b60006115e082610e79565b6115fc5760405162461bcd60e51b8152600401610b159061458a565b600163ffffffff60201b831681176000908152600c602052604090205460271c16610a53565b336116356001600160401b0383166116d5565b6001600160a01b0316146116a25760405162461bcd60e51b815260206004820152602e60248201527f537061726b4c696e6b3a204f6e6c79206f776e65722063616e2075706461746560448201526d2074686520746f6b656e2055524960901b6064820152608401610b15565b600163ffffffff60201b821681176000908152600c60205260408082208301546001600160401b03909416825290200155565b600080600c60006116e585612c34565b6001600160401b03168152602081019190915260400160002054600160501b90046001600160a01b0316905080610a535760405162461bcd60e51b815260206004820152602c60248201527f537061726b4c696e6b3a204f776e657220717565727920666f72206e6f6e657860448201526b34b9ba32b73a103a37b5b2b760a11b6064820152608401610b15565b600061177e82610e79565b61179a5760405162461bcd60e51b8152600401610b159061458a565b5063ffffffff602091821c166000908152600d90915260409020546001600160a01b031690565b6117ca82610e79565b6117e65760405162461bcd60e51b8152600401610b159061458a565b336001600160a01b0316826001600160401b03167f9cc011b1d85765376f3585dba66805d69ed772f753a2ed22bb4dda05265c3710836040516118299190614467565b60405180910390a35050565b61183e826115d5565b156118e1576001600160401b03821663ffffffff60201b8316600117146118e15760405162461bcd60e51b815260206004820152604b60248201527f537061726b4c696e6b3a204e465420666f6c6c6f777320746865204e4420707260448201527f6f746f636f6c2c206f6e6c792074686520726f6f74204e46542773205552492060648201526a31b0b71031329039b2ba1760a91b608482015260a401610b15565b336118f46001600160401b0384166116d5565b6001600160a01b03161461195e5760405162461bcd60e51b815260206004820152602b60248201527f537061726b4c696e6b3a204f6e6c79206f776e65722063616e2073657420746860448201526a6520746f6b656e2055524960a81b6064820152608401610b15565b611968828261330d565b5050565b600061197783611773565b905060006001600160a01b0382166119b157826001600160801b03163414610faa5760405162461bcd60e51b8152600401610b159061447a565b6040516370a0823160e01b81523060048201526000906001600160a01b038416906370a082319060240160206040518083038186803b1580156119f357600080fd5b505afa158015611a07573d6000803e3d6000fd5b505050506040513d601f19601f82011682018060405250810190611a2b9190614234565b905061104b6001600160a01b03841632306001600160801b038816612fe1565b60006001600160a01b038216611ab95760405162461bcd60e51b815260206004820152602d60248201527f537061726b4c696e6b3a2042616c616e636520717565727920666f722074686560448201526c207a65726f206164647265737360981b6064820152608401610b15565b506001600160a01b03166000908152600860205260409020546001600160401b031690565b6000546001600160a01b03163314611b085760405162461bcd60e51b8152600401610b15906144b1565b611b12600061336a565b565b6000546001600160a01b03163314611b3e5760405162461bcd60e51b8152600401610b15906144b1565b600780546001600160a01b0319166001600160a01b0392909216919091179055565b60008060008060006060611b7387610e79565b611b8f5760405162461bcd60e51b8152600401610b15906144e6565b63ffffffff60201b87166001176000908152600c60205260409020546001600160401b0316611bbd88612748565b611bc689611ccb565b611bcf8a612904565b611bd88b612693565b611bea8c6001600160401b03166127f3565b949c939b5091995097509550909350915050565b606060038054610a689061481b565b6001600160a01b038216331415611c665760405162461bcd60e51b815260206004820152601c60248201527f537061726b4c696e6b3a20417070726f766520746f2063616c6c6572000000006044820152606401610b15565b336000818152600a602090815260408083206001600160a01b03871680855290835292819020805460ff191686151590811790915590519081529192917f17307eab39ab6107e8899845ad3d59bd9653f200f220920489ca2b5937696c319101611829565b6000611cd682610e79565b611cf25760405162461bcd60e51b8152600401610b159061458a565b506001600160401b03166000908152600c60205260409020600201546001600160801b031690565b60648560ff161115611d805760405162461bcd60e51b815260206004820152602960248201527f537061726b4c696e6b3a20526f79616c7479206665652073686f756c64206265604482015268101e1e90189818129760b91b6064820152608401610b15565b866001600160801b0316866001600160801b03161115611e085760405162461bcd60e51b815260206004820152603b60248201527f537061726b4c696e6b3a20526f79616c74792070726963652073686f756c642060448201527f6c657373207468616e2066697273742073656c6c2070726963652e00000000006064820152608401610b15565b611e16600180546001019055565b63ffffffff611e2460015490565b1115611e835760405162461bcd60e51b815260206004820152602860248201527f537061726b4c696e6b3a2056616c756520646f65736e27742066697420696e206044820152671999103134ba399760c11b6064820152608401610b15565b6001600160a01b03821615611f52576000826001600160a01b03166318160ddd6040518163ffffffff1660e01b815260040160206040518083038186803b158015611ecd57600080fd5b505afa158015611ee1573d6000803e3d6000fd5b505050506040513d601f19601f82011682018060405250810190611f059190614234565b11611f525760405162461bcd60e51b815260206004820152601f60248201527f4e6f7420612076616c696420455243323020746f6b656e2061646472657373006044820152606401610b15565b6000611f5d60015490565b9050600063ffffffff60201b602083901b166001179050611f9060003383604051806020016040528060008152506133ba565b611fac5760405162461bcd60e51b8152600401610b1590614535565b6001600160401b0381166000908152600c6020526040902064800000000019602888901b1666ffff80000000001960388a901b1617602785901b17611ff26001826146cb565b905089600b60008663ffffffff1663ffffffff16815260200190815260200160002060006101000a8154816001600160801b0302191690836001600160801b0316021790555085600d60008663ffffffff1663ffffffff16815260200190815260200160002060006101000a8154816001600160a01b0302191690836001600160a01b03160217905550808260000160006101000a8154816001600160401b0302191690836001600160401b03160217905550878260000160086101000a81548161ffff021916908361ffff1602179055508a8260020160006101000a8154816001600160801b0302191690836001600160801b031602179055503382600001600a6101000a8154816001600160a01b0302191690836001600160a01b03160217905550868260010181905550600160086000336001600160a01b03166001600160a01b0316815260200190815260200160002060008282829054906101000a90046001600160401b031661216791906146cb565b92506101000a8154816001600160401b0302191690836001600160401b03160217905550826001600160401b0316336001600160a01b031660006001600160a01b03167fddf252ad1be2c89b69c2b068fc378daa952ba7f163c4a11628f55a4df523b3ef60405160405180910390a46040516001600160a01b03871681526001600160401b0384169033907f072ee21d81ebd9fc5f68a2c36d04cbbd9eff1e2567a48dd7ecce61d5af159fad9060200160405180910390a35050505050505050505050565b612276858561223a86612c34565b85858080601f016020809104026020016040519081016040528093929190818152602001838380828437600092019190915250612fa892505050565b5050505050565b61228681610e79565b6122dd5760405162461bcd60e51b815260206004820152602260248201527f537061726b4c696e6b3a2054686973204e465420646f6573206e6f74206578696044820152611cdd60f21b6064820152608401610b15565b6001600160401b0381166000908152600c6020526040902054600160401b900461ffff166123735760405162461bcd60e51b815260206004820152603860248201527f537061726b4c696e6b3a205468657265206973206e6f2072656d61696e696e6760448201527f207368696c6c2074696d6520666f722074686973204e465400000000000000006064820152608401610b15565b600061237e82611773565b6001600160401b0383166000908152600c60205260408120600201549192506001600160801b039091169081906123b485610f17565b90506001600160a01b0384166123f157826001600160801b031634146123ec5760405162461bcd60e51b8152600401610b159061447a565b6124f2565b6040516370a0823160e01b81523060048201526000906001600160a01b038616906370a082319060240160206040518083038186803b15801561243357600080fd5b505afa158015612447573d6000803e3d6000fd5b505050506040513d601f19601f8201168201806040525081019061246b9190614234565b905061248b6001600160a01b03861633306001600160801b038816612fe1565b6040516370a0823160e01b81523060048201526124bd9082906001600160a01b038816906370a0823190602401611079565b9250816001600160801b0316836001600160801b0316116124f05760405162461bcd60e51b8152600401610b159061447a565b505b6001600160401b0385166000908152600c6020526040902060020154819061252b908490600160801b90046001600160801b0316614691565b6125359190614775565b6001600160401b0386166000908152600c60208190526040822060020180546001600160801b03948516600160801b029416939093179092558291906125848863ffffffff60201b1660011790565b6001600160401b031681526020810191909152604001600020600201546125bb9190600160801b90046001600160801b0316614691565b600163ffffffff60201b871681176000908152600c602052604080822060020180546001600160801b03958616600160801b029516949094179093556001600160401b038816815291909120805460089061262390849061ffff600160401b9091041661479d565b92506101000a81548161ffff021916908361ffff16021790555061264785336134c7565b506001600160401b0385166000908152600c6020526040902054600160401b900461ffff166122765761268b85612686876001600160401b03166116d5565b6134c7565b505050505050565b600061269e82610e79565b6126ba5760405162461bcd60e51b8152600401610b159061458a565b6001600160401b0382166000908152600c6020526040902060020154600454600160801b9091046001600160801b03169060ff16156127175760045460009061270790839060ff166130b6565b90506127138183614775565b9150505b600163ffffffff841614610a535760006127348261143d86610ec9565b90506127408183614775565b949350505050565b600061275382610e79565b61276f5760405162461bcd60e51b8152600401610b159061458a565b600163ffffffff8316141561278657506000919050565b506001600160401b039081166000908152600c60205260409020541690565b60006127b082610e79565b6127cc5760405162461bcd60e51b8152600401610b159061458a565b63ffffffff60201b82166001176000908152600c602052604090205463ffffffff16610a53565b60606128016104ce83612c34565b6128605760405162461bcd60e51b815260206004820152602a60248201527f537061726b4c696e6b3a2055524920717565727920666f72206e6f6e657869736044820152693a32b73a103a37b5b2b760b11b6064820152608401610b15565b6000600c600061286f85612c34565b6001600160401b03166001600160401b0316815260200190815260200160002060010154905060006128a0826136ab565b905060006128d660408051808201909152601581527468747470733a2f2f697066732e696f2f697066732f60581b602082015290565b905080826040516020016128eb9291906143f3565b6040516020818303038152906040529350505050919050565b600061290f82610e79565b61292b5760405162461bcd60e51b8152600401610b159061458a565b506001600160401b03166000908152600c6020526040902054600160401b900461ffff1690565b336129656001600160401b0384166116d5565b6001600160a01b0316146129d15760405162461bcd60e51b815260206004820152602d60248201527f537061726b4c696e6b3a204f6e6c79206f776e65722063616e2073657420746860448201526c65207368696c6c20707269636560981b6064820152608401610b15565b602082811c63ffffffff166000908152600b90915260409020546001600160801b039081169082161015612a535760405162461bcd60e51b8152602060048201526024808201527f537061726b4c696e6b3a2043616e206e6f74206c6f776572207368696c6c20706044820152637269636560e01b6064820152608401610b15565b6001600160401b0382166000818152600c602090815260409182902060020180546001600160801b0319166001600160801b03861690811790915591519182527f377b158542dff5790dd304c195d4b70572f87ebc159befa46dec1bf12d12690f910160405180910390a25050565b600063ffffffff8216610a53565b6000546001600160a01b03163314612afa5760405162461bcd60e51b8152600401610b15906144b1565b6001600160a01b038116612b5f5760405162461bcd60e51b815260206004820152602660248201527f4f776e61626c653a206e6577206f776e657220697320746865207a65726f206160448201526564647265737360d01b6064820152608401610b15565b6115d28161336a565b6000546001600160a01b03163314612b925760405162461bcd60e51b8152600401610b15906144b1565b600560ff82161115612bf25760405162461bcd60e51b8152602060048201526024808201527f537061726b4c696e6b3a2044414f206665652063616e206e6f742065786365656044820152636420352560e01b6064820152608401610b15565b6004805460ff191660ff83169081179091556040519081527f3b84993d5b3fec361e7deb59009980f9401453eb8841ab8f62f36fee2fcd8d3790602001610deb565b60006001600160401b03821115612c9d5760405162461bcd60e51b815260206004820152602760248201527f537061726b4c696e6b3a2056616c756520646f65736e27742066697420696e206044820152663634206269747360c81b6064820152608401610b15565b5090565b6001600160401b038116600081815260096020526040902080546001600160a01b0319166001600160a01b038516908117909155612cde826116d5565b6001600160a01b03167f8c5be1e5ebec7d5bd14f71427d1e84f3dd0314c0f7b2291e5b200ac8c7c3b92560405160405180910390a45050565b826001600160a01b0316612d33826001600160401b03166116d5565b6001600160a01b031614612d9e5760405162461bcd60e51b815260206004820152602c60248201527f537061726b4c696e6b3a205472616e73666572206f6620746f6b656e2074686160448201526b3a1034b9903737ba1037bbb760a11b6064820152608401610b15565b612da833826138c1565b612e115760405162461bcd60e51b815260206004820152603460248201527f537061726b4c696e6b3a205472616e736665722063616c6c6572206973206e6f6044820152731d081bdddb995c881b9bdc88185c1c1c9bdd995960621b6064820152608401610b15565b6001600160a01b038216612e775760405162461bcd60e51b815260206004820152602760248201527f537061726b4c696e6b3a205472616e7366657220746f20746865207a65726f206044820152666164647265737360c81b6064820152608401610b15565b612e8081611150565b612e89816139bc565b6001600160a01b0383166000908152600860205260408120805460019290612ebb9084906001600160401b03166147cf565b82546101009290920a6001600160401b038181021990931691831602179091556001600160a01b03841660009081526008602052604081208054600194509092612f07918591166146cb565b82546101009290920a6001600160401b0381810219909316918316021790915582166000818152600c602052604080822080547fffff0000000000000000000000000000000000000000ffffffffffffffffffff16600160501b6001600160a01b0389811691820292909217909255915193945092908716917fddf252ad1be2c89b69c2b068fc378daa952ba7f163c4a11628f55a4df523b3ef91a4505050565b612fb3848484612d17565b612fbf848484846133ba565b612fdb5760405162461bcd60e51b8152600401610b1590614535565b50505050565b6040516001600160a01b0380851660248301528316604482015260648101829052612fdb9085906323b872dd60e01b906084015b60408051601f198184030181529190526020810180516001600160e01b03166001600160e01b0319909316929092179091526139c7565b60006001600160801b03821115612c9d5760405162461bcd60e51b815260206004820152602860248201527f537061726b4c696e6b3a2056616c756520646f65736e27742066697420696e20604482015267313238206269747360c01b6064820152608401610b15565b600060646130c760ff841685614727565b6130d191906146ed565b9392505050565b6040516001600160a01b038316602482015260448101829052610c6f90849063a9059cbb60e01b90606401613015565b604080516002808252606082018352600092602083019080368337019050509050828160008151811061314b57634e487b7160e01b600052603260045260246000fd5b6001600160a01b03928316602091820292909201810191909152600654604080516315ab88c960e31b81529051919093169263ad5c4648926004808301939192829003018186803b15801561319f57600080fd5b505afa1580156131b3573d6000803e3d6000fd5b505050506040513d601f19601f820116820180604052508101906131d79190613fb7565b816001815181106131f857634e487b7160e01b600052603260045260246000fd5b6001600160a01b03928316602091820292909201015260065460405163095ea7b360e01b815290821660048201526001600160801b03841660248201529084169063095ea7b390604401602060405180830381600087803b15801561325c57600080fd5b505af1158015613270573d6000803e3d6000fd5b505050506040513d601f19601f82011682018060405250810190613294919061413c565b506006546004805460405163791ac94760e01b81526001600160a01b039384169363791ac947936132d6938893600093899361010090930416914291016145bf565b600060405180830381600087803b1580156132f057600080fd5b505af1158015613304573d6000803e3d6000fd5b50505050505050565b6001600160401b0382166000818152600c602090815260409182902060010180549085905591518281529192917fe90177e540151840c574e5fa1cf28779ddcd6237de35fdf45150c0da6a108dcc910160405180910390a2505050565b600080546001600160a01b038381166001600160a01b0319831681178455604051919092169283917f8be0079c531659141344cd1fd0a4f28419497f9722a3daafe3b4186f6b6457e09190a35050565b60006001600160a01b0384163b156134bc57604051630a85bd0160e11b81526001600160a01b0385169063150b7a02906133fe903390899088908890600401614422565b602060405180830381600087803b15801561341857600080fd5b505af1925050508015613448575060408051601f3d908101601f1916820190925261344591810190614174565b60015b6134a2573d808015613476576040519150601f19603f3d011682016040523d82523d6000602084013e61347b565b606091505b50805161349a5760405162461bcd60e51b8152600401610b1590614535565b805181602001fd5b6001600160e01b031916630a85bd0160e11b149050612740565b506001949350505050565b60006134d283613a99565b60006134dd846127a5565b9050600063ffffffff60201b851663ffffffff831617905061351160008583604051806020016040528060008152506133ba565b61352d5760405162461bcd60e51b8152600401610b1590614535565b6001600160401b0381166000908152600c6020526040902061354e86610cc0565b81546001600160401b0380891667ffffffffffffffff1961ffff94909416600160401b0293841669ffffffffffffffffffff19841617811785556000818152600c60209081526040808320600280820154908a0180546001600160801b0319166001600160801b039092169190911790556001600160a01b038d16600160501b81027fffff0000000000000000000000000000000000000000ffff00000000000000009099166001600160f01b0319909816979097179094179690961787556001928301548388015593815260089093529282208054909291613633918591166146cb565b92506101000a8154816001600160401b0302191690836001600160401b03160217905550816001600160401b0316856001600160a01b031660006001600160a01b03167fddf252ad1be2c89b69c2b068fc378daa952ba7f163c4a11628f55a4df523b3ef60405160405180910390a450949350505050565b60606000604051806040016040528060028152602001609160f51b815250836040516020016136db9291906143d1565b60408051601f1981840301815281835261082083018252925060009190602082016108008036833701905050905060008160008151811061372c57634e487b7160e01b600052603260045260246000fd5b60ff90921660209283029190910190910152600160005b835181101561389d57600084828151811061376e57634e487b7160e01b600052603260045260246000fd5b016020015160f81c905060005b8360ff16811015613824578481815181106137a657634e487b7160e01b600052603260045260246000fd5b602002602001015160ff166101006137be9190614756565b6137c890836146b3565b91506137d5603a83614891565b8582815181106137f557634e487b7160e01b600052603260045260246000fd5b60ff90921660209283029190910190910152613812603a83614713565b915061381d81614856565b905061377b565b505b801561388c57613837603a82614891565b848460ff168151811061385a57634e487b7160e01b600052603260045260246000fd5b60ff909216602092830291909101909101528261387681614871565b93506138859050603a82614713565b9050613826565b5061389681614856565b9050613743565b506138b86138b36138ae8484613b69565b613c44565b613d32565b95945050505050565b60006138cc82610e79565b6139305760405162461bcd60e51b815260206004820152602f60248201527f537061726b4c696e6b3a204f70657261746f7220717565727920666f72206e6f60448201526e3732bc34b9ba32b73a103a37b5b2b760891b6064820152608401610b15565b6000613944836001600160401b03166116d5565b9050806001600160a01b0316846001600160a01b031614806139885750836001600160a01b031661397d846001600160401b0316610aeb565b6001600160a01b0316145b8061274057506001600160a01b038082166000908152600a602090815260408083209388168352929052205460ff16612740565b6115d2600082612ca1565b6000613a1c826040518060400160405280602081526020017f5361666545524332303a206c6f772d6c6576656c2063616c6c206661696c6564815250856001600160a01b0316613e4c9092919063ffffffff16565b805190915015610c6f5780806020019051810190613a3a919061413c565b610c6f5760405162461bcd60e51b815260206004820152602a60248201527f5361666545524332303a204552433230206f7065726174696f6e20646964206e6044820152691bdd081cdd58d8d9595960b21b6064820152608401610b15565b637fffffff613aa7826127a5565b63ffffffff1610613b0d5760405162461bcd60e51b815260206004820152602a60248201527f537061726b4c696e6b3a205468657265206973206e6f206c65667420696e20746044820152693434b99034b9b9bab29760b11b6064820152608401610b15565b600163ffffffff60201b821681176000908152600c602052604081208054909190613b429084906001600160401b03166146cb565b92506101000a8154816001600160401b0302191690836001600160401b0316021790555050565b606060008260ff166001600160401b03811115613b9657634e487b7160e01b600052604160045260246000fd5b604051908082528060200260200182016040528015613bbf578160200160208202803683370190505b50905060005b8360ff16811015613c3c57848181518110613bf057634e487b7160e01b600052603260045260246000fd5b6020026020010151828281518110613c1857634e487b7160e01b600052603260045260246000fd5b60ff9092166020928302919091019091015280613c3481614856565b915050613bc5565b509392505050565b6060600082516001600160401b03811115613c6f57634e487b7160e01b600052604160045260246000fd5b604051908082528060200260200182016040528015613c98578160200160208202803683370190505b50905060005b8351811015613d2b57838160018651613cb791906147b8565b613cc191906147b8565b81518110613cdf57634e487b7160e01b600052603260045260246000fd5b6020026020010151828281518110613d0757634e487b7160e01b600052603260045260246000fd5b60ff9092166020928302919091019091015280613d2381614856565b915050613c9e565b5092915050565b6060600082516001600160401b03811115613d5d57634e487b7160e01b600052604160045260246000fd5b6040519080825280601f01601f191660200182016040528015613d87576020820181803683370190505b50905060005b8351811015613d2b576040518060600160405280603a8152602001614921603a9139848281518110613dcf57634e487b7160e01b600052603260045260246000fd5b602002602001015160ff1681518110613df857634e487b7160e01b600052603260045260246000fd5b602001015160f81c60f81b828281518110613e2357634e487b7160e01b600052603260045260246000fd5b60200101906001600160f81b031916908160001a90535080613e4481614856565b915050613d8d565b6060612740848460008585843b613ea55760405162461bcd60e51b815260206004820152601d60248201527f416464726573733a2063616c6c20746f206e6f6e2d636f6e74726163740000006044820152606401610b15565b600080866001600160a01b03168587604051613ec191906143b5565b60006040518083038185875af1925050503d8060008114613efe576040519150601f19603f3d011682016040523d82523d6000602084013e613f03565b606091505b5091509150613f13828286613f1e565b979650505050505050565b60608315613f2d5750816130d1565b825115613f3d5782518084602001fd5b8160405162461bcd60e51b8152600401610b159190614467565b80356001600160801b0381168114613f6e57600080fd5b919050565b80356001600160401b0381168114613f6e57600080fd5b803560ff81168114613f6e57600080fd5b600060208284031215613fac578081fd5b81356130d1816148e7565b600060208284031215613fc8578081fd5b81516130d1816148e7565b60008060408385031215613fe5578081fd5b8235613ff0816148e7565b91506020830135614000816148e7565b809150509250929050565b60008060006060848603121561401f578081fd5b833561402a816148e7565b9250602084013561403a816148e7565b929592945050506040919091013590565b600080600080600060808688031215614062578081fd5b853561406d816148e7565b9450602086013561407d816148e7565b93506040860135925060608601356001600160401b038082111561409f578283fd5b818801915088601f8301126140b2578283fd5b8135818111156140c0578384fd5b8960208285010111156140d1578384fd5b9699959850939650602001949392505050565b600080604083850312156140f6578182fd5b8235614101816148e7565b91506020830135614000816148fc565b60008060408385031215614123578182fd5b823561412e816148e7565b946020939093013593505050565b60006020828403121561414d578081fd5b81516130d1816148fc565b600060208284031215614169578081fd5b81356130d18161490a565b600060208284031215614185578081fd5b81516130d18161490a565b600080600080600080600060e0888a0312156141aa578182fd5b6141b388613f57565b96506141c160208901613f57565b95506141cf60408901613f8a565b9450606088013561ffff811681146141e5578283fd5b93506080880135925060a08801356141fc816148e7565b915060c088013561420c816148fc565b8091505092959891949750929550565b60006020828403121561422d578081fd5b5035919050565b600060208284031215614245578081fd5b5051919050565b60006020828403121561425d578081fd5b6130d182613f73565b60008060408385031215614278578182fd5b61412e83613f73565b60008060408385031215614293578182fd5b61429c83613f73565b915060208301356001600160401b03808211156142b7578283fd5b818501915085601f8301126142ca578283fd5b8135818111156142dc576142dc6148d1565b604051601f8201601f19908116603f01168101908382118183101715614304576143046148d1565b8160405282815288602084870101111561431c578586fd5b82602086016020830137856020848301015280955050505050509250929050565b6000806040838503121561434f578182fd5b61435883613f73565b915061436660208401613f57565b90509250929050565b600060208284031215614380578081fd5b6130d182613f8a565b600081518084526143a18160208601602086016147ef565b601f01601f19169290920160200192915050565b600082516143c78184602087016147ef565b9190910192915050565b600083516143e38184602088016147ef565b9190910191825250602001919050565b600083516144058184602088016147ef565b8351908301906144198183602088016147ef565b01949350505050565b6001600160a01b038581168252841660208201526001600160401b038316604082015260806060820181905260009061445d90830184614389565b9695505050505050565b6020815260006130d16020830184614389565b60208082526018908201527f537061726b4c696e6b3a205072696365206e6f74206d65740000000000000000604082015260600190565b6020808252818101527f4f776e61626c653a2063616c6c6572206973206e6f7420746865206f776e6572604082015260600190565b6020808252602f908201527f537061726b4c696e6b3a20417070726f76656420717565727920666f72206e6f60408201526e3732bc34b9ba32b73a103a37b5b2b760891b606082015260800190565b60208082526035908201527f537061726b4c696e6b3a205472616e7366657220746f206e6f6e20455243373260408201527418a932b1b2b4bb32b91034b6b83632b6b2b73a32b960591b606082015260800190565b6020808252818101527f537061726b4c696e6b3a2045646974696f6e206973206e6f742065786973742e604082015260600190565b600060a082016001600160801b03881683526020878185015260a0604085015281875180845260c0860191508289019350845b818110156146175784516001600160a01b0316835293830193918301916001016145f2565b50506001600160a01b03969096166060850152505050608001529392505050565b6001600160401b038781168252861660208201526001600160801b03858116604083015261ffff851660608301528316608082015260c060a0820181905260009061468590830184614389565b98975050505050505050565b60006001600160801b03808316818516808303821115614419576144196148a5565b600082198211156146c6576146c66148a5565b500190565b60006001600160401b03808316818516808303821115614419576144196148a5565b60006001600160801b0380841680614707576147076148bb565b92169190910492915050565b600082614722576147226148bb565b500490565b60006001600160801b038083168185168183048111821515161561474d5761474d6148a5565b02949350505050565b6000816000190483118215151615614770576147706148a5565b500290565b60006001600160801b0383811690831681811015614795576147956148a5565b039392505050565b600061ffff83811690831681811015614795576147956148a5565b6000828210156147ca576147ca6148a5565b500390565b60006001600160401b0383811690831681811015614795576147956148a5565b60005b8381101561480a5781810151838201526020016147f2565b83811115612fdb5750506000910152565b600181811c9082168061482f57607f821691505b6020821081141561485057634e487b7160e01b600052602260045260246000fd5b50919050565b600060001982141561486a5761486a6148a5565b5060010190565b600060ff821660ff811415614888576148886148a5565b60010192915050565b6000826148a0576148a06148bb565b500690565b634e487b7160e01b600052601160045260246000fd5b634e487b7160e01b600052601260045260246000fd5b634e487b7160e01b600052604160045260246000fd5b6001600160a01b03811681146115d257600080fd5b80151581146115d257600080fd5b6001600160e01b0319811681146115d257600080fdfe31323334353637383941424344454647484a4b4c4d4e505152535455565758595a6162636465666768696a6b6d6e6f707172737475767778797aa2646970667358221220f68b8fc5dddca5c1b6efeb63268d3aede2f9a0f0c96c0f9430ded851fe19c06564736f6c63430008040033",
  "linkReferences": {},
  "deployedLinkReferences": {}
}