{
  "_format": "hh-sol-artifact-1",
  "contractName": "SparkLink",
  "sourceName": "contracts/SparkLink.sol",
  "abi": [
    {
      "inputs": [],
      "stateMutability": "nonpayable",
      "type": "constructor"
    },
    {
      "anonymous": false,
      "inputs": [
        {
          "indexed": true,
          "internalType": "address",
          "name": "owner",
          "type": "address"
        },
        {
          "indexed": true,
          "internalType": "address",
          "name": "approved",
          "type": "address"
        },
        {
          "indexed": true,
          "internalType": "uint256",
          "name": "tokenId",
          "type": "uint256"
        }
      ],
      "name": "Approval",
      "type": "event"
    },
    {
      "anonymous": false,
      "inputs": [
        {
          "indexed": true,
          "internalType": "address",
          "name": "owner",
          "type": "address"
        },
        {
          "indexed": true,
          "internalType": "address",
          "name": "operator",
          "type": "address"
        },
        {
          "indexed": false,
          "internalType": "bool",
          "name": "approved",
          "type": "bool"
        }
      ],
      "name": "ApprovalForAll",
      "type": "event"
    },
    {
      "anonymous": false,
      "inputs": [
        {
          "indexed": true,
          "internalType": "uint64",
          "name": "NFT_id",
          "type": "uint64"
        },
        {
          "indexed": true,
          "internalType": "address",
          "name": "receiver",
          "type": "address"
        },
        {
          "indexed": false,
          "internalType": "uint128",
          "name": "amount",
          "type": "uint128"
        }
      ],
      "name": "Claim",
      "type": "event"
    },
    {
      "anonymous": false,
      "inputs": [
        {
          "indexed": true,
          "internalType": "uint64",
          "name": "NFT_id",
          "type": "uint64"
        },
        {
          "indexed": false,
          "internalType": "uint128",
          "name": "transfer_price",
          "type": "uint128"
        }
      ],
      "name": "DeterminePrice",
      "type": "event"
    },
    {
      "anonymous": false,
      "inputs": [
        {
          "indexed": true,
          "internalType": "uint64",
          "name": "NFT_id",
          "type": "uint64"
        },
        {
          "indexed": false,
          "internalType": "uint128",
          "name": "transfer_price",
          "type": "uint128"
        },
        {
          "indexed": true,
          "internalType": "address",
          "name": "to",
          "type": "address"
        }
      ],
      "name": "DeterminePriceAndApprove",
      "type": "event"
    },
    {
      "anonymous": false,
      "inputs": [
        {
          "indexed": true,
          "internalType": "uint64",
          "name": "NFT_id",
          "type": "uint64"
        },
        {
          "indexed": false,
          "internalType": "string",
          "name": "content",
          "type": "string"
        }
      ],
      "name": "Label",
      "type": "event"
    },
    {
      "anonymous": false,
      "inputs": [
        {
          "indexed": true,
          "internalType": "address",
          "name": "publisher",
          "type": "address"
        },
        {
          "indexed": true,
          "internalType": "uint64",
          "name": "rootNFTId",
          "type": "uint64"
        },
        {
          "indexed": false,
          "internalType": "address",
          "name": "token_addr",
          "type": "address"
        }
      ],
      "name": "Publish",
      "type": "event"
    },
    {
      "anonymous": false,
      "inputs": [
        {
          "indexed": true,
          "internalType": "uint64",
          "name": "NFT_id",
          "type": "uint64"
        },
        {
          "indexed": false,
          "internalType": "bytes32",
          "name": "old_URI",
          "type": "bytes32"
        },
        {
          "indexed": false,
          "internalType": "bytes32",
          "name": "new_URI",
          "type": "bytes32"
        }
      ],
      "name": "SetURI",
      "type": "event"
    },
    {
      "anonymous": false,
      "inputs": [
        {
          "indexed": true,
          "internalType": "address",
          "name": "from",
          "type": "address"
        },
        {
          "indexed": true,
          "internalType": "address",
          "name": "to",
          "type": "address"
        },
        {
          "indexed": true,
          "internalType": "uint256",
          "name": "tokenId",
          "type": "uint256"
        }
      ],
      "name": "Transfer",
      "type": "event"
    },
    {
      "inputs": [
        {
          "internalType": "uint64",
          "name": "_NFT_id",
          "type": "uint64"
        }
      ],
      "name": "acceptShill",
      "outputs": [],
      "stateMutability": "payable",
      "type": "function"
    },
    {
      "inputs": [
        {
          "internalType": "address",
          "name": "to",
          "type": "address"
        },
        {
          "internalType": "uint256",
          "name": "tokenId",
          "type": "uint256"
        }
      ],
      "name": "approve",
      "outputs": [],
      "stateMutability": "nonpayable",
      "type": "function"
    },
    {
      "inputs": [
        {
          "internalType": "address",
          "name": "owner",
          "type": "address"
        }
      ],
      "name": "balanceOf",
      "outputs": [
        {
          "internalType": "uint256",
          "name": "",
          "type": "uint256"
        }
      ],
      "stateMutability": "view",
      "type": "function"
    },
    {
      "inputs": [
        {
          "internalType": "uint64",
          "name": "_NFT_id",
          "type": "uint64"
        }
      ],
      "name": "claimProfit",
      "outputs": [],
      "stateMutability": "nonpayable",
      "type": "function"
    },
    {
      "inputs": [
        {
          "internalType": "uint64",
          "name": "_NFT_id",
          "type": "uint64"
        },
        {
          "internalType": "uint128",
          "name": "_price",
          "type": "uint128"
        }
      ],
      "name": "determinePrice",
      "outputs": [],
      "stateMutability": "nonpayable",
      "type": "function"
    },
    {
      "inputs": [
        {
          "internalType": "uint64",
          "name": "_NFT_id",
          "type": "uint64"
        },
        {
          "internalType": "uint128",
          "name": "_price",
          "type": "uint128"
        },
        {
          "internalType": "address",
          "name": "_to",
          "type": "address"
        }
      ],
      "name": "determinePriceAndApprove",
      "outputs": [],
      "stateMutability": "nonpayable",
      "type": "function"
    },
    {
      "inputs": [
        {
          "internalType": "uint256",
          "name": "tokenId",
          "type": "uint256"
        }
      ],
      "name": "getApproved",
      "outputs": [
        {
          "internalType": "address",
          "name": "",
          "type": "address"
        }
      ],
      "stateMutability": "view",
      "type": "function"
    },
    {
      "inputs": [
        {
          "internalType": "uint64",
          "name": "_NFT_id",
          "type": "uint64"
        }
      ],
      "name": "getDepthByNFTId",
      "outputs": [
        {
          "internalType": "uint64",
          "name": "",
          "type": "uint64"
        }
      ],
      "stateMutability": "view",
      "type": "function"
    },
    {
      "inputs": [
        {
          "internalType": "uint64",
          "name": "_NFT_id",
          "type": "uint64"
        }
      ],
      "name": "getEditionIdByNFTId",
      "outputs": [
        {
          "internalType": "uint32",
          "name": "",
          "type": "uint32"
        }
      ],
      "stateMutability": "pure",
      "type": "function"
    },
    {
      "inputs": [
        {
          "internalType": "uint64",
          "name": "_NFT_id",
          "type": "uint64"
        }
      ],
      "name": "getFatherByNFTId",
      "outputs": [
        {
          "internalType": "uint64",
          "name": "",
          "type": "uint64"
        }
      ],
      "stateMutability": "view",
      "type": "function"
    },
    {
      "inputs": [
        {
          "internalType": "uint64",
          "name": "_NFT_id",
          "type": "uint64"
        }
      ],
      "name": "getIsNCByNFTId",
      "outputs": [
        {
          "internalType": "bool",
          "name": "",
          "type": "bool"
        }
      ],
      "stateMutability": "view",
      "type": "function"
    },
    {
      "inputs": [
        {
          "internalType": "uint64",
          "name": "_NFT_id",
          "type": "uint64"
        }
      ],
      "name": "getIsNDByNFTId",
      "outputs": [
        {
          "internalType": "bool",
          "name": "",
          "type": "bool"
        }
      ],
      "stateMutability": "view",
      "type": "function"
    },
    {
      "inputs": [],
      "name": "getLossRatio",
      "outputs": [
        {
          "internalType": "uint8",
          "name": "",
          "type": "uint8"
        }
      ],
      "stateMutability": "pure",
      "type": "function"
    },
    {
      "inputs": [
        {
          "internalType": "uint64",
          "name": "_NFT_id",
          "type": "uint64"
        }
      ],
      "name": "getProfitByNFTId",
      "outputs": [
        {
          "internalType": "uint128",
          "name": "",
          "type": "uint128"
        }
      ],
      "stateMutability": "view",
      "type": "function"
    },
    {
      "inputs": [
        {
          "internalType": "uint64",
          "name": "_NFT_id",
          "type": "uint64"
        }
      ],
      "name": "getRemainShillTimesByNFTId",
      "outputs": [
        {
          "internalType": "uint16",
          "name": "",
          "type": "uint16"
        }
      ],
      "stateMutability": "view",
      "type": "function"
    },
    {
      "inputs": [
        {
          "internalType": "uint64",
          "name": "_NFT_id",
          "type": "uint64"
        }
      ],
      "name": "getRootNFTIdByNFTId",
      "outputs": [
        {
          "internalType": "uint64",
          "name": "",
          "type": "uint64"
        }
      ],
      "stateMutability": "pure",
      "type": "function"
    },
    {
      "inputs": [
        {
          "internalType": "uint64",
          "name": "_NFT_id",
          "type": "uint64"
        }
      ],
      "name": "getRoyaltyFeeByNFTId",
      "outputs": [
        {
          "internalType": "uint8",
          "name": "",
          "type": "uint8"
        }
      ],
      "stateMutability": "view",
      "type": "function"
    },
    {
      "inputs": [
        {
          "internalType": "uint64",
          "name": "_NFT_id",
          "type": "uint64"
        }
      ],
      "name": "getShillPriceByNFTId",
      "outputs": [
        {
          "internalType": "uint128",
          "name": "",
          "type": "uint128"
        }
      ],
      "stateMutability": "view",
      "type": "function"
    },
    {
      "inputs": [
        {
          "internalType": "uint64",
          "name": "_NFT_id",
          "type": "uint64"
        }
      ],
      "name": "getShillTimesByNFTId",
      "outputs": [
        {
          "internalType": "uint16",
          "name": "",
          "type": "uint16"
        }
      ],
      "stateMutability": "view",
      "type": "function"
    },
    {
      "inputs": [
        {
          "internalType": "uint64",
          "name": "_NFT_id",
          "type": "uint64"
        }
      ],
      "name": "getTokenAddrByNFTId",
      "outputs": [
        {
          "internalType": "address",
          "name": "",
          "type": "address"
        }
      ],
      "stateMutability": "view",
      "type": "function"
    },
    {
      "inputs": [
        {
          "internalType": "uint64",
          "name": "_NFT_id",
          "type": "uint64"
        }
      ],
      "name": "getTotalAmountByNFTId",
      "outputs": [
        {
          "internalType": "uint32",
          "name": "",
          "type": "uint32"
        }
      ],
      "stateMutability": "view",
      "type": "function"
    },
    {
      "inputs": [
        {
          "internalType": "uint64",
          "name": "_NFT_id",
          "type": "uint64"
        }
      ],
      "name": "getTransferPriceByNFTId",
      "outputs": [
        {
          "internalType": "uint128",
          "name": "",
          "type": "uint128"
        }
      ],
      "stateMutability": "view",
      "type": "function"
    },
    {
      "inputs": [
        {
          "internalType": "address",
          "name": "owner",
          "type": "address"
        },
        {
          "internalType": "address",
          "name": "operator",
          "type": "address"
        }
      ],
      "name": "isApprovedForAll",
      "outputs": [
        {
          "internalType": "bool",
          "name": "",
          "type": "bool"
        }
      ],
      "stateMutability": "view",
      "type": "function"
    },
    {
      "inputs": [
        {
          "internalType": "uint64",
          "name": "_NFT_id",
          "type": "uint64"
        }
      ],
      "name": "isEditionExisting",
      "outputs": [
        {
          "internalType": "bool",
          "name": "",
          "type": "bool"
        }
      ],
      "stateMutability": "view",
      "type": "function"
    },
    {
      "inputs": [
        {
          "internalType": "uint64",
          "name": "_NFT_id",
          "type": "uint64"
        }
      ],
      "name": "isRootNFT",
      "outputs": [
        {
          "internalType": "bool",
          "name": "",
          "type": "bool"
        }
      ],
      "stateMutability": "pure",
      "type": "function"
    },
    {
      "inputs": [
        {
          "internalType": "uint64",
          "name": "_NFT_id",
          "type": "uint64"
        },
        {
          "internalType": "string",
          "name": "content",
          "type": "string"
        }
      ],
      "name": "label",
      "outputs": [],
      "stateMutability": "nonpayable",
      "type": "function"
    },
    {
      "inputs": [],
      "name": "name",
      "outputs": [
        {
          "internalType": "string",
          "name": "",
          "type": "string"
        }
      ],
      "stateMutability": "view",
      "type": "function"
    },
    {
      "inputs": [
        {
          "internalType": "uint256",
          "name": "tokenId",
          "type": "uint256"
        }
      ],
      "name": "ownerOf",
      "outputs": [
        {
          "internalType": "address",
          "name": "",
          "type": "address"
        }
      ],
      "stateMutability": "view",
      "type": "function"
    },
    {
      "inputs": [
        {
          "internalType": "uint128",
          "name": "_first_sell_price",
          "type": "uint128"
        },
        {
          "internalType": "uint8",
          "name": "_royalty_fee",
          "type": "uint8"
        },
        {
          "internalType": "uint16",
          "name": "_shill_times",
          "type": "uint16"
        },
        {
          "internalType": "bytes32",
          "name": "_ipfs_hash",
          "type": "bytes32"
        },
        {
          "internalType": "address",
          "name": "_token_addr",
          "type": "address"
        },
        {
          "internalType": "bool",
          "name": "_is_NC",
          "type": "bool"
        },
        {
          "internalType": "bool",
          "name": "_is_ND",
          "type": "bool"
        }
      ],
      "name": "publish",
      "outputs": [],
      "stateMutability": "nonpayable",
      "type": "function"
    },
    {
      "inputs": [
        {
          "internalType": "address",
          "name": "from",
          "type": "address"
        },
        {
          "internalType": "address",
          "name": "to",
          "type": "address"
        },
        {
          "internalType": "uint256",
          "name": "tokenId",
          "type": "uint256"
        }
      ],
      "name": "safeTransferFrom",
      "outputs": [],
      "stateMutability": "payable",
      "type": "function"
    },
    {
      "inputs": [
        {
          "internalType": "address",
          "name": "from",
          "type": "address"
        },
        {
          "internalType": "address",
          "name": "to",
          "type": "address"
        },
        {
          "internalType": "uint256",
          "name": "tokenId",
          "type": "uint256"
        },
        {
          "internalType": "bytes",
          "name": "_data",
          "type": "bytes"
        }
      ],
      "name": "safeTransferFrom",
      "outputs": [],
      "stateMutability": "payable",
      "type": "function"
    },
    {
      "inputs": [
        {
          "internalType": "address",
          "name": "operator",
          "type": "address"
        },
        {
          "internalType": "bool",
          "name": "approved",
          "type": "bool"
        }
      ],
      "name": "setApprovalForAll",
      "outputs": [],
      "stateMutability": "nonpayable",
      "type": "function"
    },
    {
      "inputs": [
        {
          "internalType": "uint64",
          "name": "_NFT_id",
          "type": "uint64"
        },
        {
          "internalType": "bytes32",
          "name": "ipfs_hash",
          "type": "bytes32"
        }
      ],
      "name": "setURI",
      "outputs": [],
      "stateMutability": "nonpayable",
      "type": "function"
    },
    {
      "inputs": [
        {
          "internalType": "bytes4",
          "name": "interfaceId",
          "type": "bytes4"
        }
      ],
      "name": "supportsInterface",
      "outputs": [
        {
          "internalType": "bool",
          "name": "",
          "type": "bool"
        }
      ],
      "stateMutability": "view",
      "type": "function"
    },
    {
      "inputs": [],
      "name": "symbol",
      "outputs": [
        {
          "internalType": "string",
          "name": "",
          "type": "string"
        }
      ],
      "stateMutability": "view",
      "type": "function"
    },
    {
      "inputs": [
        {
          "internalType": "uint256",
          "name": "tokenId",
          "type": "uint256"
        }
      ],
      "name": "tokenURI",
      "outputs": [
        {
          "internalType": "string",
          "name": "",
          "type": "string"
        }
      ],
      "stateMutability": "view",
      "type": "function"
    },
    {
      "inputs": [
        {
          "internalType": "address",
          "name": "from",
          "type": "address"
        },
        {
          "internalType": "address",
          "name": "to",
          "type": "address"
        },
        {
          "internalType": "uint256",
          "name": "tokenId",
          "type": "uint256"
        }
      ],
      "name": "transferFrom",
      "outputs": [],
      "stateMutability": "payable",
      "type": "function"
    }
  ],
  "bytecode": "0x60806040523480156200001157600080fd5b5060408051808201909152600980825268537061726b4c696e6b60b81b6020909201918252620000449160019162000078565b506040805180820190915260038082526214d41360ea1b6020909201918252620000719160029162000078565b506200015b565b82805462000086906200011e565b90600052602060002090601f016020900481019282620000aa5760008555620000f5565b82601f10620000c557805160ff1916838001178555620000f5565b82800160010185558215620000f5579182015b82811115620000f5578251825591602001919060010190620000d8565b506200010392915062000107565b5090565b5b8082111562000103576000815560010162000108565b600181811c908216806200013357607f821691505b602082108114156200015557634e487b7160e01b600052602260045260246000fd5b50919050565b613bdb806200016b6000396000f3fe60806040526004361061021a5760003560e01c806370a0823111610123578063bd3355ed116100ab578063d8d17e791161006f578063d8d17e791461068a578063e985e9c5146106aa578063f1ac67d3146106f3578063f6e9274d14610713578063fee032991461073357600080fd5b8063bd3355ed146105d5578063bdea26fa146105f5578063bf1a965714610615578063c87b56dd1461064a578063ce51ba901461066a57600080fd5b8063a22cb465116100f2578063a22cb4651461052d578063a7c9e8811461054d578063ac03d00114610585578063b88d4fde146105af578063bbe07d79146105c257600080fd5b806370a08231146104a357806377738ad2146104d157806392e6f9ac146104f157806395d89b411461051857600080fd5b806342842e0e116101a65780636352211e116101755780636352211e146104035780636579aea21461042357806365cb8c9314610443578063668432081461046357806366ca8ec41461048357600080fd5b806342842e0e1461039057806347bb0958146103a35780635a034b3b146103c3578063600f11db146103e357600080fd5b8063095ea7b3116101ed578063095ea7b3146102d057806316468b5c146102f25780631dab1af71461032557806323b872dd1461035d5780632b9e0d721461037057600080fd5b806301ffc9a71461021f5780630292ec361461025457806306fdde0314610276578063081812fc14610298575b600080fd5b34801561022b57600080fd5b5061023f61023a3660046134dd565b610753565b60405190151581526020015b60405180910390f35b34801561026057600080fd5b50605a5b60405160ff909116815260200161024b565b34801561028257600080fd5b5061028b6107a5565b60405161024b9190613812565b3480156102a457600080fd5b506102b86102b33660046135a8565b610837565b6040516001600160a01b03909116815260200161024b565b3480156102dc57600080fd5b506102f06102eb366004613498565b6108e4565b005b3480156102fe57600080fd5b5061031261030d3660046135d8565b610a04565b60405161ffff909116815260200161024b565b34801561033157600080fd5b506103456103403660046135d8565b610a53565b6040516001600160401b03909116815260200161024b565b6102f061036b366004613392565b610aa8565b34801561037c57600080fd5b5061023f61038b3660046135d8565b610abb565b6102f061039e366004613392565b610ae4565b3480156103af57600080fd5b506102646103be3660046135d8565b610b07565b3480156103cf57600080fd5b506102f06103de3660046135d8565b610b55565b3480156103ef57600080fd5b5061023f6103fe3660046135d8565b610d95565b34801561040f57600080fd5b506102b861041e3660046135a8565b610df8565b34801561042f57600080fd5b506102b861043e3660046135d8565b610e92565b34801561044f57600080fd5b506102f061045e36600461360d565b610ee0565b34801561046f57600080fd5b506102f061047e3660046135f2565b610f9f565b34801561048f57600080fd5b506102f061049e366004613515565b6110d6565b3480156104af57600080fd5b506104c36104be366004613346565b611520565b60405190815260200161024b565b3480156104dd57600080fd5b506102f06104ec3660046136f2565b6115b3565b3480156104fd57600080fd5b5061023f61050c3660046135d8565b63ffffffff1660011490565b34801561052457600080fd5b5061028b61161f565b34801561053957600080fd5b506102f0610548366004613462565b61162e565b34801561055957600080fd5b5061056d6105683660046135d8565b6116f3565b6040516001600160801b03909116815260200161024b565b34801561059157600080fd5b506103456105a03660046135d8565b63ffffffff60201b1660011790565b6102f06105bd3660046133cd565b611746565b6102f06105d03660046135d8565b611797565b3480156105e157600080fd5b5061056d6105f03660046135d8565b611b0d565b34801561060157600080fd5b506103456106103660046135d8565b611bc1565b34801561062157600080fd5b506106356106303660046135d8565b611c73565b60405163ffffffff909116815260200161024b565b34801561065657600080fd5b5061028b6106653660046135a8565b611cc1565b34801561067657600080fd5b5061023f6106853660046135d8565b611dd2565b34801561069657600080fd5b506103126106a53660046135d8565b611e14565b3480156106b657600080fd5b5061023f6106c5366004613360565b6001600160a01b03918216600090815260056020908152604080832093909416825291909152205460ff1690565b3480156106ff57600080fd5b5061063561070e3660046135d8565b611e62565b34801561071f57600080fd5b5061056d61072e3660046135d8565b611e70565b34801561073f57600080fd5b506102f061074e3660046136c9565b611ebf565b60006001600160e01b031982166380ac58cd60e01b148061078457506001600160e01b03198216635b5e139f60e01b145b8061079f57506301ffc9a760e01b6001600160e01b03198316145b92915050565b6060600180546107b490613a7b565b80601f01602080910402602001604051908101604052809291908181526020018280546107e090613a7b565b801561082d5780601f106108025761010080835404028352916020019161082d565b820191906000526020600020905b81548152906001019060200180831161081057829003601f168201915b5050505050905090565b600061084561038b83611fce565b6108ae5760405162461bcd60e51b815260206004820152602f60248201527f537061726b4c696e6b3a20417070726f76656420717565727920666f72206e6f60448201526e3732bc34b9ba32b73a103a37b5b2b760891b60648201526084015b60405180910390fd5b600460006108bb84611fce565b6001600160401b031681526020810191909152604001600020546001600160a01b031692915050565b60006108ef82610df8565b9050806001600160a01b0316836001600160a01b0316141561095f5760405162461bcd60e51b8152602060048201526024808201527f537061726b4c696e6b3a20417070726f76616c20746f2063757272656e74206f6044820152633bb732b960e11b60648201526084016108a5565b336001600160a01b038216148061097b575061097b81336106c5565b6109ed5760405162461bcd60e51b815260206004820152603b60248201527f537061726b4c696e6b3a20417070726f76652063616c6c6572206973206e6f7460448201527f206f776e6572206e6f7220617070726f76656420666f7220616c6c000000000060648201526084016108a5565b6109ff836109fa84611fce565b61203b565b505050565b6000610a0f82610abb565b610a2b5760405162461bcd60e51b81526004016108a5906138bc565b63ffffffff60201b821660011760009081526006602052604090205460281c61ffff1661079f565b6000610a5e82610abb565b610a7a5760405162461bcd60e51b81526004016108a5906138bc565b60005b600163ffffffff84161461079f57610a9660018261392b565b9050610aa183611bc1565b9250610a7d565b6109ff8383610ab684611fce565b6120b1565b6001600160401b03166000908152600660205260409020600101546001600160a01b0316151590565b6109ff8383610af284611fce565b604051806020016040528060008152506124db565b6000610b1282610abb565b610b2e5760405162461bcd60e51b81526004016108a5906138bc565b63ffffffff60201b821660011760009081526006602052604090205460381c60ff1661079f565b610b5e81610abb565b610bb95760405162461bcd60e51b815260206004820152602660248201527f537061726b4c696e6b3a20546869732065646974696f6e20646f6573206e6f7460448201526508195e1a5cdd60d21b60648201526084016108a5565b6001600160401b038116600090815260066020526040902060030154600160801b90046001600160801b031615610d92576001600160401b038116600090815260066020526040812060030154600160801b90046001600160801b031690610c2083610e92565b6001600160401b038416600090815260066020526040902060030180546001600160801b03169055905063ffffffff8316600114610c8e576000610c6c83610c6786610b07565b612514565b9050610c80610c7a85611bc1565b82612536565b610c8a81846139d5565b9250505b6001600160a01b038116610cf557610cae836001600160401b0316610df8565b6001600160a01b03166108fc836001600160801b03169081150290604051600060405180830381858888f19350505050158015610cef573d6000803e3d6000fd5b50610d24565b610d24610d0a846001600160401b0316610df8565b6001600160a01b038316906001600160801b0385166125a8565b610d36836001600160401b0316610df8565b6001600160a01b0316836001600160401b03167f3dc1a77733195d8bbde8f8bc719f598f47f377c9c4b854d561b4d607a8e81f6284604051610d8791906001600160801b0391909116815260200190565b60405180910390a350505b50565b6000610da082610abb565b610dbc5760405162461bcd60e51b81526004016108a5906138bc565b61079f602760066000600163ffffffff60201b8716175b6001600160401b039081168252602082019290925260400160002054166001911c1690565b60008060066000610e0885611fce565b6001600160401b031681526020810191909152604001600020600101546001600160a01b031690508061079f5760405162461bcd60e51b815260206004820152602c60248201527f537061726b4c696e6b3a204f776e657220717565727920666f72206e6f6e657860448201526b34b9ba32b73a103a37b5b2b760a11b60648201526084016108a5565b6000610e9d82610abb565b610eb95760405162461bcd60e51b81526004016108a5906138bc565b5063ffffffff602091821c166000908152600790915260409020546001600160a01b031690565b33610ef36001600160401b038416610df8565b6001600160a01b031614610f5a5760405162461bcd60e51b815260206004820152602860248201527f537061726b4c696e6b3a204f6e6c79206f776e65722063616e206c6162656c206044820152671d1a1a5cc813919560c21b60648201526084016108a5565b816001600160401b03167f07fabc8249b7822cdf933a532a49e1b0589177b1683b4145ee271dbd66700dfa82604051610f939190613812565b60405180910390a25050565b610fa882610d95565b1561104b576001600160401b03821663ffffffff60201b83166001171461104b5760405162461bcd60e51b815260206004820152604b60248201527f537061726b4c696e6b3a204e465420666f6c6c6f777320746865204e4420707260448201527f6f746f636f6c2c206f6e6c792074686520726f6f74204e46542773205552492060648201526a31b0b71031329039b2ba1760a91b608482015260a4016108a5565b3361105e6001600160401b038416610df8565b6001600160a01b0316146110c85760405162461bcd60e51b815260206004820152602b60248201527f537061726b4c696e6b3a204f6e6c79206f776e65722063616e2073657420746860448201526a6520746f6b656e2055524960a81b60648201526084016108a5565b6110d2828261260b565b5050565b60648660ff16111561113c5760405162461bcd60e51b815260206004820152602960248201527f537061726b4c696e6b3a20526f79616c7479206665652073686f756c64206265604482015268101e1e90189818129760b91b60648201526084016108a5565b61114a600080546001019055565b63ffffffff61115860005490565b11156111b75760405162461bcd60e51b815260206004820152602860248201527f537061726b4c696e6b3a2056616c756520646f65736e27742066697420696e206044820152671999103134ba399760c11b60648201526084016108a5565b6001600160a01b03831615611286576000836001600160a01b03166318160ddd6040518163ffffffff1660e01b815260040160206040518083038186803b15801561120157600080fd5b505afa158015611215573d6000803e3d6000fd5b505050506040513d601f19601f8201168201806040525081019061123991906135c0565b116112865760405162461bcd60e51b815260206004820152601f60248201527f4e6f7420612076616c696420455243323020746f6b656e20616464726573730060448201526064016108a5565b60008054906001602083901b63ffffffff60201b161790506112ba600033836040518060200160405280600081525061266d565b6112d65760405162461bcd60e51b81526004016108a590613867565b6001600160401b0381166000908152600660205260409020648000000000196440000000001960288a901b1666ffff40000000001960388c901b1617602687901b1716602785901b1761132a60018261392b565b905086600760008663ffffffff1663ffffffff16815260200190815260200160002060006101000a8154816001600160a01b0302191690836001600160a01b03160217905550808260000160006101000a8154816001600160401b0302191690836001600160401b03160217905550888260000160186101000a81548161ffff021916908361ffff1602179055508a8260000160086101000a8154816001600160801b0302191690836001600160801b03160217905550338260010160006101000a8154816001600160a01b0302191690836001600160a01b03160217905550878260020181905550600160036000336001600160a01b03166001600160a01b0316815260200190815260200160002060008282829054906101000a90046001600160401b031661145b919061392b565b92506101000a8154816001600160401b0302191690836001600160401b03160217905550826001600160401b0316336001600160a01b031660006001600160a01b03167fddf252ad1be2c89b69c2b068fc378daa952ba7f163c4a11628f55a4df523b3ef60405160405180910390a46040516001600160a01b03881681526001600160401b0384169033907f072ee21d81ebd9fc5f68a2c36d04cbbd9eff1e2567a48dd7ecce61d5af159fad9060200160405180910390a35050505050505050505050565b60006001600160a01b03821661158e5760405162461bcd60e51b815260206004820152602d60248201527f537061726b4c696e6b3a2042616c616e636520717565727920666f722074686560448201526c207a65726f206164647265737360981b60648201526084016108a5565b506001600160a01b03166000908152600360205260409020546001600160401b031690565b6115bd8383611ebf565b6115d081846001600160401b03166108e4565b6040516001600160801b03831681526001600160a01b038216906001600160401b038516907ff4a029974225230e783a906bf72b4c1037aee2b37958b9a6b5e689da1477729b90602001610d87565b6060600280546107b490613a7b565b6001600160a01b0382163314156116875760405162461bcd60e51b815260206004820152601c60248201527f537061726b4c696e6b3a20417070726f766520746f2063616c6c65720000000060448201526064016108a5565b3360008181526005602090815260408083206001600160a01b03871680855290835292819020805460ff191686151590811790915590519081529192917f17307eab39ab6107e8899845ad3d59bd9653f200f220920489ca2b5937696c31910160405180910390a35050565b60006116fe82610abb565b61171a5760405162461bcd60e51b81526004016108a5906138bc565b506001600160401b0316600090815260066020526040902054600160401b90046001600160801b031690565b611790858561175486611fce565b85858080601f0160208091040260200160405190810160405280939291908181526020018383808284376000920191909152506124db92505050565b5050505050565b6117a081610abb565b6117bc5760405162461bcd60e51b81526004016108a590613825565b6001600160401b038116600090815260066020526040902054600160c01b900461ffff166118525760405162461bcd60e51b815260206004820152603860248201527f537061726b4c696e6b3a205468657265206973206e6f2072656d61696e696e6760448201527f207368696c6c2074696d6520666f722074686973204e4654000000000000000060648201526084016108a5565b600061185d82610e92565b90506001600160a01b038116611916576001600160401b038216600090815260066020526040902054600160401b90046001600160801b031634146118dd5760405162461bcd60e51b8152602060048201526016602482015275537061726b4c696e6b3a2057726f6e6720707269636560501b60448201526064016108a5565b6001600160401b038216600090815260066020526040902054611911908390600160401b90046001600160801b0316612536565b611a6e565b6040516370a0823160e01b81523060048201526000906001600160a01b038316906370a082319060240160206040518083038186803b15801561195857600080fd5b505afa15801561196c573d6000803e3d6000fd5b505050506040513d601f19601f8201168201806040525081019061199091906135c0565b6001600160401b0384166000908152600660205260409020549091506119d4906001600160a01b0384169033903090600160401b90046001600160801b031661277a565b6040516370a0823160e01b8152306004820152611a6c908490611a679084906001600160a01b038716906370a08231906024015b60206040518083038186803b158015611a2057600080fd5b505afa158015611a34573d6000803e3d6000fd5b505050506040513d601f19601f82011682018060405250810190611a5891906135c0565b611a629190613a18565b6127b2565b612536565b505b6001600160401b0382166000908152600660205260409020805460019190601890611aa5908490600160c01b900461ffff166139fd565b92506101000a81548161ffff021916908361ffff160217905550611ac9823361281c565b506001600160401b038216600090815260066020526040902054600160c01b900461ffff166110d2576109ff82611b08846001600160401b0316610df8565b61281c565b6000611b1882610abb565b611b345760405162461bcd60e51b81526004016108a5906138bc565b6001600160401b038216600090815260066020526040902060030154600160801b90046001600160801b0316611b708363ffffffff1660011490565b61079f576001600160401b038316600090815260066020526040812060030154611bad90600160801b90046001600160801b0316610c6786610b07565b9050611bb981836139d5565b949350505050565b6000611bcc82610abb565b611be85760405162461bcd60e51b81526004016108a5906138bc565b600163ffffffff83161415611c545760405162461bcd60e51b815260206004820152602c60248201527f537061726b4c696e6b3a20526f6f74204e465420646f65736e2774206861766560448201526b103330ba3432b91027232a1760a11b60648201526084016108a5565b506001600160401b039081166000908152600660205260409020541690565b6000611c7e82610abb565b611c9a5760405162461bcd60e51b81526004016108a5906138bc565b63ffffffff60201b821660011760009081526006602052604090205463ffffffff1661079f565b6060611ccf61038b83611fce565b611d2e5760405162461bcd60e51b815260206004820152602a60248201527f537061726b4c696e6b3a2055524920717565727920666f72206e6f6e657869736044820152693a32b73a103a37b5b2b760b11b60648201526084016108a5565b600060066000611d3d85611fce565b6001600160401b03166001600160401b031681526020019081526020016000206002015490506000611d6e82612a26565b90506000611da460408051808201909152601581527468747470733a2f2f697066732e696f2f697066732f60581b602082015290565b90508082604051602001611db992919061379e565b6040516020818303038152906040529350505050919050565b6000611ddd82610abb565b611df95760405162461bcd60e51b81526004016108a5906138bc565b61079f602660066000600163ffffffff60201b871617610dd3565b6000611e1f82610abb565b611e3b5760405162461bcd60e51b81526004016108a5906138bc565b506001600160401b0316600090815260066020526040902054600160c01b900461ffff1690565b600063ffffffff821661079f565b6000611e7b82610abb565b611e975760405162461bcd60e51b81526004016108a5906138bc565b506001600160401b03166000908152600660205260409020600301546001600160801b031690565b611ec882610abb565b611ee45760405162461bcd60e51b81526004016108a590613825565b611ef6826001600160401b0316610df8565b6001600160a01b0316336001600160a01b031614611f665760405162461bcd60e51b815260206004820152602760248201527f537061726b4c696e6b3a204f6e6c79206f776e65722063616e207365742074686044820152666520707269636560c81b60648201526084016108a5565b6001600160401b03821660008181526006602090815260409182902060030180546001600160801b0319166001600160801b03861690811790915591519182527fca72e8ac93611c80ca0e2046cbd0f09834fcca6a61e4979bd62bb6765ff7a9e79101610f93565b60006001600160401b038211156120375760405162461bcd60e51b815260206004820152602760248201527f537061726b4c696e6b3a2056616c756520646f65736e27742066697420696e206044820152663634206269747360c81b60648201526084016108a5565b5090565b6001600160401b038116600081815260046020526040902080546001600160a01b0319166001600160a01b03851690811790915561207882610df8565b6001600160a01b03167f8c5be1e5ebec7d5bd14f71427d1e84f3dd0314c0f7b2291e5b200ac8c7c3b92560405160405180910390a45050565b826001600160a01b03166120cd826001600160401b0316610df8565b6001600160a01b0316146121385760405162461bcd60e51b815260206004820152602c60248201527f537061726b4c696e6b3a205472616e73666572206f6620746f6b656e2074686160448201526b3a1034b9903737ba1037bbb760a11b60648201526084016108a5565b6121423382612c3c565b6121ab5760405162461bcd60e51b815260206004820152603460248201527f537061726b4c696e6b3a205472616e736665722063616c6c6572206973206e6f6044820152731d081bdddb995c881b9bdc88185c1c1c9bdd995960621b60648201526084016108a5565b6001600160a01b0382166122115760405162461bcd60e51b815260206004820152602760248201527f537061726b4c696e6b3a205472616e7366657220746f20746865207a65726f206044820152666164647265737360c81b60648201526084016108a5565b612223816001600160401b0316610df8565b6001600160a01b0316336001600160a01b0316146123c757600061224682610e92565b6001600160401b0383166000908152600660205260409020600301549091506001600160801b03166001600160a01b0382166122e357806001600160801b031634146122d45760405162461bcd60e51b815260206004820152601860248201527f537061726b4c696e6b3a205072696365206e6f74206d6574000000000000000060448201526064016108a5565b6122de8382612536565b6123b7565b6040516370a0823160e01b81523060048201526000906001600160a01b038416906370a082319060240160206040518083038186803b15801561232557600080fd5b505afa158015612339573d6000803e3d6000fd5b505050506040513d601f19601f8201168201806040525081019061235d91906135c0565b905061237d6001600160a01b03841633306001600160801b03861661277a565b6040516370a0823160e01b81523060048201526123b5908590611a679084906001600160a01b038816906370a0823190602401611a08565b505b6123c083610b55565b50506123d0565b6123d081610b55565b6123d981612d37565b6001600160a01b038316600090815260036020526040812080546001929061240b9084906001600160401b0316613a2f565b82546101009290920a6001600160401b038181021990931691831602179091556001600160a01b038416600090815260036020526040812080546001945090926124579185911661392b565b82546101009290920a6001600160401b03818102199093169183160217909155821660008181526006602052604080822060010180546001600160a01b0319166001600160a01b0388811691821790925591519394509092908716917fddf252ad1be2c89b69c2b068fc378daa952ba7f163c4a11628f55a4df523b3ef91a4505050565b6124e68484846120b1565b6124f28484848461266d565b61250e5760405162461bcd60e51b81526004016108a590613867565b50505050565b6000606461252560ff841685613987565b61252f919061394d565b9392505050565b6001600160401b03821660009081526006602052604090206003015461256d908290600160801b90046001600160801b03166138f1565b6001600160401b03909216600090815260066020526040902060030180546001600160801b03938416600160801b0293169290921790915550565b6040516001600160a01b0383166024820152604481018290526109ff90849063a9059cbb60e01b906064015b60408051601f198184030181529190526020810180516001600160e01b03166001600160e01b031990931692909217909152612d6c565b6001600160401b038216600081815260066020908152604091829020600201805490859055825181815291820185905292917f901ae3afe5e7d5594d462fab7cb487880c27d5fc0e3863487a5cfd2a08d350ed910160405180910390a2505050565b60006001600160a01b0384163b1561276f57604051630a85bd0160e11b81526001600160a01b0385169063150b7a02906126b19033908990889088906004016137cd565b602060405180830381600087803b1580156126cb57600080fd5b505af19250505080156126fb575060408051601f3d908101601f191682019092526126f8918101906134f9565b60015b612755573d808015612729576040519150601f19603f3d011682016040523d82523d6000602084013e61272e565b606091505b50805161274d5760405162461bcd60e51b81526004016108a590613867565b805181602001fd5b6001600160e01b031916630a85bd0160e11b149050611bb9565b506001949350505050565b6040516001600160a01b038085166024830152831660448201526064810182905261250e9085906323b872dd60e01b906084016125d4565b60006001600160801b038211156120375760405162461bcd60e51b815260206004820152602860248201527f537061726b4c696e6b3a2056616c756520646f65736e27742066697420696e20604482015267313238206269747360c01b60648201526084016108a5565b600061282783612e3e565b600061283284611c73565b9050600063ffffffff60201b851663ffffffff8316179050612866600085836040518060200160405280600081525061266d565b6128825760405162461bcd60e51b81526004016108a590613867565b6001600160401b03811660009081526006602052604090206128a386610a04565b815479ffff00000000000000000000000000000000ffffffffffffffff1916600160c01b61ffff929092169190910267ffffffffffffffff1916176001600160401b038716908117825560009081526006602052604090205461291790600160401b90046001600160801b0316605a612514565b81546001600160801b0391909116600160401b0277ffffffffffffffffffffffffffffffff000000000000000019909116178155600180820180546001600160a01b0388166001600160a01b031990911681179091556001600160401b038089166000908152600660209081526040808320600290810154908801559382526003905291822080549092916129ae9185911661392b565b92506101000a8154816001600160401b0302191690836001600160401b03160217905550816001600160401b0316856001600160a01b031660006001600160a01b03167fddf252ad1be2c89b69c2b068fc378daa952ba7f163c4a11628f55a4df523b3ef60405160405180910390a450949350505050565b60606000604051806040016040528060028152602001609160f51b81525083604051602001612a5692919061377c565b60408051601f19818403018152818352610820830182529250600091906020820161080080368337019050509050600081600081518110612aa757634e487b7160e01b600052603260045260246000fd5b60ff90921660209283029190910190910152600160005b8351811015612c18576000848281518110612ae957634e487b7160e01b600052603260045260246000fd5b016020015160f81c905060005b8360ff16811015612b9f57848181518110612b2157634e487b7160e01b600052603260045260246000fd5b602002602001015160ff16610100612b3991906139b6565b612b439083613913565b9150612b50603a83613af1565b858281518110612b7057634e487b7160e01b600052603260045260246000fd5b60ff90921660209283029190910190910152612b8d603a83613973565b9150612b9881613ab6565b9050612af6565b505b8015612c0757612bb2603a82613af1565b848460ff1681518110612bd557634e487b7160e01b600052603260045260246000fd5b60ff9092166020928302919091019091015282612bf181613ad1565b9350612c009050603a82613973565b9050612ba1565b50612c1181613ab6565b9050612abe565b50612c33612c2e612c298484612f0e565b612fe9565b6130d7565b95945050505050565b6000612c4782610abb565b612cab5760405162461bcd60e51b815260206004820152602f60248201527f537061726b4c696e6b3a204f70657261746f7220717565727920666f72206e6f60448201526e3732bc34b9ba32b73a103a37b5b2b760891b60648201526084016108a5565b6000612cbf836001600160401b0316610df8565b9050806001600160a01b0316846001600160a01b03161480612d035750836001600160a01b0316612cf8846001600160401b0316610837565b6001600160a01b0316145b80611bb957506001600160a01b0380821660009081526005602090815260408083209388168352929052205460ff16611bb9565b612d4260008261203b565b6001600160401b0316600090815260066020526040902060030180546001600160801b0319169055565b6000612dc1826040518060400160405280602081526020017f5361666545524332303a206c6f772d6c6576656c2063616c6c206661696c6564815250856001600160a01b03166131f19092919063ffffffff16565b8051909150156109ff5780806020019051810190612ddf91906134c1565b6109ff5760405162461bcd60e51b815260206004820152602a60248201527f5361666545524332303a204552433230206f7065726174696f6e20646964206e6044820152691bdd081cdd58d8d9595960b21b60648201526084016108a5565b63ffffffff612e4c82611c73565b63ffffffff1610612eb25760405162461bcd60e51b815260206004820152602a60248201527f537061726b4c696e6b3a205468657265206973206e6f206c65667420696e20746044820152693434b99034b9b9bab29760b11b60648201526084016108a5565b600163ffffffff60201b8216811760009081526006602052604081208054909190612ee79084906001600160401b031661392b565b92506101000a8154816001600160401b0302191690836001600160401b0316021790555050565b606060008260ff166001600160401b03811115612f3b57634e487b7160e01b600052604160045260246000fd5b604051908082528060200260200182016040528015612f64578160200160208202803683370190505b50905060005b8360ff16811015612fe157848181518110612f9557634e487b7160e01b600052603260045260246000fd5b6020026020010151828281518110612fbd57634e487b7160e01b600052603260045260246000fd5b60ff9092166020928302919091019091015280612fd981613ab6565b915050612f6a565b509392505050565b6060600082516001600160401b0381111561301457634e487b7160e01b600052604160045260246000fd5b60405190808252806020026020018201604052801561303d578160200160208202803683370190505b50905060005b83518110156130d05783816001865161305c9190613a18565b6130669190613a18565b8151811061308457634e487b7160e01b600052603260045260246000fd5b60200260200101518282815181106130ac57634e487b7160e01b600052603260045260246000fd5b60ff90921660209283029190910190910152806130c881613ab6565b915050613043565b5092915050565b6060600082516001600160401b0381111561310257634e487b7160e01b600052604160045260246000fd5b6040519080825280601f01601f19166020018201604052801561312c576020820181803683370190505b50905060005b83518110156130d0576040518060600160405280603a8152602001613b6c603a913984828151811061317457634e487b7160e01b600052603260045260246000fd5b602002602001015160ff168151811061319d57634e487b7160e01b600052603260045260246000fd5b602001015160f81c60f81b8282815181106131c857634e487b7160e01b600052603260045260246000fd5b60200101906001600160f81b031916908160001a905350806131e981613ab6565b915050613132565b6060611bb9848460008585843b61324a5760405162461bcd60e51b815260206004820152601d60248201527f416464726573733a2063616c6c20746f206e6f6e2d636f6e747261637400000060448201526064016108a5565b600080866001600160a01b031685876040516132669190613760565b60006040518083038185875af1925050503d80600081146132a3576040519150601f19603f3d011682016040523d82523d6000602084013e6132a8565b606091505b50915091506132b88282866132c3565b979650505050505050565b606083156132d257508161252f565b8251156132e25782518084602001fd5b8160405162461bcd60e51b81526004016108a59190613812565b80356001600160a01b038116811461331357600080fd5b919050565b80356001600160801b038116811461331357600080fd5b80356001600160401b038116811461331357600080fd5b600060208284031215613357578081fd5b61252f826132fc565b60008060408385031215613372578081fd5b61337b836132fc565b9150613389602084016132fc565b90509250929050565b6000806000606084860312156133a6578081fd5b6133af846132fc565b92506133bd602085016132fc565b9150604084013590509250925092565b6000806000806000608086880312156133e4578081fd5b6133ed866132fc565b94506133fb602087016132fc565b93506040860135925060608601356001600160401b038082111561341d578283fd5b818801915088601f830112613430578283fd5b81358181111561343e578384fd5b89602082850101111561344f578384fd5b9699959850939650602001949392505050565b60008060408385031215613474578182fd5b61347d836132fc565b9150602083013561348d81613b47565b809150509250929050565b600080604083850312156134aa578182fd5b6134b3836132fc565b946020939093013593505050565b6000602082840312156134d2578081fd5b815161252f81613b47565b6000602082840312156134ee578081fd5b813561252f81613b55565b60006020828403121561350a578081fd5b815161252f81613b55565b600080600080600080600060e0888a03121561352f578182fd5b61353888613318565b9650602088013560ff8116811461354d578283fd5b9550604088013561ffff81168114613563578283fd5b945060608801359350613578608089016132fc565b925060a088013561358881613b47565b915060c088013561359881613b47565b8091505092959891949750929550565b6000602082840312156135b9578081fd5b5035919050565b6000602082840312156135d1578081fd5b5051919050565b6000602082840312156135e9578081fd5b61252f8261332f565b60008060408385031215613604578182fd5b6134b38361332f565b6000806040838503121561361f578182fd5b6136288361332f565b915060208301356001600160401b0380821115613643578283fd5b818501915085601f830112613656578283fd5b81358181111561366857613668613b31565b604051601f8201601f19908116603f0116810190838211818310171561369057613690613b31565b816040528281528860208487010111156136a8578586fd5b82602086016020830137856020848301015280955050505050509250929050565b600080604083850312156136db578182fd5b6136e48361332f565b915061338960208401613318565b600080600060608486031215613706578081fd5b61370f8461332f565b925061371d60208501613318565b915061372b604085016132fc565b90509250925092565b6000815180845261374c816020860160208601613a4f565b601f01601f19169290920160200192915050565b60008251613772818460208701613a4f565b9190910192915050565b6000835161378e818460208801613a4f565b9190910191825250602001919050565b600083516137b0818460208801613a4f565b8351908301906137c4818360208801613a4f565b01949350505050565b6001600160a01b038581168252841660208201526001600160401b038316604082015260806060820181905260009061380890830184613734565b9695505050505050565b60208152600061252f6020830184613734565b60208082526022908201527f537061726b4c696e6b3a2054686973204e465420646f6573206e6f74206578696040820152611cdd60f21b606082015260800190565b60208082526035908201527f537061726b4c696e6b3a205472616e7366657220746f206e6f6e20455243373260408201527418a932b1b2b4bb32b91034b6b83632b6b2b73a32b960591b606082015260800190565b6020808252818101527f537061726b4c696e6b3a2045646974696f6e206973206e6f742065786973742e604082015260600190565b60006001600160801b038083168185168083038211156137c4576137c4613b05565b6000821982111561392657613926613b05565b500190565b60006001600160401b038083168185168083038211156137c4576137c4613b05565b60006001600160801b038084168061396757613967613b1b565b92169190910492915050565b60008261398257613982613b1b565b500490565b60006001600160801b03808316818516818304811182151516156139ad576139ad613b05565b02949350505050565b60008160001904831182151516156139d0576139d0613b05565b500290565b60006001600160801b03838116908316818110156139f5576139f5613b05565b039392505050565b600061ffff838116908316818110156139f5576139f5613b05565b600082821015613a2a57613a2a613b05565b500390565b60006001600160401b03838116908316818110156139f5576139f5613b05565b60005b83811015613a6a578181015183820152602001613a52565b8381111561250e5750506000910152565b600181811c90821680613a8f57607f821691505b60208210811415613ab057634e487b7160e01b600052602260045260246000fd5b50919050565b6000600019821415613aca57613aca613b05565b5060010190565b600060ff821660ff811415613ae857613ae8613b05565b60010192915050565b600082613b0057613b00613b1b565b500690565b634e487b7160e01b600052601160045260246000fd5b634e487b7160e01b600052601260045260246000fd5b634e487b7160e01b600052604160045260246000fd5b8015158114610d9257600080fd5b6001600160e01b031981168114610d9257600080fdfe31323334353637383941424344454647484a4b4c4d4e505152535455565758595a6162636465666768696a6b6d6e6f707172737475767778797aa2646970667358221220fba465ecc374589b67c5f4ffd80d3ef6accbf3e24e85d68cd04d678db367ad5664736f6c63430008040033",
  "linkReferences": {},
  "deployedLinkReferences": {}
}