{
  "_format": "hh-sol-artifact-1",
  "contractName": "SparkNFT",
  "sourceName": "contracts/ShillNFT.sol",
  "abi": [
    {
      "inputs": [],
      "stateMutability": "nonpayable",
      "type": "constructor"
    },
    {
      "anonymous": false,
      "inputs": [
        {
          "indexed": true,
          "internalType": "address",
          "name": "owner",
          "type": "address"
        },
        {
          "indexed": true,
          "internalType": "address",
          "name": "approved",
          "type": "address"
        },
        {
          "indexed": true,
          "internalType": "uint256",
          "name": "tokenId",
          "type": "uint256"
        }
      ],
      "name": "Approval",
      "type": "event"
    },
    {
      "anonymous": false,
      "inputs": [
        {
          "indexed": true,
          "internalType": "address",
          "name": "owner",
          "type": "address"
        },
        {
          "indexed": true,
          "internalType": "address",
          "name": "operator",
          "type": "address"
        },
        {
          "indexed": false,
          "internalType": "bool",
          "name": "approved",
          "type": "bool"
        }
      ],
      "name": "ApprovalForAll",
      "type": "event"
    },
    {
      "anonymous": false,
      "inputs": [
        {
          "indexed": true,
          "internalType": "uint256",
          "name": "NFT_id",
          "type": "uint256"
        },
        {
          "indexed": true,
          "internalType": "address",
          "name": "receiver",
          "type": "address"
        },
        {
          "indexed": false,
          "internalType": "uint256",
          "name": "amount",
          "type": "uint256"
        }
      ],
      "name": "Claim",
      "type": "event"
    },
    {
      "anonymous": false,
      "inputs": [
        {
          "indexed": true,
          "internalType": "uint256",
          "name": "NFT_id",
          "type": "uint256"
        },
        {
          "indexed": false,
          "internalType": "uint256",
          "name": "transfer_price",
          "type": "uint256"
        }
      ],
      "name": "DeterminePrice",
      "type": "event"
    },
    {
      "anonymous": false,
      "inputs": [
        {
          "indexed": true,
          "internalType": "uint256",
          "name": "NFT_id",
          "type": "uint256"
        },
        {
          "indexed": false,
          "internalType": "uint256",
          "name": "transfer_price",
          "type": "uint256"
        },
        {
          "indexed": true,
          "internalType": "address",
          "name": "to",
          "type": "address"
        }
      ],
      "name": "DeterminePriceAndApprove",
      "type": "event"
    },
    {
      "anonymous": false,
      "inputs": [
        {
          "indexed": true,
          "internalType": "uint256",
          "name": "NFT_id",
          "type": "uint256"
        },
        {
          "indexed": true,
          "internalType": "uint256",
          "name": "father_id",
          "type": "uint256"
        },
        {
          "indexed": true,
          "internalType": "address",
          "name": "owner",
          "type": "address"
        },
        {
          "components": [
            {
              "internalType": "uint256",
              "name": "NFT_id",
              "type": "uint256"
            },
            {
              "internalType": "uint256",
              "name": "father_id",
              "type": "uint256"
            },
            {
              "internalType": "uint256",
              "name": "transfer_price",
              "type": "uint256"
            },
            {
              "internalType": "uint256",
              "name": "shillPrice",
              "type": "uint256"
            },
            {
              "internalType": "uint256",
              "name": "profit",
              "type": "uint256"
            },
            {
              "internalType": "bool",
              "name": "is_on_sale",
              "type": "bool"
            },
            {
              "internalType": "uint64",
              "name": "remain_shill_times",
              "type": "uint64"
            }
          ],
          "indexed": false,
          "internalType": "struct SparkNFT.Edition",
          "name": "editionData",
          "type": "tuple"
        }
      ],
      "name": "Mint",
      "type": "event"
    },
    {
      "anonymous": false,
      "inputs": [
        {
          "indexed": true,
          "internalType": "uint128",
          "name": "issue_id",
          "type": "uint128"
        },
        {
          "indexed": true,
          "internalType": "address",
          "name": "publisher",
          "type": "address"
        },
        {
          "indexed": false,
          "internalType": "uint256",
          "name": "rootNFTId",
          "type": "uint256"
        },
        {
          "components": [
            {
              "internalType": "uint128",
              "name": "issue_id",
              "type": "uint128"
            },
            {
              "internalType": "uint8",
              "name": "royalty_fee",
              "type": "uint8"
            },
            {
              "internalType": "uint64",
              "name": "shill_times",
              "type": "uint64"
            },
            {
              "internalType": "uint128",
              "name": "total_amount",
              "type": "uint128"
            },
            {
              "internalType": "string",
              "name": "ipfs_hash",
              "type": "string"
            },
            {
              "internalType": "string",
              "name": "name",
              "type": "string"
            },
            {
              "internalType": "uint256",
              "name": "first_sell_price",
              "type": "uint256"
            }
          ],
          "indexed": false,
          "internalType": "struct SparkNFT.Issue",
          "name": "issueData",
          "type": "tuple"
        }
      ],
      "name": "Publish",
      "type": "event"
    },
    {
      "anonymous": false,
      "inputs": [
        {
          "indexed": true,
          "internalType": "address",
          "name": "from",
          "type": "address"
        },
        {
          "indexed": true,
          "internalType": "address",
          "name": "to",
          "type": "address"
        },
        {
          "indexed": true,
          "internalType": "uint256",
          "name": "tokenId",
          "type": "uint256"
        }
      ],
      "name": "Transfer",
      "type": "event"
    },
    {
      "inputs": [
        {
          "internalType": "uint256",
          "name": "_NFT_id",
          "type": "uint256"
        }
      ],
      "name": "accepetShill",
      "outputs": [],
      "stateMutability": "payable",
      "type": "function"
    },
    {
      "inputs": [
        {
          "internalType": "address",
          "name": "to",
          "type": "address"
        },
        {
          "internalType": "uint256",
          "name": "tokenId",
          "type": "uint256"
        }
      ],
      "name": "approve",
      "outputs": [],
      "stateMutability": "nonpayable",
      "type": "function"
    },
    {
      "inputs": [
        {
          "internalType": "address",
          "name": "owner",
          "type": "address"
        }
      ],
      "name": "balanceOf",
      "outputs": [
        {
          "internalType": "uint256",
          "name": "",
          "type": "uint256"
        }
      ],
      "stateMutability": "view",
      "type": "function"
    },
    {
      "inputs": [
        {
          "internalType": "uint256",
          "name": "_NFT_id",
          "type": "uint256"
        }
      ],
      "name": "claimProfit",
      "outputs": [],
      "stateMutability": "nonpayable",
      "type": "function"
    },
    {
      "inputs": [
        {
          "internalType": "uint256",
          "name": "_NFT_id",
          "type": "uint256"
        },
        {
          "internalType": "uint256",
          "name": "_price",
          "type": "uint256"
        }
      ],
      "name": "determinePrice",
      "outputs": [],
      "stateMutability": "nonpayable",
      "type": "function"
    },
    {
      "inputs": [
        {
          "internalType": "uint256",
          "name": "_NFT_id",
          "type": "uint256"
        },
        {
          "internalType": "uint256",
          "name": "_price",
          "type": "uint256"
        },
        {
          "internalType": "address",
          "name": "_to",
          "type": "address"
        }
      ],
      "name": "determinePriceAndApprove",
      "outputs": [],
      "stateMutability": "nonpayable",
      "type": "function"
    },
    {
      "inputs": [
        {
          "internalType": "uint256",
          "name": "tokenId",
          "type": "uint256"
        }
      ],
      "name": "getApproved",
      "outputs": [
        {
          "internalType": "address",
          "name": "",
          "type": "address"
        }
      ],
      "stateMutability": "view",
      "type": "function"
    },
    {
      "inputs": [
        {
          "internalType": "uint256",
          "name": "_NFT_id",
          "type": "uint256"
        }
      ],
      "name": "getFatherByNFTId",
      "outputs": [
        {
          "internalType": "uint256",
          "name": "",
          "type": "uint256"
        }
      ],
      "stateMutability": "view",
      "type": "function"
    },
    {
      "inputs": [
        {
          "internalType": "uint128",
          "name": "_issue_id",
          "type": "uint128"
        }
      ],
      "name": "getIpfsHashByIssueId",
      "outputs": [
        {
          "internalType": "string",
          "name": "",
          "type": "string"
        }
      ],
      "stateMutability": "view",
      "type": "function"
    },
    {
      "inputs": [
        {
          "internalType": "uint256",
          "name": "_NFT_id",
          "type": "uint256"
        }
      ],
      "name": "getIssueIdByNFTId",
      "outputs": [
        {
          "internalType": "uint128",
          "name": "",
          "type": "uint128"
        }
      ],
      "stateMutability": "pure",
      "type": "function"
    },
    {
      "inputs": [
        {
          "internalType": "uint128",
          "name": "_issue_id",
          "type": "uint128"
        }
      ],
      "name": "getIssueNameByIssueId",
      "outputs": [
        {
          "internalType": "string",
          "name": "",
          "type": "string"
        }
      ],
      "stateMutability": "view",
      "type": "function"
    },
    {
      "inputs": [],
      "name": "getLossRatio",
      "outputs": [
        {
          "internalType": "uint8",
          "name": "",
          "type": "uint8"
        }
      ],
      "stateMutability": "pure",
      "type": "function"
    },
    {
      "inputs": [
        {
          "internalType": "uint256",
          "name": "_NFT_id",
          "type": "uint256"
        }
      ],
      "name": "getRemainShillTimesByNFTId",
      "outputs": [
        {
          "internalType": "uint64",
          "name": "",
          "type": "uint64"
        }
      ],
      "stateMutability": "view",
      "type": "function"
    },
    {
      "inputs": [
        {
          "internalType": "uint128",
          "name": "_issue_id",
          "type": "uint128"
        }
      ],
      "name": "getRoyaltyFeeByIssueId",
      "outputs": [
        {
          "internalType": "uint8",
          "name": "",
          "type": "uint8"
        }
      ],
      "stateMutability": "view",
      "type": "function"
    },
    {
      "inputs": [
        {
          "internalType": "uint128",
          "name": "_issue_id",
          "type": "uint128"
        }
      ],
      "name": "getShellTimesByIssyeId",
      "outputs": [
        {
          "internalType": "uint64",
          "name": "",
          "type": "uint64"
        }
      ],
      "stateMutability": "view",
      "type": "function"
    },
    {
      "inputs": [
        {
          "internalType": "uint256",
          "name": "_NFT_id",
          "type": "uint256"
        }
      ],
      "name": "getShillPriceByNFTId",
      "outputs": [
        {
          "internalType": "uint256",
          "name": "",
          "type": "uint256"
        }
      ],
      "stateMutability": "view",
      "type": "function"
    },
    {
      "inputs": [
        {
          "internalType": "uint128",
          "name": "_issue_id",
          "type": "uint128"
        }
      ],
      "name": "getTotalAmountByIssueId",
      "outputs": [
        {
          "internalType": "uint128",
          "name": "",
          "type": "uint128"
        }
      ],
      "stateMutability": "view",
      "type": "function"
    },
    {
      "inputs": [
        {
          "internalType": "uint256",
          "name": "_NFT_id",
          "type": "uint256"
        }
      ],
      "name": "getTransferPriceByNFTId",
      "outputs": [
        {
          "internalType": "uint256",
          "name": "",
          "type": "uint256"
        }
      ],
      "stateMutability": "view",
      "type": "function"
    },
    {
      "inputs": [
        {
          "internalType": "address",
          "name": "owner",
          "type": "address"
        },
        {
          "internalType": "address",
          "name": "operator",
          "type": "address"
        }
      ],
      "name": "isApprovedForAll",
      "outputs": [
        {
          "internalType": "bool",
          "name": "",
          "type": "bool"
        }
      ],
      "stateMutability": "view",
      "type": "function"
    },
    {
      "inputs": [
        {
          "internalType": "uint256",
          "name": "_NFT_id",
          "type": "uint256"
        }
      ],
      "name": "isEditionExist",
      "outputs": [
        {
          "internalType": "bool",
          "name": "",
          "type": "bool"
        }
      ],
      "stateMutability": "view",
      "type": "function"
    },
    {
      "inputs": [
        {
          "internalType": "uint128",
          "name": "_issue_id",
          "type": "uint128"
        }
      ],
      "name": "isIssueExist",
      "outputs": [
        {
          "internalType": "bool",
          "name": "",
          "type": "bool"
        }
      ],
      "stateMutability": "view",
      "type": "function"
    },
    {
      "inputs": [
        {
          "internalType": "uint256",
          "name": "_NFT_id",
          "type": "uint256"
        }
      ],
      "name": "isNFTOnSale",
      "outputs": [
        {
          "internalType": "bool",
          "name": "",
          "type": "bool"
        }
      ],
      "stateMutability": "view",
      "type": "function"
    },
    {
      "inputs": [],
      "name": "name",
      "outputs": [
        {
          "internalType": "string",
          "name": "",
          "type": "string"
        }
      ],
      "stateMutability": "view",
      "type": "function"
    },
    {
      "inputs": [
        {
          "internalType": "uint256",
          "name": "tokenId",
          "type": "uint256"
        }
      ],
      "name": "ownerOf",
      "outputs": [
        {
          "internalType": "address",
          "name": "",
          "type": "address"
        }
      ],
      "stateMutability": "view",
      "type": "function"
    },
    {
      "inputs": [
        {
          "internalType": "uint256",
          "name": "_first_sell_price",
          "type": "uint256"
        },
        {
          "internalType": "uint8",
          "name": "_royalty_fee",
          "type": "uint8"
        },
        {
          "internalType": "uint64",
          "name": "_shill_times",
          "type": "uint64"
        },
        {
          "internalType": "string",
          "name": "_issue_name",
          "type": "string"
        },
        {
          "internalType": "string",
          "name": "_ipfs_hash",
          "type": "string"
        }
      ],
      "name": "publish",
      "outputs": [],
      "stateMutability": "nonpayable",
      "type": "function"
    },
    {
      "inputs": [
        {
          "internalType": "address",
          "name": "from",
          "type": "address"
        },
        {
          "internalType": "address",
          "name": "to",
          "type": "address"
        },
        {
          "internalType": "uint256",
          "name": "NFT_id",
          "type": "uint256"
        }
      ],
      "name": "safeTransferFrom",
      "outputs": [],
      "stateMutability": "payable",
      "type": "function"
    },
    {
      "inputs": [
        {
          "internalType": "address",
          "name": "from",
          "type": "address"
        },
        {
          "internalType": "address",
          "name": "to",
          "type": "address"
        },
        {
          "internalType": "uint256",
          "name": "NFT_id",
          "type": "uint256"
        },
        {
          "internalType": "bytes",
          "name": "_data",
          "type": "bytes"
        }
      ],
      "name": "safeTransferFrom",
      "outputs": [],
      "stateMutability": "payable",
      "type": "function"
    },
    {
      "inputs": [
        {
          "internalType": "address",
          "name": "operator",
          "type": "address"
        },
        {
          "internalType": "bool",
          "name": "approved",
          "type": "bool"
        }
      ],
      "name": "setApprovalForAll",
      "outputs": [],
      "stateMutability": "nonpayable",
      "type": "function"
    },
    {
      "inputs": [
        {
          "internalType": "bytes4",
          "name": "interfaceId",
          "type": "bytes4"
        }
      ],
      "name": "supportsInterface",
      "outputs": [
        {
          "internalType": "bool",
          "name": "",
          "type": "bool"
        }
      ],
      "stateMutability": "view",
      "type": "function"
    },
    {
      "inputs": [],
      "name": "symbol",
      "outputs": [
        {
          "internalType": "string",
          "name": "",
          "type": "string"
        }
      ],
      "stateMutability": "view",
      "type": "function"
    },
    {
      "inputs": [
        {
          "internalType": "uint256",
          "name": "tokenId",
          "type": "uint256"
        }
      ],
      "name": "tokenURI",
      "outputs": [
        {
          "internalType": "string",
          "name": "",
          "type": "string"
        }
      ],
      "stateMutability": "view",
      "type": "function"
    },
    {
      "inputs": [
        {
          "internalType": "address",
          "name": "from",
          "type": "address"
        },
        {
          "internalType": "address",
          "name": "to",
          "type": "address"
        },
        {
          "internalType": "uint256",
          "name": "NFT_id",
          "type": "uint256"
        }
      ],
      "name": "transferFrom",
      "outputs": [],
      "stateMutability": "payable",
      "type": "function"
    }
  ],
  "bytecode": "0x60806040523480156200001157600080fd5b506040805180820190915260088082526714dc185c9ad3919560c21b602090920191825262000043916003916200007c565b506040805180820190915260088082526714dc185c9ad3919560c21b602090920191825262000075916004916200007c565b506200015f565b8280546200008a9062000122565b90600052602060002090601f016020900481019282620000ae5760008555620000f9565b82601f10620000c957805160ff1916838001178555620000f9565b82800160010185558215620000f9579182015b82811115620000f9578251825591602001919060010190620000dc565b50620001079291506200010b565b5090565b5b808211156200010757600081556001016200010c565b6002810460018216806200013757607f821691505b602082108114156200015957634e487b7160e01b600052602260045260246000fd5b50919050565b612e50806200016f6000396000f3fe6080604052600436106101e35760003560e01c806363bda45211610102578063bd21524f11610095578063cbfe143a11610064578063cbfe143a14610579578063d22dee4814610599578063dc18768e146105b9578063e985e9c5146105d9576101e3565b8063bd21524f146104f9578063bd9825a614610519578063c1f3597f14610539578063c87b56dd14610559576101e3565b806395d89b41116100d157806395d89b4114610491578063a22cb465146104a6578063b0904b51146104c6578063b88d4fde146104e6576101e3565b806363bda452146104115780636e5c75d41461043157806370a082311461045157806381a87fae14610471576101e3565b806323b872dd1161017a57806342842e0e1161014957806342842e0e146103915780634c0c03e2146103a457806353150450146103d15780636352211e146103f1576101e3565b806323b872dd146103115780632d7429d51461032457806335c0d11c1461034457806337d449ba14610364576101e3565b806306fdde03116101b657806306fdde0314610275578063081812fc14610297578063095ea7b3146102c457806314dc4182146102e4576101e3565b806301ffc9a7146101e85780630292ec361461021e57806302f3c4cb14610240578063068d134714610260575b600080fd5b3480156101f457600080fd5b506102086102033660046120d7565b6105f9565b60405161021591906123ab565b60405180910390f35b34801561022a57600080fd5b50610233610641565b6040516102159190612c93565b34801561024c57600080fd5b5061023361025b36600461210f565b610646565b61027361026e366004612136565b61069c565b005b34801561028157600080fd5b5061028a6107db565b60405161021591906123b6565b3480156102a357600080fd5b506102b76102b2366004612136565b61086d565b604051610215919061235a565b3480156102d057600080fd5b506102736102df3660046120ae565b6108b0565b3480156102f057600080fd5b506103046102ff366004612136565b610948565b6040516102159190612bad565b61027361031f366004611fa4565b61094e565b34801561033057600080fd5b5061028a61033f36600461210f565b610959565b34801561035057600080fd5b5061020861035f366004612136565b610a2b565b34801561037057600080fd5b5061038461037f366004612136565b610a3f565b6040516102159190612bc1565b61027361039f366004611fa4565b610a7c565b3480156103b057600080fd5b506103c46103bf366004612136565b610a97565b6040516102159190612c7f565b3480156103dd57600080fd5b506102736103ec3660046121a3565b610ae2565b3480156103fd57600080fd5b506102b761040c366004612136565b610c04565b34801561041d57600080fd5b5061038461042c366004612136565b610c39565b34801561043d57600080fd5b5061038461044c366004612136565b610c77565b34801561045d57600080fd5b5061038461046c366004611f58565b610cb4565b34801561047d57600080fd5b5061020861048c366004612136565b610cf8565b34801561049d57600080fd5b5061028a610d38565b3480156104b257600080fd5b506102736104c1366004612074565b610d47565b3480156104d257600080fd5b506103046104e136600461210f565b610e15565b6102736104f4366004611fdf565b610e5f565b34801561050557600080fd5b5061027361051436600461214e565b610e71565b34801561052557600080fd5b5061027361053436600461216f565b610f31565b34801561054557600080fd5b5061020861055436600461210f565b610f8c565b34801561056557600080fd5b5061028a610574366004612136565b610fac565b34801561058557600080fd5b5061028a61059436600461210f565b6110a3565b3480156105a557600080fd5b506102736105b4366004612136565b6110f0565b3480156105c557600080fd5b506103c46105d436600461210f565b61122a565b3480156105e557600080fd5b506102086105f4366004611f72565b61127d565b60006001600160e01b031982166380ac58cd60e01b148061062a57506001600160e01b03198216635b5e139f60e01b145b806106395750610639826112ab565b90505b919050565b605a90565b600061065182610f8c565b6106765760405162461bcd60e51b815260040161066d906125f7565b60405180910390fd5b506001600160801b0316600090815260016020526040902054600160801b900460ff1690565b6106a581610a2b565b6106c15760405162461bcd60e51b815260040161066d90612574565b60008181526002602052604090206005015461010090046001600160401b03166106fd5760405162461bcd60e51b815260040161066d906126d3565b600081815260026020526040902060030154341461072d5760405162461bcd60e51b815260040161066d9061292c565b60008181526002602052604090206003015461074a9082906112c4565b61075481336112fa565b506000818152600260205260409020600501805460019190829061078790829061010090046001600160401b0316612d3d565b82546001600160401b0391821661010093840a90810290830219909116179092556000848152600260205260409020600501540416151590506107d8576107d6816107d183610c04565b6112fa565b505b50565b6060600380546107ea90612d9d565b80601f016020809104026020016040519081016040528092919081815260200182805461081690612d9d565b80156108635780601f1061083857610100808354040283529160200191610863565b820191906000526020600020905b81548152906001019060200180831161084657829003601f168201915b5050505050905090565b600061087882611581565b6108945760405162461bcd60e51b815260040161066d906125a9565b506000908152600760205260409020546001600160a01b031690565b60006108bb82610c04565b9050806001600160a01b0316836001600160a01b031614156108ef5760405162461bcd60e51b815260040161066d90612786565b806001600160a01b031661090161159e565b6001600160a01b0316148061091d575061091d816105f461159e565b6109395760405162461bcd60e51b815260040161066d90612729565b61094383836115a2565b505050565b60801c90565b610943838383611610565b606061096482610f8c565b6109805760405162461bcd60e51b815260040161066d906125f7565b6001600160801b038216600090815260016020526040902060020180546109a690612d9d565b80601f01602080910402602001604051908101604052809291908181526020018280546109d290612d9d565b8015610a1f5780601f106109f457610100808354040283529160200191610a1f565b820191906000526020600020905b815481529060010190602001808311610a0257829003601f168201915b50505050509050919050565b600090815260026020526040902054151590565b6000610a4a82610a2b565b610a665760405162461bcd60e51b815260040161066d906123c9565b5060009081526002602052604090206001015490565b61094383838360405180602001604052806000815250611817565b6000610aa282610a2b565b610abe5760405162461bcd60e51b815260040161066d906123c9565b5060009081526002602052604090206005015461010090046001600160401b031690565b60648460ff161115610b065760405162461bcd60e51b815260040161066d906129e5565b610b106000611850565b6001600160801b036001600160401b03848116811015610b425760405162461bcd60e51b815260040161066d906128e0565b816001600160801b0316610b566000611859565b1115610b745760405162461bcd60e51b815260040161066d90612400565b6000610b806000611859565b9050610b908582888a8c8961185d565b6000610b9b82611909565b6001600160801b038084166000908152600160205260409081902080549151939450339391909216917f7a103fa30b7d5d60c83010a11b04595fe9b3059a0aa9897858583ec84474240591610bf1918691612bca565b60405180910390a3505050505050505050565b6000818152600560205260408120546001600160a01b0316806106395760405162461bcd60e51b815260040161066d90612853565b6000610c4482610a2b565b610c605760405162461bcd60e51b815260040161066d906123c9565b506000908152600260208190526040909120015490565b6000610c8282610a2b565b610c9e5760405162461bcd60e51b815260040161066d906123c9565b5060009081526002602052604090206003015490565b60006001600160a01b038216610cdc5760405162461bcd60e51b815260040161066d90612a30565b506001600160a01b031660009081526006602052604090205490565b6000610d0382610a2b565b610d1f5760405162461bcd60e51b815260040161066d906123c9565b5060009081526002602052604090206005015460ff1690565b6060600480546107ea90612d9d565b610d4f61159e565b6001600160a01b0316826001600160a01b03161415610d805760405162461bcd60e51b815260040161066d90612963565b8060086000610d8d61159e565b6001600160a01b03908116825260208083019390935260409182016000908120918716808252919093529120805460ff191692151592909217909155610dd161159e565b6001600160a01b03167f17307eab39ab6107e8899845ad3d59bd9653f200f220920489ca2b5937696c3183604051610e0991906123ab565b60405180910390a35050565b6000610e2082610f8c565b610e3c5760405162461bcd60e51b815260040161066d906125f7565b506001600160801b03908116600090815260016020819052604090912001541690565b610e6a858585610a7c565b5050505050565b610e7a82610a2b565b610e965760405162461bcd60e51b815260040161066d9061244a565b610e9f82610c04565b6001600160a01b0316336001600160a01b031614610ecf5760405162461bcd60e51b815260040161066d90612524565b600082815260026020819052604091829020908101839055600501805460ff191660011790555182907f55691faf78a66a8f629987df0570bae1220b662a4ff516aa79d575bae95d2dbd90610f25908490612bc1565b60405180910390a25050565b610f3b8383610e71565b610f4581846108b0565b806001600160a01b0316837ff4a74768b55453e2c86384993c2e7f9722347de4754327f64e7a0eb2146dc29484604051610f7f9190612bc1565b60405180910390a3505050565b6001600160801b0390811660009081526001602052604090205416151590565b6060610fb782611581565b610fd35760405162461bcd60e51b815260040161066d90612ac2565b60008281526009602052604081208054610fec90612d9d565b80601f016020809104026020016040519081016040528092919081815260200182805461101890612d9d565b80156110655780601f1061103a57610100808354040283529160200191611065565b820191906000526020600020905b81548152906001019060200180831161104857829003601f168201915b505050505090506000611076611a81565b9050808260405160200161108b92919061232b565b60405160208183030381529060405292505050919050565b60606110ae82610f8c565b6110ca5760405162461bcd60e51b815260040161066d906125f7565b6001600160801b038216600090815260016020526040902060030180546109a690612d9d565b6110f981610a2b565b6111155760405162461bcd60e51b815260040161066d906123c9565b6000818152600260205260408120600401805491905561113482610a3f565b156111a6576000828152600260205260408120600401546111849060018361115b87610948565b6001600160801b03168152602081019190915260400160002054600160801b900460ff16611ab0565b905061119861119284610a3f565b826112c4565b6111a28183612d26565b9150505b6111af82610c04565b6001600160a01b03166108fc829081150290604051600060405180830381858888f193505050501580156111e7573d6000803e3d6000fd5b506111f182610c04565b6001600160a01b0316827f3ed1528b0fdc7c5207c1bf935e34a667e13656b9ed165260c522be0bc544f30383604051610e099190612bc1565b600061123582610f8c565b6112515760405162461bcd60e51b815260040161066d906125f7565b506001600160801b0316600090815260016020526040902054600160881b90046001600160401b031690565b6001600160a01b03918216600090815260086020908152604080832093909416825291909152205460ff1690565b6001600160e01b031981166301ffc9a760e01b14919050565b6000828152600260205260409020600401546112e1908290612ccf565b6000928352600260205260409092206004019190915550565b60006001600160801b038161130e85610948565b6001600160801b0380821660009081526001602081905260408220810180549495509093909261134091859116612cad565b82546101009290920a6001600160801b0381810219909316918316021790915582811660009081526001602081905260409091200154848216911610905061139a5760405162461bcd60e51b815260040161066d906124db565b6001600160801b03808216600090815260016020819052604082200154909116906113c58383611ad2565b60008181526002602081815260408084208581556001600160801b038916855260018084528286205460058301805468ffffffffffffffff001916610100600160881b9093046001600160401b03169290920291909117905581850186905581018d90558c855292909152909120600301549192509061144690605a611ab0565b6000898152600260205260409020600301546114629190612d26565b600382015560058101805460ff19169055600060048201556114848783611aef565b6001600160801b038416600090815260016020526040902060020180546115339184916114b090612d9d565b80601f01602080910402602001604051908101604052809291908181526020018280546114dc90612d9d565b80156115295780601f106114fe57610100808354040283529160200191611529565b820191906000526020600020905b81548152906001019060200180831161150c57829003601f168201915b5050505050611b09565b866001600160a01b031688837f249e5b8062792802237b678ba9b5629d4f9f202a9ad65c78d7b7e710e0d784be8460405161156e9190612b59565b60405180910390a4509695505050505050565b6000908152600560205260409020546001600160a01b0316151590565b3390565b600081815260076020526040902080546001600160a01b0319166001600160a01b03841690811790915581906115d782610c04565b6001600160a01b03167f8c5be1e5ebec7d5bd14f71427d1e84f3dd0314c0f7b2291e5b200ac8c7c3b92560405160405180910390a45050565b826001600160a01b031661162382610c04565b6001600160a01b0316146116495760405162461bcd60e51b815260040161066d9061299a565b61165a61165461159e565b82611b4d565b6116765760405162461bcd60e51b815260040161066d906127c9565b6001600160a01b03821661169c5760405162461bcd60e51b815260040161066d90612a7c565b6116a581610c04565b6001600160a01b0316336001600160a01b03161461174d5760008181526002602052604090206005015460ff166116ee5760405162461bcd60e51b815260040161066d90612499565b60008181526002602081905260409091200154341461171f5760405162461bcd60e51b815260040161066d9061292c565b61173f8160026000848152602001908152602001600020600201546112c4565b611748816110f0565b611756565b611756816110f0565b61175f81611bd2565b6001600160a01b0383166000908152600660205260408120805460019290611788908490612d26565b90915550506001600160a01b03821660009081526006602052604081208054600192906117b6908490612ccf565b909155505060008181526005602052604080822080546001600160a01b0319166001600160a01b0386811691821790925591518493918716917fddf252ad1be2c89b69c2b068fc378daa952ba7f163c4a11628f55a4df523b3ef91a4505050565b611822848484611610565b61182e84848484611c01565b61184a5760405162461bcd60e51b815260040161066d90612639565b50505050565b80546001019055565b5490565b6001600160801b03851660009081526001602090815260409091208751909161188d9160038401918a0190611e28565b5080546001600160401b038616600160881b0267ffffffffffffffff60881b1960ff8716600160801b0260ff60801b196001600160801b038b166001600160801b031995861617161716178255600182018054909116905581516118fa9060028301906020850190611e28565b50600401919091555050505050565b6001600160801b038082166000908152600160208190526040822081018054929391929091849161193c91859116612cad565b82546101009290920a6001600160801b0381810219909316918316021790915583811660009081526001602081905260408220015490911691506119808483611ad2565b6000818152600260208181526040808420858155928301849055600480840185905560058401805460ff198116825560018087018890556001600160801b038d1688529094529190942093840154600384015592546001600160401b03600160881b909104166101000268ffffffffffffffffff1990911617909155909150611a093383611aef565b6001600160801b03851660009081526001602052604090206002018054611a359184916114b090612d9d565b336001600160a01b03166000837f249e5b8062792802237b678ba9b5629d4f9f202a9ad65c78d7b7e710e0d784be84604051611a719190612b59565b60405180910390a4509392505050565b60408051808201909152601581527468747470733a2f2f697066732e696f2f697066732f60581b602082015290565b60006064611ac160ff841685612d07565b611acb9190612ce7565b9392505050565b6001600160801b031660809190911b6001600160801b0319161790565b6107d6828260405180602001604052806000815250611d1c565b611b1282611581565b611b2e5760405162461bcd60e51b815260040161066d9061268d565b6000828152600960209081526040909120825161094392840190611e28565b6000611b5882611581565b611b745760405162461bcd60e51b815260040161066d90612b0b565b6000611b7f83610c04565b9050806001600160a01b0316846001600160a01b03161480611bba5750836001600160a01b0316611baf8461086d565b6001600160a01b0316145b80611bca5750611bca818561127d565b949350505050565b611bdd6000826115a2565b6000908152600260208190526040822090810191909155600501805460ff19169055565b6000611c15846001600160a01b0316611d4f565b15611d1157836001600160a01b031663150b7a02611c3161159e565b8786866040518563ffffffff1660e01b8152600401611c53949392919061236e565b602060405180830381600087803b158015611c6d57600080fd5b505af1925050508015611c9d575060408051601f3d908101601f19168201909252611c9a918101906120f3565b60015b611cf7573d808015611ccb576040519150601f19603f3d011682016040523d82523d6000602084013e611cd0565b606091505b508051611cef5760405162461bcd60e51b815260040161066d90612639565b805181602001fd5b6001600160e01b031916630a85bd0160e11b149050611bca565b506001949350505050565b611d268383611d55565b611d336000848484611c01565b6109435760405162461bcd60e51b815260040161066d90612639565b3b151590565b6001600160a01b038216611d7b5760405162461bcd60e51b815260040161066d9061289e565b611d8481611581565b15611da15760405162461bcd60e51b815260040161066d9061281c565b6001600160a01b0382166000908152600660205260408120805460019290611dca908490612ccf565b909155505060008181526005602052604080822080546001600160a01b0319166001600160a01b03861690811790915590518392907fddf252ad1be2c89b69c2b068fc378daa952ba7f163c4a11628f55a4df523b3ef908290a45050565b828054611e3490612d9d565b90600052602060002090601f016020900481019282611e565760008555611e9c565b82601f10611e6f57805160ff1916838001178555611e9c565b82800160010185558215611e9c579182015b82811115611e9c578251825591602001919060010190611e81565b50611ea8929150611eac565b5090565b5b80821115611ea85760008155600101611ead565b80356001600160a01b038116811461063c57600080fd5b600082601f830112611ee8578081fd5b81356001600160401b0380821115611f0257611f02612dee565b604051601f8301601f191681016020018281118282101715611f2657611f26612dee565b604052828152848301602001861015611f3d578384fd5b82602086016020830137918201602001929092529392505050565b600060208284031215611f69578081fd5b611acb82611ec1565b60008060408385031215611f84578081fd5b611f8d83611ec1565b9150611f9b60208401611ec1565b90509250929050565b600080600060608486031215611fb8578081fd5b611fc184611ec1565b9250611fcf60208501611ec1565b9150604084013590509250925092565b600080600080600060808688031215611ff6578081fd5b611fff86611ec1565b945061200d60208701611ec1565b93506040860135925060608601356001600160401b038082111561202f578283fd5b818801915088601f830112612042578283fd5b813581811115612050578384fd5b896020828501011115612061578384fd5b9699959850939650602001949392505050565b60008060408385031215612086578182fd5b61208f83611ec1565b9150602083013580151581146120a3578182fd5b809150509250929050565b600080604083850312156120c0578182fd5b6120c983611ec1565b946020939093013593505050565b6000602082840312156120e8578081fd5b8135611acb81612e04565b600060208284031215612104578081fd5b8151611acb81612e04565b600060208284031215612120578081fd5b81356001600160801b0381168114611acb578182fd5b600060208284031215612147578081fd5b5035919050565b60008060408385031215612160578182fd5b50508035926020909101359150565b600080600060608486031215612183578283fd5b833592506020840135915061219a60408501611ec1565b90509250925092565b600080600080600060a086880312156121ba578081fd5b85359450602086013560ff811681146121d1578182fd5b935060408601356001600160401b0380821682146121ed578283fd5b90935060608701359080821115612202578283fd5b61220e89838a01611ed8565b93506080880135915080821115612223578283fd5b5061223088828901611ed8565b9150509295509295909350565b60008151808452612255816020860160208601612d71565b601f01601f19169290920160200192915050565b80546000906002810460018083168061228357607f831692505b60208084108214156122a357634e487b7160e01b86526022600452602486fd5b6122ad8489612bc1565b8280156122c157600181146122d2576122fd565b60ff198716825282820197506122fd565b6122db89612ca1565b60005b878110156122f7578154848201529086019084016122de565b83019850505b5050505050505092915050565b6001600160801b03169052565b6001600160401b03169052565b60ff169052565b6000835161233d818460208801612d71565b835190830190612351818360208801612d71565b01949350505050565b6001600160a01b0391909116815260200190565b6001600160a01b03858116825284166020820152604081018390526080606082018190526000906123a19083018461223d565b9695505050505050565b901515815260200190565b600060208252611acb602083018461223d565b6020808252601f908201527f537061726b4e46543a2045646974696f6e206973206e6f742065786973742e00604082015260600190565b6020808252602a908201527f537061726b4e46543a20497373756520696420646f65736e27742066697420696040820152696e20313238206269747360b01b606082015260800190565b6020808252602f908201527f537061726b4e46543a20546865204e465420796f752077616e7420746f20627560408201526e3c9034b9903737ba1032bc34b9ba1760891b606082015260800190565b60208082526022908201527f537061726b4e46543a2054686973204e4654206973206e6f74206f6e2073616c604082015261329760f11b606082015260800190565b60208082526029908201527f537061726b4e46543a205468657265206973206e6f206c65667420696e20746860408201526834b99034b9b9bab29760b91b606082015260800190565b60208082526030908201527f537061726b4e46543a204e465427732070726963652073686f756c642073657460408201526f10313c9037b73bb2b91037b31034ba1760811b606082015260800190565b6020808252818101527f537061726b4e46543a2054686973204e4654206973206e6f742065786973742e604082015260600190565b6020808252602e908201527f537061726b4e46543a20617070726f76656420717565727920666f72206e6f6e60408201526d32bc34b9ba32b73a103a37b5b2b760911b606082015260800190565b60208082526022908201527f537061726b4e46543a2054686973206973737565206973206e6f7420657869736040820152613a1760f11b606082015260800190565b60208082526034908201527f537061726b4e46543a207472616e7366657220746f206e6f6e204552433732316040820152732932b1b2b4bb32b91034b6b83632b6b2b73a32b960611b606082015260800190565b60208082526026908201527f537061726b4e46543a2055524920736574206f66206e6f6e6578697374656e74604082015265103a37b5b2b760d11b606082015260800190565b60208082526036908201527f537061726b4e46543a205468657265206973206e6f2072656d61696e207368696040820152753636103a34b6b2b9903337b9103a3434b99027232a1760511b606082015260800190565b6020808252603a908201527f537061726b4e46543a20617070726f76652063616c6c6572206973206e6f742060408201527f6f776e6572206e6f7220617070726f76656420666f7220616c6c000000000000606082015260800190565b60208082526023908201527f537061726b4e46543a20617070726f76616c20746f2063757272656e74206f776040820152623732b960e91b606082015260800190565b60208082526033908201527f537061726b4e46543a207472616e736665722063616c6c6572206973206e6f74604082015272081bdddb995c881b9bdc88185c1c1c9bdd9959606a1b606082015260800190565b6020808252601e908201527f537061726b4e46543a20746f6b656e20616c7265616479206d696e7465640000604082015260600190565b6020808252602b908201527f537061726b4e46543a206f776e657220717565727920666f72206e6f6e65786960408201526a39ba32b73a103a37b5b2b760a91b606082015260800190565b60208082526022908201527f537061726b4e46543a206d696e7420746f20746865207a65726f206164647265604082015261737360f01b606082015260800190565b6020808252602c908201527f537061726b4e46543a205368696c6c5f74696d657320646f65736e277420666960408201526b7420696e203634206269747360a01b606082015260800190565b60208082526019908201527f537061726b4e46543a206e6f7420656e6f756768742045544800000000000000604082015260600190565b6020808252601b908201527f537061726b4e46543a20617070726f766520746f2063616c6c65720000000000604082015260600190565b6020808252602b908201527f537061726b4e46543a207472616e73666572206f6620746f6b656e207468617460408201526a1034b9903737ba1037bbb760a91b606082015260800190565b6020808252602b908201527f537061726b4e46543a20526f79616c7479206665652073686f756c64206c657360408201526a39903a3430b7101898181760a91b606082015260800190565b6020808252602c908201527f537061726b4e46543a2062616c616e636520717565727920666f72207468652060408201526b7a65726f206164647265737360a01b606082015260800190565b60208082526026908201527f537061726b4e46543a207472616e7366657220746f20746865207a65726f206160408201526564647265737360d01b606082015260800190565b60208082526029908201527f537061726b4e46543a2055524920717565727920666f72206e6f6e657869737460408201526832b73a103a37b5b2b760b91b606082015260800190565b6020808252602e908201527f537061726b4e46543a206f70657261746f7220717565727920666f72206e6f6e60408201526d32bc34b9ba32b73a103a37b5b2b760911b606082015260800190565b815481526001820154602082015260028201546040820152600382015460608201526004820154608082015260059091015460ff8116151560a083015260081c6001600160401b031660c082015260e00190565b6001600160801b0391909116815260200190565b90815260200190565b6000838252604060208301528254612bee604084016001600160801b03831661230a565b612c016060840160ff8360801c16612324565b612c1a608084016001600160401b038360881c16612317565b50612c286001840154612d65565b612c3560a084018261230a565b5060e060c0830152612c4e610120830160028501612269565b828103603f190160e0840152612c678160038601612269565b90506004840154610100840152809150509392505050565b6001600160401b0391909116815260200190565b60ff91909116815260200190565b60009081526020902090565b60006001600160801b0380831681851680830382111561235157612351612dd8565b60008219821115612ce257612ce2612dd8565b500190565b600082612d0257634e487b7160e01b81526012600452602481fd5b500490565b6000816000190483118215151615612d2157612d21612dd8565b500290565b600082821015612d3857612d38612dd8565b500390565b60006001600160401b0383811690831681811015612d5d57612d5d612dd8565b039392505050565b6001600160801b031690565b60005b83811015612d8c578181015183820152602001612d74565b8381111561184a5750506000910152565b600281046001821680612db157607f821691505b60208210811415612dd257634e487b7160e01b600052602260045260246000fd5b50919050565b634e487b7160e01b600052601160045260246000fd5b634e487b7160e01b600052604160045260246000fd5b6001600160e01b0319811681146107d857600080fdfea2646970667358221220198d2be96d8936e95d1ff73ecf3c327151e7f1a4b72f764a0079036a695cdc9a64736f6c63430008000033",
  "linkReferences": {},
  "deployedLinkReferences": {}
}