{
  "_format": "hh-sol-artifact-1",
  "contractName": "SparkNFT",
  "sourceName": "contracts/SparkNFT.sol",
  "abi": [
    {
      "inputs": [],
      "stateMutability": "nonpayable",
      "type": "constructor"
    },
    {
      "anonymous": false,
      "inputs": [
        {
          "indexed": true,
          "internalType": "address",
          "name": "owner",
          "type": "address"
        },
        {
          "indexed": true,
          "internalType": "address",
          "name": "approved",
          "type": "address"
        },
        {
          "indexed": true,
          "internalType": "uint256",
          "name": "tokenId",
          "type": "uint256"
        }
      ],
      "name": "Approval",
      "type": "event"
    },
    {
      "anonymous": false,
      "inputs": [
        {
          "indexed": true,
          "internalType": "address",
          "name": "owner",
          "type": "address"
        },
        {
          "indexed": true,
          "internalType": "address",
          "name": "operator",
          "type": "address"
        },
        {
          "indexed": false,
          "internalType": "bool",
          "name": "approved",
          "type": "bool"
        }
      ],
      "name": "ApprovalForAll",
      "type": "event"
    },
    {
      "anonymous": false,
      "inputs": [
        {
          "indexed": true,
          "internalType": "uint64",
          "name": "NFT_id",
          "type": "uint64"
        },
        {
          "indexed": true,
          "internalType": "address",
          "name": "receiver",
          "type": "address"
        },
        {
          "indexed": false,
          "internalType": "uint128",
          "name": "amount",
          "type": "uint128"
        }
      ],
      "name": "Claim",
      "type": "event"
    },
    {
      "anonymous": false,
      "inputs": [
        {
          "indexed": true,
          "internalType": "uint64",
          "name": "NFT_id",
          "type": "uint64"
        },
        {
          "indexed": false,
          "internalType": "uint128",
          "name": "transfer_price",
          "type": "uint128"
        }
      ],
      "name": "DeterminePrice",
      "type": "event"
    },
    {
      "anonymous": false,
      "inputs": [
        {
          "indexed": true,
          "internalType": "uint64",
          "name": "NFT_id",
          "type": "uint64"
        },
        {
          "indexed": false,
          "internalType": "uint128",
          "name": "transfer_price",
          "type": "uint128"
        },
        {
          "indexed": true,
          "internalType": "address",
          "name": "to",
          "type": "address"
        }
      ],
      "name": "DeterminePriceAndApprove",
      "type": "event"
    },
    {
      "anonymous": false,
      "inputs": [
        {
          "indexed": true,
          "internalType": "uint32",
          "name": "issue_id",
          "type": "uint32"
        },
        {
          "indexed": true,
          "internalType": "address",
          "name": "publisher",
          "type": "address"
        },
        {
          "indexed": false,
          "internalType": "uint64",
          "name": "rootNFTId",
          "type": "uint64"
        }
      ],
      "name": "Publish",
      "type": "event"
    },
    {
      "anonymous": false,
      "inputs": [
        {
          "indexed": true,
          "internalType": "address",
          "name": "from",
          "type": "address"
        },
        {
          "indexed": true,
          "internalType": "address",
          "name": "to",
          "type": "address"
        },
        {
          "indexed": true,
          "internalType": "uint256",
          "name": "tokenId",
          "type": "uint256"
        }
      ],
      "name": "Transfer",
      "type": "event"
    },
    {
      "inputs": [
        {
          "internalType": "uint64",
          "name": "_NFT_id",
          "type": "uint64"
        }
      ],
      "name": "acceptShill",
      "outputs": [],
      "stateMutability": "payable",
      "type": "function"
    },
    {
      "inputs": [
        {
          "internalType": "address",
          "name": "to",
          "type": "address"
        },
        {
          "internalType": "uint256",
          "name": "tokenId",
          "type": "uint256"
        }
      ],
      "name": "approve",
      "outputs": [],
      "stateMutability": "nonpayable",
      "type": "function"
    },
    {
      "inputs": [
        {
          "internalType": "address",
          "name": "owner",
          "type": "address"
        }
      ],
      "name": "balanceOf",
      "outputs": [
        {
          "internalType": "uint256",
          "name": "",
          "type": "uint256"
        }
      ],
      "stateMutability": "view",
      "type": "function"
    },
    {
      "inputs": [
        {
          "internalType": "uint64",
          "name": "_NFT_id",
          "type": "uint64"
        }
      ],
      "name": "claimProfit",
      "outputs": [],
      "stateMutability": "nonpayable",
      "type": "function"
    },
    {
      "inputs": [
        {
          "internalType": "uint64",
          "name": "_NFT_id",
          "type": "uint64"
        },
        {
          "internalType": "uint128",
          "name": "_price",
          "type": "uint128"
        }
      ],
      "name": "determinePrice",
      "outputs": [],
      "stateMutability": "nonpayable",
      "type": "function"
    },
    {
      "inputs": [
        {
          "internalType": "uint64",
          "name": "_NFT_id",
          "type": "uint64"
        },
        {
          "internalType": "uint128",
          "name": "_price",
          "type": "uint128"
        },
        {
          "internalType": "address",
          "name": "_to",
          "type": "address"
        }
      ],
      "name": "determinePriceAndApprove",
      "outputs": [],
      "stateMutability": "nonpayable",
      "type": "function"
    },
    {
      "inputs": [
        {
          "internalType": "uint256",
          "name": "tokenId",
          "type": "uint256"
        }
      ],
      "name": "getApproved",
      "outputs": [
        {
          "internalType": "address",
          "name": "",
          "type": "address"
        }
      ],
      "stateMutability": "view",
      "type": "function"
    },
    {
      "inputs": [
        {
          "internalType": "uint64",
          "name": "_NFT_id",
          "type": "uint64"
        }
      ],
      "name": "getFatherByNFTId",
      "outputs": [
        {
          "internalType": "uint64",
          "name": "",
          "type": "uint64"
        }
      ],
      "stateMutability": "view",
      "type": "function"
    },
    {
      "inputs": [
        {
          "internalType": "uint64",
          "name": "_NFT_id",
          "type": "uint64"
        }
      ],
      "name": "getIssueIdByNFTId",
      "outputs": [
        {
          "internalType": "uint32",
          "name": "",
          "type": "uint32"
        }
      ],
      "stateMutability": "pure",
      "type": "function"
    },
    {
      "inputs": [],
      "name": "getLossRatio",
      "outputs": [
        {
          "internalType": "uint8",
          "name": "",
          "type": "uint8"
        }
      ],
      "stateMutability": "pure",
      "type": "function"
    },
    {
      "inputs": [
        {
          "internalType": "uint64",
          "name": "_NFT_id",
          "type": "uint64"
        }
      ],
      "name": "getRemainShillTimesByNFTId",
      "outputs": [
        {
          "internalType": "uint8",
          "name": "",
          "type": "uint8"
        }
      ],
      "stateMutability": "view",
      "type": "function"
    },
    {
      "inputs": [
        {
          "internalType": "uint32",
          "name": "_issue_id",
          "type": "uint32"
        }
      ],
      "name": "getRootNFTIdByIssueId",
      "outputs": [
        {
          "internalType": "uint64",
          "name": "",
          "type": "uint64"
        }
      ],
      "stateMutability": "pure",
      "type": "function"
    },
    {
      "inputs": [
        {
          "internalType": "uint32",
          "name": "_issue_id",
          "type": "uint32"
        }
      ],
      "name": "getRoyaltyFeeByIssueId",
      "outputs": [
        {
          "internalType": "uint8",
          "name": "",
          "type": "uint8"
        }
      ],
      "stateMutability": "view",
      "type": "function"
    },
    {
      "inputs": [
        {
          "internalType": "uint64",
          "name": "_NFT_id",
          "type": "uint64"
        }
      ],
      "name": "getShillPriceByNFTId",
      "outputs": [
        {
          "internalType": "uint128",
          "name": "",
          "type": "uint128"
        }
      ],
      "stateMutability": "view",
      "type": "function"
    },
    {
      "inputs": [
        {
          "internalType": "uint32",
          "name": "_issue_id",
          "type": "uint32"
        }
      ],
      "name": "getShillTimesByIssueId",
      "outputs": [
        {
          "internalType": "uint8",
          "name": "",
          "type": "uint8"
        }
      ],
      "stateMutability": "view",
      "type": "function"
    },
    {
      "inputs": [
        {
          "internalType": "uint32",
          "name": "_issue_id",
          "type": "uint32"
        }
      ],
      "name": "getTotalAmountByIssueId",
      "outputs": [
        {
          "internalType": "uint32",
          "name": "",
          "type": "uint32"
        }
      ],
      "stateMutability": "view",
      "type": "function"
    },
    {
      "inputs": [
        {
          "internalType": "uint64",
          "name": "_NFT_id",
          "type": "uint64"
        }
      ],
      "name": "getTransferPriceByNFTId",
      "outputs": [
        {
          "internalType": "uint128",
          "name": "",
          "type": "uint128"
        }
      ],
      "stateMutability": "view",
      "type": "function"
    },
    {
      "inputs": [
        {
          "internalType": "address",
          "name": "owner",
          "type": "address"
        },
        {
          "internalType": "address",
          "name": "operator",
          "type": "address"
        }
      ],
      "name": "isApprovedForAll",
      "outputs": [
        {
          "internalType": "bool",
          "name": "",
          "type": "bool"
        }
      ],
      "stateMutability": "view",
      "type": "function"
    },
    {
      "inputs": [
        {
          "internalType": "uint64",
          "name": "_NFT_id",
          "type": "uint64"
        }
      ],
      "name": "isEditionExist",
      "outputs": [
        {
          "internalType": "bool",
          "name": "",
          "type": "bool"
        }
      ],
      "stateMutability": "view",
      "type": "function"
    },
    {
      "inputs": [
        {
          "internalType": "uint32",
          "name": "_issue_id",
          "type": "uint32"
        }
      ],
      "name": "isIssueExist",
      "outputs": [
        {
          "internalType": "bool",
          "name": "",
          "type": "bool"
        }
      ],
      "stateMutability": "view",
      "type": "function"
    },
    {
      "inputs": [
        {
          "internalType": "uint64",
          "name": "_NFT_id",
          "type": "uint64"
        }
      ],
      "name": "isRootNFT",
      "outputs": [
        {
          "internalType": "bool",
          "name": "",
          "type": "bool"
        }
      ],
      "stateMutability": "pure",
      "type": "function"
    },
    {
      "inputs": [],
      "name": "name",
      "outputs": [
        {
          "internalType": "string",
          "name": "",
          "type": "string"
        }
      ],
      "stateMutability": "view",
      "type": "function"
    },
    {
      "inputs": [
        {
          "internalType": "uint256",
          "name": "tokenId",
          "type": "uint256"
        }
      ],
      "name": "ownerOf",
      "outputs": [
        {
          "internalType": "address",
          "name": "",
          "type": "address"
        }
      ],
      "stateMutability": "view",
      "type": "function"
    },
    {
      "inputs": [
        {
          "internalType": "uint128",
          "name": "_first_sell_price",
          "type": "uint128"
        },
        {
          "internalType": "uint8",
          "name": "_royalty_fee",
          "type": "uint8"
        },
        {
          "internalType": "uint8",
          "name": "_shill_times",
          "type": "uint8"
        },
        {
          "internalType": "bytes32",
          "name": "_ipfs_hash",
          "type": "bytes32"
        }
      ],
      "name": "publish",
      "outputs": [],
      "stateMutability": "nonpayable",
      "type": "function"
    },
    {
      "inputs": [
        {
          "internalType": "address",
          "name": "from",
          "type": "address"
        },
        {
          "internalType": "address",
          "name": "to",
          "type": "address"
        },
        {
          "internalType": "uint256",
          "name": "tokenId",
          "type": "uint256"
        }
      ],
      "name": "safeTransferFrom",
      "outputs": [],
      "stateMutability": "payable",
      "type": "function"
    },
    {
      "inputs": [
        {
          "internalType": "address",
          "name": "from",
          "type": "address"
        },
        {
          "internalType": "address",
          "name": "to",
          "type": "address"
        },
        {
          "internalType": "uint256",
          "name": "tokenId",
          "type": "uint256"
        },
        {
          "internalType": "bytes",
          "name": "_data",
          "type": "bytes"
        }
      ],
      "name": "safeTransferFrom",
      "outputs": [],
      "stateMutability": "payable",
      "type": "function"
    },
    {
      "inputs": [
        {
          "internalType": "address",
          "name": "operator",
          "type": "address"
        },
        {
          "internalType": "bool",
          "name": "approved",
          "type": "bool"
        }
      ],
      "name": "setApprovalForAll",
      "outputs": [],
      "stateMutability": "nonpayable",
      "type": "function"
    },
    {
      "inputs": [
        {
          "internalType": "bytes4",
          "name": "interfaceId",
          "type": "bytes4"
        }
      ],
      "name": "supportsInterface",
      "outputs": [
        {
          "internalType": "bool",
          "name": "",
          "type": "bool"
        }
      ],
      "stateMutability": "view",
      "type": "function"
    },
    {
      "inputs": [],
      "name": "symbol",
      "outputs": [
        {
          "internalType": "string",
          "name": "",
          "type": "string"
        }
      ],
      "stateMutability": "view",
      "type": "function"
    },
    {
      "inputs": [
        {
          "internalType": "uint256",
          "name": "tokenId",
          "type": "uint256"
        }
      ],
      "name": "tokenURI",
      "outputs": [
        {
          "internalType": "string",
          "name": "",
          "type": "string"
        }
      ],
      "stateMutability": "view",
      "type": "function"
    },
    {
      "inputs": [
        {
          "internalType": "address",
          "name": "from",
          "type": "address"
        },
        {
          "internalType": "address",
          "name": "to",
          "type": "address"
        },
        {
          "internalType": "uint256",
          "name": "tokenId",
          "type": "uint256"
        }
      ],
      "name": "transferFrom",
      "outputs": [],
      "stateMutability": "payable",
      "type": "function"
    }
  ],
  "bytecode": "0x60806040523480156200001157600080fd5b506040805180820190915260088082526714dc185c9ad3919560c21b602090920191825262000043916002916200007c565b506040805180820190915260088082526714dc185c9ad3919560c21b602090920191825262000075916003916200007c565b506200015f565b8280546200008a9062000122565b90600052602060002090601f016020900481019282620000ae5760008555620000f9565b82601f10620000c957805160ff1916838001178555620000f9565b82800160010185558215620000f9579182015b82811115620000f9578251825591602001919060010190620000dc565b50620001079291506200010b565b5090565b5b808211156200010757600081556001016200010c565b600181811c908216806200013757607f821691505b602082108114156200015957634e487b7160e01b600052602260045260246000fd5b50919050565b612e55806200016f6000396000f3fe6080604052600436106101d85760003560e01c80637f52b12a11610102578063c87b56dd11610095578063f208c0f311610064578063f208c0f3146105bb578063f6e9274d146105eb578063fc6b6dea1461060b578063fee032991461062b57600080fd5b8063c87b56dd14610512578063d8a288bd14610532578063d8d17e7914610552578063e985e9c51461057257600080fd5b8063a7c9e881116100d1578063a7c9e8811461047c578063b88d4fde146104b4578063bbe07d79146104c7578063bdea26fa146104da57600080fd5b80637f52b12a1461040057806392e6f9ac1461042057806395d89b4114610447578063a22cb4651461045c57600080fd5b806342842e0e1161017a57806362f8dcd51161014957806362f8dcd5146103725780636352211e1461039257806370a08231146103b257806377738ad2146103e057600080fd5b806342842e0e146102ff5780635a034b3b146103125780635ca01327146103325780635e7efa2e1461035257600080fd5b8063081812fc116101b6578063081812fc14610256578063095ea7b31461028e578063177e67f2146102b057806323b872dd146102ec57600080fd5b806301ffc9a7146101dd5780630292ec361461021257806306fdde0314610234575b600080fd5b3480156101e957600080fd5b506101fd6101f83660046128a2565b61064b565b60405190151581526020015b60405180910390f35b34801561021e57600080fd5b50605a5b60405160ff9091168152602001610209565b34801561024057600080fd5b5061024961069d565b6040516102099190612aa7565b34801561026257600080fd5b50610276610271366004612924565b61072f565b6040516001600160a01b039091168152602001610209565b34801561029a57600080fd5b506102ae6102a9366004612879565b6107db565b005b3480156102bc57600080fd5b506102d76102cb366004612960565b60201c63ffffffff1690565b60405163ffffffff9091168152602001610209565b6102ae6102fa36600461276f565b6108fb565b6102ae61030d36600461276f565b61090e565b34801561031e57600080fd5b506102ae61032d366004612960565b610931565b34801561033e57600080fd5b506102ae61034d3660046128da565b610b00565b34801561035e57600080fd5b5061022261036d36600461293c565b610dc1565b34801561037e57600080fd5b506101fd61038d36600461293c565b610e27565b34801561039e57600080fd5b506102766103ad366004612924565b610e42565b3480156103be57600080fd5b506103d26103cd366004612723565b610edb565b604051908152602001610209565b3480156103ec57600080fd5b506102ae6103fb3660046129a3565b610f6d565b34801561040c57600080fd5b506101fd61041b366004612960565b610fe1565b34801561042c57600080fd5b506101fd61043b366004612960565b63ffffffff1660011490565b34801561045357600080fd5b5061024961100b565b34801561046857600080fd5b506102ae61047736600461283f565b61101a565b34801561048857600080fd5b5061049c610497366004612960565b6110d8565b6040516001600160801b039091168152602001610209565b6102ae6104c23660046127aa565b61112b565b6102ae6104d5366004612960565b61117c565b3480156104e657600080fd5b506104fa6104f5366004612960565b6113a8565b6040516001600160401b039091168152602001610209565b34801561051e57600080fd5b5061024961052d366004612924565b6113ee565b34801561053e57600080fd5b506102d761054d36600461293c565b6114fe565b34801561055e57600080fd5b5061022261056d366004612960565b61154f565b34801561057e57600080fd5b506101fd61058d36600461273d565b6001600160a01b03918216600090815260066020908152604080832093909416825291909152205460ff1690565b3480156105c757600080fd5b506104fa6105d636600461293c565b63ffffffff60201b60209190911b1660011790565b3480156105f757600080fd5b5061049c610606366004612960565b61159c565b34801561061757600080fd5b5061022261062636600461293c565b6115eb565b34801561063757600080fd5b506102ae61064636600461297a565b611630565b60006001600160e01b031982166380ac58cd60e01b148061067c57506001600160e01b03198216635b5e139f60e01b145b8061069757506301ffc9a760e01b6001600160e01b03198316145b92915050565b6060600280546106ac90612d19565b80601f01602080910402602001604051908101604052809291908181526020018280546106d890612d19565b80156107255780601f106106fa57610100808354040283529160200191610725565b820191906000526020600020905b81548152906001019060200180831161070857829003601f168201915b5050505050905090565b600061073d61041b83611797565b6107a55760405162461bcd60e51b815260206004820152602e60248201527f537061726b4e46543a20617070726f76656420717565727920666f72206e6f6e60448201526d32bc34b9ba32b73a103a37b5b2b760911b60648201526084015b60405180910390fd5b600560006107b284611797565b6001600160401b031681526020810191909152604001600020546001600160a01b031692915050565b60006107e682610e42565b9050806001600160a01b0316836001600160a01b031614156108565760405162461bcd60e51b815260206004820152602360248201527f537061726b4e46543a20617070726f76616c20746f2063757272656e74206f776044820152623732b960e91b606482015260840161079c565b336001600160a01b03821614806108725750610872813361058d565b6108e45760405162461bcd60e51b815260206004820152603a60248201527f537061726b4e46543a20617070726f76652063616c6c6572206973206e6f742060448201527f6f776e6572206e6f7220617070726f76656420666f7220616c6c000000000000606482015260840161079c565b6108f6836108f184611797565b611803565b505050565b6108f6838361090984611797565b611879565b6108f6838361091c84611797565b60405180602001604052806000815250611bc3565b61093a81610fe1565b6109565760405162461bcd60e51b815260040161079c90612aba565b6001600160401b038116600090815260016020526040902060030154600160801b90046001600160801b031615610afd576001600160401b038116600090815260016020526040902060030180546001600160801b03808216909255600160801b9004166109ca8263ffffffff1660011490565b610a3c576001600160401b038216600090815260016020526040812060030154610a1a906001600160801b03600160801b90910416610a156106268663ffffffff60209190911c1690565b611bfc565b9050610a2e610a28846113a8565b82611c1e565b610a388183612c6b565b9150505b610a4e826001600160401b0316610e42565b6001600160a01b03166108fc826001600160801b03169081150290604051600060405180830381858888f19350505050158015610a8f573d6000803e3d6000fd5b50610aa2826001600160401b0316610e42565b6001600160a01b0316826001600160401b03167f3dc1a77733195d8bbde8f8bc719f598f47f377c9c4b854d561b4d607a8e81f6283604051610af391906001600160801b0391909116815260200190565b60405180910390a3505b50565b60648360ff161115610b685760405162461bcd60e51b815260206004820152602b60248201527f537061726b4e46543a20526f79616c7479206665652073686f756c64206c657360448201526a39903a3430b7101898181760a91b606482015260840161079c565b610b76600080546001019055565b63ffffffff610b8460005490565b1115610be25760405162461bcd60e51b815260206004820152602760248201527f537061726b4e46543a2076616c756520646f65736e27742066697420696e203360448201526619103134ba399760c91b606482015260840161079c565b60008054906001602083901b63ffffffff60201b16179050610c166000338360405180602001604052806000815250611c90565b610c325760405162461bcd60e51b815260040161079c90612b33565b6001600160401b03811660009081526001602081905260409091209066ff00000000000019603888901b16603087901b1790610c6e9082612bc1565b82546001600160401b0382811667ffffffffffffffff60ff60c01b011990921691909117600160c01b60ff8a160217600160401b600160c01b031916600160401b6001600160801b038c160217845560018085018054336001600160a01b031990911681179091556002860189905560009081526004602052604081208054949550919391929091610d0291859116612bc1565b92506101000a8154816001600160401b0302191690836001600160401b03160217905550826001600160401b0316336001600160a01b031660006001600160a01b03167fddf252ad1be2c89b69c2b068fc378daa952ba7f163c4a11628f55a4df523b3ef60405160405180910390a46040516001600160401b0384168152339063ffffffff8616907f7076939bab881558c26bdfd19cefffacd29a6dcea17a02353fbceb3e9a53c2999060200160405180910390a35050505050505050565b6000610dcc82610e27565b610de85760405162461bcd60e51b815260040161079c90612af1565b610697603060016000602086901b63ffffffff60201b1682175b6001600160401b0390811682526020820192909252604001600020541660ff911c1690565b60006106976001602084901b63ffffffff60201b1617610fe1565b60008060016000610e5285611797565b6001600160401b031681526020810191909152604001600020600101546001600160a01b03169050806106975760405162461bcd60e51b815260206004820152602b60248201527f537061726b4e46543a206f776e657220717565727920666f72206e6f6e65786960448201526a39ba32b73a103a37b5b2b760a91b606482015260840161079c565b60006001600160a01b038216610f485760405162461bcd60e51b815260206004820152602c60248201527f537061726b4e46543a2062616c616e636520717565727920666f72207468652060448201526b7a65726f206164647265737360a01b606482015260840161079c565b506001600160a01b03166000908152600460205260409020546001600160401b031690565b610f778383611630565b610f8a81846001600160401b03166107db565b6040516001600160801b03831681526001600160a01b038216906001600160401b038516907ff4a029974225230e783a906bf72b4c1037aee2b37958b9a6b5e689da1477729b9060200160405180910390a3505050565b6001600160401b0316600090815260016020819052604090912001546001600160a01b0316151590565b6060600380546106ac90612d19565b6001600160a01b0382163314156110735760405162461bcd60e51b815260206004820152601b60248201527f537061726b4e46543a20617070726f766520746f2063616c6c65720000000000604482015260640161079c565b3360008181526006602090815260408083206001600160a01b03871680855290835292819020805460ff191686151590811790915590519081529192917f17307eab39ab6107e8899845ad3d59bd9653f200f220920489ca2b5937696c319101610af3565b60006110e382610fe1565b6110ff5760405162461bcd60e51b815260040161079c90612aba565b506001600160401b0316600090815260016020526040902054600160401b90046001600160801b031690565b611175858561113986611797565b85858080601f016020809104026020016040519081016040528093929190818152602001838380828437600092019190915250611bc392505050565b5050505050565b61118581610fe1565b6111d15760405162461bcd60e51b815260206004820181905260248201527f537061726b4e46543a2054686973204e4654206973206e6f742065786973742e604482015260640161079c565b6001600160401b038116600090815260016020526040902054600160c01b900460ff1661125f5760405162461bcd60e51b815260206004820152603660248201527f537061726b4e46543a205468657265206973206e6f2072656d61696e207368696044820152753636103a34b6b2b9903337b9103a3434b99027232a1760511b606482015260840161079c565b6001600160401b038116600090815260016020526040902054600160401b90046001600160801b031634146112d25760405162461bcd60e51b81526020600482015260196024820152780a6e0c2e4d69c8ca87440dcdee840cadcdeeaced0e8408aa89603b1b604482015260640161079c565b6001600160401b038116600090815260016020526040902054611306908290600160401b90046001600160801b0316611c1e565b6113108133611d9e565b506001600160401b03811660009081526001602081905260409091208054601890611346908490600160c01b900460ff16612cca565b82546101009290920a60ff8181021990931691831602179091556001600160401b038316600090815260016020526040902054600160c01b90041615159050610afd576113a48161139f836001600160401b0316610e42565b611d9e565b5050565b60006113b382610fe1565b6113cf5760405162461bcd60e51b815260040161079c90612aba565b506001600160401b039081166000908152600160205260409020541690565b60606113fc61041b83611797565b61145a5760405162461bcd60e51b815260206004820152602960248201527f537061726b4e46543a2055524920717565727920666f72206e6f6e657869737460448201526832b73a103a37b5b2b760b91b606482015260840161079c565b60006001600061146985611797565b6001600160401b03166001600160401b03168152602001908152602001600020600201549050600061149a82611fce565b905060006114d060408051808201909152601581527468747470733a2f2f697066732e696f2f697066732f60581b602082015290565b905080826040516020016114e5929190612a33565b6040516020818303038152906040529350505050919050565b600061150982610e27565b6115255760405162461bcd60e51b815260040161079c90612af1565b6001602083811b63ffffffff60201b1682176000908152919052604090205463ffffffff16610697565b600061155a82610fe1565b6115765760405162461bcd60e51b815260040161079c90612aba565b506001600160401b0316600090815260016020526040902054600160c01b900460ff1690565b60006115a782610fe1565b6115c35760405162461bcd60e51b815260040161079c90612aba565b506001600160401b03166000908152600160205260409020600301546001600160801b031690565b60006115f682610e27565b6116125760405162461bcd60e51b815260040161079c90612af1565b610697603860016000602086901b63ffffffff60201b168217610e02565b61163982610fe1565b61169d5760405162461bcd60e51b815260206004820152602f60248201527f537061726b4e46543a20546865204e465420796f752077616e7420746f20627560448201526e3c9034b9903737ba1032bc34b9ba1760891b606482015260840161079c565b6116af826001600160401b0316610e42565b6001600160a01b0316336001600160a01b0316146117285760405162461bcd60e51b815260206004820152603060248201527f537061726b4e46543a204e465427732070726963652073686f756c642073657460448201526f10313c9037b73bb2b91037b31034ba1760811b606482015260840161079c565b6001600160401b03821660008181526001602090815260409182902060030180546001600160801b0319166001600160801b03861690811790915591519182527fca72e8ac93611c80ca0e2046cbd0f09834fcca6a61e4979bd62bb6765ff7a9e7910160405180910390a25050565b60006001600160401b038211156117ff5760405162461bcd60e51b815260206004820152602660248201527f537061726b4e46543a2076616c756520646f65736e27742066697420696e203660448201526534206269747360d01b606482015260840161079c565b5090565b6001600160401b038116600081815260056020526040902080546001600160a01b0319166001600160a01b03851690811790915561184082610e42565b6001600160a01b03167f8c5be1e5ebec7d5bd14f71427d1e84f3dd0314c0f7b2291e5b200ac8c7c3b92560405160405180910390a45050565b826001600160a01b0316611895826001600160401b0316610e42565b6001600160a01b0316146118ff5760405162461bcd60e51b815260206004820152602b60248201527f537061726b4e46543a207472616e73666572206f6620746f6b656e207468617460448201526a1034b9903737ba1037bbb760a91b606482015260840161079c565b61190933826121e4565b6119715760405162461bcd60e51b815260206004820152603360248201527f537061726b4e46543a207472616e736665722063616c6c6572206973206e6f74604482015272081bdddb995c881b9bdc88185c1c1c9bdd9959606a1b606482015260840161079c565b6001600160a01b0382166119d65760405162461bcd60e51b815260206004820152602660248201527f537061726b4e46543a207472616e7366657220746f20746865207a65726f206160448201526564647265737360d01b606482015260840161079c565b6119e8816001600160401b0316610e42565b6001600160a01b0316336001600160a01b031614611aad576001600160401b0381166000908152600160205260409020600301546001600160801b03163414611a6f5760405162461bcd60e51b81526020600482015260196024820152780a6e0c2e4d69c8ca87440dcdee840cadcdeeaced0e8408aa89603b1b604482015260640161079c565b6001600160401b038116600090815260016020526040902060030154611a9f9082906001600160801b0316611c1e565b611aa881610931565b611ab6565b611ab681610931565b611abf816122de565b6001600160a01b0383166000908152600460205260408120805460019290611af19084906001600160401b0316612caa565b82546101009290920a6001600160401b038181021990931691831602179091556001600160a01b03841660009081526004602052604081208054600194509092611b3d91859116612bc1565b82546101009290920a6001600160401b038181021990931691831602179091558216600081815260016020819052604080832090910180546001600160a01b0319166001600160a01b0388811691821790925591519394509092908716917fddf252ad1be2c89b69c2b068fc378daa952ba7f163c4a11628f55a4df523b3ef91a4505050565b611bce848484611879565b611bda84848484611c90565b611bf65760405162461bcd60e51b815260040161079c90612b33565b50505050565b60006064611c0d60ff841685612c1d565b611c179190612be3565b9392505050565b6001600160401b038216600090815260016020526040902060030154611c55908290600160801b90046001600160801b0316612b87565b6001600160401b03909216600090815260016020526040902060030180546001600160801b03938416600160801b0293169290921790915550565b60006001600160a01b0384163b15611d9257604051630a85bd0160e11b81526001600160a01b0385169063150b7a0290611cd4903390899088908890600401612a62565b602060405180830381600087803b158015611cee57600080fd5b505af1925050508015611d1e575060408051601f3d908101601f19168201909252611d1b918101906128be565b60015b611d78573d808015611d4c576040519150601f19603f3d011682016040523d82523d6000602084013e611d51565b606091505b508051611d705760405162461bcd60e51b815260040161079c90612b33565b805181602001fd5b6001600160e01b031916630a85bd0160e11b149050611d96565b5060015b949350505050565b600063ffffffff602084901c16611db481612313565b6000611dbf826114fe565b9050600063ffffffff60201b602084901b1663ffffffff8316179050611df76000868360405180602001604052806000815250611c90565b611e135760405162461bcd60e51b815260040161079c90612b33565b6001600160401b0381166000908152600160205260409020611e3484610dc1565b815467ffffffffffffffff60ff60c01b011916600160c01b60ff929092169190910267ffffffffffffffff1916176001600160401b0388169081178255600090815260016020526040902054611e9b90600160401b90046001600160801b0316605a611bfc565b6001600160401b038816600090815260016020526040902054611ece9190600160401b90046001600160801b0316612c6b565b81546001600160801b0391909116600160401b02600160401b600160c01b0319909116178155600180820180546001600160a01b0389166001600160a01b031990911681179091556001600160401b03808a1660009081526020848152604080832060029081015490880155938252600490529182208054909291611f5591859116612bc1565b92506101000a8154816001600160401b0302191690836001600160401b03160217905550816001600160401b0316866001600160a01b031660006001600160a01b03167fddf252ad1be2c89b69c2b068fc378daa952ba7f163c4a11628f55a4df523b3ef60405160405180910390a45095945050505050565b60606000604051806040016040528060028152602001609160f51b81525083604051602001611ffe929190612a11565b60408051601f1981840301815281835261082083018252925060009190602082016108008036833701905050905060008160008151811061204f57634e487b7160e01b600052603260045260246000fd5b60ff90921660209283029190910190910152600160005b83518110156121c057600084828151811061209157634e487b7160e01b600052603260045260246000fd5b016020015160f81c905060005b8360ff16811015612147578481815181106120c957634e487b7160e01b600052603260045260246000fd5b602002602001015160ff166101006120e19190612c4c565b6120eb9083612ba9565b91506120f8603a83612d8f565b85828151811061211857634e487b7160e01b600052603260045260246000fd5b60ff90921660209283029190910190910152612135603a83612c09565b915061214081612d54565b905061209e565b505b80156121af5761215a603a82612d8f565b848460ff168151811061217d57634e487b7160e01b600052603260045260246000fd5b60ff909216602092830291909101909101528261219981612d6f565b93506121a89050603a82612c09565b9050612149565b506121b981612d54565b9050612066565b506121db6121d66121d184846123e5565b6124c0565b6125ae565b95945050505050565b60006121ef82610fe1565b6122525760405162461bcd60e51b815260206004820152602e60248201527f537061726b4e46543a206f70657261746f7220717565727920666f72206e6f6e60448201526d32bc34b9ba32b73a103a37b5b2b760911b606482015260840161079c565b6000612266836001600160401b0316610e42565b9050806001600160a01b0316846001600160a01b031614806122aa5750836001600160a01b031661229f846001600160401b031661072f565b6001600160a01b0316145b80611d9657506001600160a01b0380821660009081526006602090815260408083209388168352929052205460ff16611d96565b6122e9600082611803565b6001600160401b0316600090815260016020526040902060030180546001600160801b0319169055565b63ffffffff612321826114fe565b63ffffffff16106123865760405162461bcd60e51b815260206004820152602960248201527f537061726b4e46543a205468657265206973206e6f206c65667420696e20746860448201526834b99034b9b9bab29760b91b606482015260840161079c565b6001602082811b63ffffffff60201b1682176000908152908290526040812080549091906123be9084906001600160401b0316612bc1565b92506101000a8154816001600160401b0302191690836001600160401b0316021790555050565b606060008260ff166001600160401b0381111561241257634e487b7160e01b600052604160045260246000fd5b60405190808252806020026020018201604052801561243b578160200160208202803683370190505b50905060005b8360ff168110156124b85784818151811061246c57634e487b7160e01b600052603260045260246000fd5b602002602001015182828151811061249457634e487b7160e01b600052603260045260246000fd5b60ff90921660209283029190910190910152806124b081612d54565b915050612441565b509392505050565b6060600082516001600160401b038111156124eb57634e487b7160e01b600052604160045260246000fd5b604051908082528060200260200182016040528015612514578160200160208202803683370190505b50905060005b83518110156125a7578381600186516125339190612c93565b61253d9190612c93565b8151811061255b57634e487b7160e01b600052603260045260246000fd5b602002602001015182828151811061258357634e487b7160e01b600052603260045260246000fd5b60ff909216602092830291909101909101528061259f81612d54565b91505061251a565b5092915050565b6060600082516001600160401b038111156125d957634e487b7160e01b600052604160045260246000fd5b6040519080825280601f01601f191660200182016040528015612603576020820181803683370190505b50905060005b83518110156125a7576040518060600160405280603a8152602001612de6603a913984828151811061264b57634e487b7160e01b600052603260045260246000fd5b602002602001015160ff168151811061267457634e487b7160e01b600052603260045260246000fd5b602001015160f81c60f81b82828151811061269f57634e487b7160e01b600052603260045260246000fd5b60200101906001600160f81b031916908160001a905350806126c081612d54565b915050612609565b80356001600160a01b03811681146126df57600080fd5b919050565b80356001600160801b03811681146126df57600080fd5b80356001600160401b03811681146126df57600080fd5b803560ff811681146126df57600080fd5b600060208284031215612734578081fd5b611c17826126c8565b6000806040838503121561274f578081fd5b612758836126c8565b9150612766602084016126c8565b90509250929050565b600080600060608486031215612783578081fd5b61278c846126c8565b925061279a602085016126c8565b9150604084013590509250925092565b6000806000806000608086880312156127c1578081fd5b6127ca866126c8565b94506127d8602087016126c8565b93506040860135925060608601356001600160401b03808211156127fa578283fd5b818801915088601f83011261280d578283fd5b81358181111561281b578384fd5b89602082850101111561282c578384fd5b9699959850939650602001949392505050565b60008060408385031215612851578182fd5b61285a836126c8565b91506020830135801515811461286e578182fd5b809150509250929050565b6000806040838503121561288b578182fd5b612894836126c8565b946020939093013593505050565b6000602082840312156128b3578081fd5b8135611c1781612dcf565b6000602082840312156128cf578081fd5b8151611c1781612dcf565b600080600080608085870312156128ef578384fd5b6128f8856126e4565b935061290660208601612712565b925061291460408601612712565b9396929550929360600135925050565b600060208284031215612935578081fd5b5035919050565b60006020828403121561294d578081fd5b813563ffffffff81168114611c17578182fd5b600060208284031215612971578081fd5b611c17826126fb565b6000806040838503121561298c578182fd5b612995836126fb565b9150612766602084016126e4565b6000806000606084860312156129b7578081fd5b6129c0846126fb565b92506129ce602085016126e4565b91506129dc604085016126c8565b90509250925092565b600081518084526129fd816020860160208601612ced565b601f01601f19169290920160200192915050565b60008351612a23818460208801612ced565b9190910191825250602001919050565b60008351612a45818460208801612ced565b835190830190612a59818360208801612ced565b01949350505050565b6001600160a01b038581168252841660208201526001600160401b0383166040820152608060608201819052600090612a9d908301846129e5565b9695505050505050565b602081526000611c1760208301846129e5565b6020808252601f908201527f537061726b4e46543a2045646974696f6e206973206e6f742065786973742e00604082015260600190565b60208082526022908201527f537061726b4e46543a2054686973206973737565206973206e6f7420657869736040820152613a1760f11b606082015260800190565b60208082526034908201527f537061726b4e46543a207472616e7366657220746f206e6f6e204552433732316040820152732932b1b2b4bb32b91034b6b83632b6b2b73a32b960611b606082015260800190565b60006001600160801b03808316818516808303821115612a5957612a59612da3565b60008219821115612bbc57612bbc612da3565b500190565b60006001600160401b03808316818516808303821115612a5957612a59612da3565b60006001600160801b0380841680612bfd57612bfd612db9565b92169190910492915050565b600082612c1857612c18612db9565b500490565b60006001600160801b0380831681851681830481118215151615612c4357612c43612da3565b02949350505050565b6000816000190483118215151615612c6657612c66612da3565b500290565b60006001600160801b0383811690831681811015612c8b57612c8b612da3565b039392505050565b600082821015612ca557612ca5612da3565b500390565b60006001600160401b0383811690831681811015612c8b57612c8b612da3565b600060ff821660ff841680821015612ce457612ce4612da3565b90039392505050565b60005b83811015612d08578181015183820152602001612cf0565b83811115611bf65750506000910152565b600181811c90821680612d2d57607f821691505b60208210811415612d4e57634e487b7160e01b600052602260045260246000fd5b50919050565b6000600019821415612d6857612d68612da3565b5060010190565b600060ff821660ff811415612d8657612d86612da3565b60010192915050565b600082612d9e57612d9e612db9565b500690565b634e487b7160e01b600052601160045260246000fd5b634e487b7160e01b600052601260045260246000fd5b6001600160e01b031981168114610afd57600080fdfe31323334353637383941424344454647484a4b4c4d4e505152535455565758595a6162636465666768696a6b6d6e6f707172737475767778797aa264697066735822122019ba0af2c0895e5949578300a7bc78dcecca70f6fffe732c56d588b1270883ea64736f6c63430008040033",
  "linkReferences": {},
  "deployedLinkReferences": {}
}