{
  "_format": "hh-sol-artifact-1",
  "contractName": "SparkNFT",
  "sourceName": "contracts/SparkNFT.sol",
  "abi": [
    {
      "inputs": [],
      "stateMutability": "nonpayable",
      "type": "constructor"
    },
    {
      "anonymous": false,
      "inputs": [
        {
          "indexed": true,
          "internalType": "address",
          "name": "owner",
          "type": "address"
        },
        {
          "indexed": true,
          "internalType": "address",
          "name": "approved",
          "type": "address"
        },
        {
          "indexed": true,
          "internalType": "uint256",
          "name": "tokenId",
          "type": "uint256"
        }
      ],
      "name": "Approval",
      "type": "event"
    },
    {
      "anonymous": false,
      "inputs": [
        {
          "indexed": true,
          "internalType": "address",
          "name": "owner",
          "type": "address"
        },
        {
          "indexed": true,
          "internalType": "address",
          "name": "operator",
          "type": "address"
        },
        {
          "indexed": false,
          "internalType": "bool",
          "name": "approved",
          "type": "bool"
        }
      ],
      "name": "ApprovalForAll",
      "type": "event"
    },
    {
      "anonymous": false,
      "inputs": [
        {
          "indexed": true,
          "internalType": "uint64",
          "name": "NFT_id",
          "type": "uint64"
        },
        {
          "indexed": true,
          "internalType": "address",
          "name": "receiver",
          "type": "address"
        },
        {
          "indexed": false,
          "internalType": "uint128",
          "name": "amount",
          "type": "uint128"
        }
      ],
      "name": "Claim",
      "type": "event"
    },
    {
      "anonymous": false,
      "inputs": [
        {
          "indexed": true,
          "internalType": "uint64",
          "name": "NFT_id",
          "type": "uint64"
        },
        {
          "indexed": false,
          "internalType": "uint128",
          "name": "transfer_price",
          "type": "uint128"
        }
      ],
      "name": "DeterminePrice",
      "type": "event"
    },
    {
      "anonymous": false,
      "inputs": [
        {
          "indexed": true,
          "internalType": "uint64",
          "name": "NFT_id",
          "type": "uint64"
        },
        {
          "indexed": false,
          "internalType": "uint128",
          "name": "transfer_price",
          "type": "uint128"
        },
        {
          "indexed": true,
          "internalType": "address",
          "name": "to",
          "type": "address"
        }
      ],
      "name": "DeterminePriceAndApprove",
      "type": "event"
    },
    {
      "anonymous": false,
      "inputs": [
        {
          "indexed": true,
          "internalType": "uint32",
          "name": "issue_id",
          "type": "uint32"
        },
        {
          "indexed": true,
          "internalType": "address",
          "name": "publisher",
          "type": "address"
        },
        {
          "indexed": false,
          "internalType": "uint64",
          "name": "rootNFTId",
          "type": "uint64"
        }
      ],
      "name": "Publish",
      "type": "event"
    },
    {
      "anonymous": false,
      "inputs": [
        {
          "indexed": true,
          "internalType": "address",
          "name": "from",
          "type": "address"
        },
        {
          "indexed": true,
          "internalType": "address",
          "name": "to",
          "type": "address"
        },
        {
          "indexed": true,
          "internalType": "uint256",
          "name": "tokenId",
          "type": "uint256"
        }
      ],
      "name": "Transfer",
      "type": "event"
    },
    {
      "inputs": [
        {
          "internalType": "uint64",
          "name": "_NFT_id",
          "type": "uint64"
        }
      ],
      "name": "acceptShill",
      "outputs": [],
      "stateMutability": "payable",
      "type": "function"
    },
    {
      "inputs": [
        {
          "internalType": "address",
          "name": "to",
          "type": "address"
        },
        {
          "internalType": "uint256",
          "name": "tokenId",
          "type": "uint256"
        }
      ],
      "name": "approve",
      "outputs": [],
      "stateMutability": "nonpayable",
      "type": "function"
    },
    {
      "inputs": [
        {
          "internalType": "address",
          "name": "owner",
          "type": "address"
        }
      ],
      "name": "balanceOf",
      "outputs": [
        {
          "internalType": "uint256",
          "name": "",
          "type": "uint256"
        }
      ],
      "stateMutability": "view",
      "type": "function"
    },
    {
      "inputs": [
        {
          "internalType": "uint64",
          "name": "_NFT_id",
          "type": "uint64"
        }
      ],
      "name": "claimProfit",
      "outputs": [],
      "stateMutability": "nonpayable",
      "type": "function"
    },
    {
      "inputs": [
        {
          "internalType": "uint64",
          "name": "_NFT_id",
          "type": "uint64"
        },
        {
          "internalType": "uint128",
          "name": "_price",
          "type": "uint128"
        }
      ],
      "name": "determinePrice",
      "outputs": [],
      "stateMutability": "nonpayable",
      "type": "function"
    },
    {
      "inputs": [
        {
          "internalType": "uint64",
          "name": "_NFT_id",
          "type": "uint64"
        },
        {
          "internalType": "uint128",
          "name": "_price",
          "type": "uint128"
        },
        {
          "internalType": "address",
          "name": "_to",
          "type": "address"
        }
      ],
      "name": "determinePriceAndApprove",
      "outputs": [],
      "stateMutability": "nonpayable",
      "type": "function"
    },
    {
      "inputs": [
        {
          "internalType": "uint256",
          "name": "tokenId",
          "type": "uint256"
        }
      ],
      "name": "getApproved",
      "outputs": [
        {
          "internalType": "address",
          "name": "",
          "type": "address"
        }
      ],
      "stateMutability": "view",
      "type": "function"
    },
    {
      "inputs": [
        {
          "internalType": "uint64",
          "name": "_NFT_id",
          "type": "uint64"
        }
      ],
      "name": "getFatherByNFTId",
      "outputs": [
        {
          "internalType": "uint64",
          "name": "",
          "type": "uint64"
        }
      ],
      "stateMutability": "view",
      "type": "function"
    },
    {
      "inputs": [
        {
          "internalType": "uint64",
          "name": "_NFT_id",
          "type": "uint64"
        }
      ],
      "name": "getIssueIdByNFTId",
      "outputs": [
        {
          "internalType": "uint32",
          "name": "",
          "type": "uint32"
        }
      ],
      "stateMutability": "pure",
      "type": "function"
    },
    {
      "inputs": [],
      "name": "getLossRatio",
      "outputs": [
        {
          "internalType": "uint8",
          "name": "",
          "type": "uint8"
        }
      ],
      "stateMutability": "pure",
      "type": "function"
    },
    {
      "inputs": [
        {
          "internalType": "uint64",
          "name": "_NFT_id",
          "type": "uint64"
        }
      ],
      "name": "getRemainShillTimesByNFTId",
      "outputs": [
        {
          "internalType": "uint8",
          "name": "",
          "type": "uint8"
        }
      ],
      "stateMutability": "view",
      "type": "function"
    },
    {
      "inputs": [
        {
          "internalType": "uint32",
          "name": "_issue_id",
          "type": "uint32"
        }
      ],
      "name": "getRoyaltyFeeByIssueId",
      "outputs": [
        {
          "internalType": "uint8",
          "name": "",
          "type": "uint8"
        }
      ],
      "stateMutability": "view",
      "type": "function"
    },
    {
      "inputs": [
        {
          "internalType": "uint32",
          "name": "_issue_id",
          "type": "uint32"
        }
      ],
      "name": "getShellTimesByIssyeId",
      "outputs": [
        {
          "internalType": "uint8",
          "name": "",
          "type": "uint8"
        }
      ],
      "stateMutability": "view",
      "type": "function"
    },
    {
      "inputs": [
        {
          "internalType": "uint64",
          "name": "_NFT_id",
          "type": "uint64"
        }
      ],
      "name": "getShillPriceByNFTId",
      "outputs": [
        {
          "internalType": "uint128",
          "name": "",
          "type": "uint128"
        }
      ],
      "stateMutability": "view",
      "type": "function"
    },
    {
      "inputs": [
        {
          "internalType": "uint32",
          "name": "_issue_id",
          "type": "uint32"
        }
      ],
      "name": "getTotalAmountByIssueId",
      "outputs": [
        {
          "internalType": "uint32",
          "name": "",
          "type": "uint32"
        }
      ],
      "stateMutability": "view",
      "type": "function"
    },
    {
      "inputs": [
        {
          "internalType": "uint64",
          "name": "_NFT_id",
          "type": "uint64"
        }
      ],
      "name": "getTransferPriceByNFTId",
      "outputs": [
        {
          "internalType": "uint128",
          "name": "",
          "type": "uint128"
        }
      ],
      "stateMutability": "view",
      "type": "function"
    },
    {
      "inputs": [
        {
          "internalType": "address",
          "name": "owner",
          "type": "address"
        },
        {
          "internalType": "address",
          "name": "operator",
          "type": "address"
        }
      ],
      "name": "isApprovedForAll",
      "outputs": [
        {
          "internalType": "bool",
          "name": "",
          "type": "bool"
        }
      ],
      "stateMutability": "view",
      "type": "function"
    },
    {
      "inputs": [
        {
          "internalType": "uint64",
          "name": "_NFT_id",
          "type": "uint64"
        }
      ],
      "name": "isEditionExist",
      "outputs": [
        {
          "internalType": "bool",
          "name": "",
          "type": "bool"
        }
      ],
      "stateMutability": "view",
      "type": "function"
    },
    {
      "inputs": [
        {
          "internalType": "uint32",
          "name": "_issue_id",
          "type": "uint32"
        }
      ],
      "name": "isIssueExist",
      "outputs": [
        {
          "internalType": "bool",
          "name": "",
          "type": "bool"
        }
      ],
      "stateMutability": "view",
      "type": "function"
    },
    {
      "inputs": [
        {
          "internalType": "uint64",
          "name": "_NFT_id",
          "type": "uint64"
        }
      ],
      "name": "isNFTOnSale",
      "outputs": [
        {
          "internalType": "bool",
          "name": "",
          "type": "bool"
        }
      ],
      "stateMutability": "view",
      "type": "function"
    },
    {
      "inputs": [],
      "name": "name",
      "outputs": [
        {
          "internalType": "string",
          "name": "",
          "type": "string"
        }
      ],
      "stateMutability": "view",
      "type": "function"
    },
    {
      "inputs": [
        {
          "internalType": "uint256",
          "name": "tokenId",
          "type": "uint256"
        }
      ],
      "name": "ownerOf",
      "outputs": [
        {
          "internalType": "address",
          "name": "",
          "type": "address"
        }
      ],
      "stateMutability": "view",
      "type": "function"
    },
    {
      "inputs": [
        {
          "internalType": "uint128",
          "name": "_first_sell_price",
          "type": "uint128"
        },
        {
          "internalType": "uint8",
          "name": "_royalty_fee",
          "type": "uint8"
        },
        {
          "internalType": "uint8",
          "name": "_shill_times",
          "type": "uint8"
        },
        {
          "internalType": "bytes32",
          "name": "_ipfs_hash",
          "type": "bytes32"
        }
      ],
      "name": "publish",
      "outputs": [],
      "stateMutability": "nonpayable",
      "type": "function"
    },
    {
      "inputs": [
        {
          "internalType": "address",
          "name": "from",
          "type": "address"
        },
        {
          "internalType": "address",
          "name": "to",
          "type": "address"
        },
        {
          "internalType": "uint256",
          "name": "tokenId",
          "type": "uint256"
        }
      ],
      "name": "safeTransferFrom",
      "outputs": [],
      "stateMutability": "payable",
      "type": "function"
    },
    {
      "inputs": [
        {
          "internalType": "address",
          "name": "from",
          "type": "address"
        },
        {
          "internalType": "address",
          "name": "to",
          "type": "address"
        },
        {
          "internalType": "uint256",
          "name": "tokenId",
          "type": "uint256"
        },
        {
          "internalType": "bytes",
          "name": "_data",
          "type": "bytes"
        }
      ],
      "name": "safeTransferFrom",
      "outputs": [],
      "stateMutability": "payable",
      "type": "function"
    },
    {
      "inputs": [
        {
          "internalType": "address",
          "name": "operator",
          "type": "address"
        },
        {
          "internalType": "bool",
          "name": "approved",
          "type": "bool"
        }
      ],
      "name": "setApprovalForAll",
      "outputs": [],
      "stateMutability": "nonpayable",
      "type": "function"
    },
    {
      "inputs": [
        {
          "internalType": "bytes4",
          "name": "interfaceId",
          "type": "bytes4"
        }
      ],
      "name": "supportsInterface",
      "outputs": [
        {
          "internalType": "bool",
          "name": "",
          "type": "bool"
        }
      ],
      "stateMutability": "view",
      "type": "function"
    },
    {
      "inputs": [],
      "name": "symbol",
      "outputs": [
        {
          "internalType": "string",
          "name": "",
          "type": "string"
        }
      ],
      "stateMutability": "view",
      "type": "function"
    },
    {
      "inputs": [
        {
          "internalType": "uint256",
          "name": "tokenId",
          "type": "uint256"
        }
      ],
      "name": "tokenURI",
      "outputs": [
        {
          "internalType": "string",
          "name": "",
          "type": "string"
        }
      ],
      "stateMutability": "view",
      "type": "function"
    },
    {
      "inputs": [
        {
          "internalType": "address",
          "name": "from",
          "type": "address"
        },
        {
          "internalType": "address",
          "name": "to",
          "type": "address"
        },
        {
          "internalType": "uint256",
          "name": "tokenId",
          "type": "uint256"
        }
      ],
      "name": "transferFrom",
      "outputs": [],
      "stateMutability": "payable",
      "type": "function"
    }
  ],
  "bytecode": "0x60806040523480156200001157600080fd5b506040805180820190915260088082526714dc185c9ad3919560c21b602090920191825262000043916003916200007c565b506040805180820190915260088082526714dc185c9ad3919560c21b602090920191825262000075916004916200007c565b506200015f565b8280546200008a9062000122565b90600052602060002090601f016020900481019282620000ae5760008555620000f9565b82601f10620000c957805160ff1916838001178555620000f9565b82800160010185558215620000f9579182015b82811115620000f9578251825591602001919060010190620000dc565b50620001079291506200010b565b5090565b5b808211156200010757600081556001016200010c565b6002810460018216806200013757607f821691505b602082108114156200015957634e487b7160e01b600052602260045260246000fd5b50919050565b612b7f806200016f6000396000f3fe6080604052600436106101cd5760003560e01c806377738ad2116100f7578063bdea26fa11610095578063e985e9c511610064578063e985e9c514610530578063f6e9274d14610550578063fc6b6dea14610570578063fee0329914610590576101cd565b8063bdea26fa146104a3578063c87b56dd146104d0578063d8a288bd146104f0578063d8d17e7914610510576101cd565b8063a22cb465116100d1578063a22cb46514610430578063a7c9e88114610450578063b88d4fde1461047d578063bbe07d7914610490576101cd565b806377738ad2146103db5780637f52b12a146103fb57806395d89b411461041b576101cd565b80631c3493971161016f5780635ca013271161013e5780635ca013271461034e57806362f8dcd51461036e5780636352211e1461038e57806370a08231146103ae576101cd565b80631c349397146102e857806323b872dd1461030857806342842e0e1461031b5780635a034b3b1461032e576101cd565b8063081812fc116101ab578063081812fc1461024c57806308fd2b2d14610279578063095ea7b314610299578063177e67f2146102bb576101cd565b806301ffc9a7146101d25780630292ec361461020857806306fdde031461022a575b600080fd5b3480156101de57600080fd5b506101f26101ed366004612027565b6105b0565b6040516101ff9190612211565b60405180910390f35b34801561021457600080fd5b5061021d6105f8565b6040516101ff9190612970565b34801561023657600080fd5b5061023f6105fd565b6040516101ff919061221c565b34801561025857600080fd5b5061026c6102673660046120a9565b61068f565b6040516101ff91906121b8565b34801561028557600080fd5b506101f26102943660046120e5565b6106f8565b3480156102a557600080fd5b506102b96102b4366004611ffe565b610741565b005b3480156102c757600080fd5b506102db6102d63660046120e5565b6107e1565b6040516101ff919061294b565b3480156102f457600080fd5b5061021d6103033660046120c1565b6107ed565b6102b9610316366004611ef4565b610837565b6102b9610329366004611ef4565b61084a565b34801561033a57600080fd5b506102b96103493660046120e5565b61086d565b34801561035a57600080fd5b506102b961036936600461205f565b610a3a565b34801561037a57600080fd5b506101f26103893660046120c1565b610b7d565b34801561039a57600080fd5b5061026c6103a93660046120a9565b610b9a565b3480156103ba57600080fd5b506103ce6103c9366004611ea8565b610bf4565b6040516101ff9190612942565b3480156103e757600080fd5b506102b96103f6366004612128565b610c41565b34801561040757600080fd5b506101f26104163660046120e5565b610cae565b34801561042757600080fd5b5061023f610cdc565b34801561043c57600080fd5b506102b961044b366004611fc4565b610ceb565b34801561045c57600080fd5b5061047061046b3660046120e5565b610dad565b6040516101ff919061292e565b6102b961048b366004611f2f565b610e00565b6102b961049e3660046120e5565b610e51565b3480156104af57600080fd5b506104c36104be3660046120e5565b610fc6565b6040516101ff919061295c565b3480156104dc57600080fd5b5061023f6104eb3660046120a9565b611013565b3480156104fc57600080fd5b506102db61050b3660046120c1565b6110a9565b34801561051c57600080fd5b5061021d61052b3660046120e5565b6110f3565b34801561053c57600080fd5b506101f261054b366004611ec2565b61113c565b34801561055c57600080fd5b5061047061056b3660046120e5565b61116a565b34801561057c57600080fd5b5061021d61058b3660046120c1565b6111be565b34801561059c57600080fd5b506102b96105ab3660046120ff565b611209565b60006001600160e01b031982166380ac58cd60e01b14806105e157506001600160e01b03198216635b5e139f60e01b145b806105f057506105f0826112f7565b90505b919050565b605a90565b60606003805461060c90612ae2565b80601f016020809104026020016040519081016040528092919081815260200182805461063890612ae2565b80156106855780601f1061065a57610100808354040283529160200191610685565b820191906000526020600020905b81548152906001019060200180831161066857829003601f168201915b5050505050905090565b600061069d61041683611310565b6106c25760405162461bcd60e51b81526004016106b99061240c565b60405180910390fd5b600660006106cf84611310565b6001600160401b031681526020810191909152604001600020546001600160a01b031692915050565b600061070382610cae565b61071f5760405162461bcd60e51b81526004016106b99061222f565b506001600160401b031660009081526002602052604090206003015460ff1690565b600061074c82610b9a565b9050806001600160a01b0316836001600160a01b031614156107805760405162461bcd60e51b81526004016106b9906125e9565b806001600160a01b031661079261133d565b6001600160a01b031614806107ae57506107ae8161054b61133d565b6107ca5760405162461bcd60e51b81526004016106b99061258c565b6107dc836107d784611310565b611341565b505050565b60201c63ffffffff1690565b60006107f882610b7d565b6108145760405162461bcd60e51b81526004016106b99061245a565b5063ffffffff16600090815260016020526040902054600160281b900460ff1690565b6107dc838361084584611310565b6113b7565b6107dc838361085884611310565b60405180602001604052806000815250611656565b61087681610cae565b6108925760405162461bcd60e51b81526004016106b99061222f565b6001600160401b0381166000908152600260205260409020600401546001600160801b031615610a37576001600160401b038116600090815260026020526040902060040180546001600160801b031981169091556001600160801b03166108f982610fc6565b6001600160401b031615610985576001600160401b038216600090815260026020526040812060040154610963906001600160801b031660018361093c876107e1565b63ffffffff168152602081019190915260400160002054640100000000900460ff1661168f565b905061097761097184610fc6565b826116b1565b6109818183612a4b565b9150505b610997826001600160401b0316610b9a565b6001600160a01b03166108fc826001600160801b03169081150290604051600060405180830381858888f193505050501580156109d8573d6000803e3d6000fd5b506109eb826001600160401b0316610b9a565b6001600160a01b0316826001600160401b03167f3dc1a77733195d8bbde8f8bc719f598f47f377c9c4b854d561b4d607a8e81f6283604051610a2d919061292e565b60405180910390a3505b50565b60648360ff161115610a5e5760405162461bcd60e51b81526004016106b9906127ba565b610a68600061171f565b63ffffffff610a776000611728565b1115610a955760405162461bcd60e51b81526004016106b9906122f7565b6000610aa16000611728565b63ffffffff81166000818152600160205260408120805463ffffffff191690921764ff00000000191664010000000060ff898116919091029190911765ff00000000001916600160281b91881691909102176fffffffffffffffffffffffffffffffff60501b1916600160501b6001600160801b038a160217825591925090610b2a838561172c565b9050336001600160a01b03168363ffffffff167f7076939bab881558c26bdfd19cefffacd29a6dcea17a02353fbceb3e9a53c29983604051610b6c919061295c565b60405180910390a350505050505050565b63ffffffff90811660009081526001602052604090205416151590565b60008060026000610baa85611310565b6001600160401b0316815260208101919091526040016000206001015461010090046001600160a01b03169050806105f05760405162461bcd60e51b81526004016106b9906126b6565b60006001600160a01b038216610c1c5760405162461bcd60e51b81526004016106b990612805565b506001600160a01b03166000908152600560205260409020546001600160401b031690565b610c4b8383611209565b610c5e81846001600160401b0316610741565b806001600160a01b0316836001600160401b03167ff4a029974225230e783a906bf72b4c1037aee2b37958b9a6b5e689da1477729b84604051610ca1919061292e565b60405180910390a3505050565b6001600160401b031660009081526002602052604090206001015461010090046001600160a01b0316151590565b60606004805461060c90612ae2565b610cf361133d565b6001600160a01b0316826001600160a01b03161415610d245760405162461bcd60e51b81526004016106b990612738565b8060076000610d3161133d565b6001600160a01b03908116825260208083019390935260409182016000908120918716808252919093529120805460ff191692151592909217909155610d7561133d565b6001600160a01b03167f17307eab39ab6107e8899845ad3d59bd9653f200f220920489ca2b5937696c3183604051610a2d9190612211565b6000610db882610cae565b610dd45760405162461bcd60e51b81526004016106b99061222f565b506001600160401b0316600090815260026020526040902054600160801b90046001600160801b031690565b610e4a8585610e0e86611310565b85858080601f01602080910402602001604051908101604052809392919081815260200183838082843760009201919091525061165692505050565b5050505050565b610e5a81610cae565b610e765760405162461bcd60e51b81526004016106b9906123d7565b6001600160401b03811660009081526002602052604090206001015460ff16610eb15760405162461bcd60e51b81526004016106b990612536565b6001600160401b038116600090815260026020526040902054600160801b90046001600160801b03163414610ef85760405162461bcd60e51b81526004016106b990612701565b6001600160401b038116600090815260026020526040902054610f2c908290600160801b90046001600160801b03166116b1565b610f36813361193f565b506001600160401b03811660009081526002602052604081206001908101805491929091610f6890849060ff16612a93565b82546101009290920a60ff8181021990931691831602179091556001600160401b0383166000908152600260205260409020600101541615159050610a3757610fc281610fbd836001600160401b0316610b9a565b61193f565b5050565b6000610fd182610cae565b610fed5760405162461bcd60e51b81526004016106b99061222f565b506001600160401b03908116600090815260026020526040902054600160401b90041690565b606061102161041683611310565b61103d5760405162461bcd60e51b81526004016106b990612897565b60006002600061104c85611310565b6001600160401b03166001600160401b03168152602001908152602001600020600201549050600061107c611c12565b90508082604051602001611091929190612196565b60405160208183030381529060405292505050919050565b60006110b482610b7d565b6110d05760405162461bcd60e51b81526004016106b99061245a565b5063ffffffff908116600090815260016020526040902054600160301b90041690565b60006110fe82610cae565b61111a5760405162461bcd60e51b81526004016106b99061222f565b506001600160401b031660009081526002602052604090206001015460ff1690565b6001600160a01b03918216600090815260076020908152604080832093909416825291909152205460ff1690565b600061117582610cae565b6111915760405162461bcd60e51b81526004016106b99061222f565b506001600160401b031660009081526002602052604090206003015461010090046001600160801b031690565b60006111c982610b7d565b6111e55760405162461bcd60e51b81526004016106b99061245a565b5063ffffffff16600090815260016020526040902054640100000000900460ff1690565b61121282610cae565b61122e5760405162461bcd60e51b81526004016106b990612266565b611240826001600160401b0316610b9a565b6001600160a01b0316336001600160a01b0316146112705760405162461bcd60e51b81526004016106b990612387565b6001600160401b038216600081815260026020526040908190206003018054600170ffffffffffffffffffffffffffffffff00199091166101006001600160801b038716021760ff1916179055517fca72e8ac93611c80ca0e2046cbd0f09834fcca6a61e4979bd62bb6765ff7a9e7906112eb90849061292e565b60405180910390a25050565b6001600160e01b031981166301ffc9a760e01b14919050565b60006001600160401b038211156113395760405162461bcd60e51b81526004016106b9906124f0565b5090565b3390565b6001600160401b038116600081815260066020526040902080546001600160a01b0319166001600160a01b03851690811790915561137e82610b9a565b6001600160a01b03167f8c5be1e5ebec7d5bd14f71427d1e84f3dd0314c0f7b2291e5b200ac8c7c3b92560405160405180910390a45050565b826001600160a01b03166113d3826001600160401b0316610b9a565b6001600160a01b0316146113f95760405162461bcd60e51b81526004016106b99061276f565b61140a61140461133d565b82611c41565b6114265760405162461bcd60e51b81526004016106b99061262c565b6001600160a01b03821661144c5760405162461bcd60e51b81526004016106b990612851565b61145e816001600160401b0316610b9a565b6001600160a01b0316336001600160a01b03161461153c576001600160401b03811660009081526002602052604090206003015460ff166114b15760405162461bcd60e51b81526004016106b9906122b5565b6001600160401b03811660009081526002602052604090206003015461010090046001600160801b031634146114f95760405162461bcd60e51b81526004016106b990612701565b6001600160401b03811660009081526002602052604090206003015461152e90829061010090046001600160801b03166116b1565b6115378161086d565b611545565b6115458161086d565b61154e81611cd8565b6001600160a01b03831660009081526005602052604081208054600192906115809084906001600160401b0316612a73565b82546101009290920a6001600160401b038181021990931691831602179091556001600160a01b038416600090815260056020526040812080546001945090926115cc918591166129c8565b825461010092830a6001600160401b038181021990921692821602919091179092559083166000818152600260205260408082206001018054610100600160a81b0319166001600160a01b038981169687029190911790915590519294508716917fddf252ad1be2c89b69c2b068fc378daa952ba7f163c4a11628f55a4df523b3ef9190a4505050565b6116618484846113b7565b61166d84848484611d17565b6116895760405162461bcd60e51b81526004016106b99061249c565b50505050565b600060646116a060ff841685612a1c565b6116aa91906129ea565b9392505050565b6001600160401b0382166000908152600260205260409020600401546116e19082906001600160801b031661297e565b6001600160401b0392909216600090815260026020526040902060040180546001600160801b0319166001600160801b039093169290921790915550565b80546001019055565b5490565b63ffffffff808316600090815260016020819052604082208054929391929091600691611762918591600160301b9004166129a9565b82546101009290920a63ffffffff818102199093169183160217909155848116600090815260016020526040812054600160301b900490911691506117a78583611e32565b90506117b281610cae565b156117cf5760405162461bcd60e51b81526004016106b99061267f565b6117eb6000338360405180602001604052806000815250611d17565b6118075760405162461bcd60e51b81526004016106b99061249c565b6001600160401b038082166000818152600260208181526040808420805467ffffffffffffffff191690951780865563ffffffff8c16855260018084528286208054828901805460ff191660ff600160281b90930492909216919091178082559154600160801b6001600160801b03600160501b9092048216029416939093178855336101008102610100600160a81b0319909216919091179092559386018b90558452600590915282208054939491939092916118c7918591166129c8565b92506101000a8154816001600160401b0302191690836001600160401b03160217905550816001600160401b0316336001600160a01b031660006001600160a01b03167fddf252ad1be2c89b69c2b068fc378daa952ba7f163c4a11628f55a4df523b3ef60405160405180910390a450949350505050565b60008061194b846107e1565b63ffffffff8082166000908152600160208190526040909120805493945090929091600691611983918591600160301b9004166129a9565b82546101009290920a63ffffffff818102199093169183160217909155828116600090815260016020526040902054600160301b900481161090506119da5760405162461bcd60e51b81526004016106b99061233e565b63ffffffff808216600090815260016020526040812054600160301b900490911690611a068383611e32565b9050611a246000868360405180602001604052806000815250611d17565b611a405760405162461bcd60e51b81526004016106b99061249c565b6001600160401b038181166000818152600260208181526040808420805467ffffffffffffffff191690951780865563ffffffff8a1685526001808452828620549087018054600160281b90920460ff1660ff199092169190911790556fffffffffffffffff00000000000000001916600160401b968d16968702178555948352529190912054611ae290600160801b90046001600160801b0316605a61168f565b6001600160401b038816600090815260026020526040902054611b159190600160801b90046001600160801b0316612a4b565b81546001600160801b03918216600160801b029116178155600180820180546001600160a01b0389166101008102610100600160a81b0319909216919091179091556001600160401b03808a1660009081526002602081815260408084208301549288019290925593825260059093529182208054909291611b99918591166129c8565b92506101000a8154816001600160401b0302191690836001600160401b03160217905550816001600160401b0316866001600160a01b031660006001600160a01b03167fddf252ad1be2c89b69c2b068fc378daa952ba7f163c4a11628f55a4df523b3ef60405160405180910390a45095945050505050565b60408051808201909152601581527468747470733a2f2f697066732e696f2f697066732f60581b602082015290565b6000611c4c82610cae565b611c685760405162461bcd60e51b81526004016106b9906128e0565b6000611c7c836001600160401b0316610b9a565b9050806001600160a01b0316846001600160a01b03161480611cc05750836001600160a01b0316611cb5846001600160401b031661068f565b6001600160a01b0316145b80611cd05750611cd0818561113c565b949350505050565b611ce3600082611341565b6001600160401b03166000908152600260205260409020600301805470ffffffffffffffffffffffffffffffffff19169055565b6000611d2b846001600160a01b0316611e4c565b15611e2757836001600160a01b031663150b7a02611d4761133d565b8786866040518563ffffffff1660e01b8152600401611d6994939291906121cc565b602060405180830381600087803b158015611d8357600080fd5b505af1925050508015611db3575060408051601f3d908101601f19168201909252611db091810190612043565b60015b611e0d573d808015611de1576040519150601f19603f3d011682016040523d82523d6000602084013e611de6565b606091505b508051611e055760405162461bcd60e51b81526004016106b99061249c565b805181602001fd5b6001600160e01b031916630a85bd0160e11b149050611cd0565b506001949350505050565b63ffffffff1660209190911b67ffffffff00000000161790565b3b151590565b80356001600160a01b03811681146105f357600080fd5b80356001600160801b03811681146105f357600080fd5b80356001600160401b03811681146105f357600080fd5b803560ff811681146105f357600080fd5b600060208284031215611eb9578081fd5b6116aa82611e52565b60008060408385031215611ed4578081fd5b611edd83611e52565b9150611eeb60208401611e52565b90509250929050565b600080600060608486031215611f08578081fd5b611f1184611e52565b9250611f1f60208501611e52565b9150604084013590509250925092565b600080600080600060808688031215611f46578081fd5b611f4f86611e52565b9450611f5d60208701611e52565b93506040860135925060608601356001600160401b0380821115611f7f578283fd5b818801915088601f830112611f92578283fd5b813581811115611fa0578384fd5b896020828501011115611fb1578384fd5b9699959850939650602001949392505050565b60008060408385031215611fd6578182fd5b611fdf83611e52565b915060208301358015158114611ff3578182fd5b809150509250929050565b60008060408385031215612010578182fd5b61201983611e52565b946020939093013593505050565b600060208284031215612038578081fd5b81356116aa81612b33565b600060208284031215612054578081fd5b81516116aa81612b33565b60008060008060808587031215612074578384fd5b61207d85611e69565b935061208b60208601611e97565b925061209960408601611e97565b9396929550929360600135925050565b6000602082840312156120ba578081fd5b5035919050565b6000602082840312156120d2578081fd5b813563ffffffff811681146116aa578182fd5b6000602082840312156120f6578081fd5b6116aa82611e80565b60008060408385031215612111578182fd5b61211a83611e80565b9150611eeb60208401611e69565b60008060006060848603121561213c578081fd5b61214584611e80565b925061215360208501611e69565b915061216160408501611e52565b90509250925092565b60008151808452612182816020860160208601612ab6565b601f01601f19169290920160200192915050565b600083516121a8818460208801612ab6565b9190910191825250602001919050565b6001600160a01b0391909116815260200190565b6001600160a01b038581168252841660208201526001600160401b03831660408201526080606082018190526000906122079083018461216a565b9695505050505050565b901515815260200190565b6000602082526116aa602083018461216a565b6020808252601f908201527f537061726b4e46543a2045646974696f6e206973206e6f742065786973742e00604082015260600190565b6020808252602f908201527f537061726b4e46543a20546865204e465420796f752077616e7420746f20627560408201526e3c9034b9903737ba1032bc34b9ba1760891b606082015260800190565b60208082526022908201527f537061726b4e46543a2054686973204e4654206973206e6f74206f6e2073616c604082015261329760f11b606082015260800190565b60208082526027908201527f537061726b4e46543a2076616c756520646f65736e27742066697420696e203360408201526619103134ba399760c91b606082015260800190565b60208082526029908201527f537061726b4e46543a205468657265206973206e6f206c65667420696e20746860408201526834b99034b9b9bab29760b91b606082015260800190565b60208082526030908201527f537061726b4e46543a204e465427732070726963652073686f756c642073657460408201526f10313c9037b73bb2b91037b31034ba1760811b606082015260800190565b6020808252818101527f537061726b4e46543a2054686973204e4654206973206e6f742065786973742e604082015260600190565b6020808252602e908201527f537061726b4e46543a20617070726f76656420717565727920666f72206e6f6e60408201526d32bc34b9ba32b73a103a37b5b2b760911b606082015260800190565b60208082526022908201527f537061726b4e46543a2054686973206973737565206973206e6f7420657869736040820152613a1760f11b606082015260800190565b60208082526034908201527f537061726b4e46543a207472616e7366657220746f206e6f6e204552433732316040820152732932b1b2b4bb32b91034b6b83632b6b2b73a32b960611b606082015260800190565b60208082526026908201527f537061726b4e46543a2076616c756520646f65736e27742066697420696e203660408201526534206269747360d01b606082015260800190565b60208082526036908201527f537061726b4e46543a205468657265206973206e6f2072656d61696e207368696040820152753636103a34b6b2b9903337b9103a3434b99027232a1760511b606082015260800190565b6020808252603a908201527f537061726b4e46543a20617070726f76652063616c6c6572206973206e6f742060408201527f6f776e6572206e6f7220617070726f76656420666f7220616c6c000000000000606082015260800190565b60208082526023908201527f537061726b4e46543a20617070726f76616c20746f2063757272656e74206f776040820152623732b960e91b606082015260800190565b60208082526033908201527f537061726b4e46543a207472616e736665722063616c6c6572206973206e6f74604082015272081bdddb995c881b9bdc88185c1c1c9bdd9959606a1b606082015260800190565b6020808252601e908201527f537061726b4e46543a20746f6b656e20616c7265616479206d696e7465640000604082015260600190565b6020808252602b908201527f537061726b4e46543a206f776e657220717565727920666f72206e6f6e65786960408201526a39ba32b73a103a37b5b2b760a91b606082015260800190565b60208082526019908201527f537061726b4e46543a206e6f7420656e6f756768742045544800000000000000604082015260600190565b6020808252601b908201527f537061726b4e46543a20617070726f766520746f2063616c6c65720000000000604082015260600190565b6020808252602b908201527f537061726b4e46543a207472616e73666572206f6620746f6b656e207468617460408201526a1034b9903737ba1037bbb760a91b606082015260800190565b6020808252602b908201527f537061726b4e46543a20526f79616c7479206665652073686f756c64206c657360408201526a39903a3430b7101898181760a91b606082015260800190565b6020808252602c908201527f537061726b4e46543a2062616c616e636520717565727920666f72207468652060408201526b7a65726f206164647265737360a01b606082015260800190565b60208082526026908201527f537061726b4e46543a207472616e7366657220746f20746865207a65726f206160408201526564647265737360d01b606082015260800190565b60208082526029908201527f537061726b4e46543a2055524920717565727920666f72206e6f6e657869737460408201526832b73a103a37b5b2b760b91b606082015260800190565b6020808252602e908201527f537061726b4e46543a206f70657261746f7220717565727920666f72206e6f6e60408201526d32bc34b9ba32b73a103a37b5b2b760911b606082015260800190565b6001600160801b0391909116815260200190565b90815260200190565b63ffffffff91909116815260200190565b6001600160401b0391909116815260200190565b60ff91909116815260200190565b60006001600160801b038083168185168083038211156129a0576129a0612b1d565b01949350505050565b600063ffffffff8083168185168083038211156129a0576129a0612b1d565b60006001600160401b038083168185168083038211156129a0576129a0612b1d565b60006001600160801b0380841680612a1057634e487b7160e01b83526012600452602483fd5b92169190910492915050565b60006001600160801b0380831681851681830481118215151615612a4257612a42612b1d565b02949350505050565b60006001600160801b0383811690831681811015612a6b57612a6b612b1d565b039392505050565b60006001600160401b0383811690831681811015612a6b57612a6b612b1d565b600060ff821660ff841680821015612aad57612aad612b1d565b90039392505050565b60005b83811015612ad1578181015183820152602001612ab9565b838111156116895750506000910152565b600281046001821680612af657607f821691505b60208210811415612b1757634e487b7160e01b600052602260045260246000fd5b50919050565b634e487b7160e01b600052601160045260246000fd5b6001600160e01b031981168114610a3757600080fdfea26469706673582212207c145662c0131a3dc6c4e7e3e4975dff0085591c3e29e02ea63a412632e0afb964736f6c63430008000033",
  "linkReferences": {},
  "deployedLinkReferences": {}
}