{
  "_format": "hh-sol-artifact-1",
  "contractName": "SparkLink",
  "sourceName": "contracts/SparkLink.sol",
  "abi": [
    {
      "inputs": [
        {
          "internalType": "address",
          "name": "DAO_router_address",
          "type": "address"
        },
        {
          "internalType": "address",
          "name": "uniswapRouterAddress",
          "type": "address"
        },
        {
          "internalType": "address",
          "name": "factoryAddress",
          "type": "address"
        }
      ],
      "stateMutability": "nonpayable",
      "type": "constructor"
    },
    {
      "anonymous": false,
      "inputs": [
        {
          "indexed": true,
          "internalType": "address",
          "name": "owner",
          "type": "address"
        },
        {
          "indexed": true,
          "internalType": "address",
          "name": "approved",
          "type": "address"
        },
        {
          "indexed": true,
          "internalType": "uint256",
          "name": "tokenId",
          "type": "uint256"
        }
      ],
      "name": "Approval",
      "type": "event"
    },
    {
      "anonymous": false,
      "inputs": [
        {
          "indexed": true,
          "internalType": "address",
          "name": "owner",
          "type": "address"
        },
        {
          "indexed": true,
          "internalType": "address",
          "name": "operator",
          "type": "address"
        },
        {
          "indexed": false,
          "internalType": "bool",
          "name": "approved",
          "type": "bool"
        }
      ],
      "name": "ApprovalForAll",
      "type": "event"
    },
    {
      "anonymous": false,
      "inputs": [
        {
          "indexed": true,
          "internalType": "uint64",
          "name": "NFT_id",
          "type": "uint64"
        },
        {
          "indexed": true,
          "internalType": "address",
          "name": "receiver",
          "type": "address"
        },
        {
          "indexed": false,
          "internalType": "uint128",
          "name": "amount",
          "type": "uint128"
        }
      ],
      "name": "Claim",
      "type": "event"
    },
    {
      "anonymous": false,
      "inputs": [
        {
          "indexed": true,
          "internalType": "uint64",
          "name": "NFT_id",
          "type": "uint64"
        },
        {
          "indexed": false,
          "internalType": "uint128",
          "name": "transfer_price",
          "type": "uint128"
        }
      ],
      "name": "DeterminePrice",
      "type": "event"
    },
    {
      "anonymous": false,
      "inputs": [
        {
          "indexed": true,
          "internalType": "uint64",
          "name": "NFT_id",
          "type": "uint64"
        },
        {
          "indexed": false,
          "internalType": "uint128",
          "name": "transfer_price",
          "type": "uint128"
        },
        {
          "indexed": true,
          "internalType": "address",
          "name": "to",
          "type": "address"
        }
      ],
      "name": "DeterminePriceAndApprove",
      "type": "event"
    },
    {
      "anonymous": false,
      "inputs": [
        {
          "indexed": true,
          "internalType": "uint64",
          "name": "NFT_id",
          "type": "uint64"
        },
        {
          "indexed": false,
          "internalType": "string",
          "name": "content",
          "type": "string"
        }
      ],
      "name": "Label",
      "type": "event"
    },
    {
      "anonymous": false,
      "inputs": [
        {
          "indexed": true,
          "internalType": "address",
          "name": "previousOwner",
          "type": "address"
        },
        {
          "indexed": true,
          "internalType": "address",
          "name": "newOwner",
          "type": "address"
        }
      ],
      "name": "OwnershipTransferred",
      "type": "event"
    },
    {
      "anonymous": false,
      "inputs": [
        {
          "indexed": true,
          "internalType": "address",
          "name": "publisher",
          "type": "address"
        },
        {
          "indexed": true,
          "internalType": "uint64",
          "name": "rootNFTId",
          "type": "uint64"
        },
        {
          "indexed": false,
          "internalType": "address",
          "name": "token_addr",
          "type": "address"
        }
      ],
      "name": "Publish",
      "type": "event"
    },
    {
      "anonymous": false,
      "inputs": [
        {
          "indexed": false,
          "internalType": "uint8",
          "name": "old_DAO_fee",
          "type": "uint8"
        },
        {
          "indexed": false,
          "internalType": "uint8",
          "name": "new_DAO_fee",
          "type": "uint8"
        }
      ],
      "name": "SetDAOFee",
      "type": "event"
    },
    {
      "anonymous": false,
      "inputs": [
        {
          "indexed": false,
          "internalType": "address",
          "name": "old_router_address",
          "type": "address"
        },
        {
          "indexed": false,
          "internalType": "address",
          "name": "new_router_address",
          "type": "address"
        }
      ],
      "name": "SetDAORouter",
      "type": "event"
    },
    {
      "anonymous": false,
      "inputs": [
        {
          "indexed": false,
          "internalType": "uint8",
          "name": "old_loss_ratio",
          "type": "uint8"
        },
        {
          "indexed": false,
          "internalType": "uint8",
          "name": "new_loss_ratio",
          "type": "uint8"
        }
      ],
      "name": "SetLoosRatio",
      "type": "event"
    },
    {
      "anonymous": false,
      "inputs": [
        {
          "indexed": true,
          "internalType": "uint64",
          "name": "NFT_id",
          "type": "uint64"
        },
        {
          "indexed": false,
          "internalType": "bytes32",
          "name": "old_URI",
          "type": "bytes32"
        },
        {
          "indexed": false,
          "internalType": "bytes32",
          "name": "new_URI",
          "type": "bytes32"
        }
      ],
      "name": "SetURI",
      "type": "event"
    },
    {
      "anonymous": false,
      "inputs": [
        {
          "indexed": true,
          "internalType": "address",
          "name": "from",
          "type": "address"
        },
        {
          "indexed": true,
          "internalType": "address",
          "name": "to",
          "type": "address"
        },
        {
          "indexed": true,
          "internalType": "uint256",
          "name": "tokenId",
          "type": "uint256"
        }
      ],
      "name": "Transfer",
      "type": "event"
    },
    {
      "inputs": [],
      "name": "DAO_fee",
      "outputs": [
        {
          "internalType": "uint8",
          "name": "",
          "type": "uint8"
        }
      ],
      "stateMutability": "view",
      "type": "function"
    },
    {
      "inputs": [],
      "name": "DAO_router",
      "outputs": [
        {
          "internalType": "address",
          "name": "",
          "type": "address"
        }
      ],
      "stateMutability": "view",
      "type": "function"
    },
    {
      "inputs": [],
      "name": "MAX_DAO_FEE",
      "outputs": [
        {
          "internalType": "uint8",
          "name": "",
          "type": "uint8"
        }
      ],
      "stateMutability": "view",
      "type": "function"
    },
    {
      "inputs": [],
      "name": "MAX_LOSS_RATIO",
      "outputs": [
        {
          "internalType": "uint8",
          "name": "",
          "type": "uint8"
        }
      ],
      "stateMutability": "view",
      "type": "function"
    },
    {
      "inputs": [
        {
          "internalType": "uint64",
          "name": "_NFT_id",
          "type": "uint64"
        }
      ],
      "name": "acceptShill",
      "outputs": [],
      "stateMutability": "payable",
      "type": "function"
    },
    {
      "inputs": [
        {
          "internalType": "address",
          "name": "to",
          "type": "address"
        },
        {
          "internalType": "uint256",
          "name": "tokenId",
          "type": "uint256"
        }
      ],
      "name": "approve",
      "outputs": [],
      "stateMutability": "nonpayable",
      "type": "function"
    },
    {
      "inputs": [
        {
          "internalType": "address",
          "name": "owner",
          "type": "address"
        }
      ],
      "name": "balanceOf",
      "outputs": [
        {
          "internalType": "uint256",
          "name": "",
          "type": "uint256"
        }
      ],
      "stateMutability": "view",
      "type": "function"
    },
    {
      "inputs": [
        {
          "internalType": "uint64",
          "name": "_NFT_id",
          "type": "uint64"
        }
      ],
      "name": "claimProfit",
      "outputs": [],
      "stateMutability": "nonpayable",
      "type": "function"
    },
    {
      "inputs": [
        {
          "internalType": "uint64",
          "name": "_NFT_id",
          "type": "uint64"
        },
        {
          "internalType": "uint128",
          "name": "_price",
          "type": "uint128"
        }
      ],
      "name": "determinePrice",
      "outputs": [],
      "stateMutability": "nonpayable",
      "type": "function"
    },
    {
      "inputs": [
        {
          "internalType": "uint64",
          "name": "_NFT_id",
          "type": "uint64"
        },
        {
          "internalType": "uint128",
          "name": "_price",
          "type": "uint128"
        },
        {
          "internalType": "address",
          "name": "_to",
          "type": "address"
        }
      ],
      "name": "determinePriceAndApprove",
      "outputs": [],
      "stateMutability": "nonpayable",
      "type": "function"
    },
    {
      "inputs": [
        {
          "internalType": "uint256",
          "name": "tokenId",
          "type": "uint256"
        }
      ],
      "name": "getApproved",
      "outputs": [
        {
          "internalType": "address",
          "name": "",
          "type": "address"
        }
      ],
      "stateMutability": "view",
      "type": "function"
    },
    {
      "inputs": [
        {
          "internalType": "uint64",
          "name": "_NFT_id",
          "type": "uint64"
        }
      ],
      "name": "getDepthByNFTId",
      "outputs": [
        {
          "internalType": "uint64",
          "name": "",
          "type": "uint64"
        }
      ],
      "stateMutability": "view",
      "type": "function"
    },
    {
      "inputs": [
        {
          "internalType": "uint64",
          "name": "_NFT_id",
          "type": "uint64"
        }
      ],
      "name": "getEditionIdByNFTId",
      "outputs": [
        {
          "internalType": "uint32",
          "name": "",
          "type": "uint32"
        }
      ],
      "stateMutability": "pure",
      "type": "function"
    },
    {
      "inputs": [
        {
          "internalType": "uint64",
          "name": "_NFT_id",
          "type": "uint64"
        }
      ],
      "name": "getFatherByNFTId",
      "outputs": [
        {
          "internalType": "uint64",
          "name": "",
          "type": "uint64"
        }
      ],
      "stateMutability": "view",
      "type": "function"
    },
    {
      "inputs": [
        {
          "internalType": "uint64",
          "name": "_NFT_id",
          "type": "uint64"
        }
      ],
      "name": "getIsNCByNFTId",
      "outputs": [
        {
          "internalType": "bool",
          "name": "",
          "type": "bool"
        }
      ],
      "stateMutability": "view",
      "type": "function"
    },
    {
      "inputs": [
        {
          "internalType": "uint64",
          "name": "_NFT_id",
          "type": "uint64"
        }
      ],
      "name": "getIsNDByNFTId",
      "outputs": [
        {
          "internalType": "bool",
          "name": "",
          "type": "bool"
        }
      ],
      "stateMutability": "view",
      "type": "function"
    },
    {
      "inputs": [],
      "name": "getLossRatio",
      "outputs": [
        {
          "internalType": "uint8",
          "name": "",
          "type": "uint8"
        }
      ],
      "stateMutability": "view",
      "type": "function"
    },
    {
      "inputs": [
        {
          "internalType": "uint64",
          "name": "_NFT_id",
          "type": "uint64"
        }
      ],
      "name": "getProfitByNFTId",
      "outputs": [
        {
          "internalType": "uint128",
          "name": "",
          "type": "uint128"
        }
      ],
      "stateMutability": "view",
      "type": "function"
    },
    {
      "inputs": [
        {
          "internalType": "uint64",
          "name": "_NFT_id",
          "type": "uint64"
        }
      ],
      "name": "getRemainShillTimesByNFTId",
      "outputs": [
        {
          "internalType": "uint16",
          "name": "",
          "type": "uint16"
        }
      ],
      "stateMutability": "view",
      "type": "function"
    },
    {
      "inputs": [
        {
          "internalType": "uint64",
          "name": "_NFT_id",
          "type": "uint64"
        }
      ],
      "name": "getRootNFTIdByNFTId",
      "outputs": [
        {
          "internalType": "uint64",
          "name": "",
          "type": "uint64"
        }
      ],
      "stateMutability": "pure",
      "type": "function"
    },
    {
      "inputs": [
        {
          "internalType": "uint64",
          "name": "_NFT_id",
          "type": "uint64"
        }
      ],
      "name": "getRoyaltyFeeByNFTId",
      "outputs": [
        {
          "internalType": "uint8",
          "name": "",
          "type": "uint8"
        }
      ],
      "stateMutability": "view",
      "type": "function"
    },
    {
      "inputs": [
        {
          "internalType": "uint64",
          "name": "_NFT_id",
          "type": "uint64"
        }
      ],
      "name": "getShillPriceByNFTId",
      "outputs": [
        {
          "internalType": "uint128",
          "name": "",
          "type": "uint128"
        }
      ],
      "stateMutability": "view",
      "type": "function"
    },
    {
      "inputs": [
        {
          "internalType": "uint64",
          "name": "_NFT_id",
          "type": "uint64"
        }
      ],
      "name": "getShillTimesByNFTId",
      "outputs": [
        {
          "internalType": "uint16",
          "name": "",
          "type": "uint16"
        }
      ],
      "stateMutability": "view",
      "type": "function"
    },
    {
      "inputs": [
        {
          "internalType": "uint64",
          "name": "_NFT_id",
          "type": "uint64"
        }
      ],
      "name": "getTokenAddrByNFTId",
      "outputs": [
        {
          "internalType": "address",
          "name": "",
          "type": "address"
        }
      ],
      "stateMutability": "view",
      "type": "function"
    },
    {
      "inputs": [
        {
          "internalType": "uint64",
          "name": "_NFT_id",
          "type": "uint64"
        }
      ],
      "name": "getTotalAmountByNFTId",
      "outputs": [
        {
          "internalType": "uint32",
          "name": "",
          "type": "uint32"
        }
      ],
      "stateMutability": "view",
      "type": "function"
    },
    {
      "inputs": [
        {
          "internalType": "uint64",
          "name": "_NFT_id",
          "type": "uint64"
        }
      ],
      "name": "getTransferPriceByNFTId",
      "outputs": [
        {
          "internalType": "uint128",
          "name": "",
          "type": "uint128"
        }
      ],
      "stateMutability": "view",
      "type": "function"
    },
    {
      "inputs": [
        {
          "internalType": "address",
          "name": "owner",
          "type": "address"
        },
        {
          "internalType": "address",
          "name": "operator",
          "type": "address"
        }
      ],
      "name": "isApprovedForAll",
      "outputs": [
        {
          "internalType": "bool",
          "name": "",
          "type": "bool"
        }
      ],
      "stateMutability": "view",
      "type": "function"
    },
    {
      "inputs": [
        {
          "internalType": "uint64",
          "name": "_NFT_id",
          "type": "uint64"
        }
      ],
      "name": "isEditionExisting",
      "outputs": [
        {
          "internalType": "bool",
          "name": "",
          "type": "bool"
        }
      ],
      "stateMutability": "view",
      "type": "function"
    },
    {
      "inputs": [
        {
          "internalType": "uint64",
          "name": "_NFT_id",
          "type": "uint64"
        }
      ],
      "name": "isRootNFT",
      "outputs": [
        {
          "internalType": "bool",
          "name": "",
          "type": "bool"
        }
      ],
      "stateMutability": "pure",
      "type": "function"
    },
    {
      "inputs": [
        {
          "internalType": "uint64",
          "name": "_NFT_id",
          "type": "uint64"
        },
        {
          "internalType": "string",
          "name": "content",
          "type": "string"
        }
      ],
      "name": "label",
      "outputs": [],
      "stateMutability": "nonpayable",
      "type": "function"
    },
    {
      "inputs": [],
      "name": "loss_ratio",
      "outputs": [
        {
          "internalType": "uint8",
          "name": "",
          "type": "uint8"
        }
      ],
      "stateMutability": "view",
      "type": "function"
    },
    {
      "inputs": [],
      "name": "name",
      "outputs": [
        {
          "internalType": "string",
          "name": "",
          "type": "string"
        }
      ],
      "stateMutability": "view",
      "type": "function"
    },
    {
      "inputs": [],
      "name": "owner",
      "outputs": [
        {
          "internalType": "address",
          "name": "",
          "type": "address"
        }
      ],
      "stateMutability": "view",
      "type": "function"
    },
    {
      "inputs": [
        {
          "internalType": "uint256",
          "name": "tokenId",
          "type": "uint256"
        }
      ],
      "name": "ownerOf",
      "outputs": [
        {
          "internalType": "address",
          "name": "",
          "type": "address"
        }
      ],
      "stateMutability": "view",
      "type": "function"
    },
    {
      "inputs": [
        {
          "internalType": "uint128",
          "name": "_first_sell_price",
          "type": "uint128"
        },
        {
          "internalType": "uint8",
          "name": "_royalty_fee",
          "type": "uint8"
        },
        {
          "internalType": "uint16",
          "name": "_shill_times",
          "type": "uint16"
        },
        {
          "internalType": "bytes32",
          "name": "_ipfs_hash",
          "type": "bytes32"
        },
        {
          "internalType": "address",
          "name": "_token_addr",
          "type": "address"
        },
        {
          "internalType": "bool",
          "name": "_is_NC",
          "type": "bool"
        },
        {
          "internalType": "bool",
          "name": "_is_ND",
          "type": "bool"
        }
      ],
      "name": "publish",
      "outputs": [],
      "stateMutability": "nonpayable",
      "type": "function"
    },
    {
      "inputs": [],
      "name": "renounceOwnership",
      "outputs": [],
      "stateMutability": "nonpayable",
      "type": "function"
    },
    {
      "inputs": [
        {
          "internalType": "address",
          "name": "from",
          "type": "address"
        },
        {
          "internalType": "address",
          "name": "to",
          "type": "address"
        },
        {
          "internalType": "uint256",
          "name": "tokenId",
          "type": "uint256"
        }
      ],
      "name": "safeTransferFrom",
      "outputs": [],
      "stateMutability": "payable",
      "type": "function"
    },
    {
      "inputs": [
        {
          "internalType": "address",
          "name": "from",
          "type": "address"
        },
        {
          "internalType": "address",
          "name": "to",
          "type": "address"
        },
        {
          "internalType": "uint256",
          "name": "tokenId",
          "type": "uint256"
        },
        {
          "internalType": "bytes",
          "name": "_data",
          "type": "bytes"
        }
      ],
      "name": "safeTransferFrom",
      "outputs": [],
      "stateMutability": "payable",
      "type": "function"
    },
    {
      "inputs": [
        {
          "internalType": "address",
          "name": "operator",
          "type": "address"
        },
        {
          "internalType": "bool",
          "name": "approved",
          "type": "bool"
        }
      ],
      "name": "setApprovalForAll",
      "outputs": [],
      "stateMutability": "nonpayable",
      "type": "function"
    },
    {
      "inputs": [
        {
          "internalType": "uint8",
          "name": "_DAO_fee",
          "type": "uint8"
        }
      ],
      "name": "setDAOFee",
      "outputs": [],
      "stateMutability": "nonpayable",
      "type": "function"
    },
    {
      "inputs": [
        {
          "internalType": "address",
          "name": "_DAO_router",
          "type": "address"
        }
      ],
      "name": "setDAORouter",
      "outputs": [],
      "stateMutability": "nonpayable",
      "type": "function"
    },
    {
      "inputs": [
        {
          "internalType": "uint8",
          "name": "_loss_ratio",
          "type": "uint8"
        }
      ],
      "name": "setLoosRatio",
      "outputs": [],
      "stateMutability": "nonpayable",
      "type": "function"
    },
    {
      "inputs": [
        {
          "internalType": "uint64",
          "name": "_NFT_id",
          "type": "uint64"
        },
        {
          "internalType": "bytes32",
          "name": "ipfs_hash",
          "type": "bytes32"
        }
      ],
      "name": "setURI",
      "outputs": [],
      "stateMutability": "nonpayable",
      "type": "function"
    },
    {
      "inputs": [
        {
          "internalType": "address",
          "name": "_uniswapV2Factory",
          "type": "address"
        }
      ],
      "name": "setUniswapV2Factory",
      "outputs": [],
      "stateMutability": "nonpayable",
      "type": "function"
    },
    {
      "inputs": [
        {
          "internalType": "address",
          "name": "_uniswapV2Router",
          "type": "address"
        }
      ],
      "name": "setUniswapV2Router",
      "outputs": [],
      "stateMutability": "nonpayable",
      "type": "function"
    },
    {
      "inputs": [
        {
          "internalType": "bytes4",
          "name": "interfaceId",
          "type": "bytes4"
        }
      ],
      "name": "supportsInterface",
      "outputs": [
        {
          "internalType": "bool",
          "name": "",
          "type": "bool"
        }
      ],
      "stateMutability": "view",
      "type": "function"
    },
    {
      "inputs": [],
      "name": "symbol",
      "outputs": [
        {
          "internalType": "string",
          "name": "",
          "type": "string"
        }
      ],
      "stateMutability": "view",
      "type": "function"
    },
    {
      "inputs": [
        {
          "internalType": "uint256",
          "name": "tokenId",
          "type": "uint256"
        }
      ],
      "name": "tokenURI",
      "outputs": [
        {
          "internalType": "string",
          "name": "",
          "type": "string"
        }
      ],
      "stateMutability": "view",
      "type": "function"
    },
    {
      "inputs": [
        {
          "internalType": "address",
          "name": "from",
          "type": "address"
        },
        {
          "internalType": "address",
          "name": "to",
          "type": "address"
        },
        {
          "internalType": "uint256",
          "name": "tokenId",
          "type": "uint256"
        }
      ],
      "name": "transferFrom",
      "outputs": [],
      "stateMutability": "payable",
      "type": "function"
    },
    {
      "inputs": [
        {
          "internalType": "address",
          "name": "newOwner",
          "type": "address"
        }
      ],
      "name": "transferOwnership",
      "outputs": [],
      "stateMutability": "nonpayable",
      "type": "function"
    },
    {
      "inputs": [],
      "name": "uniswapV2Factory",
      "outputs": [
        {
          "internalType": "contract IUniswapV2Factory",
          "name": "",
          "type": "address"
        }
      ],
      "stateMutability": "view",
      "type": "function"
    },
    {
      "inputs": [],
      "name": "uniswapV2Router",
      "outputs": [
        {
          "internalType": "contract IUniswapV2Router02",
          "name": "",
          "type": "address"
        }
      ],
      "stateMutability": "view",
      "type": "function"
    }
  ],
  "bytecode": "0x60806040526004805461ffff19166102321790553480156200002057600080fd5b5060405162004aa938038062004aa983398101604081905262000043916200021c565b6200004e3362000109565b600580546001600160a01b038085166001600160a01b03199283161790925560068054848416921691909117905560048054918516620100000262010000600160b01b031990921691909117905560408051808201909152600980825268537061726b4c696e6b60b81b602090920191825283918391620000d29160029162000159565b506040805180820190915260038082526214d41360ea1b6020909201918252620000fd918162000159565b505050505050620002a2565b600080546001600160a01b038381166001600160a01b0319831681178455604051919092169283917f8be0079c531659141344cd1fd0a4f28419497f9722a3daafe3b4186f6b6457e09190a35050565b828054620001679062000265565b90600052602060002090601f0160209004810192826200018b5760008555620001d6565b82601f10620001a657805160ff1916838001178555620001d6565b82800160010185558215620001d6579182015b82811115620001d6578251825591602001919060010190620001b9565b50620001e4929150620001e8565b5090565b5b80821115620001e45760008155600101620001e9565b80516001600160a01b03811681146200021757600080fd5b919050565b60008060006060848603121562000231578283fd5b6200023c84620001ff565b92506200024c60208501620001ff565b91506200025c60408501620001ff565b90509250925092565b600181811c908216806200027a57607f821691505b602082108114156200029c57634e487b7160e01b600052602260045260246000fd5b50919050565b6147f780620002b26000396000f3fe6080604052600436106102ff5760003560e01c806370a0823111610190578063bd3355ed116100dc578063d8d17e7911610095578063f2fde38b1161006f578063f2fde38b14610978578063f6e9274d14610998578063fee03299146109b8578063ff0eac45146109d857600080fd5b8063d8d17e79146108ef578063e985e9c51461090f578063f1ac67d31461095857600080fd5b8063bd3355ed1461081b578063bdea26fa1461083b578063bf1a96571461085b578063c87b56dd14610890578063ce51ba90146108b0578063cfc02f5f146108d057600080fd5b806395d89b4111610149578063ac03d00111610123578063ac03d001146107b6578063ae72e098146107e0578063b88d4fde146107f5578063bbe07d791461080857600080fd5b806395d89b4114610749578063a22cb4651461075e578063a7c9e8811461077e57600080fd5b806370a0823114610681578063715018a6146106af57806377738ad2146106c45780638ba51d61146106e45780638da5cb5b1461070457806392e6f9ac1461072257600080fd5b806339acd9181161024f5780635a034b3b116102085780636579aea2116101e25780636579aea21461060157806365cb8c9314610621578063668432081461064157806366ca8ec41461066157600080fd5b80635a034b3b146105a1578063600f11db146105c15780636352211e146105e157600080fd5b806339acd918146104f357806342842e0e1461051957806347bb09581461052c57806350614e191461054c57806358d400cb1461056157806359d0f7131461058157600080fd5b806316468b5c116102bc5780631dab1af7116102965780631dab1af71461046e57806323b872dd146104a65780632b56a1c2146104b95780632b9e0d72146104d357600080fd5b806316468b5c146103fb5780631694505e1461042e5780631819bc981461044e57600080fd5b806301ffc9a7146103045780630292ec361461033957806306fdde031461035f578063081812fc14610381578063095ea7b3146103b95780631419841d146103db575b600080fd5b34801561031057600080fd5b5061032461031f366004614014565b6109f8565b60405190151581526020015b60405180910390f35b34801561034557600080fd5b5060045460ff165b60405160ff9091168152602001610330565b34801561036b57600080fd5b50610374610a4a565b604051610330919061436b565b34801561038d57600080fd5b506103a161039c3660046140da565b610adc565b6040516001600160a01b039091168152602001610330565b3480156103c557600080fd5b506103d96103d4366004613fcd565b610b89565b005b3480156103e757600080fd5b506103d96103f6366004613e57565b610ca9565b34801561040757600080fd5b5061041b61041636600461410a565b610cf5565b60405161ffff9091168152602001610330565b34801561043a57600080fd5b506005546103a1906001600160a01b031681565b34801561045a57600080fd5b506103d9610469366004613e57565b610d44565b34801561047a57600080fd5b5061048e61048936600461410a565b610de5565b6040516001600160401b039091168152602001610330565b6103d96104b4366004613ec7565b610e3a565b3480156104c557600080fd5b5060045461034d9060ff1681565b3480156104df57600080fd5b506103246104ee36600461410a565b610e4d565b3480156104ff57600080fd5b506004546103a1906201000090046001600160a01b031681565b6103d9610527366004613ec7565b610e76565b34801561053857600080fd5b5061034d61054736600461410a565b610e99565b34801561055857600080fd5b5061034d603281565b34801561056d57600080fd5b506103d961057c366004614273565b610ee7565b34801561058d57600080fd5b506006546103a1906001600160a01b031681565b3480156105ad57600080fd5b506103d96105bc36600461410a565b610fcc565b3480156105cd57600080fd5b506103246105dc36600461410a565b6113fa565b3480156105ed57600080fd5b506103a16105fc3660046140da565b61145d565b34801561060d57600080fd5b506103a161061c36600461410a565b6114f7565b34801561062d57600080fd5b506103d961063c36600461413f565b611545565b34801561064d57600080fd5b506103d961065c366004614124565b611604565b34801561066d57600080fd5b506103d961067c36600461404c565b61173b565b34801561068d57600080fd5b506106a161069c366004613e57565b611b8f565b604051908152602001610330565b3480156106bb57600080fd5b506103d9611c22565b3480156106d057600080fd5b506103d96106df36600461422d565b611c58565b3480156106f057600080fd5b506103d96106ff366004613e57565b611cc4565b34801561071057600080fd5b506000546001600160a01b03166103a1565b34801561072e57600080fd5b5061032461073d36600461410a565b63ffffffff1660011490565b34801561075557600080fd5b50610374611d10565b34801561076a57600080fd5b506103d9610779366004613fa0565b611d1f565b34801561078a57600080fd5b5061079e61079936600461410a565b611de4565b6040516001600160801b039091168152602001610330565b3480156107c257600080fd5b5061048e6107d136600461410a565b63ffffffff60201b1660011790565b3480156107ec57600080fd5b5061034d600281565b6103d9610803366004613f07565b611e37565b6103d961081636600461410a565b611e88565b34801561082757600080fd5b5061079e61083636600461410a565b6121fe565b34801561084757600080fd5b5061048e61085636600461410a565b6122bf565b34801561086757600080fd5b5061087b61087636600461410a565b612371565b60405163ffffffff9091168152602001610330565b34801561089c57600080fd5b506103746108ab3660046140da565b6123bf565b3480156108bc57600080fd5b506103246108cb36600461410a565b6124d0565b3480156108dc57600080fd5b5060045461034d90610100900460ff1681565b3480156108fb57600080fd5b5061041b61090a36600461410a565b612512565b34801561091b57600080fd5b5061032461092a366004613e8f565b6001600160a01b03918216600090815260096020908152604080832093909416825291909152205460ff1690565b34801561096457600080fd5b5061087b61097336600461410a565b612560565b34801561098457600080fd5b506103d9610993366004613e57565b61256e565b3480156109a457600080fd5b5061079e6109b336600461410a565b612606565b3480156109c457600080fd5b506103d96109d33660046141fb565b612655565b3480156109e457600080fd5b506103d96109f3366004614273565b612764565b60006001600160e01b031982166380ac58cd60e01b1480610a2957506001600160e01b03198216635b5e139f60e01b145b80610a4457506301ffc9a760e01b6001600160e01b03198316145b92915050565b606060028054610a5990614682565b80601f0160208091040260200160405190810160405280929190818152602001828054610a8590614682565b8015610ad25780601f10610aa757610100808354040283529160200191610ad2565b820191906000526020600020905b815481529060010190602001808311610ab557829003601f168201915b5050505050905090565b6000610aea6104ee83612850565b610b535760405162461bcd60e51b815260206004820152602f60248201527f537061726b4c696e6b3a20417070726f76656420717565727920666f72206e6f60448201526e3732bc34b9ba32b73a103a37b5b2b760891b60648201526084015b60405180910390fd5b60086000610b6084612850565b6001600160401b031681526020810191909152604001600020546001600160a01b031692915050565b6000610b948261145d565b9050806001600160a01b0316836001600160a01b03161415610c045760405162461bcd60e51b8152602060048201526024808201527f537061726b4c696e6b3a20417070726f76616c20746f2063757272656e74206f6044820152633bb732b960e11b6064820152608401610b4a565b336001600160a01b0382161480610c205750610c20813361092a565b610c925760405162461bcd60e51b815260206004820152603b60248201527f537061726b4c696e6b3a20417070726f76652063616c6c6572206973206e6f7460448201527f206f776e6572206e6f7220617070726f76656420666f7220616c6c00000000006064820152608401610b4a565b610ca483610c9f84612850565b6128bd565b505050565b6000546001600160a01b03163314610cd35760405162461bcd60e51b8152600401610b4a9061437e565b600580546001600160a01b0319166001600160a01b0392909216919091179055565b6000610d0082610e4d565b610d1c5760405162461bcd60e51b8152600401610b4a9061444a565b63ffffffff60201b82166001176000908152600a602052604090205460281c61ffff16610a44565b6000546001600160a01b03163314610d6e5760405162461bcd60e51b8152600401610b4a9061437e565b600454604080516001600160a01b03620100009093048316815291831660208301527f99606c3a24107f45e74f253b7e1c1b1503ec1ec31bdafa96944f495bdb57efbd910160405180910390a1600480546001600160a01b03909216620100000262010000600160b01b0319909216919091179055565b6000610df082610e4d565b610e0c5760405162461bcd60e51b8152600401610b4a9061444a565b60005b600163ffffffff841614610a4457610e28600182614532565b9050610e33836122bf565b9250610e0f565b610ca48383610e4884612850565b612933565b6001600160401b03166000908152600a60205260409020600101546001600160a01b0316151590565b610ca48383610e8484612850565b60405180602001604052806000815250612d5d565b6000610ea482610e4d565b610ec05760405162461bcd60e51b8152600401610b4a9061444a565b63ffffffff60201b82166001176000908152600a602052604090205460381c60ff16610a44565b6000546001600160a01b03163314610f115760405162461bcd60e51b8152600401610b4a9061437e565b603260ff82161115610f755760405162461bcd60e51b815260206004820152602760248201527f537061726b4c696e6b3a204c6f737320726174696f2063616e206e6f742062656044820152666c6f772035302560c81b6064820152608401610b4a565b6004546040805160ff928316815291831660208301527f10a39a3c3bf3e61b479ed61d38c739f7bbf3cfc3f209a3a2f45979992089afcb910160405180910390a16004805460ff191660ff92909216919091179055565b610fd581610e4d565b6110305760405162461bcd60e51b815260206004820152602660248201527f537061726b4c696e6b3a20546869732065646974696f6e20646f6573206e6f7460448201526508195e1a5cdd60d21b6064820152608401610b4a565b6001600160401b0381166000908152600a6020526040902060030154600160801b90046001600160801b0316156113f7576001600160401b0381166000908152600a6020526040812060030154600160801b90046001600160801b031690611097836114f7565b600454909150610100900460ff16156112875760006110c583600460019054906101000a900460ff16612d96565b90506110d181846145dc565b92506001600160a01b038216611131576004546040516001600160a01b036201000090920491909116906001600160801b03831680156108fc02916000818181858888f1935050505015801561112b573d6000803e3d6000fd5b50611285565b600654600554604080516315ab88c960e31b815290516000936001600160a01b039081169363e6a43905938893919092169163ad5c4648916004808301926020929190829003018186803b15801561118857600080fd5b505afa15801561119c573d6000803e3d6000fd5b505050506040513d601f19601f820116820180604052508101906111c09190613e73565b6040516001600160e01b031960e085901b1681526001600160a01b0392831660048201529116602482015260440160206040518083038186803b15801561120657600080fd5b505afa15801561121a573d6000803e3d6000fd5b505050506040513d601f19601f8201168201806040525081019061123e9190613e73565b6001600160a01b0316141561127b57600454611276906001600160a01b0384811691620100009004166001600160801b038416612db8565b611285565b6112858282612e1b565b505b6001600160401b0383166000908152600a6020526040902060030180546001600160801b0316905563ffffffff83166001146112f35760006112d1836112cc86610e99565b612d96565b90506112e56112df856122bf565b82613021565b6112ef81846145dc565b9250505b6001600160a01b03811661135a57611313836001600160401b031661145d565b6001600160a01b03166108fc836001600160801b03169081150290604051600060405180830381858888f19350505050158015611354573d6000803e3d6000fd5b50611389565b61138961136f846001600160401b031661145d565b6001600160a01b038316906001600160801b038516612db8565b61139b836001600160401b031661145d565b6001600160a01b0316836001600160401b03167f3dc1a77733195d8bbde8f8bc719f598f47f377c9c4b854d561b4d607a8e81f62846040516113ec91906001600160801b0391909116815260200190565b60405180910390a350505b50565b600061140582610e4d565b6114215760405162461bcd60e51b8152600401610b4a9061444a565b610a446027600a6000600163ffffffff60201b8716175b6001600160401b039081168252602082019290925260400160002054166001911c1690565b600080600a600061146d85612850565b6001600160401b031681526020810191909152604001600020600101546001600160a01b0316905080610a445760405162461bcd60e51b815260206004820152602c60248201527f537061726b4c696e6b3a204f776e657220717565727920666f72206e6f6e657860448201526b34b9ba32b73a103a37b5b2b760a11b6064820152608401610b4a565b600061150282610e4d565b61151e5760405162461bcd60e51b8152600401610b4a9061444a565b5063ffffffff602091821c166000908152600b90915260409020546001600160a01b031690565b336115586001600160401b03841661145d565b6001600160a01b0316146115bf5760405162461bcd60e51b815260206004820152602860248201527f537061726b4c696e6b3a204f6e6c79206f776e65722063616e206c6162656c206044820152671d1a1a5cc813919560c21b6064820152608401610b4a565b816001600160401b03167f07fabc8249b7822cdf933a532a49e1b0589177b1683b4145ee271dbd66700dfa826040516115f8919061436b565b60405180910390a25050565b61160d826113fa565b156116b0576001600160401b03821663ffffffff60201b8316600117146116b05760405162461bcd60e51b815260206004820152604b60248201527f537061726b4c696e6b3a204e465420666f6c6c6f777320746865204e4420707260448201527f6f746f636f6c2c206f6e6c792074686520726f6f74204e46542773205552492060648201526a31b0b71031329039b2ba1760a91b608482015260a401610b4a565b336116c36001600160401b03841661145d565b6001600160a01b03161461172d5760405162461bcd60e51b815260206004820152602b60248201527f537061726b4c696e6b3a204f6e6c79206f776e65722063616e2073657420746860448201526a6520746f6b656e2055524960a81b6064820152608401610b4a565b6117378282613093565b5050565b60648660ff1611156117a15760405162461bcd60e51b815260206004820152602960248201527f537061726b4c696e6b3a20526f79616c7479206665652073686f756c64206265604482015268101e1e90189818129760b91b6064820152608401610b4a565b6117af600180546001019055565b63ffffffff6117bd60015490565b111561181c5760405162461bcd60e51b815260206004820152602860248201527f537061726b4c696e6b3a2056616c756520646f65736e27742066697420696e206044820152671999103134ba399760c11b6064820152608401610b4a565b6001600160a01b038316156118eb576000836001600160a01b03166318160ddd6040518163ffffffff1660e01b815260040160206040518083038186803b15801561186657600080fd5b505afa15801561187a573d6000803e3d6000fd5b505050506040513d601f19601f8201168201806040525081019061189e91906140f2565b116118eb5760405162461bcd60e51b815260206004820152601f60248201527f4e6f7420612076616c696420455243323020746f6b656e2061646472657373006044820152606401610b4a565b60006118f660015490565b9050600063ffffffff60201b602083901b16600117905061192960003383604051806020016040528060008152506130f5565b6119455760405162461bcd60e51b8152600401610b4a906143f5565b6001600160401b0381166000908152600a60205260409020648000000000196440000000001960288a901b1666ffff40000000001960388c901b1617602687901b1716602785901b17611999600182614532565b905086600b60008663ffffffff1663ffffffff16815260200190815260200160002060006101000a8154816001600160a01b0302191690836001600160a01b03160217905550808260000160006101000a8154816001600160401b0302191690836001600160401b03160217905550888260000160186101000a81548161ffff021916908361ffff1602179055508a8260000160086101000a8154816001600160801b0302191690836001600160801b03160217905550338260010160006101000a8154816001600160a01b0302191690836001600160a01b03160217905550878260020181905550600160076000336001600160a01b03166001600160a01b0316815260200190815260200160002060008282829054906101000a90046001600160401b0316611aca9190614532565b92506101000a8154816001600160401b0302191690836001600160401b03160217905550826001600160401b0316336001600160a01b031660006001600160a01b03167fddf252ad1be2c89b69c2b068fc378daa952ba7f163c4a11628f55a4df523b3ef60405160405180910390a46040516001600160a01b03881681526001600160401b0384169033907f072ee21d81ebd9fc5f68a2c36d04cbbd9eff1e2567a48dd7ecce61d5af159fad9060200160405180910390a35050505050505050505050565b60006001600160a01b038216611bfd5760405162461bcd60e51b815260206004820152602d60248201527f537061726b4c696e6b3a2042616c616e636520717565727920666f722074686560448201526c207a65726f206164647265737360981b6064820152608401610b4a565b506001600160a01b03166000908152600760205260409020546001600160401b031690565b6000546001600160a01b03163314611c4c5760405162461bcd60e51b8152600401610b4a9061437e565b611c566000613202565b565b611c628383612655565b611c7581846001600160401b0316610b89565b6040516001600160801b03831681526001600160a01b038216906001600160401b038516907ff4a029974225230e783a906bf72b4c1037aee2b37958b9a6b5e689da1477729b906020016113ec565b6000546001600160a01b03163314611cee5760405162461bcd60e51b8152600401610b4a9061437e565b600680546001600160a01b0319166001600160a01b0392909216919091179055565b606060038054610a5990614682565b6001600160a01b038216331415611d785760405162461bcd60e51b815260206004820152601c60248201527f537061726b4c696e6b3a20417070726f766520746f2063616c6c6572000000006044820152606401610b4a565b3360008181526009602090815260408083206001600160a01b03871680855290835292819020805460ff191686151590811790915590519081529192917f17307eab39ab6107e8899845ad3d59bd9653f200f220920489ca2b5937696c31910160405180910390a35050565b6000611def82610e4d565b611e0b5760405162461bcd60e51b8152600401610b4a9061444a565b506001600160401b03166000908152600a6020526040902054600160401b90046001600160801b031690565b611e818585611e4586612850565b85858080601f016020809104026020016040519081016040528093929190818152602001838380828437600092019190915250612d5d92505050565b5050505050565b611e9181610e4d565b611ead5760405162461bcd60e51b8152600401610b4a906143b3565b6001600160401b0381166000908152600a6020526040902054600160c01b900461ffff16611f435760405162461bcd60e51b815260206004820152603860248201527f537061726b4c696e6b3a205468657265206973206e6f2072656d61696e696e6760448201527f207368696c6c2074696d6520666f722074686973204e465400000000000000006064820152608401610b4a565b6000611f4e826114f7565b90506001600160a01b038116612007576001600160401b0382166000908152600a6020526040902054600160401b90046001600160801b03163414611fce5760405162461bcd60e51b8152602060048201526016602482015275537061726b4c696e6b3a2057726f6e6720707269636560501b6044820152606401610b4a565b6001600160401b0382166000908152600a6020526040902054612002908390600160401b90046001600160801b0316613021565b61215f565b6040516370a0823160e01b81523060048201526000906001600160a01b038316906370a082319060240160206040518083038186803b15801561204957600080fd5b505afa15801561205d573d6000803e3d6000fd5b505050506040513d601f19601f8201168201806040525081019061208191906140f2565b6001600160401b0384166000908152600a60205260409020549091506120c5906001600160a01b0384169033903090600160401b90046001600160801b0316613252565b6040516370a0823160e01b815230600482015261215d9084906121589084906001600160a01b038716906370a08231906024015b60206040518083038186803b15801561211157600080fd5b505afa158015612125573d6000803e3d6000fd5b505050506040513d601f19601f8201168201806040525081019061214991906140f2565b612153919061461f565b61328a565b613021565b505b6001600160401b0382166000908152600a60205260409020805460019190601890612196908490600160c01b900461ffff16614604565b92506101000a81548161ffff021916908361ffff1602179055506121ba82336132f4565b506001600160401b0382166000908152600a6020526040902054600160c01b900461ffff1661173757610ca4826121f9846001600160401b031661145d565b6132f4565b600061220982610e4d565b6122255760405162461bcd60e51b8152600401610b4a9061444a565b6001600160401b0382166000908152600a6020526040902060030154600454600160801b9091046001600160801b031690610100900460ff161561228e57600061227e82600460019054906101000a900460ff16612d96565b905061228a81836145dc565b9150505b600163ffffffff841614610a445760006122ab826112cc86610e99565b90506122b781836145dc565b949350505050565b60006122ca82610e4d565b6122e65760405162461bcd60e51b8152600401610b4a9061444a565b600163ffffffff831614156123525760405162461bcd60e51b815260206004820152602c60248201527f537061726b4c696e6b3a20526f6f74204e465420646f65736e2774206861766560448201526b103330ba3432b91027232a1760a11b6064820152608401610b4a565b506001600160401b039081166000908152600a60205260409020541690565b600061237c82610e4d565b6123985760405162461bcd60e51b8152600401610b4a9061444a565b63ffffffff60201b82166001176000908152600a602052604090205463ffffffff16610a44565b60606123cd6104ee83612850565b61242c5760405162461bcd60e51b815260206004820152602a60248201527f537061726b4c696e6b3a2055524920717565727920666f72206e6f6e657869736044820152693a32b73a103a37b5b2b760b11b6064820152608401610b4a565b6000600a600061243b85612850565b6001600160401b03166001600160401b03168152602001908152602001600020600201549050600061246c8261353d565b905060006124a260408051808201909152601581527468747470733a2f2f697066732e696f2f697066732f60581b602082015290565b905080826040516020016124b79291906142f7565b6040516020818303038152906040529350505050919050565b60006124db82610e4d565b6124f75760405162461bcd60e51b8152600401610b4a9061444a565b610a446026600a6000600163ffffffff60201b871617611438565b600061251d82610e4d565b6125395760405162461bcd60e51b8152600401610b4a9061444a565b506001600160401b03166000908152600a6020526040902054600160c01b900461ffff1690565b600063ffffffff8216610a44565b6000546001600160a01b031633146125985760405162461bcd60e51b8152600401610b4a9061437e565b6001600160a01b0381166125fd5760405162461bcd60e51b815260206004820152602660248201527f4f776e61626c653a206e6577206f776e657220697320746865207a65726f206160448201526564647265737360d01b6064820152608401610b4a565b6113f781613202565b600061261182610e4d565b61262d5760405162461bcd60e51b8152600401610b4a9061444a565b506001600160401b03166000908152600a60205260409020600301546001600160801b031690565b61265e82610e4d565b61267a5760405162461bcd60e51b8152600401610b4a906143b3565b61268c826001600160401b031661145d565b6001600160a01b0316336001600160a01b0316146126fc5760405162461bcd60e51b815260206004820152602760248201527f537061726b4c696e6b3a204f6e6c79206f776e65722063616e207365742074686044820152666520707269636560c81b6064820152608401610b4a565b6001600160401b0382166000818152600a602090815260409182902060030180546001600160801b0319166001600160801b03861690811790915591519182527fca72e8ac93611c80ca0e2046cbd0f09834fcca6a61e4979bd62bb6765ff7a9e791016115f8565b6000546001600160a01b0316331461278e5760405162461bcd60e51b8152600401610b4a9061437e565b600260ff821611156127ee5760405162461bcd60e51b8152602060048201526024808201527f537061726b4c696e6b3a2044414f206665652063616e206e6f742065786365656044820152636420352560e01b6064820152608401610b4a565b6004546040805160ff6101009093048316815291831660208301527f2f8a36c4ca7c940e13833d1a596527b1ac691622a83cb1cf34d833d01efdeef3910160405180910390a16004805460ff9092166101000261ff0019909216919091179055565b60006001600160401b038211156128b95760405162461bcd60e51b815260206004820152602760248201527f537061726b4c696e6b3a2056616c756520646f65736e27742066697420696e206044820152663634206269747360c81b6064820152608401610b4a565b5090565b6001600160401b038116600081815260086020526040902080546001600160a01b0319166001600160a01b0385169081179091556128fa8261145d565b6001600160a01b03167f8c5be1e5ebec7d5bd14f71427d1e84f3dd0314c0f7b2291e5b200ac8c7c3b92560405160405180910390a45050565b826001600160a01b031661294f826001600160401b031661145d565b6001600160a01b0316146129ba5760405162461bcd60e51b815260206004820152602c60248201527f537061726b4c696e6b3a205472616e73666572206f6620746f6b656e2074686160448201526b3a1034b9903737ba1037bbb760a11b6064820152608401610b4a565b6129c43382613753565b612a2d5760405162461bcd60e51b815260206004820152603460248201527f537061726b4c696e6b3a205472616e736665722063616c6c6572206973206e6f6044820152731d081bdddb995c881b9bdc88185c1c1c9bdd995960621b6064820152608401610b4a565b6001600160a01b038216612a935760405162461bcd60e51b815260206004820152602760248201527f537061726b4c696e6b3a205472616e7366657220746f20746865207a65726f206044820152666164647265737360c81b6064820152608401610b4a565b612aa5816001600160401b031661145d565b6001600160a01b0316336001600160a01b031614612c49576000612ac8826114f7565b6001600160401b0383166000908152600a60205260409020600301549091506001600160801b03166001600160a01b038216612b6557806001600160801b03163414612b565760405162461bcd60e51b815260206004820152601860248201527f537061726b4c696e6b3a205072696365206e6f74206d657400000000000000006044820152606401610b4a565b612b608382613021565b612c39565b6040516370a0823160e01b81523060048201526000906001600160a01b038416906370a082319060240160206040518083038186803b158015612ba757600080fd5b505afa158015612bbb573d6000803e3d6000fd5b505050506040513d601f19601f82011682018060405250810190612bdf91906140f2565b9050612bff6001600160a01b03841633306001600160801b038616613252565b6040516370a0823160e01b8152306004820152612c379085906121589084906001600160a01b038816906370a08231906024016120f9565b505b612c4283610fcc565b5050612c52565b612c5281610fcc565b612c5b8161384e565b6001600160a01b0383166000908152600760205260408120805460019290612c8d9084906001600160401b0316614636565b82546101009290920a6001600160401b038181021990931691831602179091556001600160a01b03841660009081526007602052604081208054600194509092612cd991859116614532565b82546101009290920a6001600160401b0381810219909316918316021790915582166000818152600a602052604080822060010180546001600160a01b0319166001600160a01b0388811691821790925591519394509092908716917fddf252ad1be2c89b69c2b068fc378daa952ba7f163c4a11628f55a4df523b3ef91a4505050565b612d68848484612933565b612d74848484846130f5565b612d905760405162461bcd60e51b8152600401610b4a906143f5565b50505050565b60006064612da760ff84168561458e565b612db19190614554565b9392505050565b6040516001600160a01b038316602482015260448101829052610ca490849063a9059cbb60e01b906064015b60408051601f198184030181529190526020810180516001600160e01b03166001600160e01b031990931692909217909152613883565b6040805160028082526060820183526000926020830190803683370190505090508281600081518110612e5e57634e487b7160e01b600052603260045260246000fd5b6001600160a01b03928316602091820292909201810191909152600554604080516315ab88c960e31b81529051919093169263ad5c4648926004808301939192829003018186803b158015612eb257600080fd5b505afa158015612ec6573d6000803e3d6000fd5b505050506040513d601f19601f82011682018060405250810190612eea9190613e73565b81600181518110612f0b57634e487b7160e01b600052603260045260246000fd5b6001600160a01b03928316602091820292909201015260055460405163095ea7b360e01b815290821660048201526001600160801b03841660248201529084169063095ea7b390604401602060405180830381600087803b158015612f6f57600080fd5b505af1158015612f83573d6000803e3d6000fd5b505050506040513d601f19601f82011682018060405250810190612fa79190613ff8565b506005546004805460405163791ac94760e01b81526001600160a01b039384169363791ac94793612fea938893600093899362010000909304169142910161447f565b600060405180830381600087803b15801561300457600080fd5b505af1158015613018573d6000803e3d6000fd5b50505050505050565b6001600160401b0382166000908152600a6020526040902060030154613058908290600160801b90046001600160801b03166144f8565b6001600160401b039092166000908152600a6020526040902060030180546001600160801b03938416600160801b0293169290921790915550565b6001600160401b0382166000818152600a6020908152604091829020600201805490859055825181815291820185905292917f901ae3afe5e7d5594d462fab7cb487880c27d5fc0e3863487a5cfd2a08d350ed910160405180910390a2505050565b60006001600160a01b0384163b156131f757604051630a85bd0160e11b81526001600160a01b0385169063150b7a0290613139903390899088908890600401614326565b602060405180830381600087803b15801561315357600080fd5b505af1925050508015613183575060408051601f3d908101601f1916820190925261318091810190614030565b60015b6131dd573d8080156131b1576040519150601f19603f3d011682016040523d82523d6000602084013e6131b6565b606091505b5080516131d55760405162461bcd60e51b8152600401610b4a906143f5565b805181602001fd5b6001600160e01b031916630a85bd0160e11b1490506122b7565b506001949350505050565b600080546001600160a01b038381166001600160a01b0319831681178455604051919092169283917f8be0079c531659141344cd1fd0a4f28419497f9722a3daafe3b4186f6b6457e09190a35050565b6040516001600160a01b0380851660248301528316604482015260648101829052612d909085906323b872dd60e01b90608401612de4565b60006001600160801b038211156128b95760405162461bcd60e51b815260206004820152602860248201527f537061726b4c696e6b3a2056616c756520646f65736e27742066697420696e20604482015267313238206269747360c01b6064820152608401610b4a565b60006132ff83613955565b600061330a84612371565b9050600063ffffffff60201b851663ffffffff831617905061333e60008583604051806020016040528060008152506130f5565b61335a5760405162461bcd60e51b8152600401610b4a906143f5565b6001600160401b0381166000908152600a6020526040902061337b86610cf5565b815479ffff00000000000000000000000000000000ffffffffffffffff1916600160c01b61ffff929092169190910267ffffffffffffffff1916176001600160401b03871690811782556000908152600a60205260409020546004546133f491600160401b90046001600160801b03169060ff16612d96565b8154600160401b600160c01b031916600160401b6001600160801b039283168102919091178084550416613463576001600160401b0386166000908152600a60205260409020548154600160401b600160c01b031916600160401b918290046001600160801b03169091021781555b600181810180546001600160a01b0319166001600160a01b0388169081179091556001600160401b038881166000908152600a60209081526040808320600290810154908801559382526007905291822080549092916134c591859116614532565b92506101000a8154816001600160401b0302191690836001600160401b03160217905550816001600160401b0316856001600160a01b031660006001600160a01b03167fddf252ad1be2c89b69c2b068fc378daa952ba7f163c4a11628f55a4df523b3ef60405160405180910390a450949350505050565b60606000604051806040016040528060028152602001609160f51b8152508360405160200161356d9291906142d5565b60408051601f198184030181528183526108208301825292506000919060208201610800803683370190505090506000816000815181106135be57634e487b7160e01b600052603260045260246000fd5b60ff90921660209283029190910190910152600160005b835181101561372f57600084828151811061360057634e487b7160e01b600052603260045260246000fd5b016020015160f81c905060005b8360ff168110156136b65784818151811061363857634e487b7160e01b600052603260045260246000fd5b602002602001015160ff1661010061365091906145bd565b61365a908361451a565b9150613667603a836146f8565b85828151811061368757634e487b7160e01b600052603260045260246000fd5b60ff909216602092830291909101909101526136a4603a8361457a565b91506136af816146bd565b905061360d565b505b801561371e576136c9603a826146f8565b848460ff16815181106136ec57634e487b7160e01b600052603260045260246000fd5b60ff9092166020928302919091019091015282613708816146d8565b93506137179050603a8261457a565b90506136b8565b50613728816146bd565b90506135d5565b5061374a6137456137408484613a25565b613b00565b613bee565b95945050505050565b600061375e82610e4d565b6137c25760405162461bcd60e51b815260206004820152602f60248201527f537061726b4c696e6b3a204f70657261746f7220717565727920666f72206e6f60448201526e3732bc34b9ba32b73a103a37b5b2b760891b6064820152608401610b4a565b60006137d6836001600160401b031661145d565b9050806001600160a01b0316846001600160a01b0316148061381a5750836001600160a01b031661380f846001600160401b0316610adc565b6001600160a01b0316145b806122b757506001600160a01b0380821660009081526009602090815260408083209388168352929052205460ff166122b7565b6138596000826128bd565b6001600160401b03166000908152600a6020526040902060030180546001600160801b0319169055565b60006138d8826040518060400160405280602081526020017f5361666545524332303a206c6f772d6c6576656c2063616c6c206661696c6564815250856001600160a01b0316613d089092919063ffffffff16565b805190915015610ca457808060200190518101906138f69190613ff8565b610ca45760405162461bcd60e51b815260206004820152602a60248201527f5361666545524332303a204552433230206f7065726174696f6e20646964206e6044820152691bdd081cdd58d8d9595960b21b6064820152608401610b4a565b63ffffffff61396382612371565b63ffffffff16106139c95760405162461bcd60e51b815260206004820152602a60248201527f537061726b4c696e6b3a205468657265206973206e6f206c65667420696e20746044820152693434b99034b9b9bab29760b11b6064820152608401610b4a565b600163ffffffff60201b821681176000908152600a6020526040812080549091906139fe9084906001600160401b0316614532565b92506101000a8154816001600160401b0302191690836001600160401b0316021790555050565b606060008260ff166001600160401b03811115613a5257634e487b7160e01b600052604160045260246000fd5b604051908082528060200260200182016040528015613a7b578160200160208202803683370190505b50905060005b8360ff16811015613af857848181518110613aac57634e487b7160e01b600052603260045260246000fd5b6020026020010151828281518110613ad457634e487b7160e01b600052603260045260246000fd5b60ff9092166020928302919091019091015280613af0816146bd565b915050613a81565b509392505050565b6060600082516001600160401b03811115613b2b57634e487b7160e01b600052604160045260246000fd5b604051908082528060200260200182016040528015613b54578160200160208202803683370190505b50905060005b8351811015613be757838160018651613b73919061461f565b613b7d919061461f565b81518110613b9b57634e487b7160e01b600052603260045260246000fd5b6020026020010151828281518110613bc357634e487b7160e01b600052603260045260246000fd5b60ff9092166020928302919091019091015280613bdf816146bd565b915050613b5a565b5092915050565b6060600082516001600160401b03811115613c1957634e487b7160e01b600052604160045260246000fd5b6040519080825280601f01601f191660200182016040528015613c43576020820181803683370190505b50905060005b8351811015613be7576040518060600160405280603a8152602001614788603a9139848281518110613c8b57634e487b7160e01b600052603260045260246000fd5b602002602001015160ff1681518110613cb457634e487b7160e01b600052603260045260246000fd5b602001015160f81c60f81b828281518110613cdf57634e487b7160e01b600052603260045260246000fd5b60200101906001600160f81b031916908160001a90535080613d00816146bd565b915050613c49565b60606122b7848460008585843b613d615760405162461bcd60e51b815260206004820152601d60248201527f416464726573733a2063616c6c20746f206e6f6e2d636f6e74726163740000006044820152606401610b4a565b600080866001600160a01b03168587604051613d7d91906142b9565b60006040518083038185875af1925050503d8060008114613dba576040519150601f19603f3d011682016040523d82523d6000602084013e613dbf565b606091505b5091509150613dcf828286613dda565b979650505050505050565b60608315613de9575081612db1565b825115613df95782518084602001fd5b8160405162461bcd60e51b8152600401610b4a919061436b565b80356001600160801b0381168114613e2a57600080fd5b919050565b80356001600160401b0381168114613e2a57600080fd5b803560ff81168114613e2a57600080fd5b600060208284031215613e68578081fd5b8135612db18161474e565b600060208284031215613e84578081fd5b8151612db18161474e565b60008060408385031215613ea1578081fd5b8235613eac8161474e565b91506020830135613ebc8161474e565b809150509250929050565b600080600060608486031215613edb578081fd5b8335613ee68161474e565b92506020840135613ef68161474e565b929592945050506040919091013590565b600080600080600060808688031215613f1e578081fd5b8535613f298161474e565b94506020860135613f398161474e565b93506040860135925060608601356001600160401b0380821115613f5b578283fd5b818801915088601f830112613f6e578283fd5b813581811115613f7c578384fd5b896020828501011115613f8d578384fd5b9699959850939650602001949392505050565b60008060408385031215613fb2578182fd5b8235613fbd8161474e565b91506020830135613ebc81614763565b60008060408385031215613fdf578182fd5b8235613fea8161474e565b946020939093013593505050565b600060208284031215614009578081fd5b8151612db181614763565b600060208284031215614025578081fd5b8135612db181614771565b600060208284031215614041578081fd5b8151612db181614771565b600080600080600080600060e0888a031215614066578182fd5b61406f88613e13565b965061407d60208901613e46565b9550604088013561ffff81168114614093578283fd5b94506060880135935060808801356140aa8161474e565b925060a08801356140ba81614763565b915060c08801356140ca81614763565b8091505092959891949750929550565b6000602082840312156140eb578081fd5b5035919050565b600060208284031215614103578081fd5b5051919050565b60006020828403121561411b578081fd5b612db182613e2f565b60008060408385031215614136578182fd5b613fea83613e2f565b60008060408385031215614151578182fd5b61415a83613e2f565b915060208301356001600160401b0380821115614175578283fd5b818501915085601f830112614188578283fd5b81358181111561419a5761419a614738565b604051601f8201601f19908116603f011681019083821181831017156141c2576141c2614738565b816040528281528860208487010111156141da578586fd5b82602086016020830137856020848301015280955050505050509250929050565b6000806040838503121561420d578182fd5b61421683613e2f565b915061422460208401613e13565b90509250929050565b600080600060608486031215614241578081fd5b61424a84613e2f565b925061425860208501613e13565b915060408401356142688161474e565b809150509250925092565b600060208284031215614284578081fd5b612db182613e46565b600081518084526142a5816020860160208601614656565b601f01601f19169290920160200192915050565b600082516142cb818460208701614656565b9190910192915050565b600083516142e7818460208801614656565b9190910191825250602001919050565b60008351614309818460208801614656565b83519083019061431d818360208801614656565b01949350505050565b6001600160a01b038581168252841660208201526001600160401b03831660408201526080606082018190526000906143619083018461428d565b9695505050505050565b602081526000612db1602083018461428d565b6020808252818101527f4f776e61626c653a2063616c6c6572206973206e6f7420746865206f776e6572604082015260600190565b60208082526022908201527f537061726b4c696e6b3a2054686973204e465420646f6573206e6f74206578696040820152611cdd60f21b606082015260800190565b60208082526035908201527f537061726b4c696e6b3a205472616e7366657220746f206e6f6e20455243373260408201527418a932b1b2b4bb32b91034b6b83632b6b2b73a32b960591b606082015260800190565b6020808252818101527f537061726b4c696e6b3a2045646974696f6e206973206e6f742065786973742e604082015260600190565b600060a082016001600160801b03881683526020878185015260a0604085015281875180845260c0860191508289019350845b818110156144d75784516001600160a01b0316835293830193918301916001016144b2565b50506001600160a01b03969096166060850152505050608001529392505050565b60006001600160801b0380831681851680830382111561431d5761431d61470c565b6000821982111561452d5761452d61470c565b500190565b60006001600160401b0380831681851680830382111561431d5761431d61470c565b60006001600160801b038084168061456e5761456e614722565b92169190910492915050565b60008261458957614589614722565b500490565b60006001600160801b03808316818516818304811182151516156145b4576145b461470c565b02949350505050565b60008160001904831182151516156145d7576145d761470c565b500290565b60006001600160801b03838116908316818110156145fc576145fc61470c565b039392505050565b600061ffff838116908316818110156145fc576145fc61470c565b6000828210156146315761463161470c565b500390565b60006001600160401b03838116908316818110156145fc576145fc61470c565b60005b83811015614671578181015183820152602001614659565b83811115612d905750506000910152565b600181811c9082168061469657607f821691505b602082108114156146b757634e487b7160e01b600052602260045260246000fd5b50919050565b60006000198214156146d1576146d161470c565b5060010190565b600060ff821660ff8114156146ef576146ef61470c565b60010192915050565b60008261470757614707614722565b500690565b634e487b7160e01b600052601160045260246000fd5b634e487b7160e01b600052601260045260246000fd5b634e487b7160e01b600052604160045260246000fd5b6001600160a01b03811681146113f757600080fd5b80151581146113f757600080fd5b6001600160e01b0319811681146113f757600080fdfe31323334353637383941424344454647484a4b4c4d4e505152535455565758595a6162636465666768696a6b6d6e6f707172737475767778797aa2646970667358221220aa4ec967619670bd55dcf17966d52116302e618f84116ed7353f2a3f5cb9f49564736f6c63430008040033",
  "linkReferences": {},
  "deployedLinkReferences": {}
}