{
  "_format": "hh-sol-artifact-1",
  "contractName": "SparkNFT",
  "sourceName": "contracts/ShillNFT.sol",
  "abi": [
    {
      "inputs": [],
      "stateMutability": "nonpayable",
      "type": "constructor"
    },
    {
      "anonymous": false,
      "inputs": [
        {
          "indexed": true,
          "internalType": "address",
          "name": "owner",
          "type": "address"
        },
        {
          "indexed": true,
          "internalType": "address",
          "name": "approved",
          "type": "address"
        },
        {
          "indexed": true,
          "internalType": "uint256",
          "name": "tokenId",
          "type": "uint256"
        }
      ],
      "name": "Approval",
      "type": "event"
    },
    {
      "anonymous": false,
      "inputs": [
        {
          "indexed": true,
          "internalType": "address",
          "name": "owner",
          "type": "address"
        },
        {
          "indexed": true,
          "internalType": "address",
          "name": "operator",
          "type": "address"
        },
        {
          "indexed": false,
          "internalType": "bool",
          "name": "approved",
          "type": "bool"
        }
      ],
      "name": "ApprovalForAll",
      "type": "event"
    },
    {
      "anonymous": false,
      "inputs": [
        {
          "indexed": true,
          "internalType": "uint256",
          "name": "NFT_id",
          "type": "uint256"
        },
        {
          "indexed": true,
          "internalType": "address",
          "name": "receiver",
          "type": "address"
        },
        {
          "indexed": false,
          "internalType": "uint256",
          "name": "amount",
          "type": "uint256"
        }
      ],
      "name": "Claim",
      "type": "event"
    },
    {
      "anonymous": false,
      "inputs": [
        {
          "indexed": true,
          "internalType": "uint256",
          "name": "NFT_id",
          "type": "uint256"
        },
        {
          "indexed": false,
          "internalType": "uint256",
          "name": "transfer_price",
          "type": "uint256"
        }
      ],
      "name": "DeterminePrice",
      "type": "event"
    },
    {
      "anonymous": false,
      "inputs": [
        {
          "indexed": true,
          "internalType": "uint256",
          "name": "NFT_id",
          "type": "uint256"
        },
        {
          "indexed": false,
          "internalType": "uint256",
          "name": "transfer_price",
          "type": "uint256"
        },
        {
          "indexed": true,
          "internalType": "address",
          "name": "to",
          "type": "address"
        }
      ],
      "name": "DeterminePriceAndApprove",
      "type": "event"
    },
    {
      "anonymous": false,
      "inputs": [
        {
          "indexed": true,
          "internalType": "uint256",
          "name": "NFT_id",
          "type": "uint256"
        },
        {
          "indexed": true,
          "internalType": "uint256",
          "name": "father_id",
          "type": "uint256"
        },
        {
          "indexed": true,
          "internalType": "address",
          "name": "owner",
          "type": "address"
        },
        {
          "components": [
            {
              "internalType": "uint256",
              "name": "NFT_id",
              "type": "uint256"
            },
            {
              "internalType": "uint256",
              "name": "father_id",
              "type": "uint256"
            },
            {
              "internalType": "uint256",
              "name": "transfer_price",
              "type": "uint256"
            },
            {
              "internalType": "uint256",
              "name": "shillPrice",
              "type": "uint256"
            },
            {
              "internalType": "uint256",
              "name": "profit",
              "type": "uint256"
            },
            {
              "internalType": "bool",
              "name": "is_on_sale",
              "type": "bool"
            },
            {
              "internalType": "uint64",
              "name": "remain_shill_times",
              "type": "uint64"
            }
          ],
          "indexed": false,
          "internalType": "struct SparkNFT.Edition",
          "name": "editionData",
          "type": "tuple"
        }
      ],
      "name": "Mint",
      "type": "event"
    },
    {
      "anonymous": false,
      "inputs": [
        {
          "indexed": true,
          "internalType": "uint128",
          "name": "issue_id",
          "type": "uint128"
        },
        {
          "indexed": true,
          "internalType": "address",
          "name": "publisher",
          "type": "address"
        },
        {
          "indexed": false,
          "internalType": "uint256",
          "name": "rootNFTId",
          "type": "uint256"
        },
        {
          "components": [
            {
              "internalType": "uint128",
              "name": "issue_id",
              "type": "uint128"
            },
            {
              "internalType": "uint8",
              "name": "royalty_fee",
              "type": "uint8"
            },
            {
              "internalType": "uint64",
              "name": "shill_times",
              "type": "uint64"
            },
            {
              "internalType": "uint128",
              "name": "total_amount",
              "type": "uint128"
            },
            {
              "internalType": "string",
              "name": "ipfs_hash",
              "type": "string"
            },
            {
              "internalType": "string",
              "name": "name",
              "type": "string"
            },
            {
              "internalType": "uint256",
              "name": "first_sell_price",
              "type": "uint256"
            }
          ],
          "indexed": false,
          "internalType": "struct SparkNFT.Issue",
          "name": "issueData",
          "type": "tuple"
        }
      ],
      "name": "Publish",
      "type": "event"
    },
    {
      "anonymous": false,
      "inputs": [
        {
          "indexed": true,
          "internalType": "address",
          "name": "from",
          "type": "address"
        },
        {
          "indexed": true,
          "internalType": "address",
          "name": "to",
          "type": "address"
        },
        {
          "indexed": true,
          "internalType": "uint256",
          "name": "tokenId",
          "type": "uint256"
        }
      ],
      "name": "Transfer",
      "type": "event"
    },
    {
      "anonymous": false,
      "inputs": [
        {
          "indexed": true,
          "internalType": "address",
          "name": "from",
          "type": "address"
        },
        {
          "indexed": true,
          "internalType": "address",
          "name": "to",
          "type": "address"
        },
        {
          "indexed": true,
          "internalType": "uint256",
          "name": "NFT_id",
          "type": "uint256"
        },
        {
          "indexed": false,
          "internalType": "uint256",
          "name": "transfer_price",
          "type": "uint256"
        }
      ],
      "name": "TransferWithPrice",
      "type": "event"
    },
    {
      "inputs": [
        {
          "internalType": "uint256",
          "name": "_NFT_id",
          "type": "uint256"
        }
      ],
      "name": "accepetShill",
      "outputs": [],
      "stateMutability": "payable",
      "type": "function"
    },
    {
      "inputs": [
        {
          "internalType": "address",
          "name": "to",
          "type": "address"
        },
        {
          "internalType": "uint256",
          "name": "tokenId",
          "type": "uint256"
        }
      ],
      "name": "approve",
      "outputs": [],
      "stateMutability": "nonpayable",
      "type": "function"
    },
    {
      "inputs": [
        {
          "internalType": "address",
          "name": "owner",
          "type": "address"
        }
      ],
      "name": "balanceOf",
      "outputs": [
        {
          "internalType": "uint256",
          "name": "",
          "type": "uint256"
        }
      ],
      "stateMutability": "view",
      "type": "function"
    },
    {
      "inputs": [
        {
          "internalType": "uint256",
          "name": "_NFT_id",
          "type": "uint256"
        }
      ],
      "name": "claimProfit",
      "outputs": [],
      "stateMutability": "nonpayable",
      "type": "function"
    },
    {
      "inputs": [
        {
          "internalType": "uint256",
          "name": "_NFT_id",
          "type": "uint256"
        },
        {
          "internalType": "uint256",
          "name": "_price",
          "type": "uint256"
        }
      ],
      "name": "determinePrice",
      "outputs": [],
      "stateMutability": "nonpayable",
      "type": "function"
    },
    {
      "inputs": [
        {
          "internalType": "uint256",
          "name": "_NFT_id",
          "type": "uint256"
        },
        {
          "internalType": "uint256",
          "name": "_price",
          "type": "uint256"
        },
        {
          "internalType": "address",
          "name": "_to",
          "type": "address"
        }
      ],
      "name": "determinePriceAndApprove",
      "outputs": [],
      "stateMutability": "nonpayable",
      "type": "function"
    },
    {
      "inputs": [
        {
          "internalType": "uint256",
          "name": "tokenId",
          "type": "uint256"
        }
      ],
      "name": "getApproved",
      "outputs": [
        {
          "internalType": "address",
          "name": "",
          "type": "address"
        }
      ],
      "stateMutability": "view",
      "type": "function"
    },
    {
      "inputs": [
        {
          "internalType": "uint256",
          "name": "_NFT_id",
          "type": "uint256"
        }
      ],
      "name": "getFatherByNFTId",
      "outputs": [
        {
          "internalType": "uint256",
          "name": "",
          "type": "uint256"
        }
      ],
      "stateMutability": "view",
      "type": "function"
    },
    {
      "inputs": [
        {
          "internalType": "uint128",
          "name": "_issue_id",
          "type": "uint128"
        }
      ],
      "name": "getIpfsHashByIssueId",
      "outputs": [
        {
          "internalType": "string",
          "name": "",
          "type": "string"
        }
      ],
      "stateMutability": "view",
      "type": "function"
    },
    {
      "inputs": [
        {
          "internalType": "uint256",
          "name": "_NFT_id",
          "type": "uint256"
        }
      ],
      "name": "getIssueIdByNFTId",
      "outputs": [
        {
          "internalType": "uint128",
          "name": "",
          "type": "uint128"
        }
      ],
      "stateMutability": "pure",
      "type": "function"
    },
    {
      "inputs": [
        {
          "internalType": "uint128",
          "name": "_issue_id",
          "type": "uint128"
        }
      ],
      "name": "getIssueNameByIssueId",
      "outputs": [
        {
          "internalType": "string",
          "name": "",
          "type": "string"
        }
      ],
      "stateMutability": "view",
      "type": "function"
    },
    {
      "inputs": [],
      "name": "getLossRatio",
      "outputs": [
        {
          "internalType": "uint8",
          "name": "",
          "type": "uint8"
        }
      ],
      "stateMutability": "pure",
      "type": "function"
    },
    {
      "inputs": [
        {
          "internalType": "uint256",
          "name": "_NFT_id",
          "type": "uint256"
        }
      ],
      "name": "getRemainShillTimesByNFTId",
      "outputs": [
        {
          "internalType": "uint64",
          "name": "",
          "type": "uint64"
        }
      ],
      "stateMutability": "view",
      "type": "function"
    },
    {
      "inputs": [
        {
          "internalType": "uint128",
          "name": "_issue_id",
          "type": "uint128"
        }
      ],
      "name": "getRoyaltyFeeByIssueId",
      "outputs": [
        {
          "internalType": "uint8",
          "name": "",
          "type": "uint8"
        }
      ],
      "stateMutability": "view",
      "type": "function"
    },
    {
      "inputs": [
        {
          "internalType": "uint128",
          "name": "_issue_id",
          "type": "uint128"
        }
      ],
      "name": "getShellTimesByIssyeId",
      "outputs": [
        {
          "internalType": "uint64",
          "name": "",
          "type": "uint64"
        }
      ],
      "stateMutability": "view",
      "type": "function"
    },
    {
      "inputs": [
        {
          "internalType": "uint256",
          "name": "_NFT_id",
          "type": "uint256"
        }
      ],
      "name": "getShillPriceByNFTId",
      "outputs": [
        {
          "internalType": "uint256",
          "name": "",
          "type": "uint256"
        }
      ],
      "stateMutability": "view",
      "type": "function"
    },
    {
      "inputs": [
        {
          "internalType": "uint128",
          "name": "_issue_id",
          "type": "uint128"
        }
      ],
      "name": "getTotalAmountByIssueId",
      "outputs": [
        {
          "internalType": "uint128",
          "name": "",
          "type": "uint128"
        }
      ],
      "stateMutability": "view",
      "type": "function"
    },
    {
      "inputs": [
        {
          "internalType": "uint256",
          "name": "_NFT_id",
          "type": "uint256"
        }
      ],
      "name": "getTransferPriceByNFTId",
      "outputs": [
        {
          "internalType": "uint256",
          "name": "",
          "type": "uint256"
        }
      ],
      "stateMutability": "view",
      "type": "function"
    },
    {
      "inputs": [
        {
          "internalType": "address",
          "name": "owner",
          "type": "address"
        },
        {
          "internalType": "address",
          "name": "operator",
          "type": "address"
        }
      ],
      "name": "isApprovedForAll",
      "outputs": [
        {
          "internalType": "bool",
          "name": "",
          "type": "bool"
        }
      ],
      "stateMutability": "view",
      "type": "function"
    },
    {
      "inputs": [
        {
          "internalType": "uint256",
          "name": "_NFT_id",
          "type": "uint256"
        }
      ],
      "name": "isEditionExist",
      "outputs": [
        {
          "internalType": "bool",
          "name": "",
          "type": "bool"
        }
      ],
      "stateMutability": "view",
      "type": "function"
    },
    {
      "inputs": [
        {
          "internalType": "uint128",
          "name": "_issue_id",
          "type": "uint128"
        }
      ],
      "name": "isIssueExist",
      "outputs": [
        {
          "internalType": "bool",
          "name": "",
          "type": "bool"
        }
      ],
      "stateMutability": "view",
      "type": "function"
    },
    {
      "inputs": [
        {
          "internalType": "uint256",
          "name": "_NFT_id",
          "type": "uint256"
        }
      ],
      "name": "isNFTOnSale",
      "outputs": [
        {
          "internalType": "bool",
          "name": "",
          "type": "bool"
        }
      ],
      "stateMutability": "view",
      "type": "function"
    },
    {
      "inputs": [],
      "name": "name",
      "outputs": [
        {
          "internalType": "string",
          "name": "",
          "type": "string"
        }
      ],
      "stateMutability": "view",
      "type": "function"
    },
    {
      "inputs": [
        {
          "internalType": "uint256",
          "name": "tokenId",
          "type": "uint256"
        }
      ],
      "name": "ownerOf",
      "outputs": [
        {
          "internalType": "address",
          "name": "",
          "type": "address"
        }
      ],
      "stateMutability": "view",
      "type": "function"
    },
    {
      "inputs": [
        {
          "internalType": "uint256",
          "name": "_first_sell_price",
          "type": "uint256"
        },
        {
          "internalType": "uint8",
          "name": "_royalty_fee",
          "type": "uint8"
        },
        {
          "internalType": "uint64",
          "name": "_shill_times",
          "type": "uint64"
        },
        {
          "internalType": "string",
          "name": "_issue_name",
          "type": "string"
        },
        {
          "internalType": "string",
          "name": "_ipfs_hash",
          "type": "string"
        }
      ],
      "name": "publish",
      "outputs": [],
      "stateMutability": "nonpayable",
      "type": "function"
    },
    {
      "inputs": [
        {
          "internalType": "address",
          "name": "from",
          "type": "address"
        },
        {
          "internalType": "address",
          "name": "to",
          "type": "address"
        },
        {
          "internalType": "uint256",
          "name": "NFT_id",
          "type": "uint256"
        }
      ],
      "name": "safeTransferFrom",
      "outputs": [],
      "stateMutability": "payable",
      "type": "function"
    },
    {
      "inputs": [
        {
          "internalType": "address",
          "name": "from",
          "type": "address"
        },
        {
          "internalType": "address",
          "name": "to",
          "type": "address"
        },
        {
          "internalType": "uint256",
          "name": "NFT_id",
          "type": "uint256"
        },
        {
          "internalType": "bytes",
          "name": "_data",
          "type": "bytes"
        }
      ],
      "name": "safeTransferFrom",
      "outputs": [],
      "stateMutability": "payable",
      "type": "function"
    },
    {
      "inputs": [
        {
          "internalType": "address",
          "name": "operator",
          "type": "address"
        },
        {
          "internalType": "bool",
          "name": "approved",
          "type": "bool"
        }
      ],
      "name": "setApprovalForAll",
      "outputs": [],
      "stateMutability": "nonpayable",
      "type": "function"
    },
    {
      "inputs": [
        {
          "internalType": "bytes4",
          "name": "interfaceId",
          "type": "bytes4"
        }
      ],
      "name": "supportsInterface",
      "outputs": [
        {
          "internalType": "bool",
          "name": "",
          "type": "bool"
        }
      ],
      "stateMutability": "view",
      "type": "function"
    },
    {
      "inputs": [],
      "name": "symbol",
      "outputs": [
        {
          "internalType": "string",
          "name": "",
          "type": "string"
        }
      ],
      "stateMutability": "view",
      "type": "function"
    },
    {
      "inputs": [
        {
          "internalType": "uint256",
          "name": "tokenId",
          "type": "uint256"
        }
      ],
      "name": "tokenURI",
      "outputs": [
        {
          "internalType": "string",
          "name": "",
          "type": "string"
        }
      ],
      "stateMutability": "view",
      "type": "function"
    },
    {
      "inputs": [
        {
          "internalType": "address",
          "name": "from",
          "type": "address"
        },
        {
          "internalType": "address",
          "name": "to",
          "type": "address"
        },
        {
          "internalType": "uint256",
          "name": "NFT_id",
          "type": "uint256"
        }
      ],
      "name": "transferFrom",
      "outputs": [],
      "stateMutability": "payable",
      "type": "function"
    }
  ],
  "bytecode": "0x60806040523480156200001157600080fd5b506040805180820190915260088082526714dc185c9ad3919560c21b602090920191825262000043916003916200007c565b506040805180820190915260088082526714dc185c9ad3919560c21b602090920191825262000075916004916200007c565b506200015f565b8280546200008a9062000122565b90600052602060002090601f016020900481019282620000ae5760008555620000f9565b82601f10620000c957805160ff1916838001178555620000f9565b82800160010185558215620000f9579182015b82811115620000f9578251825591602001919060010190620000dc565b50620001079291506200010b565b5090565b5b808211156200010757600081556001016200010c565b6002810460018216806200013757607f821691505b602082108114156200015957634e487b7160e01b600052602260045260246000fd5b50919050565b6131e4806200016f6000396000f3fe6080604052600436106101e35760003560e01c806363bda45211610102578063bd21524f11610095578063cbfe143a11610064578063cbfe143a14610579578063d22dee4814610599578063dc18768e146105b9578063e985e9c5146105d9576101e3565b8063bd21524f146104f9578063bd9825a614610519578063c1f3597f14610539578063c87b56dd14610559576101e3565b806395d89b41116100d157806395d89b4114610491578063a22cb465146104a6578063b0904b51146104c6578063b88d4fde146104e6576101e3565b806363bda452146104115780636e5c75d41461043157806370a082311461045157806381a87fae14610471576101e3565b806323b872dd1161017a57806342842e0e1161014957806342842e0e146103915780634c0c03e2146103a457806353150450146103d15780636352211e146103f1576101e3565b806323b872dd146103115780632d7429d51461032457806335c0d11c1461034457806337d449ba14610364576101e3565b806306fdde03116101b657806306fdde0314610275578063081812fc14610297578063095ea7b3146102c457806314dc4182146102e4576101e3565b806301ffc9a7146101e85780630292ec361461021e57806302f3c4cb14610240578063068d134714610260575b600080fd5b3480156101f457600080fd5b5061020861020336600461241f565b6105f9565b60405161021591906126f3565b60405180910390f35b34801561022a57600080fd5b50610233610641565b6040516102159190612ffd565b34801561024c57600080fd5b5061023361025b366004612457565b610646565b61027361026e36600461247e565b61069c565b005b34801561028157600080fd5b5061028a610892565b60405161021591906126fe565b3480156102a357600080fd5b506102b76102b236600461247e565b610924565b60405161021591906126a2565b3480156102d057600080fd5b506102736102df3660046123f6565b610967565b3480156102f057600080fd5b506103046102ff36600461247e565b6109ff565b6040516102159190612f17565b61027361031f3660046122ec565b610a05565b34801561033057600080fd5b5061028a61033f366004612457565b610b92565b34801561035057600080fd5b5061020861035f36600461247e565b610c64565b34801561037057600080fd5b5061038461037f36600461247e565b610c78565b6040516102159190612f2b565b61027361039f3660046122ec565b610cb5565b3480156103b057600080fd5b506103c46103bf36600461247e565b610dec565b6040516102159190612fe9565b3480156103dd57600080fd5b506102736103ec3660046124eb565b610e37565b3480156103fd57600080fd5b506102b761040c36600461247e565b610f59565b34801561041d57600080fd5b5061038461042c36600461247e565b610f8e565b34801561043d57600080fd5b5061038461044c36600461247e565b610fcc565b34801561045d57600080fd5b5061038461046c3660046122a0565b611009565b34801561047d57600080fd5b5061020861048c36600461247e565b61104d565b34801561049d57600080fd5b5061028a61108d565b3480156104b257600080fd5b506102736104c13660046123bc565b61109c565b3480156104d257600080fd5b506103046104e1366004612457565b61116a565b6102736104f4366004612327565b6111b4565b34801561050557600080fd5b50610273610514366004612496565b6111c6565b34801561052557600080fd5b506102736105343660046124b7565b611286565b34801561054557600080fd5b50610208610554366004612457565b6112e1565b34801561056557600080fd5b5061028a61057436600461247e565b611301565b34801561058557600080fd5b5061028a610594366004612457565b6113f8565b3480156105a557600080fd5b506102736105b436600461247e565b611445565b3480156105c557600080fd5b506103c46105d4366004612457565b61155a565b3480156105e557600080fd5b506102086105f43660046122ba565b6115ad565b60006001600160e01b031982166380ac58cd60e01b148061062a57506001600160e01b03198216635b5e139f60e01b145b806106395750610639826115db565b90505b919050565b605a90565b6000610651826112e1565b6106765760405162461bcd60e51b815260040161066d90612961565b60405180910390fd5b506001600160801b0316600090815260016020526040902054600160801b900460ff1690565b6106a581610c64565b6106c15760405162461bcd60e51b815260040161066d906128de565b60008181526002602052604090206005015461010090046001600160401b03166106fd5760405162461bcd60e51b815260040161066d90612a3d565b600081815260026020526040902060030154341461072d5760405162461bcd60e51b815260040161066d90612c96565b610757604051806040016040528060098152602001683bb79039b4349029a160b91b8152506115f4565b600081815260026020526040902060030154610774908290611637565b61077e813361166d565b506107c06040518060600160405280602a8152602001613185602a913960008381526002602052604090206005015461010090046001600160401b0316611953565b600081815260026020526040902060050180546001919082906107f290829061010090046001600160401b03166130a7565b92506101000a8154816001600160401b0302191690836001600160401b031602179055506108576040518060600160405280602a8152602001613185602a913960008381526002602052604090206005015461010090046001600160401b0316611953565b60008181526002602052604090206005015461010090046001600160401b031661088f5761088d8161088883610f59565b61166d565b505b50565b6060600380546108a190613107565b80601f01602080910402602001604051908101604052809291908181526020018280546108cd90613107565b801561091a5780601f106108ef5761010080835404028352916020019161091a565b820191906000526020600020905b8154815290600101906020018083116108fd57829003601f168201915b5050505050905090565b600061092f82611998565b61094b5760405162461bcd60e51b815260040161066d90612913565b506000908152600760205260409020546001600160a01b031690565b600061097282610f59565b9050806001600160a01b0316836001600160a01b031614156109a65760405162461bcd60e51b815260040161066d90612af0565b806001600160a01b03166109b86119b5565b6001600160a01b031614806109d457506109d4816105f46119b5565b6109f05760405162461bcd60e51b815260040161066d90612a93565b6109fa83836119b9565b505050565b60801c90565b610a16610a106119b5565b82611a27565b610a325760405162461bcd60e51b815260040161066d90612b33565b610a3b81610c64565b610a575760405162461bcd60e51b815260040161066d90612733565b610a6081610f59565b6001600160a01b0316336001600160a01b031614610b7e5760008181526002602052604090206005015460ff16610aa95760405162461bcd60e51b815260040161066d90612803565b600081815260026020819052604090912001543414610ada5760405162461bcd60e51b815260040161066d90612c96565b610afa816002600084815260200190815260200160002060020154611637565b610b0381611445565b610b0e838383611aac565b610b1781611bce565b80826001600160a01b0316846001600160a01b03167f2a9146f1f820a2ad4bad70b49f8d53c935e7a1ceb2a053a98eb50939869fb6046002600086815260200190815260200160002060020154604051610b719190612f2b565b60405180910390a46109fa565b610b8781611445565b6109fa838383611aac565b6060610b9d826112e1565b610bb95760405162461bcd60e51b815260040161066d90612961565b6001600160801b03821660009081526001602052604090206002018054610bdf90613107565b80601f0160208091040260200160405190810160405280929190818152602001828054610c0b90613107565b8015610c585780601f10610c2d57610100808354040283529160200191610c58565b820191906000526020600020905b815481529060010190602001808311610c3b57829003601f168201915b50505050509050919050565b600090815260026020526040902054151590565b6000610c8382610c64565b610c9f5760405162461bcd60e51b815260040161066d90612733565b5060009081526002602052604090206001015490565b610cc0610a106119b5565b610cdc5760405162461bcd60e51b815260040161066d90612b33565b610ce581610c64565b610d015760405162461bcd60e51b815260040161066d90612733565b610d0a81610f59565b6001600160a01b0316336001600160a01b031614610dc85760008181526002602052604090206005015460ff16610d535760405162461bcd60e51b815260040161066d90612803565b600081815260026020819052604090912001543414610d845760405162461bcd60e51b815260040161066d90612c96565b610da4816002600084815260200190815260200160002060020154611637565b610dad81611445565b610b0e83838360405180602001604052806000815250611bf2565b610dd181611445565b6109fa83838360405180602001604052806000815250611bf2565b6000610df782610c64565b610e135760405162461bcd60e51b815260040161066d90612733565b5060009081526002602052604090206005015461010090046001600160401b031690565b60648460ff161115610e5b5760405162461bcd60e51b815260040161066d90612d4f565b610e656000611c2b565b6001600160801b036001600160401b03848116811015610e975760405162461bcd60e51b815260040161066d90612c4a565b816001600160801b0316610eab6000611c34565b1115610ec95760405162461bcd60e51b815260040161066d9061276a565b6000610ed56000611c34565b9050610ee58582888a8c89611c38565b6000610ef082611ce4565b6001600160801b038084166000908152600160205260409081902080549151939450339391909216917f7a103fa30b7d5d60c83010a11b04595fe9b3059a0aa9897858583ec84474240591610f46918691612f34565b60405180910390a3505050505050505050565b6000818152600560205260408120546001600160a01b0316806106395760405162461bcd60e51b815260040161066d90612bbd565b6000610f9982610c64565b610fb55760405162461bcd60e51b815260040161066d90612733565b506000908152600260208190526040909120015490565b6000610fd782610c64565b610ff35760405162461bcd60e51b815260040161066d90612733565b5060009081526002602052604090206003015490565b60006001600160a01b0382166110315760405162461bcd60e51b815260040161066d90612d9a565b506001600160a01b031660009081526006602052604090205490565b600061105882610c64565b6110745760405162461bcd60e51b815260040161066d90612733565b5060009081526002602052604090206005015460ff1690565b6060600480546108a190613107565b6110a46119b5565b6001600160a01b0316826001600160a01b031614156110d55760405162461bcd60e51b815260040161066d90612ccd565b80600860006110e26119b5565b6001600160a01b03908116825260208083019390935260409182016000908120918716808252919093529120805460ff1916921515929092179091556111266119b5565b6001600160a01b03167f17307eab39ab6107e8899845ad3d59bd9653f200f220920489ca2b5937696c318360405161115e91906126f3565b60405180910390a35050565b6000611175826112e1565b6111915760405162461bcd60e51b815260040161066d90612961565b506001600160801b03908116600090815260016020819052604090912001541690565b6111bf858585610cb5565b5050505050565b6111cf82610c64565b6111eb5760405162461bcd60e51b815260040161066d906127b4565b6111f482610f59565b6001600160a01b0316336001600160a01b0316146112245760405162461bcd60e51b815260040161066d9061288e565b600082815260026020819052604091829020908101839055600501805460ff191660011790555182907f55691faf78a66a8f629987df0570bae1220b662a4ff516aa79d575bae95d2dbd9061127a908490612f2b565b60405180910390a25050565b61129083836111c6565b61129a8184610967565b806001600160a01b0316837ff4a74768b55453e2c86384993c2e7f9722347de4754327f64e7a0eb2146dc294846040516112d49190612f2b565b60405180910390a3505050565b6001600160801b0390811660009081526001602052604090205416151590565b606061130c82611998565b6113285760405162461bcd60e51b815260040161066d90612e2c565b6000828152600960205260408120805461134190613107565b80601f016020809104026020016040519081016040528092919081815260200182805461136d90613107565b80156113ba5780601f1061138f576101008083540402835291602001916113ba565b820191906000526020600020905b81548152906001019060200180831161139d57829003601f168201915b5050505050905060006113cb611e5c565b905080826040516020016113e0929190612673565b60405160208183030381529060405292505050919050565b6060611403826112e1565b61141f5760405162461bcd60e51b815260040161066d90612961565b6001600160801b03821660009081526001602052604090206003018054610bdf90613107565b6000818152600260205260408120600401805491905561146482610c78565b156114d6576000828152600260205260408120600401546114b49060018361148b876109ff565b6001600160801b03168152602081019190915260400160002054600160801b900460ff16611e8b565b90506114c86114c284610c78565b82611637565b6114d28183613090565b9150505b6114df82610f59565b6001600160a01b03166108fc829081150290604051600060405180830381858888f19350505050158015611517573d6000803e3d6000fd5b5061152182610f59565b6001600160a01b0316827f3ed1528b0fdc7c5207c1bf935e34a667e13656b9ed165260c522be0bc544f3038360405161115e9190612f2b565b6000611565826112e1565b6115815760405162461bcd60e51b815260040161066d90612961565b506001600160801b0316600090815260016020526040902054600160881b90046001600160401b031690565b6001600160a01b03918216600090815260086020908152604080832093909416825291909152205460ff1690565b6001600160e01b031981166301ffc9a760e01b14919050565b61088f8160405160240161160891906126fe565b60408051601f198184030181529190526020810180516001600160e01b031663104c13eb60e21b179052611ead565b600082815260026020526040902060040154611654908290613039565b6000928352600260205260409092206004019190915550565b6000611699604051806040016040528060098152602001683bb79039b4349029a160b91b8152506115f4565b6001600160801b0360006116ac856109ff565b6001600160801b038082166000908152600160208190526040822081018054949550909390926116de91859116613017565b92506101000a8154816001600160801b0302191690836001600160801b0316021790555061172c604051806040016040528060098152602001683bb79039b4349029a160b91b8152506115f4565b6001600160801b038181166000908152600160208190526040909120015481841691161061176c5760405162461bcd60e51b815260040161066d90612845565b6001600160801b03808216600090815260016020819052604082200154909116906117978383611ece565b60008181526002602081815260408084208581556001600160801b038916855260018084528286205460058301805468ffffffffffffffff001916610100600160881b9093046001600160401b03169290920291909117905581850186905581018d90558c855292909152909120600301549192509061181890605a611e8b565b6000898152600260205260409020600301546118349190613090565b600382015560058101805460ff19169055600060048201556118568783611eeb565b6001600160801b0384166000908152600160205260409020600201805461190591849161188290613107565b80601f01602080910402602001604051908101604052809291908181526020018280546118ae90613107565b80156118fb5780601f106118d0576101008083540402835291602001916118fb565b820191906000526020600020905b8154815290600101906020018083116118de57829003601f168201915b5050505050611f05565b866001600160a01b031688837f249e5b8062792802237b678ba9b5629d4f9f202a9ad65c78d7b7e710e0d784be846040516119409190612ec3565b60405180910390a4509695505050505050565b61088d8282604051602401611969929190612711565b60408051601f198184030181529190526020810180516001600160e01b03166309710a9d60e41b179052611ead565b6000908152600560205260409020546001600160a01b0316151590565b3390565b600081815260076020526040902080546001600160a01b0319166001600160a01b03841690811790915581906119ee82610f59565b6001600160a01b03167f8c5be1e5ebec7d5bd14f71427d1e84f3dd0314c0f7b2291e5b200ac8c7c3b92560405160405180910390a45050565b6000611a3282611998565b611a4e5760405162461bcd60e51b815260040161066d90612e75565b6000611a5983610f59565b9050806001600160a01b0316846001600160a01b03161480611a945750836001600160a01b0316611a8984610924565b6001600160a01b0316145b80611aa45750611aa481856115ad565b949350505050565b826001600160a01b0316611abf82610f59565b6001600160a01b031614611ae55760405162461bcd60e51b815260040161066d90612d04565b6001600160a01b038216611b0b5760405162461bcd60e51b815260040161066d90612de6565b611b166000826119b9565b6001600160a01b0383166000908152600660205260408120805460019290611b3f908490613090565b90915550506001600160a01b0382166000908152600660205260408120805460019290611b6d908490613039565b909155505060008181526005602052604080822080546001600160a01b0319166001600160a01b0386811691821790925591518493918716917fddf252ad1be2c89b69c2b068fc378daa952ba7f163c4a11628f55a4df523b3ef91a4505050565b6000908152600260208190526040822090810191909155600501805460ff19169055565b611bfd848484611aac565b611c0984848484611f49565b611c255760405162461bcd60e51b815260040161066d906129a3565b50505050565b80546001019055565b5490565b6001600160801b038516600090815260016020908152604090912087519091611c689160038401918a0190612170565b5080546001600160401b038616600160881b0267ffffffffffffffff60881b1960ff8716600160801b0260ff60801b196001600160801b038b166001600160801b03199586161716171617825560018201805490911690558151611cd59060028301906020850190612170565b50600401919091555050505050565b6001600160801b0380821660009081526001602081905260408220810180549293919290918491611d1791859116613017565b82546101009290920a6001600160801b038181021990931691831602179091558381166000908152600160208190526040822001549091169150611d5b8483611ece565b6000818152600260208181526040808420858155928301849055600480840185905560058401805460ff198116825560018087018890556001600160801b038d1688529094529190942093840154600384015592546001600160401b03600160881b909104166101000268ffffffffffffffffff1990911617909155909150611de43383611eeb565b6001600160801b03851660009081526001602052604090206002018054611e1091849161188290613107565b336001600160a01b03166000837f249e5b8062792802237b678ba9b5629d4f9f202a9ad65c78d7b7e710e0d784be84604051611e4c9190612ec3565b60405180910390a4509392505050565b60408051808201909152601581527468747470733a2f2f697066732e696f2f697066732f60581b602082015290565b60006064611e9c60ff841685613071565b611ea69190613051565b9392505050565b80516a636f6e736f6c652e6c6f67602083016000808483855afa5050505050565b6001600160801b031660809190911b6001600160801b0319161790565b61088d828260405180602001604052806000815250612064565b611f0e82611998565b611f2a5760405162461bcd60e51b815260040161066d906129f7565b600082815260096020908152604090912082516109fa92840190612170565b6000611f5d846001600160a01b0316612097565b1561205957836001600160a01b031663150b7a02611f796119b5565b8786866040518563ffffffff1660e01b8152600401611f9b94939291906126b6565b602060405180830381600087803b158015611fb557600080fd5b505af1925050508015611fe5575060408051601f3d908101601f19168201909252611fe29181019061243b565b60015b61203f573d808015612013576040519150601f19603f3d011682016040523d82523d6000602084013e612018565b606091505b5080516120375760405162461bcd60e51b815260040161066d906129a3565b805181602001fd5b6001600160e01b031916630a85bd0160e11b149050611aa4565b506001949350505050565b61206e838361209d565b61207b6000848484611f49565b6109fa5760405162461bcd60e51b815260040161066d906129a3565b3b151590565b6001600160a01b0382166120c35760405162461bcd60e51b815260040161066d90612c08565b6120cc81611998565b156120e95760405162461bcd60e51b815260040161066d90612b86565b6001600160a01b0382166000908152600660205260408120805460019290612112908490613039565b909155505060008181526005602052604080822080546001600160a01b0319166001600160a01b03861690811790915590518392907fddf252ad1be2c89b69c2b068fc378daa952ba7f163c4a11628f55a4df523b3ef908290a45050565b82805461217c90613107565b90600052602060002090601f01602090048101928261219e57600085556121e4565b82601f106121b757805160ff19168380011785556121e4565b828001600101855582156121e4579182015b828111156121e45782518255916020019190600101906121c9565b506121f09291506121f4565b5090565b5b808211156121f057600081556001016121f5565b80356001600160a01b038116811461063c57600080fd5b600082601f830112612230578081fd5b81356001600160401b038082111561224a5761224a613158565b604051601f8301601f19168101602001828111828210171561226e5761226e613158565b604052828152848301602001861015612285578384fd5b82602086016020830137918201602001929092529392505050565b6000602082840312156122b1578081fd5b611ea682612209565b600080604083850312156122cc578081fd5b6122d583612209565b91506122e360208401612209565b90509250929050565b600080600060608486031215612300578081fd5b61230984612209565b925061231760208501612209565b9150604084013590509250925092565b60008060008060006080868803121561233e578081fd5b61234786612209565b945061235560208701612209565b93506040860135925060608601356001600160401b0380821115612377578283fd5b818801915088601f83011261238a578283fd5b813581811115612398578384fd5b8960208285010111156123a9578384fd5b9699959850939650602001949392505050565b600080604083850312156123ce578182fd5b6123d783612209565b9150602083013580151581146123eb578182fd5b809150509250929050565b60008060408385031215612408578182fd5b61241183612209565b946020939093013593505050565b600060208284031215612430578081fd5b8135611ea68161316e565b60006020828403121561244c578081fd5b8151611ea68161316e565b600060208284031215612468578081fd5b81356001600160801b0381168114611ea6578182fd5b60006020828403121561248f578081fd5b5035919050565b600080604083850312156124a8578182fd5b50508035926020909101359150565b6000806000606084860312156124cb578283fd5b83359250602084013591506124e260408501612209565b90509250925092565b600080600080600060a08688031215612502578081fd5b85359450602086013560ff81168114612519578182fd5b935060408601356001600160401b038082168214612535578283fd5b9093506060870135908082111561254a578283fd5b61255689838a01612220565b9350608088013591508082111561256b578283fd5b5061257888828901612220565b9150509295509295909350565b6000815180845261259d8160208601602086016130db565b601f01601f19169290920160200192915050565b8054600090600281046001808316806125cb57607f831692505b60208084108214156125eb57634e487b7160e01b86526022600452602486fd5b6125f58489612f2b565b828015612609576001811461261a57612645565b60ff19871682528282019750612645565b6126238961300b565b60005b8781101561263f57815484820152908601908401612626565b83019850505b5050505050505092915050565b6001600160801b03169052565b6001600160401b03169052565b60ff169052565b600083516126858184602088016130db565b8351908301906126998183602088016130db565b01949350505050565b6001600160a01b0391909116815260200190565b6001600160a01b03858116825284166020820152604081018390526080606082018190526000906126e990830184612585565b9695505050505050565b901515815260200190565b600060208252611ea66020830184612585565b6000604082526127246040830185612585565b90508260208301529392505050565b6020808252601f908201527f537061726b4e46543a2045646974696f6e206973206e6f742065786973742e00604082015260600190565b6020808252602a908201527f537061726b4e46543a20497373756520696420646f65736e27742066697420696040820152696e20313238206269747360b01b606082015260800190565b6020808252602f908201527f537061726b4e46543a20546865204e465420796f752077616e7420746f20627560408201526e3c9034b9903737ba1032bc34b9ba1760891b606082015260800190565b60208082526022908201527f537061726b4e46543a2054686973204e4654206973206e6f74206f6e2073616c604082015261329760f11b606082015260800190565b60208082526029908201527f537061726b4e46543a205468657265206973206e6f206c65667420696e20746860408201526834b99034b9b9bab29760b91b606082015260800190565b60208082526030908201527f537061726b4e46543a204e465427732070726963652073686f756c642073657460408201526f10313c9037b73bb2b91037b31034ba1760811b606082015260800190565b6020808252818101527f537061726b4e46543a2054686973204e4654206973206e6f742065786973742e604082015260600190565b6020808252602e908201527f537061726b4e46543a20617070726f76656420717565727920666f72206e6f6e60408201526d32bc34b9ba32b73a103a37b5b2b760911b606082015260800190565b60208082526022908201527f537061726b4e46543a2054686973206973737565206973206e6f7420657869736040820152613a1760f11b606082015260800190565b60208082526034908201527f537061726b4e46543a207472616e7366657220746f206e6f6e204552433732316040820152732932b1b2b4bb32b91034b6b83632b6b2b73a32b960611b606082015260800190565b60208082526026908201527f537061726b4e46543a2055524920736574206f66206e6f6e6578697374656e74604082015265103a37b5b2b760d11b606082015260800190565b60208082526036908201527f537061726b4e46543a205468657265206973206e6f2072656d61696e207368696040820152753636103a34b6b2b9903337b9103a3434b99027232a1760511b606082015260800190565b6020808252603a908201527f537061726b4e46543a20617070726f76652063616c6c6572206973206e6f742060408201527f6f776e6572206e6f7220617070726f76656420666f7220616c6c000000000000606082015260800190565b60208082526023908201527f537061726b4e46543a20617070726f76616c20746f2063757272656e74206f776040820152623732b960e91b606082015260800190565b60208082526033908201527f537061726b4e46543a207472616e736665722063616c6c6572206973206e6f74604082015272081bdddb995c881b9bdc88185c1c1c9bdd9959606a1b606082015260800190565b6020808252601e908201527f537061726b4e46543a20746f6b656e20616c7265616479206d696e7465640000604082015260600190565b6020808252602b908201527f537061726b4e46543a206f776e657220717565727920666f72206e6f6e65786960408201526a39ba32b73a103a37b5b2b760a91b606082015260800190565b60208082526022908201527f537061726b4e46543a206d696e7420746f20746865207a65726f206164647265604082015261737360f01b606082015260800190565b6020808252602c908201527f537061726b4e46543a205368696c6c5f74696d657320646f65736e277420666960408201526b7420696e203634206269747360a01b606082015260800190565b60208082526019908201527f537061726b4e46543a206e6f7420656e6f756768742045544800000000000000604082015260600190565b6020808252601b908201527f537061726b4e46543a20617070726f766520746f2063616c6c65720000000000604082015260600190565b6020808252602b908201527f537061726b4e46543a207472616e73666572206f6620746f6b656e207468617460408201526a1034b9903737ba1037bbb760a91b606082015260800190565b6020808252602b908201527f537061726b4e46543a20526f79616c7479206665652073686f756c64206c657360408201526a39903a3430b7101898181760a91b606082015260800190565b6020808252602c908201527f537061726b4e46543a2062616c616e636520717565727920666f72207468652060408201526b7a65726f206164647265737360a01b606082015260800190565b60208082526026908201527f537061726b4e46543a207472616e7366657220746f20746865207a65726f206160408201526564647265737360d01b606082015260800190565b60208082526029908201527f537061726b4e46543a2055524920717565727920666f72206e6f6e657869737460408201526832b73a103a37b5b2b760b91b606082015260800190565b6020808252602e908201527f537061726b4e46543a206f70657261746f7220717565727920666f72206e6f6e60408201526d32bc34b9ba32b73a103a37b5b2b760911b606082015260800190565b815481526001820154602082015260028201546040820152600382015460608201526004820154608082015260059091015460ff8116151560a083015260081c6001600160401b031660c082015260e00190565b6001600160801b0391909116815260200190565b90815260200190565b6000838252604060208301528254612f58604084016001600160801b038316612652565b612f6b6060840160ff8360801c1661266c565b612f84608084016001600160401b038360881c1661265f565b50612f9260018401546130cf565b612f9f60a0840182612652565b5060e060c0830152612fb86101208301600285016125b1565b828103603f190160e0840152612fd181600386016125b1565b90506004840154610100840152809150509392505050565b6001600160401b0391909116815260200190565b60ff91909116815260200190565b60009081526020902090565b60006001600160801b0380831681851680830382111561269957612699613142565b6000821982111561304c5761304c613142565b500190565b60008261306c57634e487b7160e01b81526012600452602481fd5b500490565b600081600019048311821515161561308b5761308b613142565b500290565b6000828210156130a2576130a2613142565b500390565b60006001600160401b03838116908316818110156130c7576130c7613142565b039392505050565b6001600160801b031690565b60005b838110156130f65781810151838201526020016130de565b83811115611c255750506000910152565b60028104600182168061311b57607f821691505b6020821081141561313c57634e487b7160e01b600052602260045260246000fd5b50919050565b634e487b7160e01b600052601160045260246000fd5b634e487b7160e01b600052604160045260246000fd5b6001600160e01b03198116811461088f57600080fdfe65646974696f6e735f62795f69645b5f4e46545f69645d2e72656d61696e5f7368696c6c5f74696d6573a2646970667358221220d2df8fd6f81a64998c08377a1795340f5e0454d4bfb7f9ac4edb011269e1363464736f6c63430008000033",
  "linkReferences": {},
  "deployedLinkReferences": {}
}