{
  "_format": "hh-sol-artifact-1",
  "contractName": "SparkLink",
  "sourceName": "contracts/SparkLink.sol",
  "abi": [
    {
      "inputs": [
        {
          "internalType": "address",
          "name": "DAO_router_address01",
          "type": "address"
        },
        {
          "internalType": "address",
          "name": "DAO_router_address02",
          "type": "address"
        },
        {
          "internalType": "address",
          "name": "uniswapRouterAddress",
          "type": "address"
        },
        {
          "internalType": "address",
          "name": "factoryAddress",
          "type": "address"
        }
      ],
      "stateMutability": "nonpayable",
      "type": "constructor"
    },
    {
      "anonymous": false,
      "inputs": [
        {
          "indexed": true,
          "internalType": "address",
          "name": "owner",
          "type": "address"
        },
        {
          "indexed": true,
          "internalType": "address",
          "name": "approved",
          "type": "address"
        },
        {
          "indexed": true,
          "internalType": "uint256",
          "name": "tokenId",
          "type": "uint256"
        }
      ],
      "name": "Approval",
      "type": "event"
    },
    {
      "anonymous": false,
      "inputs": [
        {
          "indexed": true,
          "internalType": "address",
          "name": "owner",
          "type": "address"
        },
        {
          "indexed": true,
          "internalType": "address",
          "name": "operator",
          "type": "address"
        },
        {
          "indexed": false,
          "internalType": "bool",
          "name": "approved",
          "type": "bool"
        }
      ],
      "name": "ApprovalForAll",
      "type": "event"
    },
    {
      "anonymous": false,
      "inputs": [
        {
          "indexed": true,
          "internalType": "uint64",
          "name": "NFT_id",
          "type": "uint64"
        },
        {
          "indexed": true,
          "internalType": "address",
          "name": "receiver",
          "type": "address"
        },
        {
          "indexed": false,
          "internalType": "uint128",
          "name": "amount",
          "type": "uint128"
        }
      ],
      "name": "Claim",
      "type": "event"
    },
    {
      "anonymous": false,
      "inputs": [
        {
          "indexed": true,
          "internalType": "uint64",
          "name": "NFT_id",
          "type": "uint64"
        },
        {
          "indexed": false,
          "internalType": "uint128",
          "name": "transfer_price",
          "type": "uint128"
        }
      ],
      "name": "DeterminePrice",
      "type": "event"
    },
    {
      "anonymous": false,
      "inputs": [
        {
          "indexed": true,
          "internalType": "uint64",
          "name": "NFT_id",
          "type": "uint64"
        },
        {
          "indexed": false,
          "internalType": "uint128",
          "name": "transfer_price",
          "type": "uint128"
        },
        {
          "indexed": true,
          "internalType": "address",
          "name": "to",
          "type": "address"
        }
      ],
      "name": "DeterminePriceAndApprove",
      "type": "event"
    },
    {
      "anonymous": false,
      "inputs": [
        {
          "indexed": true,
          "internalType": "uint64",
          "name": "NFT_id",
          "type": "uint64"
        },
        {
          "indexed": false,
          "internalType": "string",
          "name": "content",
          "type": "string"
        }
      ],
      "name": "Label",
      "type": "event"
    },
    {
      "anonymous": false,
      "inputs": [
        {
          "indexed": true,
          "internalType": "address",
          "name": "previousOwner",
          "type": "address"
        },
        {
          "indexed": true,
          "internalType": "address",
          "name": "newOwner",
          "type": "address"
        }
      ],
      "name": "OwnershipTransferred",
      "type": "event"
    },
    {
      "anonymous": false,
      "inputs": [
        {
          "indexed": true,
          "internalType": "address",
          "name": "publisher",
          "type": "address"
        },
        {
          "indexed": true,
          "internalType": "uint64",
          "name": "rootNFTId",
          "type": "uint64"
        },
        {
          "indexed": false,
          "internalType": "address",
          "name": "token_addr",
          "type": "address"
        }
      ],
      "name": "Publish",
      "type": "event"
    },
    {
      "anonymous": false,
      "inputs": [
        {
          "indexed": false,
          "internalType": "uint8",
          "name": "old_DAO_fee",
          "type": "uint8"
        },
        {
          "indexed": false,
          "internalType": "uint8",
          "name": "new_DAO_fee",
          "type": "uint8"
        }
      ],
      "name": "SetDAOFee",
      "type": "event"
    },
    {
      "anonymous": false,
      "inputs": [
        {
          "indexed": false,
          "internalType": "address",
          "name": "old_router_address",
          "type": "address"
        },
        {
          "indexed": false,
          "internalType": "address",
          "name": "new_router_address",
          "type": "address"
        }
      ],
      "name": "SetDAORouter01",
      "type": "event"
    },
    {
      "anonymous": false,
      "inputs": [
        {
          "indexed": false,
          "internalType": "address",
          "name": "old_router_address",
          "type": "address"
        },
        {
          "indexed": false,
          "internalType": "address",
          "name": "new_router_address",
          "type": "address"
        }
      ],
      "name": "SetDAORouter02",
      "type": "event"
    },
    {
      "anonymous": false,
      "inputs": [
        {
          "indexed": false,
          "internalType": "uint8",
          "name": "old_loss_ratio",
          "type": "uint8"
        },
        {
          "indexed": false,
          "internalType": "uint8",
          "name": "new_loss_ratio",
          "type": "uint8"
        }
      ],
      "name": "SetLoosRatio",
      "type": "event"
    },
    {
      "anonymous": false,
      "inputs": [
        {
          "indexed": true,
          "internalType": "uint64",
          "name": "NFT_id",
          "type": "uint64"
        },
        {
          "indexed": false,
          "internalType": "bytes32",
          "name": "old_URI",
          "type": "bytes32"
        },
        {
          "indexed": false,
          "internalType": "bytes32",
          "name": "new_URI",
          "type": "bytes32"
        }
      ],
      "name": "SetURI",
      "type": "event"
    },
    {
      "anonymous": false,
      "inputs": [
        {
          "indexed": true,
          "internalType": "address",
          "name": "from",
          "type": "address"
        },
        {
          "indexed": true,
          "internalType": "address",
          "name": "to",
          "type": "address"
        },
        {
          "indexed": true,
          "internalType": "uint256",
          "name": "tokenId",
          "type": "uint256"
        }
      ],
      "name": "Transfer",
      "type": "event"
    },
    {
      "inputs": [],
      "name": "DAO_fee",
      "outputs": [
        {
          "internalType": "uint8",
          "name": "",
          "type": "uint8"
        }
      ],
      "stateMutability": "view",
      "type": "function"
    },
    {
      "inputs": [],
      "name": "DAO_router01",
      "outputs": [
        {
          "internalType": "address",
          "name": "",
          "type": "address"
        }
      ],
      "stateMutability": "view",
      "type": "function"
    },
    {
      "inputs": [],
      "name": "DAO_router02",
      "outputs": [
        {
          "internalType": "address",
          "name": "",
          "type": "address"
        }
      ],
      "stateMutability": "view",
      "type": "function"
    },
    {
      "inputs": [],
      "name": "MAX_DAO_FEE",
      "outputs": [
        {
          "internalType": "uint8",
          "name": "",
          "type": "uint8"
        }
      ],
      "stateMutability": "view",
      "type": "function"
    },
    {
      "inputs": [],
      "name": "MAX_LOSS_RATIO",
      "outputs": [
        {
          "internalType": "uint8",
          "name": "",
          "type": "uint8"
        }
      ],
      "stateMutability": "view",
      "type": "function"
    },
    {
      "inputs": [
        {
          "internalType": "uint64",
          "name": "_NFT_id",
          "type": "uint64"
        }
      ],
      "name": "acceptShill",
      "outputs": [],
      "stateMutability": "payable",
      "type": "function"
    },
    {
      "inputs": [
        {
          "internalType": "address",
          "name": "to",
          "type": "address"
        },
        {
          "internalType": "uint256",
          "name": "tokenId",
          "type": "uint256"
        }
      ],
      "name": "approve",
      "outputs": [],
      "stateMutability": "nonpayable",
      "type": "function"
    },
    {
      "inputs": [
        {
          "internalType": "address",
          "name": "owner",
          "type": "address"
        }
      ],
      "name": "balanceOf",
      "outputs": [
        {
          "internalType": "uint256",
          "name": "",
          "type": "uint256"
        }
      ],
      "stateMutability": "view",
      "type": "function"
    },
    {
      "inputs": [
        {
          "internalType": "uint64",
          "name": "_NFT_id",
          "type": "uint64"
        }
      ],
      "name": "claimProfit",
      "outputs": [],
      "stateMutability": "nonpayable",
      "type": "function"
    },
    {
      "inputs": [
        {
          "internalType": "uint64",
          "name": "_NFT_id",
          "type": "uint64"
        },
        {
          "internalType": "uint128",
          "name": "_price",
          "type": "uint128"
        }
      ],
      "name": "determinePrice",
      "outputs": [],
      "stateMutability": "nonpayable",
      "type": "function"
    },
    {
      "inputs": [
        {
          "internalType": "uint64",
          "name": "_NFT_id",
          "type": "uint64"
        },
        {
          "internalType": "uint128",
          "name": "_price",
          "type": "uint128"
        },
        {
          "internalType": "address",
          "name": "_to",
          "type": "address"
        }
      ],
      "name": "determinePriceAndApprove",
      "outputs": [],
      "stateMutability": "nonpayable",
      "type": "function"
    },
    {
      "inputs": [
        {
          "internalType": "uint256",
          "name": "tokenId",
          "type": "uint256"
        }
      ],
      "name": "getApproved",
      "outputs": [
        {
          "internalType": "address",
          "name": "",
          "type": "address"
        }
      ],
      "stateMutability": "view",
      "type": "function"
    },
    {
      "inputs": [
        {
          "internalType": "uint64",
          "name": "_NFT_id",
          "type": "uint64"
        }
      ],
      "name": "getDepthByNFTId",
      "outputs": [
        {
          "internalType": "uint64",
          "name": "",
          "type": "uint64"
        }
      ],
      "stateMutability": "view",
      "type": "function"
    },
    {
      "inputs": [
        {
          "internalType": "uint64",
          "name": "_NFT_id",
          "type": "uint64"
        }
      ],
      "name": "getEditionIdByNFTId",
      "outputs": [
        {
          "internalType": "uint32",
          "name": "",
          "type": "uint32"
        }
      ],
      "stateMutability": "pure",
      "type": "function"
    },
    {
      "inputs": [
        {
          "internalType": "uint64",
          "name": "_NFT_id",
          "type": "uint64"
        }
      ],
      "name": "getFatherByNFTId",
      "outputs": [
        {
          "internalType": "uint64",
          "name": "",
          "type": "uint64"
        }
      ],
      "stateMutability": "view",
      "type": "function"
    },
    {
      "inputs": [
        {
          "internalType": "uint64",
          "name": "_NFT_id",
          "type": "uint64"
        }
      ],
      "name": "getIsFreeByNFTId",
      "outputs": [
        {
          "internalType": "bool",
          "name": "",
          "type": "bool"
        }
      ],
      "stateMutability": "view",
      "type": "function"
    },
    {
      "inputs": [
        {
          "internalType": "uint64",
          "name": "_NFT_id",
          "type": "uint64"
        }
      ],
      "name": "getIsNCByNFTId",
      "outputs": [
        {
          "internalType": "bool",
          "name": "",
          "type": "bool"
        }
      ],
      "stateMutability": "view",
      "type": "function"
    },
    {
      "inputs": [
        {
          "internalType": "uint64",
          "name": "_NFT_id",
          "type": "uint64"
        }
      ],
      "name": "getIsNDByNFTId",
      "outputs": [
        {
          "internalType": "bool",
          "name": "",
          "type": "bool"
        }
      ],
      "stateMutability": "view",
      "type": "function"
    },
    {
      "inputs": [],
      "name": "getLossRatio",
      "outputs": [
        {
          "internalType": "uint8",
          "name": "",
          "type": "uint8"
        }
      ],
      "stateMutability": "view",
      "type": "function"
    },
    {
      "inputs": [
        {
          "internalType": "uint64",
          "name": "_NFT_id",
          "type": "uint64"
        }
      ],
      "name": "getNFTInfoByNFTID",
      "outputs": [
        {
          "internalType": "uint64",
          "name": "issue_information",
          "type": "uint64"
        },
        {
          "internalType": "uint64",
          "name": "father_id",
          "type": "uint64"
        },
        {
          "internalType": "uint128",
          "name": "shill_price",
          "type": "uint128"
        },
        {
          "internalType": "uint16",
          "name": "remain_shill_times",
          "type": "uint16"
        },
        {
          "internalType": "uint128",
          "name": "profit",
          "type": "uint128"
        },
        {
          "internalType": "string",
          "name": "metadata",
          "type": "string"
        }
      ],
      "stateMutability": "view",
      "type": "function"
    },
    {
      "inputs": [
        {
          "internalType": "uint64",
          "name": "_NFT_id",
          "type": "uint64"
        }
      ],
      "name": "getProfitByNFTId",
      "outputs": [
        {
          "internalType": "uint128",
          "name": "",
          "type": "uint128"
        }
      ],
      "stateMutability": "view",
      "type": "function"
    },
    {
      "inputs": [
        {
          "internalType": "uint64",
          "name": "_NFT_id",
          "type": "uint64"
        }
      ],
      "name": "getRemainShillTimesByNFTId",
      "outputs": [
        {
          "internalType": "uint16",
          "name": "",
          "type": "uint16"
        }
      ],
      "stateMutability": "view",
      "type": "function"
    },
    {
      "inputs": [
        {
          "internalType": "uint64",
          "name": "_NFT_id",
          "type": "uint64"
        }
      ],
      "name": "getRootNFTIdByNFTId",
      "outputs": [
        {
          "internalType": "uint64",
          "name": "",
          "type": "uint64"
        }
      ],
      "stateMutability": "pure",
      "type": "function"
    },
    {
      "inputs": [
        {
          "internalType": "uint64",
          "name": "_NFT_id",
          "type": "uint64"
        }
      ],
      "name": "getRoyaltyFeeByNFTId",
      "outputs": [
        {
          "internalType": "uint8",
          "name": "",
          "type": "uint8"
        }
      ],
      "stateMutability": "view",
      "type": "function"
    },
    {
      "inputs": [
        {
          "internalType": "uint64",
          "name": "_NFT_id",
          "type": "uint64"
        }
      ],
      "name": "getShillPriceByNFTId",
      "outputs": [
        {
          "internalType": "uint128",
          "name": "",
          "type": "uint128"
        }
      ],
      "stateMutability": "view",
      "type": "function"
    },
    {
      "inputs": [
        {
          "internalType": "uint64",
          "name": "_NFT_id",
          "type": "uint64"
        }
      ],
      "name": "getShillTimesByNFTId",
      "outputs": [
        {
          "internalType": "uint16",
          "name": "",
          "type": "uint16"
        }
      ],
      "stateMutability": "view",
      "type": "function"
    },
    {
      "inputs": [
        {
          "internalType": "uint64",
          "name": "_NFT_id",
          "type": "uint64"
        }
      ],
      "name": "getTokenAddrByNFTId",
      "outputs": [
        {
          "internalType": "address",
          "name": "",
          "type": "address"
        }
      ],
      "stateMutability": "view",
      "type": "function"
    },
    {
      "inputs": [
        {
          "internalType": "uint64",
          "name": "_NFT_id",
          "type": "uint64"
        }
      ],
      "name": "getTotalAmountByNFTId",
      "outputs": [
        {
          "internalType": "uint32",
          "name": "",
          "type": "uint32"
        }
      ],
      "stateMutability": "view",
      "type": "function"
    },
    {
      "inputs": [
        {
          "internalType": "uint64",
          "name": "_NFT_id",
          "type": "uint64"
        }
      ],
      "name": "getTransferPriceByNFTId",
      "outputs": [
        {
          "internalType": "uint128",
          "name": "",
          "type": "uint128"
        }
      ],
      "stateMutability": "view",
      "type": "function"
    },
    {
      "inputs": [
        {
          "internalType": "address",
          "name": "owner",
          "type": "address"
        },
        {
          "internalType": "address",
          "name": "operator",
          "type": "address"
        }
      ],
      "name": "isApprovedForAll",
      "outputs": [
        {
          "internalType": "bool",
          "name": "",
          "type": "bool"
        }
      ],
      "stateMutability": "view",
      "type": "function"
    },
    {
      "inputs": [
        {
          "internalType": "uint64",
          "name": "_NFT_id",
          "type": "uint64"
        }
      ],
      "name": "isEditionExisting",
      "outputs": [
        {
          "internalType": "bool",
          "name": "",
          "type": "bool"
        }
      ],
      "stateMutability": "view",
      "type": "function"
    },
    {
      "inputs": [
        {
          "internalType": "uint64",
          "name": "_NFT_id",
          "type": "uint64"
        }
      ],
      "name": "isRootNFT",
      "outputs": [
        {
          "internalType": "bool",
          "name": "",
          "type": "bool"
        }
      ],
      "stateMutability": "pure",
      "type": "function"
    },
    {
      "inputs": [
        {
          "internalType": "uint64",
          "name": "_NFT_id",
          "type": "uint64"
        },
        {
          "internalType": "string",
          "name": "content",
          "type": "string"
        }
      ],
      "name": "label",
      "outputs": [],
      "stateMutability": "nonpayable",
      "type": "function"
    },
    {
      "inputs": [],
      "name": "loss_ratio",
      "outputs": [
        {
          "internalType": "uint8",
          "name": "",
          "type": "uint8"
        }
      ],
      "stateMutability": "view",
      "type": "function"
    },
    {
      "inputs": [],
      "name": "name",
      "outputs": [
        {
          "internalType": "string",
          "name": "",
          "type": "string"
        }
      ],
      "stateMutability": "view",
      "type": "function"
    },
    {
      "inputs": [],
      "name": "owner",
      "outputs": [
        {
          "internalType": "address",
          "name": "",
          "type": "address"
        }
      ],
      "stateMutability": "view",
      "type": "function"
    },
    {
      "inputs": [
        {
          "internalType": "uint256",
          "name": "tokenId",
          "type": "uint256"
        }
      ],
      "name": "ownerOf",
      "outputs": [
        {
          "internalType": "address",
          "name": "",
          "type": "address"
        }
      ],
      "stateMutability": "view",
      "type": "function"
    },
    {
      "inputs": [
        {
          "internalType": "uint128",
          "name": "_first_sell_price",
          "type": "uint128"
        },
        {
          "internalType": "uint8",
          "name": "_royalty_fee",
          "type": "uint8"
        },
        {
          "internalType": "uint16",
          "name": "_shill_times",
          "type": "uint16"
        },
        {
          "internalType": "bytes32",
          "name": "_ipfs_hash",
          "type": "bytes32"
        },
        {
          "internalType": "address",
          "name": "_token_addr",
          "type": "address"
        },
        {
          "internalType": "bool",
          "name": "_is_free",
          "type": "bool"
        },
        {
          "internalType": "bool",
          "name": "_is_NC",
          "type": "bool"
        },
        {
          "internalType": "bool",
          "name": "_is_ND",
          "type": "bool"
        }
      ],
      "name": "publish",
      "outputs": [],
      "stateMutability": "nonpayable",
      "type": "function"
    },
    {
      "inputs": [],
      "name": "renounceOwnership",
      "outputs": [],
      "stateMutability": "nonpayable",
      "type": "function"
    },
    {
      "inputs": [
        {
          "internalType": "address",
          "name": "from",
          "type": "address"
        },
        {
          "internalType": "address",
          "name": "to",
          "type": "address"
        },
        {
          "internalType": "uint256",
          "name": "tokenId",
          "type": "uint256"
        }
      ],
      "name": "safeTransferFrom",
      "outputs": [],
      "stateMutability": "payable",
      "type": "function"
    },
    {
      "inputs": [
        {
          "internalType": "address",
          "name": "from",
          "type": "address"
        },
        {
          "internalType": "address",
          "name": "to",
          "type": "address"
        },
        {
          "internalType": "uint256",
          "name": "tokenId",
          "type": "uint256"
        },
        {
          "internalType": "bytes",
          "name": "_data",
          "type": "bytes"
        }
      ],
      "name": "safeTransferFrom",
      "outputs": [],
      "stateMutability": "payable",
      "type": "function"
    },
    {
      "inputs": [
        {
          "internalType": "address",
          "name": "operator",
          "type": "address"
        },
        {
          "internalType": "bool",
          "name": "approved",
          "type": "bool"
        }
      ],
      "name": "setApprovalForAll",
      "outputs": [],
      "stateMutability": "nonpayable",
      "type": "function"
    },
    {
      "inputs": [
        {
          "internalType": "uint8",
          "name": "_DAO_fee",
          "type": "uint8"
        }
      ],
      "name": "setDAOFee",
      "outputs": [],
      "stateMutability": "nonpayable",
      "type": "function"
    },
    {
      "inputs": [
        {
          "internalType": "address",
          "name": "_DAO_router01",
          "type": "address"
        }
      ],
      "name": "setDAORouter01",
      "outputs": [],
      "stateMutability": "nonpayable",
      "type": "function"
    },
    {
      "inputs": [
        {
          "internalType": "address",
          "name": "_DAO_router02",
          "type": "address"
        }
      ],
      "name": "setDAORouter02",
      "outputs": [],
      "stateMutability": "nonpayable",
      "type": "function"
    },
    {
      "inputs": [
        {
          "internalType": "uint8",
          "name": "_loss_ratio",
          "type": "uint8"
        }
      ],
      "name": "setLoosRatio",
      "outputs": [],
      "stateMutability": "nonpayable",
      "type": "function"
    },
    {
      "inputs": [
        {
          "internalType": "uint64",
          "name": "_NFT_id",
          "type": "uint64"
        },
        {
          "internalType": "bytes32",
          "name": "ipfs_hash",
          "type": "bytes32"
        }
      ],
      "name": "setURI",
      "outputs": [],
      "stateMutability": "nonpayable",
      "type": "function"
    },
    {
      "inputs": [
        {
          "internalType": "address",
          "name": "_uniswapV2Factory",
          "type": "address"
        }
      ],
      "name": "setUniswapV2Factory",
      "outputs": [],
      "stateMutability": "nonpayable",
      "type": "function"
    },
    {
      "inputs": [
        {
          "internalType": "address",
          "name": "_uniswapV2Router",
          "type": "address"
        }
      ],
      "name": "setUniswapV2Router",
      "outputs": [],
      "stateMutability": "nonpayable",
      "type": "function"
    },
    {
      "inputs": [
        {
          "internalType": "bytes4",
          "name": "interfaceId",
          "type": "bytes4"
        }
      ],
      "name": "supportsInterface",
      "outputs": [
        {
          "internalType": "bool",
          "name": "",
          "type": "bool"
        }
      ],
      "stateMutability": "view",
      "type": "function"
    },
    {
      "inputs": [],
      "name": "symbol",
      "outputs": [
        {
          "internalType": "string",
          "name": "",
          "type": "string"
        }
      ],
      "stateMutability": "view",
      "type": "function"
    },
    {
      "inputs": [
        {
          "internalType": "uint256",
          "name": "tokenId",
          "type": "uint256"
        }
      ],
      "name": "tokenURI",
      "outputs": [
        {
          "internalType": "string",
          "name": "",
          "type": "string"
        }
      ],
      "stateMutability": "view",
      "type": "function"
    },
    {
      "inputs": [
        {
          "internalType": "address",
          "name": "from",
          "type": "address"
        },
        {
          "internalType": "address",
          "name": "to",
          "type": "address"
        },
        {
          "internalType": "uint256",
          "name": "tokenId",
          "type": "uint256"
        }
      ],
      "name": "transferFrom",
      "outputs": [],
      "stateMutability": "payable",
      "type": "function"
    },
    {
      "inputs": [
        {
          "internalType": "address",
          "name": "newOwner",
          "type": "address"
        }
      ],
      "name": "transferOwnership",
      "outputs": [],
      "stateMutability": "nonpayable",
      "type": "function"
    },
    {
      "inputs": [],
      "name": "uniswapV2Factory",
      "outputs": [
        {
          "internalType": "contract IUniswapV2Factory",
          "name": "",
          "type": "address"
        }
      ],
      "stateMutability": "view",
      "type": "function"
    },
    {
      "inputs": [],
      "name": "uniswapV2Router",
      "outputs": [
        {
          "internalType": "contract IUniswapV2Router02",
          "name": "",
          "type": "address"
        }
      ],
      "stateMutability": "view",
      "type": "function"
    },
    {
      "inputs": [
        {
          "internalType": "uint64",
          "name": "_NFT_id",
          "type": "uint64"
        }
      ],
      "name": "updateURI",
      "outputs": [],
      "stateMutability": "nonpayable",
      "type": "function"
    }
  ],
  "bytecode": "0x60806040526004805461ffff191661023e1790553480156200002057600080fd5b5060405162004f2538038062004f25833981016040819052620000439162000222565b6200004e336200010f565b600680546001600160a01b03199081166001600160a01b03858116919091179092556007805482168484161790556004805462010000600160b01b03191662010000888516021790556005805490911691851691909117905560408051808201909152600980825268537061726b4c696e6b60b81b6020909201918252620000d9916002916200015f565b506040805180820190915260038082526214d41360ea1b60209092019182526200010491816200015f565b5050505050620002bb565b600080546001600160a01b038381166001600160a01b0319831681178455604051919092169283917f8be0079c531659141344cd1fd0a4f28419497f9722a3daafe3b4186f6b6457e09190a35050565b8280546200016d906200027e565b90600052602060002090601f016020900481019282620001915760008555620001dc565b82601f10620001ac57805160ff1916838001178555620001dc565b82800160010185558215620001dc579182015b82811115620001dc578251825591602001919060010190620001bf565b50620001ea929150620001ee565b5090565b5b80821115620001ea5760008155600101620001ef565b80516001600160a01b03811681146200021d57600080fd5b919050565b6000806000806080858703121562000238578384fd5b620002438562000205565b9350620002536020860162000205565b9250620002636040860162000205565b9150620002736060860162000205565b905092959194509250565b600181811c908216806200029357607f821691505b60208210811415620002b557634e487b7160e01b600052602260045260246000fd5b50919050565b614c5a80620002cb6000396000f3fe6080604052600436106103765760003560e01c80637098da84116101d1578063bbe07d7911610102578063d8d17e79116100a0578063f2fde38b1161006f578063f2fde38b14610aa1578063f6e9274d14610ac1578063fee0329914610ae1578063ff0eac4514610b0157600080fd5b8063d8d17e79146109f8578063e985e9c514610a18578063e9a5a37214610a61578063f1ac67d314610a8157600080fd5b8063bf1a9657116100dc578063bf1a965714610964578063c87b56dd14610999578063ce51ba90146109b9578063cfc02f5f146109d957600080fd5b8063bbe07d7914610911578063bd3355ed14610924578063bdea26fa1461094457600080fd5b806392e6f9ac1161016f578063a7c9e88111610149578063a7c9e88114610887578063ac03d001146108bf578063ae72e098146108e9578063b88d4fde146108fe57600080fd5b806392e6f9ac1461082b57806395d89b4114610852578063a22cb4651461086757600080fd5b806377738ad2116101ab57806377738ad21461079b5780638ba51d61146107bb5780638da5cb5b146107db578063927ef546146107f957600080fd5b80637098da841461073857806370a0823114610758578063715018a61461078657600080fd5b806330999f7b116102ab5780635a034b3b116102495780636352211e116102235780636352211e146106b85780636579aea2146106d857806365cb8c93146106f8578063668432081461071857600080fd5b80635a034b3b14610658578063600f11db1461067857806361bc8a531461069857600080fd5b80634940df03116102855780634940df03146105dd57806350614e191461060357806358d400cb1461061857806359d0f7131461063857600080fd5b806330999f7b1461058a57806342842e0e146105aa57806347bb0958146105bd57600080fd5b80631694505e1161031857806324d4401a116102f257806324d4401a146105105780632524ba4d146105305780632b56a1c2146105505780632b9e0d721461056a57600080fd5b80631694505e146104a55780631dab1af7146104c557806323b872dd146104fd57600080fd5b8063081812fc11610354578063081812fc146103f8578063095ea7b3146104305780631419841d1461045257806316468b5c1461047257600080fd5b806301ffc9a71461037b5780630292ec36146103b057806306fdde03146103d6575b600080fd5b34801561038757600080fd5b5061039b6103963660046143bc565b610b21565b60405190151581526020015b60405180910390f35b3480156103bc57600080fd5b5060045460ff165b60405160ff90911681526020016103a7565b3480156103e257600080fd5b506103eb610b73565b6040516103a79190614726565b34801561040457600080fd5b50610418610413366004614495565b610c05565b6040516001600160a01b0390911681526020016103a7565b34801561043c57600080fd5b5061045061044b366004614375565b610c6e565b005b34801561045e57600080fd5b5061045061046d3660046141ff565b610d8e565b34801561047e57600080fd5b5061049261048d3660046144c5565b610dda565b60405161ffff90911681526020016103a7565b3480156104b157600080fd5b50600654610418906001600160a01b031681565b3480156104d157600080fd5b506104e56104e03660046144c5565b610e29565b6040516001600160401b0390911681526020016103a7565b61045061050b36600461426f565b610e7e565b34801561051c57600080fd5b5061045061052b3660046141ff565b610e91565b34801561053c57600080fd5b5061045061054b3660046141ff565b610f24565b34801561055c57600080fd5b506004546103c49060ff1681565b34801561057657600080fd5b5061039b6105853660046144c5565b610fc5565b34801561059657600080fd5b5061039b6105a53660046144c5565b610fee565b6104506105b836600461426f565b611051565b3480156105c957600080fd5b506103c46105d83660046144c5565b611074565b3480156105e957600080fd5b50600454610418906201000090046001600160a01b031681565b34801561060f57600080fd5b506103c4603281565b34801561062457600080fd5b5061045061063336600461462e565b6110c2565b34801561064457600080fd5b50600754610418906001600160a01b031681565b34801561066457600080fd5b506104506106733660046144c5565b6111a7565b34801561068457600080fd5b5061039b6106933660046144c5565b6115cf565b3480156106a457600080fd5b506104506106b33660046144c5565b611611565b3480156106c457600080fd5b506104186106d3366004614495565b6116c6565b3480156106e457600080fd5b506104186106f33660046144c5565b611760565b34801561070457600080fd5b506104506107133660046144fa565b6117ae565b34801561072457600080fd5b506104506107333660046144df565b61186d565b34801561074457600080fd5b506104506107533660046143f4565b6119a4565b34801561076457600080fd5b506107786107733660046141ff565b611e07565b6040519081526020016103a7565b34801561079257600080fd5b50610450611e9a565b3480156107a757600080fd5b506104506107b63660046145e8565b611ed0565b3480156107c757600080fd5b506104506107d63660046141ff565b611f3c565b3480156107e757600080fd5b506000546001600160a01b0316610418565b34801561080557600080fd5b506108196108143660046144c5565b611f88565b6040516103a796959493929190614902565b34801561083757600080fd5b5061039b6108463660046144c5565b63ffffffff1660011490565b34801561085e57600080fd5b506103eb612046565b34801561087357600080fd5b50610450610882366004614348565b612055565b34801561089357600080fd5b506108a76108a23660046144c5565b61211a565b6040516001600160801b0390911681526020016103a7565b3480156108cb57600080fd5b506104e56108da3660046144c5565b63ffffffff60201b1660011790565b3480156108f557600080fd5b506103c4600281565b61045061090c3660046142af565b61219a565b61045061091f3660046144c5565b6121eb565b34801561093057600080fd5b506108a761093f3660046144c5565b612584565b34801561095057600080fd5b506104e561095f3660046144c5565b612645565b34801561097057600080fd5b5061098461097f3660046144c5565b6126a2565b60405163ffffffff90911681526020016103a7565b3480156109a557600080fd5b506103eb6109b4366004614495565b6126f0565b3480156109c557600080fd5b5061039b6109d43660046144c5565b612801565b3480156109e557600080fd5b506004546103c490610100900460ff1681565b348015610a0457600080fd5b50610492610a133660046144c5565b612843565b348015610a2457600080fd5b5061039b610a33366004614237565b6001600160a01b039182166000908152600a6020908152604080832093909416825291909152205460ff1690565b348015610a6d57600080fd5b50600554610418906001600160a01b031681565b348015610a8d57600080fd5b50610984610a9c3660046144c5565b612891565b348015610aad57600080fd5b50610450610abc3660046141ff565b61289f565b348015610acd57600080fd5b506108a7610adc3660046144c5565b612937565b348015610aed57600080fd5b50610450610afc3660046145b6565b612986565b348015610b0d57600080fd5b50610450610b1c36600461462e565b612a95565b60006001600160e01b031982166380ac58cd60e01b1480610b5257506001600160e01b03198216635b5e139f60e01b145b80610b6d57506301ffc9a760e01b6001600160e01b03198316145b92915050565b606060028054610b8290614ae5565b80601f0160208091040260200160405190810160405280929190818152602001828054610bae90614ae5565b8015610bfb5780601f10610bd057610100808354040283529160200191610bfb565b820191906000526020600020905b815481529060010190602001808311610bde57829003601f168201915b5050505050905090565b6000610c1361058583612b81565b610c385760405162461bcd60e51b8152600401610c2f906147b0565b60405180910390fd5b60096000610c4584612b81565b6001600160401b031681526020810191909152604001600020546001600160a01b031692915050565b6000610c79826116c6565b9050806001600160a01b0316836001600160a01b03161415610ce95760405162461bcd60e51b8152602060048201526024808201527f537061726b4c696e6b3a20417070726f76616c20746f2063757272656e74206f6044820152633bb732b960e11b6064820152608401610c2f565b336001600160a01b0382161480610d055750610d058133610a33565b610d775760405162461bcd60e51b815260206004820152603b60248201527f537061726b4c696e6b3a20417070726f76652063616c6c6572206973206e6f7460448201527f206f776e6572206e6f7220617070726f76656420666f7220616c6c00000000006064820152608401610c2f565b610d8983610d8484612b81565b612bee565b505050565b6000546001600160a01b03163314610db85760405162461bcd60e51b8152600401610c2f90614739565b600680546001600160a01b0319166001600160a01b0392909216919091179055565b6000610de582610fc5565b610e015760405162461bcd60e51b8152600401610c2f90614854565b63ffffffff60201b82166001176000908152600b602052604090205460281c61ffff16610b6d565b6000610e3482610fc5565b610e505760405162461bcd60e51b8152600401610c2f90614854565b60005b600163ffffffff841614610b6d57610e6c600182614995565b9050610e7783612645565b9250610e53565b610d898383610e8c84612b81565b612c64565b6000546001600160a01b03163314610ebb5760405162461bcd60e51b8152600401610c2f90614739565b600554604080516001600160a01b03928316815291831660208301527f586842069f184fa35046ea5d0a6cedce39f97f49ec80378f306649a0fba5116e910160405180910390a1600580546001600160a01b0319166001600160a01b0392909216919091179055565b6000546001600160a01b03163314610f4e5760405162461bcd60e51b8152600401610c2f90614739565b600454604080516001600160a01b03620100009093048316815291831660208301527f586842069f184fa35046ea5d0a6cedce39f97f49ec80378f306649a0fba5116e910160405180910390a1600480546001600160a01b03909216620100000262010000600160b01b0319909216919091179055565b6001600160401b03166000908152600b60205260409020600101546001600160a01b0316151590565b6000610ff982610fc5565b6110155760405162461bcd60e51b8152600401610c2f90614854565b610b6d6025600b6000600163ffffffff60201b8716175b6001600160401b039081168252602082019290925260400160002054166001911c1690565b610d89838361105f84612b81565b6040518060200160405280600081525061308e565b600061107f82610fc5565b61109b5760405162461bcd60e51b8152600401610c2f90614854565b63ffffffff60201b82166001176000908152600b602052604090205460381c60ff16610b6d565b6000546001600160a01b031633146110ec5760405162461bcd60e51b8152600401610c2f90614739565b603260ff821611156111505760405162461bcd60e51b815260206004820152602760248201527f537061726b4c696e6b3a204c6f737320726174696f2063616e206e6f742062656044820152666c6f772035302560c81b6064820152608401610c2f565b6004546040805160ff928316815291831660208301527f10a39a3c3bf3e61b479ed61d38c739f7bbf3cfc3f209a3a2f45979992089afcb910160405180910390a16004805460ff191660ff92909216919091179055565b6111b081610fc5565b61120b5760405162461bcd60e51b815260206004820152602660248201527f537061726b4c696e6b3a20546869732065646974696f6e20646f6573206e6f7460448201526508195e1a5cdd60d21b6064820152608401610c2f565b6001600160401b0381166000908152600b6020526040902060030154600160801b90046001600160801b0316156115cc576001600160401b0381166000908152600b6020526040812060030154600160801b90046001600160801b03169061127283611760565b600454909150610100900460ff161561145c5760006112a083600460019054906101000a900460ff166130c7565b90506112ac8184614a3f565b92506001600160a01b03821661130c576004546040516001600160a01b036201000090920491909116906001600160801b03831680156108fc02916000818181858888f19350505050158015611306573d6000803e3d6000fd5b5061145a565b600754600654604080516315ab88c960e31b815290516000936001600160a01b039081169363e6a43905938893919092169163ad5c4648916004808301926020929190829003018186803b15801561136357600080fd5b505afa158015611377573d6000803e3d6000fd5b505050506040513d601f19601f8201168201806040525081019061139b919061421b565b6040516001600160e01b031960e085901b1681526001600160a01b0392831660048201529116602482015260440160206040518083038186803b1580156113e157600080fd5b505afa1580156113f5573d6000803e3d6000fd5b505050506040513d601f19601f82011682018060405250810190611419919061421b565b6001600160a01b031614156114505760055461144b906001600160a01b0384811691166001600160801b0384166130e9565b61145a565b61145a828261314c565b505b6001600160401b0383166000908152600b6020526040902060030180546001600160801b0316905563ffffffff83166001146114c85760006114a6836114a186611074565b6130c7565b90506114ba6114b485612645565b82613352565b6114c48184614a3f565b9250505b6001600160a01b03811661152f576114e8836001600160401b03166116c6565b6001600160a01b03166108fc836001600160801b03169081150290604051600060405180830381858888f19350505050158015611529573d6000803e3d6000fd5b5061155e565b61155e611544846001600160401b03166116c6565b6001600160a01b038316906001600160801b0385166130e9565b611570836001600160401b03166116c6565b6001600160a01b0316836001600160401b03167f3dc1a77733195d8bbde8f8bc719f598f47f377c9c4b854d561b4d607a8e81f62846040516115c191906001600160801b0391909116815260200190565b60405180910390a350505b50565b60006115da82610fc5565b6115f65760405162461bcd60e51b8152600401610c2f90614854565b610b6d6027600b6000600163ffffffff60201b87161761102c565b336116246001600160401b0383166116c6565b6001600160a01b0316146116915760405162461bcd60e51b815260206004820152602e60248201527f537061726b4c696e6b3a204f6e6c79206f776e65722063616e2075706461746560448201526d2074686520746f6b656e2055524960901b6064820152608401610c2f565b63ffffffff60201b81166001176000908152600b60205260408082206002908101546001600160401b03909416835291200155565b600080600b60006116d685612b81565b6001600160401b031681526020810191909152604001600020600101546001600160a01b0316905080610b6d5760405162461bcd60e51b815260206004820152602c60248201527f537061726b4c696e6b3a204f776e657220717565727920666f72206e6f6e657860448201526b34b9ba32b73a103a37b5b2b760a11b6064820152608401610c2f565b600061176b82610fc5565b6117875760405162461bcd60e51b8152600401610c2f90614854565b5063ffffffff602091821c166000908152600c90915260409020546001600160a01b031690565b336117c16001600160401b0384166116c6565b6001600160a01b0316146118285760405162461bcd60e51b815260206004820152602860248201527f537061726b4c696e6b3a204f6e6c79206f776e65722063616e206c6162656c206044820152671d1a1a5cc813919560c21b6064820152608401610c2f565b816001600160401b03167f07fabc8249b7822cdf933a532a49e1b0589177b1683b4145ee271dbd66700dfa826040516118619190614726565b60405180910390a25050565b611876826115cf565b15611919576001600160401b03821663ffffffff60201b8316600117146119195760405162461bcd60e51b815260206004820152604b60248201527f537061726b4c696e6b3a204e465420666f6c6c6f777320746865204e4420707260448201527f6f746f636f6c2c206f6e6c792074686520726f6f74204e46542773205552492060648201526a31b0b71031329039b2ba1760a91b608482015260a401610c2f565b3361192c6001600160401b0384166116c6565b6001600160a01b0316146119965760405162461bcd60e51b815260206004820152602b60248201527f537061726b4c696e6b3a204f6e6c79206f776e65722063616e2073657420746860448201526a6520746f6b656e2055524960a81b6064820152608401610c2f565b6119a082826133c4565b5050565b60648760ff161115611a0a5760405162461bcd60e51b815260206004820152602960248201527f537061726b4c696e6b3a20526f79616c7479206665652073686f756c64206265604482015268101e1e90189818129760b91b6064820152608401610c2f565b611a18600180546001019055565b63ffffffff611a2660015490565b1115611a855760405162461bcd60e51b815260206004820152602860248201527f537061726b4c696e6b3a2056616c756520646f65736e27742066697420696e206044820152671999103134ba399760c11b6064820152608401610c2f565b6001600160a01b03841615611b54576000846001600160a01b03166318160ddd6040518163ffffffff1660e01b815260040160206040518083038186803b158015611acf57600080fd5b505afa158015611ae3573d6000803e3d6000fd5b505050506040513d601f19601f82011682018060405250810190611b0791906144ad565b11611b545760405162461bcd60e51b815260206004820152601f60248201527f4e6f7420612076616c696420455243323020746f6b656e2061646472657373006044820152606401610c2f565b6000611b5f60015490565b9050600063ffffffff60201b602083901b166001179050611b926000338360405180602001604052806000815250613426565b611bae5760405162461bcd60e51b8152600401610c2f906147ff565b6001600160401b0381166000908152600b6020526040902064800000000019602686901b1664c000000000196420000000001960288c901b1666ffff20000000001960388e901b1617602589901b171617602785901b17611c10600182614995565b905087600c60008663ffffffff1663ffffffff16815260200190815260200160002060006101000a8154816001600160a01b0302191690836001600160a01b03160217905550808260000160006101000a8154816001600160401b0302191690836001600160401b03160217905550898260000160186101000a81548161ffff021916908361ffff1602179055508b8260000160086101000a8154816001600160801b0302191690836001600160801b03160217905550338260010160006101000a8154816001600160a01b0302191690836001600160a01b03160217905550888260020181905550600160086000336001600160a01b03166001600160a01b0316815260200190815260200160002060008282829054906101000a90046001600160401b0316611d419190614995565b92506101000a8154816001600160401b0302191690836001600160401b03160217905550826001600160401b0316336001600160a01b031660006001600160a01b03167fddf252ad1be2c89b69c2b068fc378daa952ba7f163c4a11628f55a4df523b3ef60405160405180910390a46040516001600160a01b03891681526001600160401b0384169033907f072ee21d81ebd9fc5f68a2c36d04cbbd9eff1e2567a48dd7ecce61d5af159fad9060200160405180910390a3505050505050505050505050565b60006001600160a01b038216611e755760405162461bcd60e51b815260206004820152602d60248201527f537061726b4c696e6b3a2042616c616e636520717565727920666f722074686560448201526c207a65726f206164647265737360981b6064820152608401610c2f565b506001600160a01b03166000908152600860205260409020546001600160401b031690565b6000546001600160a01b03163314611ec45760405162461bcd60e51b8152600401610c2f90614739565b611ece6000613533565b565b611eda8383612986565b611eed81846001600160401b0316610c6e565b6040516001600160801b03831681526001600160a01b038216906001600160401b038516907ff4a029974225230e783a906bf72b4c1037aee2b37958b9a6b5e689da1477729b906020016115c1565b6000546001600160a01b03163314611f665760405162461bcd60e51b8152600401610c2f90614739565b600780546001600160a01b0319166001600160a01b0392909216919091179055565b60008060008060006060611f9b87610fc5565b611fb75760405162461bcd60e51b8152600401610c2f906147b0565b63ffffffff60201b87166001176000908152600b60205260409020546001600160401b0316611fe588612645565b6001600160401b0389166000908152600b6020526040902054600160401b90046001600160801b03166120178a612843565b6120208b612584565b6120328c6001600160401b03166126f0565b949c939b5091995097509550909350915050565b606060038054610b8290614ae5565b6001600160a01b0382163314156120ae5760405162461bcd60e51b815260206004820152601c60248201527f537061726b4c696e6b3a20417070726f766520746f2063616c6c6572000000006044820152606401610c2f565b336000818152600a602090815260408083206001600160a01b03871680855290835292819020805460ff191686151590811790915590519081529192917f17307eab39ab6107e8899845ad3d59bd9653f200f220920489ca2b5937696c31910160405180910390a35050565b600061212582610fc5565b6121415760405162461bcd60e51b8152600401610c2f90614854565b61214a82610fee565b801561215c5750600163ffffffff8316145b1561216957506000919050565b506001600160401b03166000908152600b6020526040902054600160401b90046001600160801b031690565b919050565b6121e485856121a886612b81565b85858080601f01602080910402602001604051908101604052809392919081815260200183838082843760009201919091525061308e92505050565b5050505050565b6121f481610fc5565b6122105760405162461bcd60e51b8152600401610c2f9061476e565b6001600160401b0381166000908152600b6020526040902054600160c01b900461ffff166122a65760405162461bcd60e51b815260206004820152603860248201527f537061726b4c696e6b3a205468657265206973206e6f2072656d61696e696e6760448201527f207368696c6c2074696d6520666f722074686973204e465400000000000000006064820152608401610c2f565b600163ffffffff82161415806122c257506122c081610fee565b155b156124e55760006122d282611760565b90506001600160a01b03811661238b576001600160401b0382166000908152600b6020526040902054600160401b90046001600160801b031634146123525760405162461bcd60e51b8152602060048201526016602482015275537061726b4c696e6b3a2057726f6e6720707269636560501b6044820152606401610c2f565b6001600160401b0382166000908152600b6020526040902054612386908390600160401b90046001600160801b0316613352565b6124e3565b6040516370a0823160e01b81523060048201526000906001600160a01b038316906370a082319060240160206040518083038186803b1580156123cd57600080fd5b505afa1580156123e1573d6000803e3d6000fd5b505050506040513d601f19601f8201168201806040525081019061240591906144ad565b6001600160401b0384166000908152600b6020526040902054909150612449906001600160a01b0384169033903090600160401b90046001600160801b0316613583565b6040516370a0823160e01b81523060048201526124e19084906124dc9084906001600160a01b038716906370a08231906024015b60206040518083038186803b15801561249557600080fd5b505afa1580156124a9573d6000803e3d6000fd5b505050506040513d601f19601f820116820180604052508101906124cd91906144ad565b6124d79190614a82565b6135bb565b613352565b505b505b6001600160401b0381166000908152600b6020526040902080546001919060189061251c908490600160c01b900461ffff16614a67565b92506101000a81548161ffff021916908361ffff1602179055506125408133613625565b506001600160401b0381166000908152600b6020526040902054600160c01b900461ffff166115cc576119a08161257f836001600160401b03166116c6565b613625565b600061258f82610fc5565b6125ab5760405162461bcd60e51b8152600401610c2f90614854565b6001600160401b0382166000908152600b6020526040902060030154600454600160801b9091046001600160801b031690610100900460ff161561261457600061260482600460019054906101000a900460ff166130c7565b90506126108183614a3f565b9150505b600163ffffffff841614610b6d576000612631826114a186611074565b905061263d8183614a3f565b949350505050565b600061265082610fc5565b61266c5760405162461bcd60e51b8152600401610c2f90614854565b600163ffffffff8316141561268357506000919050565b506001600160401b039081166000908152600b60205260409020541690565b60006126ad82610fc5565b6126c95760405162461bcd60e51b8152600401610c2f90614854565b63ffffffff60201b82166001176000908152600b602052604090205463ffffffff16610b6d565b60606126fe61058583612b81565b61275d5760405162461bcd60e51b815260206004820152602a60248201527f537061726b4c696e6b3a2055524920717565727920666f72206e6f6e657869736044820152693a32b73a103a37b5b2b760b11b6064820152608401610c2f565b6000600b600061276c85612b81565b6001600160401b03166001600160401b03168152602001908152602001600020600201549050600061279d826138ea565b905060006127d360408051808201909152601581527468747470733a2f2f697066732e696f2f697066732f60581b602082015290565b905080826040516020016127e89291906146b2565b6040516020818303038152906040529350505050919050565b600061280c82610fc5565b6128285760405162461bcd60e51b8152600401610c2f90614854565b610b6d6026600b6000600163ffffffff60201b87161761102c565b600061284e82610fc5565b61286a5760405162461bcd60e51b8152600401610c2f90614854565b506001600160401b03166000908152600b6020526040902054600160c01b900461ffff1690565b600063ffffffff8216610b6d565b6000546001600160a01b031633146128c95760405162461bcd60e51b8152600401610c2f90614739565b6001600160a01b03811661292e5760405162461bcd60e51b815260206004820152602660248201527f4f776e61626c653a206e6577206f776e657220697320746865207a65726f206160448201526564647265737360d01b6064820152608401610c2f565b6115cc81613533565b600061294282610fc5565b61295e5760405162461bcd60e51b8152600401610c2f90614854565b506001600160401b03166000908152600b60205260409020600301546001600160801b031690565b61298f82610fc5565b6129ab5760405162461bcd60e51b8152600401610c2f9061476e565b6129bd826001600160401b03166116c6565b6001600160a01b0316336001600160a01b031614612a2d5760405162461bcd60e51b815260206004820152602760248201527f537061726b4c696e6b3a204f6e6c79206f776e65722063616e207365742074686044820152666520707269636560c81b6064820152608401610c2f565b6001600160401b0382166000818152600b602090815260409182902060030180546001600160801b0319166001600160801b03861690811790915591519182527fca72e8ac93611c80ca0e2046cbd0f09834fcca6a61e4979bd62bb6765ff7a9e79101611861565b6000546001600160a01b03163314612abf5760405162461bcd60e51b8152600401610c2f90614739565b600260ff82161115612b1f5760405162461bcd60e51b8152602060048201526024808201527f537061726b4c696e6b3a2044414f206665652063616e206e6f742065786365656044820152636420352560e01b6064820152608401610c2f565b6004546040805160ff6101009093048316815291831660208301527f2f8a36c4ca7c940e13833d1a596527b1ac691622a83cb1cf34d833d01efdeef3910160405180910390a16004805460ff9092166101000261ff0019909216919091179055565b60006001600160401b03821115612bea5760405162461bcd60e51b815260206004820152602760248201527f537061726b4c696e6b3a2056616c756520646f65736e27742066697420696e206044820152663634206269747360c81b6064820152608401610c2f565b5090565b6001600160401b038116600081815260096020526040902080546001600160a01b0319166001600160a01b038516908117909155612c2b826116c6565b6001600160a01b03167f8c5be1e5ebec7d5bd14f71427d1e84f3dd0314c0f7b2291e5b200ac8c7c3b92560405160405180910390a45050565b826001600160a01b0316612c80826001600160401b03166116c6565b6001600160a01b031614612ceb5760405162461bcd60e51b815260206004820152602c60248201527f537061726b4c696e6b3a205472616e73666572206f6620746f6b656e2074686160448201526b3a1034b9903737ba1037bbb760a11b6064820152608401610c2f565b612cf53382613b00565b612d5e5760405162461bcd60e51b815260206004820152603460248201527f537061726b4c696e6b3a205472616e736665722063616c6c6572206973206e6f6044820152731d081bdddb995c881b9bdc88185c1c1c9bdd995960621b6064820152608401610c2f565b6001600160a01b038216612dc45760405162461bcd60e51b815260206004820152602760248201527f537061726b4c696e6b3a205472616e7366657220746f20746865207a65726f206044820152666164647265737360c81b6064820152608401610c2f565b612dd6816001600160401b03166116c6565b6001600160a01b0316336001600160a01b031614612f7a576000612df982611760565b6001600160401b0383166000908152600b60205260409020600301549091506001600160801b03166001600160a01b038216612e9657806001600160801b03163414612e875760405162461bcd60e51b815260206004820152601860248201527f537061726b4c696e6b3a205072696365206e6f74206d657400000000000000006044820152606401610c2f565b612e918382613352565b612f6a565b6040516370a0823160e01b81523060048201526000906001600160a01b038416906370a082319060240160206040518083038186803b158015612ed857600080fd5b505afa158015612eec573d6000803e3d6000fd5b505050506040513d601f19601f82011682018060405250810190612f1091906144ad565b9050612f306001600160a01b03841633306001600160801b038616613583565b6040516370a0823160e01b8152306004820152612f689085906124dc9084906001600160a01b038816906370a082319060240161247d565b505b612f73836111a7565b5050612f83565b612f83816111a7565b612f8c81613bfb565b6001600160a01b0383166000908152600860205260408120805460019290612fbe9084906001600160401b0316614a99565b82546101009290920a6001600160401b038181021990931691831602179091556001600160a01b0384166000908152600860205260408120805460019450909261300a91859116614995565b82546101009290920a6001600160401b0381810219909316918316021790915582166000818152600b602052604080822060010180546001600160a01b0319166001600160a01b0388811691821790925591519394509092908716917fddf252ad1be2c89b69c2b068fc378daa952ba7f163c4a11628f55a4df523b3ef91a4505050565b613099848484612c64565b6130a584848484613426565b6130c15760405162461bcd60e51b8152600401610c2f906147ff565b50505050565b600060646130d860ff8416856149f1565b6130e291906149b7565b9392505050565b6040516001600160a01b038316602482015260448101829052610d8990849063a9059cbb60e01b906064015b60408051601f198184030181529190526020810180516001600160e01b03166001600160e01b031990931692909217909152613c30565b604080516002808252606082018352600092602083019080368337019050509050828160008151811061318f57634e487b7160e01b600052603260045260246000fd5b6001600160a01b03928316602091820292909201810191909152600654604080516315ab88c960e31b81529051919093169263ad5c4648926004808301939192829003018186803b1580156131e357600080fd5b505afa1580156131f7573d6000803e3d6000fd5b505050506040513d601f19601f8201168201806040525081019061321b919061421b565b8160018151811061323c57634e487b7160e01b600052603260045260246000fd5b6001600160a01b03928316602091820292909201015260065460405163095ea7b360e01b815290821660048201526001600160801b03841660248201529084169063095ea7b390604401602060405180830381600087803b1580156132a057600080fd5b505af11580156132b4573d6000803e3d6000fd5b505050506040513d601f19601f820116820180604052508101906132d891906143a0565b506006546004805460405163791ac94760e01b81526001600160a01b039384169363791ac9479361331b9388936000938993620100009093041691429101614889565b600060405180830381600087803b15801561333557600080fd5b505af1158015613349573d6000803e3d6000fd5b50505050505050565b6001600160401b0382166000908152600b6020526040902060030154613389908290600160801b90046001600160801b031661495b565b6001600160401b039092166000908152600b6020526040902060030180546001600160801b03938416600160801b0293169290921790915550565b6001600160401b0382166000818152600b6020908152604091829020600201805490859055825181815291820185905292917f901ae3afe5e7d5594d462fab7cb487880c27d5fc0e3863487a5cfd2a08d350ed910160405180910390a2505050565b60006001600160a01b0384163b1561352857604051630a85bd0160e11b81526001600160a01b0385169063150b7a029061346a9033908990889088906004016146e1565b602060405180830381600087803b15801561348457600080fd5b505af19250505080156134b4575060408051601f3d908101601f191682019092526134b1918101906143d8565b60015b61350e573d8080156134e2576040519150601f19603f3d011682016040523d82523d6000602084013e6134e7565b606091505b5080516135065760405162461bcd60e51b8152600401610c2f906147ff565b805181602001fd5b6001600160e01b031916630a85bd0160e11b14905061263d565b506001949350505050565b600080546001600160a01b038381166001600160a01b0319831681178455604051919092169283917f8be0079c531659141344cd1fd0a4f28419497f9722a3daafe3b4186f6b6457e09190a35050565b6040516001600160a01b03808516602483015283166044820152606481018290526130c19085906323b872dd60e01b90608401613115565b60006001600160801b03821115612bea5760405162461bcd60e51b815260206004820152602860248201527f537061726b4c696e6b3a2056616c756520646f65736e27742066697420696e20604482015267313238206269747360c01b6064820152608401610c2f565b600061363083613d02565b600061363b846126a2565b9050600063ffffffff60201b851663ffffffff831617905061366f6000858360405180602001604052806000815250613426565b61368b5760405162461bcd60e51b8152600401610c2f906147ff565b6001600160401b0381166000908152600b602052604090206136ac86610dda565b815479ffff00000000000000000000000000000000ffffffffffffffff1916600160c01b61ffff929092169190910267ffffffffffffffff1916176001600160401b0387161781556136fd86610fee565b801561370f5750600163ffffffff8716145b15613759576001600160401b0386166000908152600b60205260409020548154600160401b600160c01b031916600160401b918290046001600160801b03169091021781556137b9565b6001600160401b0386166000908152600b602052604090205460045461379291600160401b90046001600160801b03169060ff166130c7565b81546001600160801b0391909116600160401b02600160401b600160c01b03199091161781555b8054600160401b90046001600160801b0316613810576001600160401b0386166000908152600b60205260409020548154600160401b600160c01b031916600160401b918290046001600160801b03169091021781555b600181810180546001600160a01b0319166001600160a01b0388169081179091556001600160401b038881166000908152600b602090815260408083206002908101549088015593825260089052918220805490929161387291859116614995565b92506101000a8154816001600160401b0302191690836001600160401b03160217905550816001600160401b0316856001600160a01b031660006001600160a01b03167fddf252ad1be2c89b69c2b068fc378daa952ba7f163c4a11628f55a4df523b3ef60405160405180910390a450949350505050565b60606000604051806040016040528060028152602001609160f51b8152508360405160200161391a929190614690565b60408051601f1981840301815281835261082083018252925060009190602082016108008036833701905050905060008160008151811061396b57634e487b7160e01b600052603260045260246000fd5b60ff90921660209283029190910190910152600160005b8351811015613adc5760008482815181106139ad57634e487b7160e01b600052603260045260246000fd5b016020015160f81c905060005b8360ff16811015613a63578481815181106139e557634e487b7160e01b600052603260045260246000fd5b602002602001015160ff166101006139fd9190614a20565b613a07908361497d565b9150613a14603a83614b5b565b858281518110613a3457634e487b7160e01b600052603260045260246000fd5b60ff90921660209283029190910190910152613a51603a836149dd565b9150613a5c81614b20565b90506139ba565b505b8015613acb57613a76603a82614b5b565b848460ff1681518110613a9957634e487b7160e01b600052603260045260246000fd5b60ff9092166020928302919091019091015282613ab581614b3b565b9350613ac49050603a826149dd565b9050613a65565b50613ad581614b20565b9050613982565b50613af7613af2613aed8484613dd2565b613ead565b613f9b565b95945050505050565b6000613b0b82610fc5565b613b6f5760405162461bcd60e51b815260206004820152602f60248201527f537061726b4c696e6b3a204f70657261746f7220717565727920666f72206e6f60448201526e3732bc34b9ba32b73a103a37b5b2b760891b6064820152608401610c2f565b6000613b83836001600160401b03166116c6565b9050806001600160a01b0316846001600160a01b03161480613bc75750836001600160a01b0316613bbc846001600160401b0316610c05565b6001600160a01b0316145b8061263d57506001600160a01b038082166000908152600a602090815260408083209388168352929052205460ff1661263d565b613c06600082612bee565b6001600160401b03166000908152600b6020526040902060030180546001600160801b0319169055565b6000613c85826040518060400160405280602081526020017f5361666545524332303a206c6f772d6c6576656c2063616c6c206661696c6564815250856001600160a01b03166140b59092919063ffffffff16565b805190915015610d895780806020019051810190613ca391906143a0565b610d895760405162461bcd60e51b815260206004820152602a60248201527f5361666545524332303a204552433230206f7065726174696f6e20646964206e6044820152691bdd081cdd58d8d9595960b21b6064820152608401610c2f565b63ffffffff613d10826126a2565b63ffffffff1610613d765760405162461bcd60e51b815260206004820152602a60248201527f537061726b4c696e6b3a205468657265206973206e6f206c65667420696e20746044820152693434b99034b9b9bab29760b11b6064820152608401610c2f565b600163ffffffff60201b821681176000908152600b602052604081208054909190613dab9084906001600160401b0316614995565b92506101000a8154816001600160401b0302191690836001600160401b0316021790555050565b606060008260ff166001600160401b03811115613dff57634e487b7160e01b600052604160045260246000fd5b604051908082528060200260200182016040528015613e28578160200160208202803683370190505b50905060005b8360ff16811015613ea557848181518110613e5957634e487b7160e01b600052603260045260246000fd5b6020026020010151828281518110613e8157634e487b7160e01b600052603260045260246000fd5b60ff9092166020928302919091019091015280613e9d81614b20565b915050613e2e565b509392505050565b6060600082516001600160401b03811115613ed857634e487b7160e01b600052604160045260246000fd5b604051908082528060200260200182016040528015613f01578160200160208202803683370190505b50905060005b8351811015613f9457838160018651613f209190614a82565b613f2a9190614a82565b81518110613f4857634e487b7160e01b600052603260045260246000fd5b6020026020010151828281518110613f7057634e487b7160e01b600052603260045260246000fd5b60ff9092166020928302919091019091015280613f8c81614b20565b915050613f07565b5092915050565b6060600082516001600160401b03811115613fc657634e487b7160e01b600052604160045260246000fd5b6040519080825280601f01601f191660200182016040528015613ff0576020820181803683370190505b50905060005b8351811015613f94576040518060600160405280603a8152602001614beb603a913984828151811061403857634e487b7160e01b600052603260045260246000fd5b602002602001015160ff168151811061406157634e487b7160e01b600052603260045260246000fd5b602001015160f81c60f81b82828151811061408c57634e487b7160e01b600052603260045260246000fd5b60200101906001600160f81b031916908160001a905350806140ad81614b20565b915050613ff6565b606061263d848460008585843b61410e5760405162461bcd60e51b815260206004820152601d60248201527f416464726573733a2063616c6c20746f206e6f6e2d636f6e74726163740000006044820152606401610c2f565b600080866001600160a01b0316858760405161412a9190614674565b60006040518083038185875af1925050503d8060008114614167576040519150601f19603f3d011682016040523d82523d6000602084013e61416c565b606091505b509150915061417c828286614187565b979650505050505050565b606083156141965750816130e2565b8251156141a65782518084602001fd5b8160405162461bcd60e51b8152600401610c2f9190614726565b80356001600160801b038116811461219557600080fd5b80356001600160401b038116811461219557600080fd5b803560ff8116811461219557600080fd5b600060208284031215614210578081fd5b81356130e281614bb1565b60006020828403121561422c578081fd5b81516130e281614bb1565b60008060408385031215614249578081fd5b823561425481614bb1565b9150602083013561426481614bb1565b809150509250929050565b600080600060608486031215614283578081fd5b833561428e81614bb1565b9250602084013561429e81614bb1565b929592945050506040919091013590565b6000806000806000608086880312156142c6578081fd5b85356142d181614bb1565b945060208601356142e181614bb1565b93506040860135925060608601356001600160401b0380821115614303578283fd5b818801915088601f830112614316578283fd5b813581811115614324578384fd5b896020828501011115614335578384fd5b9699959850939650602001949392505050565b6000806040838503121561435a578182fd5b823561436581614bb1565b9150602083013561426481614bc6565b60008060408385031215614387578182fd5b823561439281614bb1565b946020939093013593505050565b6000602082840312156143b1578081fd5b81516130e281614bc6565b6000602082840312156143cd578081fd5b81356130e281614bd4565b6000602082840312156143e9578081fd5b81516130e281614bd4565b600080600080600080600080610100898b031215614410578283fd5b614419896141c0565b975061442760208a016141ee565b9650604089013561ffff8116811461443d578384fd5b955060608901359450608089013561445481614bb1565b935060a089013561446481614bc6565b925060c089013561447481614bc6565b915060e089013561448481614bc6565b809150509295985092959890939650565b6000602082840312156144a6578081fd5b5035919050565b6000602082840312156144be578081fd5b5051919050565b6000602082840312156144d6578081fd5b6130e2826141d7565b600080604083850312156144f1578182fd5b614392836141d7565b6000806040838503121561450c578182fd5b614515836141d7565b915060208301356001600160401b0380821115614530578283fd5b818501915085601f830112614543578283fd5b81358181111561455557614555614b9b565b604051601f8201601f19908116603f0116810190838211818310171561457d5761457d614b9b565b81604052828152886020848701011115614595578586fd5b82602086016020830137856020848301015280955050505050509250929050565b600080604083850312156145c8578182fd5b6145d1836141d7565b91506145df602084016141c0565b90509250929050565b6000806000606084860312156145fc578081fd5b614605846141d7565b9250614613602085016141c0565b9150604084013561462381614bb1565b809150509250925092565b60006020828403121561463f578081fd5b6130e2826141ee565b60008151808452614660816020860160208601614ab9565b601f01601f19169290920160200192915050565b60008251614686818460208701614ab9565b9190910192915050565b600083516146a2818460208801614ab9565b9190910191825250602001919050565b600083516146c4818460208801614ab9565b8351908301906146d8818360208801614ab9565b01949350505050565b6001600160a01b038581168252841660208201526001600160401b038316604082015260806060820181905260009061471c90830184614648565b9695505050505050565b6020815260006130e26020830184614648565b6020808252818101527f4f776e61626c653a2063616c6c6572206973206e6f7420746865206f776e6572604082015260600190565b60208082526022908201527f537061726b4c696e6b3a2054686973204e465420646f6573206e6f74206578696040820152611cdd60f21b606082015260800190565b6020808252602f908201527f537061726b4c696e6b3a20417070726f76656420717565727920666f72206e6f60408201526e3732bc34b9ba32b73a103a37b5b2b760891b606082015260800190565b60208082526035908201527f537061726b4c696e6b3a205472616e7366657220746f206e6f6e20455243373260408201527418a932b1b2b4bb32b91034b6b83632b6b2b73a32b960591b606082015260800190565b6020808252818101527f537061726b4c696e6b3a2045646974696f6e206973206e6f742065786973742e604082015260600190565b600060a082016001600160801b03881683526020878185015260a0604085015281875180845260c0860191508289019350845b818110156148e15784516001600160a01b0316835293830193918301916001016148bc565b50506001600160a01b03969096166060850152505050608001529392505050565b6001600160401b038781168252861660208201526001600160801b03858116604083015261ffff851660608301528316608082015260c060a0820181905260009061494f90830184614648565b98975050505050505050565b60006001600160801b038083168185168083038211156146d8576146d8614b6f565b6000821982111561499057614990614b6f565b500190565b60006001600160401b038083168185168083038211156146d8576146d8614b6f565b60006001600160801b03808416806149d1576149d1614b85565b92169190910492915050565b6000826149ec576149ec614b85565b500490565b60006001600160801b0380831681851681830481118215151615614a1757614a17614b6f565b02949350505050565b6000816000190483118215151615614a3a57614a3a614b6f565b500290565b60006001600160801b0383811690831681811015614a5f57614a5f614b6f565b039392505050565b600061ffff83811690831681811015614a5f57614a5f614b6f565b600082821015614a9457614a94614b6f565b500390565b60006001600160401b0383811690831681811015614a5f57614a5f614b6f565b60005b83811015614ad4578181015183820152602001614abc565b838111156130c15750506000910152565b600181811c90821680614af957607f821691505b60208210811415614b1a57634e487b7160e01b600052602260045260246000fd5b50919050565b6000600019821415614b3457614b34614b6f565b5060010190565b600060ff821660ff811415614b5257614b52614b6f565b60010192915050565b600082614b6a57614b6a614b85565b500690565b634e487b7160e01b600052601160045260246000fd5b634e487b7160e01b600052601260045260246000fd5b634e487b7160e01b600052604160045260246000fd5b6001600160a01b03811681146115cc57600080fd5b80151581146115cc57600080fd5b6001600160e01b0319811681146115cc57600080fdfe31323334353637383941424344454647484a4b4c4d4e505152535455565758595a6162636465666768696a6b6d6e6f707172737475767778797aa2646970667358221220933f6f737a354378b11fa0569b363a10f31397d3f42d4be2a8b4cad33b3ab02164736f6c63430008040033",
  "linkReferences": {},
  "deployedLinkReferences": {}
}