{
  "_format": "hh-sol-artifact-1",
  "contractName": "SparkNFT",
  "sourceName": "contracts/SparkNFT.sol",
  "abi": [
    {
      "inputs": [],
      "stateMutability": "nonpayable",
      "type": "constructor"
    },
    {
      "anonymous": false,
      "inputs": [
        {
          "indexed": true,
          "internalType": "address",
          "name": "owner",
          "type": "address"
        },
        {
          "indexed": true,
          "internalType": "address",
          "name": "approved",
          "type": "address"
        },
        {
          "indexed": true,
          "internalType": "uint256",
          "name": "tokenId",
          "type": "uint256"
        }
      ],
      "name": "Approval",
      "type": "event"
    },
    {
      "anonymous": false,
      "inputs": [
        {
          "indexed": true,
          "internalType": "address",
          "name": "owner",
          "type": "address"
        },
        {
          "indexed": true,
          "internalType": "address",
          "name": "operator",
          "type": "address"
        },
        {
          "indexed": false,
          "internalType": "bool",
          "name": "approved",
          "type": "bool"
        }
      ],
      "name": "ApprovalForAll",
      "type": "event"
    },
    {
      "anonymous": false,
      "inputs": [
        {
          "indexed": true,
          "internalType": "uint64",
          "name": "NFT_id",
          "type": "uint64"
        },
        {
          "indexed": true,
          "internalType": "address",
          "name": "receiver",
          "type": "address"
        },
        {
          "indexed": false,
          "internalType": "uint128",
          "name": "amount",
          "type": "uint128"
        }
      ],
      "name": "Claim",
      "type": "event"
    },
    {
      "anonymous": false,
      "inputs": [
        {
          "indexed": true,
          "internalType": "uint64",
          "name": "NFT_id",
          "type": "uint64"
        },
        {
          "indexed": false,
          "internalType": "uint128",
          "name": "transfer_price",
          "type": "uint128"
        }
      ],
      "name": "DeterminePrice",
      "type": "event"
    },
    {
      "anonymous": false,
      "inputs": [
        {
          "indexed": true,
          "internalType": "uint64",
          "name": "NFT_id",
          "type": "uint64"
        },
        {
          "indexed": false,
          "internalType": "uint128",
          "name": "transfer_price",
          "type": "uint128"
        },
        {
          "indexed": true,
          "internalType": "address",
          "name": "to",
          "type": "address"
        }
      ],
      "name": "DeterminePriceAndApprove",
      "type": "event"
    },
    {
      "anonymous": false,
      "inputs": [
        {
          "indexed": true,
          "internalType": "uint32",
          "name": "issue_id",
          "type": "uint32"
        },
        {
          "indexed": true,
          "internalType": "address",
          "name": "publisher",
          "type": "address"
        },
        {
          "indexed": false,
          "internalType": "uint64",
          "name": "rootNFTId",
          "type": "uint64"
        }
      ],
      "name": "Publish",
      "type": "event"
    },
    {
      "anonymous": false,
      "inputs": [
        {
          "indexed": true,
          "internalType": "address",
          "name": "from",
          "type": "address"
        },
        {
          "indexed": true,
          "internalType": "address",
          "name": "to",
          "type": "address"
        },
        {
          "indexed": true,
          "internalType": "uint256",
          "name": "tokenId",
          "type": "uint256"
        }
      ],
      "name": "Transfer",
      "type": "event"
    },
    {
      "inputs": [
        {
          "internalType": "uint64",
          "name": "_NFT_id",
          "type": "uint64"
        }
      ],
      "name": "acceptShill",
      "outputs": [],
      "stateMutability": "payable",
      "type": "function"
    },
    {
      "inputs": [
        {
          "internalType": "address",
          "name": "to",
          "type": "address"
        },
        {
          "internalType": "uint256",
          "name": "tokenId",
          "type": "uint256"
        }
      ],
      "name": "approve",
      "outputs": [],
      "stateMutability": "nonpayable",
      "type": "function"
    },
    {
      "inputs": [
        {
          "internalType": "address",
          "name": "owner",
          "type": "address"
        }
      ],
      "name": "balanceOf",
      "outputs": [
        {
          "internalType": "uint256",
          "name": "",
          "type": "uint256"
        }
      ],
      "stateMutability": "view",
      "type": "function"
    },
    {
      "inputs": [
        {
          "internalType": "uint64",
          "name": "_NFT_id",
          "type": "uint64"
        }
      ],
      "name": "claimProfit",
      "outputs": [],
      "stateMutability": "nonpayable",
      "type": "function"
    },
    {
      "inputs": [
        {
          "internalType": "uint64",
          "name": "_NFT_id",
          "type": "uint64"
        },
        {
          "internalType": "uint128",
          "name": "_price",
          "type": "uint128"
        }
      ],
      "name": "determinePrice",
      "outputs": [],
      "stateMutability": "nonpayable",
      "type": "function"
    },
    {
      "inputs": [
        {
          "internalType": "uint64",
          "name": "_NFT_id",
          "type": "uint64"
        },
        {
          "internalType": "uint128",
          "name": "_price",
          "type": "uint128"
        },
        {
          "internalType": "address",
          "name": "_to",
          "type": "address"
        }
      ],
      "name": "determinePriceAndApprove",
      "outputs": [],
      "stateMutability": "nonpayable",
      "type": "function"
    },
    {
      "inputs": [
        {
          "internalType": "uint256",
          "name": "tokenId",
          "type": "uint256"
        }
      ],
      "name": "getApproved",
      "outputs": [
        {
          "internalType": "address",
          "name": "",
          "type": "address"
        }
      ],
      "stateMutability": "view",
      "type": "function"
    },
    {
      "inputs": [
        {
          "internalType": "uint64",
          "name": "_NFT_id",
          "type": "uint64"
        }
      ],
      "name": "getFatherByNFTId",
      "outputs": [
        {
          "internalType": "uint64",
          "name": "",
          "type": "uint64"
        }
      ],
      "stateMutability": "view",
      "type": "function"
    },
    {
      "inputs": [
        {
          "internalType": "uint64",
          "name": "_NFT_id",
          "type": "uint64"
        }
      ],
      "name": "getIssueIdByNFTId",
      "outputs": [
        {
          "internalType": "uint32",
          "name": "",
          "type": "uint32"
        }
      ],
      "stateMutability": "pure",
      "type": "function"
    },
    {
      "inputs": [],
      "name": "getLossRatio",
      "outputs": [
        {
          "internalType": "uint8",
          "name": "",
          "type": "uint8"
        }
      ],
      "stateMutability": "pure",
      "type": "function"
    },
    {
      "inputs": [
        {
          "internalType": "uint64",
          "name": "_NFT_id",
          "type": "uint64"
        }
      ],
      "name": "getRemainShillTimesByNFTId",
      "outputs": [
        {
          "internalType": "uint8",
          "name": "",
          "type": "uint8"
        }
      ],
      "stateMutability": "view",
      "type": "function"
    },
    {
      "inputs": [
        {
          "internalType": "uint32",
          "name": "_issue_id",
          "type": "uint32"
        }
      ],
      "name": "getRoyaltyFeeByIssueId",
      "outputs": [
        {
          "internalType": "uint8",
          "name": "",
          "type": "uint8"
        }
      ],
      "stateMutability": "view",
      "type": "function"
    },
    {
      "inputs": [
        {
          "internalType": "uint32",
          "name": "_issue_id",
          "type": "uint32"
        }
      ],
      "name": "getShellTimesByIssyeId",
      "outputs": [
        {
          "internalType": "uint8",
          "name": "",
          "type": "uint8"
        }
      ],
      "stateMutability": "view",
      "type": "function"
    },
    {
      "inputs": [
        {
          "internalType": "uint64",
          "name": "_NFT_id",
          "type": "uint64"
        }
      ],
      "name": "getShillPriceByNFTId",
      "outputs": [
        {
          "internalType": "uint128",
          "name": "",
          "type": "uint128"
        }
      ],
      "stateMutability": "view",
      "type": "function"
    },
    {
      "inputs": [
        {
          "internalType": "uint32",
          "name": "_issue_id",
          "type": "uint32"
        }
      ],
      "name": "getTotalAmountByIssueId",
      "outputs": [
        {
          "internalType": "uint32",
          "name": "",
          "type": "uint32"
        }
      ],
      "stateMutability": "view",
      "type": "function"
    },
    {
      "inputs": [
        {
          "internalType": "uint64",
          "name": "_NFT_id",
          "type": "uint64"
        }
      ],
      "name": "getTransferPriceByNFTId",
      "outputs": [
        {
          "internalType": "uint128",
          "name": "",
          "type": "uint128"
        }
      ],
      "stateMutability": "view",
      "type": "function"
    },
    {
      "inputs": [
        {
          "internalType": "address",
          "name": "owner",
          "type": "address"
        },
        {
          "internalType": "address",
          "name": "operator",
          "type": "address"
        }
      ],
      "name": "isApprovedForAll",
      "outputs": [
        {
          "internalType": "bool",
          "name": "",
          "type": "bool"
        }
      ],
      "stateMutability": "view",
      "type": "function"
    },
    {
      "inputs": [
        {
          "internalType": "uint64",
          "name": "_NFT_id",
          "type": "uint64"
        }
      ],
      "name": "isEditionExist",
      "outputs": [
        {
          "internalType": "bool",
          "name": "",
          "type": "bool"
        }
      ],
      "stateMutability": "view",
      "type": "function"
    },
    {
      "inputs": [
        {
          "internalType": "uint32",
          "name": "_issue_id",
          "type": "uint32"
        }
      ],
      "name": "isIssueExist",
      "outputs": [
        {
          "internalType": "bool",
          "name": "",
          "type": "bool"
        }
      ],
      "stateMutability": "view",
      "type": "function"
    },
    {
      "inputs": [],
      "name": "name",
      "outputs": [
        {
          "internalType": "string",
          "name": "",
          "type": "string"
        }
      ],
      "stateMutability": "view",
      "type": "function"
    },
    {
      "inputs": [
        {
          "internalType": "uint256",
          "name": "tokenId",
          "type": "uint256"
        }
      ],
      "name": "ownerOf",
      "outputs": [
        {
          "internalType": "address",
          "name": "",
          "type": "address"
        }
      ],
      "stateMutability": "view",
      "type": "function"
    },
    {
      "inputs": [
        {
          "internalType": "uint128",
          "name": "_first_sell_price",
          "type": "uint128"
        },
        {
          "internalType": "uint8",
          "name": "_royalty_fee",
          "type": "uint8"
        },
        {
          "internalType": "uint8",
          "name": "_shill_times",
          "type": "uint8"
        },
        {
          "internalType": "bytes32",
          "name": "_ipfs_hash",
          "type": "bytes32"
        }
      ],
      "name": "publish",
      "outputs": [],
      "stateMutability": "nonpayable",
      "type": "function"
    },
    {
      "inputs": [
        {
          "internalType": "address",
          "name": "from",
          "type": "address"
        },
        {
          "internalType": "address",
          "name": "to",
          "type": "address"
        },
        {
          "internalType": "uint256",
          "name": "tokenId",
          "type": "uint256"
        }
      ],
      "name": "safeTransferFrom",
      "outputs": [],
      "stateMutability": "payable",
      "type": "function"
    },
    {
      "inputs": [
        {
          "internalType": "address",
          "name": "from",
          "type": "address"
        },
        {
          "internalType": "address",
          "name": "to",
          "type": "address"
        },
        {
          "internalType": "uint256",
          "name": "tokenId",
          "type": "uint256"
        },
        {
          "internalType": "bytes",
          "name": "_data",
          "type": "bytes"
        }
      ],
      "name": "safeTransferFrom",
      "outputs": [],
      "stateMutability": "payable",
      "type": "function"
    },
    {
      "inputs": [
        {
          "internalType": "address",
          "name": "operator",
          "type": "address"
        },
        {
          "internalType": "bool",
          "name": "approved",
          "type": "bool"
        }
      ],
      "name": "setApprovalForAll",
      "outputs": [],
      "stateMutability": "nonpayable",
      "type": "function"
    },
    {
      "inputs": [
        {
          "internalType": "bytes4",
          "name": "interfaceId",
          "type": "bytes4"
        }
      ],
      "name": "supportsInterface",
      "outputs": [
        {
          "internalType": "bool",
          "name": "",
          "type": "bool"
        }
      ],
      "stateMutability": "view",
      "type": "function"
    },
    {
      "inputs": [],
      "name": "symbol",
      "outputs": [
        {
          "internalType": "string",
          "name": "",
          "type": "string"
        }
      ],
      "stateMutability": "view",
      "type": "function"
    },
    {
      "inputs": [
        {
          "internalType": "uint256",
          "name": "tokenId",
          "type": "uint256"
        }
      ],
      "name": "tokenURI",
      "outputs": [
        {
          "internalType": "string",
          "name": "",
          "type": "string"
        }
      ],
      "stateMutability": "view",
      "type": "function"
    },
    {
      "inputs": [
        {
          "internalType": "address",
          "name": "from",
          "type": "address"
        },
        {
          "internalType": "address",
          "name": "to",
          "type": "address"
        },
        {
          "internalType": "uint256",
          "name": "tokenId",
          "type": "uint256"
        }
      ],
      "name": "transferFrom",
      "outputs": [],
      "stateMutability": "payable",
      "type": "function"
    }
  ],
  "bytecode": "0x60806040523480156200001157600080fd5b506040805180820190915260088082526714dc185c9ad3919560c21b602090920191825262000043916003916200007c565b506040805180820190915260088082526714dc185c9ad3919560c21b602090920191825262000075916004916200007c565b506200015f565b8280546200008a9062000122565b90600052602060002090601f016020900481019282620000ae5760008555620000f9565b82601f10620000c957805160ff1916838001178555620000f9565b82800160010185558215620000f9579182015b82811115620000f9578251825591602001919060010190620000dc565b50620001079291506200010b565b5090565b5b808211156200010757600081556001016200010c565b6002810460018216806200013757607f821691505b602082108114156200015957634e487b7160e01b600052602260045260246000fd5b50919050565b612a6f806200016f6000396000f3fe6080604052600436106101c25760003560e01c806377738ad2116100f7578063bdea26fa11610095578063e985e9c511610064578063e985e9c514610505578063f6e9274d14610525578063fc6b6dea14610545578063fee0329914610565576101c2565b8063bdea26fa14610478578063c87b56dd146104a5578063d8a288bd146104c5578063d8d17e79146104e5576101c2565b8063a22cb465116100d1578063a22cb46514610405578063a7c9e88114610425578063b88d4fde14610452578063bbe07d7914610465576101c2565b806377738ad2146103b05780637f52b12a146103d057806395d89b41146103f0576101c2565b806323b872dd116101645780635ca013271161013e5780635ca013271461032357806362f8dcd5146103435780636352211e1461036357806370a0823114610383576101c2565b806323b872dd146102dd57806342842e0e146102f05780635a034b3b14610303576101c2565b8063081812fc116101a0578063081812fc14610241578063095ea7b31461026e578063177e67f2146102905780631c349397146102bd576101c2565b806301ffc9a7146101c75780630292ec36146101fd57806306fdde031461021f575b600080fd5b3480156101d357600080fd5b506101e76101e2366004611f59565b610585565b6040516101f49190612143565b60405180910390f35b34801561020957600080fd5b506102126105cd565b6040516101f49190612860565b34801561022b57600080fd5b506102346105d2565b6040516101f4919061214e565b34801561024d57600080fd5b5061026161025c366004611fdb565b610664565b6040516101f491906120ea565b34801561027a57600080fd5b5061028e610289366004611f30565b6106cd565b005b34801561029c57600080fd5b506102b06102ab366004612017565b61076d565b6040516101f4919061283b565b3480156102c957600080fd5b506102126102d8366004611ff3565b610779565b61028e6102eb366004611e26565b6107c3565b61028e6102fe366004611e26565b6107d6565b34801561030f57600080fd5b5061028e61031e366004612017565b6107f9565b34801561032f57600080fd5b5061028e61033e366004611f91565b6109d3565b34801561034f57600080fd5b506101e761035e366004611ff3565b610b16565b34801561036f57600080fd5b5061026161037e366004611fdb565b610b33565b34801561038f57600080fd5b506103a361039e366004611dda565b610b8d565b6040516101f49190612832565b3480156103bc57600080fd5b5061028e6103cb36600461205a565b610bda565b3480156103dc57600080fd5b506101e76103eb366004612017565b610c47565b3480156103fc57600080fd5b50610234610c75565b34801561041157600080fd5b5061028e610420366004611ef6565b610c84565b34801561043157600080fd5b50610445610440366004612017565b610d46565b6040516101f4919061281e565b61028e610460366004611e61565b610d99565b61028e610473366004612017565b610dea565b34801561048457600080fd5b50610498610493366004612017565b610f5f565b6040516101f4919061284c565b3480156104b157600080fd5b506102346104c0366004611fdb565b610fac565b3480156104d157600080fd5b506102b06104e0366004611ff3565b611042565b3480156104f157600080fd5b50610212610500366004612017565b61108c565b34801561051157600080fd5b506101e7610520366004611df4565b6110d5565b34801561053157600080fd5b50610445610540366004612017565b611103565b34801561055157600080fd5b50610212610560366004611ff3565b611152565b34801561057157600080fd5b5061028e610580366004612031565b61119d565b60006001600160e01b031982166380ac58cd60e01b14806105b657506001600160e01b03198216635b5e139f60e01b145b806105c557506105c582611274565b90505b919050565b605a90565b6060600380546105e1906129d2565b80601f016020809104026020016040519081016040528092919081815260200182805461060d906129d2565b801561065a5780601f1061062f5761010080835404028352916020019161065a565b820191906000526020600020905b81548152906001019060200180831161063d57829003601f168201915b5050505050905090565b60006106726103eb8361128d565b6106975760405162461bcd60e51b815260040161068e906122fc565b60405180910390fd5b600660006106a48461128d565b6001600160401b031681526020810191909152604001600020546001600160a01b031692915050565b60006106d882610b33565b9050806001600160a01b0316836001600160a01b0316141561070c5760405162461bcd60e51b815260040161068e906124d9565b806001600160a01b031661071e6112ba565b6001600160a01b0316148061073a575061073a816105206112ba565b6107565760405162461bcd60e51b815260040161068e9061247c565b610768836107638461128d565b6112be565b505050565b60201c63ffffffff1690565b600061078482610b16565b6107a05760405162461bcd60e51b815260040161068e9061234a565b5063ffffffff16600090815260016020526040902054600160281b900460ff1690565b61076883836107d18461128d565b611334565b61076883836107e48461128d565b6040518060200160405280600081525061158e565b61080281610c47565b61081e5760405162461bcd60e51b815260040161068e90612161565b6001600160401b038116600090815260026020526040902060030154600160801b90046001600160801b0316156109d0576001600160401b038116600090815260026020526040902060030180546001600160801b03808216909255600160801b90041661088b82610f5f565b6001600160401b03161561091e576001600160401b0382166000908152600260205260408120600301546108fc90600160801b90046001600160801b03166001836108d58761076d565b63ffffffff168152602081019190915260400160002054640100000000900460ff166115c7565b905061091061090a84610f5f565b826115e9565b61091a818361293b565b9150505b610930826001600160401b0316610b33565b6001600160a01b03166108fc826001600160801b03169081150290604051600060405180830381858888f19350505050158015610971573d6000803e3d6000fd5b50610984826001600160401b0316610b33565b6001600160a01b0316826001600160401b03167f3dc1a77733195d8bbde8f8bc719f598f47f377c9c4b854d561b4d607a8e81f62836040516109c6919061281e565b60405180910390a3505b50565b60648360ff1611156109f75760405162461bcd60e51b815260040161068e906126aa565b610a01600061165b565b63ffffffff610a106000611664565b1115610a2e5760405162461bcd60e51b815260040161068e906121e7565b6000610a3a6000611664565b63ffffffff81166000818152600160205260408120805463ffffffff191690921764ff00000000191664010000000060ff898116919091029190911765ff00000000001916600160281b91881691909102176fffffffffffffffffffffffffffffffff60501b1916600160501b6001600160801b038a160217825591925090610ac38385611668565b9050336001600160a01b03168363ffffffff167f7076939bab881558c26bdfd19cefffacd29a6dcea17a02353fbceb3e9a53c29983604051610b05919061284c565b60405180910390a350505050505050565b63ffffffff90811660009081526001602052604090205416151590565b60008060026000610b438561128d565b6001600160401b0316815260208101919091526040016000206001015461010090046001600160a01b03169050806105c55760405162461bcd60e51b815260040161068e906125a6565b60006001600160a01b038216610bb55760405162461bcd60e51b815260040161068e906126f5565b506001600160a01b03166000908152600560205260409020546001600160401b031690565b610be4838361119d565b610bf781846001600160401b03166106cd565b806001600160a01b0316836001600160401b03167ff4a029974225230e783a906bf72b4c1037aee2b37958b9a6b5e689da1477729b84604051610c3a919061281e565b60405180910390a3505050565b6001600160401b031660009081526002602052604090206001015461010090046001600160a01b0316151590565b6060600480546105e1906129d2565b610c8c6112ba565b6001600160a01b0316826001600160a01b03161415610cbd5760405162461bcd60e51b815260040161068e90612628565b8060076000610cca6112ba565b6001600160a01b03908116825260208083019390935260409182016000908120918716808252919093529120805460ff191692151592909217909155610d0e6112ba565b6001600160a01b03167f17307eab39ab6107e8899845ad3d59bd9653f200f220920489ca2b5937696c31836040516109c69190612143565b6000610d5182610c47565b610d6d5760405162461bcd60e51b815260040161068e90612161565b506001600160401b0316600090815260026020526040902054600160801b90046001600160801b031690565b610de38585610da78661128d565b85858080601f01602080910402602001604051908101604052809392919081815260200183838082843760009201919091525061158e92505050565b5050505050565b610df381610c47565b610e0f5760405162461bcd60e51b815260040161068e906122c7565b6001600160401b03811660009081526002602052604090206001015460ff16610e4a5760405162461bcd60e51b815260040161068e90612426565b6001600160401b038116600090815260026020526040902054600160801b90046001600160801b03163414610e915760405162461bcd60e51b815260040161068e906125f1565b6001600160401b038116600090815260026020526040902054610ec5908290600160801b90046001600160801b03166115e9565b610ecf813361187b565b506001600160401b03811660009081526002602052604081206001908101805491929091610f0190849060ff16612983565b82546101009290920a60ff8181021990931691831602179091556001600160401b03831660009081526002602052604090206001015416151590506109d057610f5b81610f56836001600160401b0316610b33565b61187b565b5050565b6000610f6a82610c47565b610f865760405162461bcd60e51b815260040161068e90612161565b506001600160401b03908116600090815260026020526040902054600160401b90041690565b6060610fba6103eb8361128d565b610fd65760405162461bcd60e51b815260040161068e90612787565b600060026000610fe58561128d565b6001600160401b03166001600160401b031681526020019081526020016000206002015490506000611015611b4e565b9050808260405160200161102a9291906120c8565b60405160208183030381529060405292505050919050565b600061104d82610b16565b6110695760405162461bcd60e51b815260040161068e9061234a565b5063ffffffff908116600090815260016020526040902054600160301b90041690565b600061109782610c47565b6110b35760405162461bcd60e51b815260040161068e90612161565b506001600160401b031660009081526002602052604090206001015460ff1690565b6001600160a01b03918216600090815260076020908152604080832093909416825291909152205460ff1690565b600061110e82610c47565b61112a5760405162461bcd60e51b815260040161068e90612161565b506001600160401b03166000908152600260205260409020600301546001600160801b031690565b600061115d82610b16565b6111795760405162461bcd60e51b815260040161068e9061234a565b5063ffffffff16600090815260016020526040902054640100000000900460ff1690565b6111a682610c47565b6111c25760405162461bcd60e51b815260040161068e90612198565b6111d4826001600160401b0316610b33565b6001600160a01b0316336001600160a01b0316146112045760405162461bcd60e51b815260040161068e90612277565b6001600160401b0382166000818152600260205260409081902060030180546001600160801b0319166001600160801b038516179055517fca72e8ac93611c80ca0e2046cbd0f09834fcca6a61e4979bd62bb6765ff7a9e79061126890849061281e565b60405180910390a25050565b6001600160e01b031981166301ffc9a760e01b14919050565b60006001600160401b038211156112b65760405162461bcd60e51b815260040161068e906123e0565b5090565b3390565b6001600160401b038116600081815260066020526040902080546001600160a01b0319166001600160a01b0385169081179091556112fb82610b33565b6001600160a01b03167f8c5be1e5ebec7d5bd14f71427d1e84f3dd0314c0f7b2291e5b200ac8c7c3b92560405160405180910390a45050565b826001600160a01b0316611350826001600160401b0316610b33565b6001600160a01b0316146113765760405162461bcd60e51b815260040161068e9061265f565b6113876113816112ba565b82611b7d565b6113a35760405162461bcd60e51b815260040161068e9061251c565b6001600160a01b0382166113c95760405162461bcd60e51b815260040161068e90612741565b6113db816001600160401b0316610b33565b6001600160a01b0316336001600160a01b031614611474576001600160401b0381166000908152600260205260409020600301546001600160801b031634146114365760405162461bcd60e51b815260040161068e906125f1565b6001600160401b0381166000908152600260205260409020600301546114669082906001600160801b03166115e9565b61146f816107f9565b61147d565b61147d816107f9565b61148681611c14565b6001600160a01b03831660009081526005602052604081208054600192906114b89084906001600160401b0316612963565b82546101009290920a6001600160401b038181021990931691831602179091556001600160a01b03841660009081526005602052604081208054600194509092611504918591166128b8565b825461010092830a6001600160401b038181021990921692821602919091179092559083166000818152600260205260408082206001018054610100600160a81b0319166001600160a01b038981169687029190911790915590519294508716917fddf252ad1be2c89b69c2b068fc378daa952ba7f163c4a11628f55a4df523b3ef9190a4505050565b611599848484611334565b6115a584848484611c49565b6115c15760405162461bcd60e51b815260040161068e9061238c565b50505050565b600060646115d860ff84168561290c565b6115e291906128da565b9392505050565b6001600160401b038216600090815260026020526040902060030154611620908290600160801b90046001600160801b031661286e565b6001600160401b03909216600090815260026020526040902060030180546001600160801b03938416600160801b0293169290921790915550565b80546001019055565b5490565b63ffffffff80831660009081526001602081905260408220805492939192909160069161169e918591600160301b900416612899565b82546101009290920a63ffffffff818102199093169183160217909155848116600090815260016020526040812054600160301b900490911691506116e38583611d64565b90506116ee81610c47565b1561170b5760405162461bcd60e51b815260040161068e9061256f565b6117276000338360405180602001604052806000815250611c49565b6117435760405162461bcd60e51b815260040161068e9061238c565b6001600160401b038082166000818152600260208181526040808420805467ffffffffffffffff191690951780865563ffffffff8c16855260018084528286208054828901805460ff191660ff600160281b90930492909216919091178082559154600160801b6001600160801b03600160501b9092048216029416939093178855336101008102610100600160a81b0319909216919091179092559386018b9055845260059091528220805493949193909291611803918591166128b8565b92506101000a8154816001600160401b0302191690836001600160401b03160217905550816001600160401b0316336001600160a01b031660006001600160a01b03167fddf252ad1be2c89b69c2b068fc378daa952ba7f163c4a11628f55a4df523b3ef60405160405180910390a450949350505050565b6000806118878461076d565b63ffffffff80821660009081526001602081905260409091208054939450909290916006916118bf918591600160301b900416612899565b82546101009290920a63ffffffff818102199093169183160217909155828116600090815260016020526040902054600160301b900481161090506119165760405162461bcd60e51b815260040161068e9061222e565b63ffffffff808216600090815260016020526040812054600160301b9004909116906119428383611d64565b90506119606000868360405180602001604052806000815250611c49565b61197c5760405162461bcd60e51b815260040161068e9061238c565b6001600160401b038181166000818152600260208181526040808420805467ffffffffffffffff191690951780865563ffffffff8a1685526001808452828620549087018054600160281b90920460ff1660ff199092169190911790556fffffffffffffffff00000000000000001916600160401b968d16968702178555948352529190912054611a1e90600160801b90046001600160801b0316605a6115c7565b6001600160401b038816600090815260026020526040902054611a519190600160801b90046001600160801b031661293b565b81546001600160801b03918216600160801b029116178155600180820180546001600160a01b0389166101008102610100600160a81b0319909216919091179091556001600160401b03808a1660009081526002602081815260408084208301549288019290925593825260059093529182208054909291611ad5918591166128b8565b92506101000a8154816001600160401b0302191690836001600160401b03160217905550816001600160401b0316866001600160a01b031660006001600160a01b03167fddf252ad1be2c89b69c2b068fc378daa952ba7f163c4a11628f55a4df523b3ef60405160405180910390a45095945050505050565b60408051808201909152601581527468747470733a2f2f697066732e696f2f697066732f60581b602082015290565b6000611b8882610c47565b611ba45760405162461bcd60e51b815260040161068e906127d0565b6000611bb8836001600160401b0316610b33565b9050806001600160a01b0316846001600160a01b03161480611bfc5750836001600160a01b0316611bf1846001600160401b0316610664565b6001600160a01b0316145b80611c0c5750611c0c81856110d5565b949350505050565b611c1f6000826112be565b6001600160401b0316600090815260026020526040902060030180546001600160801b0319169055565b6000611c5d846001600160a01b0316611d7e565b15611d5957836001600160a01b031663150b7a02611c796112ba565b8786866040518563ffffffff1660e01b8152600401611c9b94939291906120fe565b602060405180830381600087803b158015611cb557600080fd5b505af1925050508015611ce5575060408051601f3d908101601f19168201909252611ce291810190611f75565b60015b611d3f573d808015611d13576040519150601f19603f3d011682016040523d82523d6000602084013e611d18565b606091505b508051611d375760405162461bcd60e51b815260040161068e9061238c565b805181602001fd5b6001600160e01b031916630a85bd0160e11b149050611c0c565b506001949350505050565b63ffffffff1660209190911b67ffffffff00000000161790565b3b151590565b80356001600160a01b03811681146105c857600080fd5b80356001600160801b03811681146105c857600080fd5b80356001600160401b03811681146105c857600080fd5b803560ff811681146105c857600080fd5b600060208284031215611deb578081fd5b6115e282611d84565b60008060408385031215611e06578081fd5b611e0f83611d84565b9150611e1d60208401611d84565b90509250929050565b600080600060608486031215611e3a578081fd5b611e4384611d84565b9250611e5160208501611d84565b9150604084013590509250925092565b600080600080600060808688031215611e78578081fd5b611e8186611d84565b9450611e8f60208701611d84565b93506040860135925060608601356001600160401b0380821115611eb1578283fd5b818801915088601f830112611ec4578283fd5b813581811115611ed2578384fd5b896020828501011115611ee3578384fd5b9699959850939650602001949392505050565b60008060408385031215611f08578182fd5b611f1183611d84565b915060208301358015158114611f25578182fd5b809150509250929050565b60008060408385031215611f42578182fd5b611f4b83611d84565b946020939093013593505050565b600060208284031215611f6a578081fd5b81356115e281612a23565b600060208284031215611f86578081fd5b81516115e281612a23565b60008060008060808587031215611fa6578384fd5b611faf85611d9b565b9350611fbd60208601611dc9565b9250611fcb60408601611dc9565b9396929550929360600135925050565b600060208284031215611fec578081fd5b5035919050565b600060208284031215612004578081fd5b813563ffffffff811681146115e2578182fd5b600060208284031215612028578081fd5b6115e282611db2565b60008060408385031215612043578182fd5b61204c83611db2565b9150611e1d60208401611d9b565b60008060006060848603121561206e578081fd5b61207784611db2565b925061208560208501611d9b565b915061209360408501611d84565b90509250925092565b600081518084526120b48160208601602086016129a6565b601f01601f19169290920160200192915050565b600083516120da8184602088016129a6565b9190910191825250602001919050565b6001600160a01b0391909116815260200190565b6001600160a01b038581168252841660208201526001600160401b03831660408201526080606082018190526000906121399083018461209c565b9695505050505050565b901515815260200190565b6000602082526115e2602083018461209c565b6020808252601f908201527f537061726b4e46543a2045646974696f6e206973206e6f742065786973742e00604082015260600190565b6020808252602f908201527f537061726b4e46543a20546865204e465420796f752077616e7420746f20627560408201526e3c9034b9903737ba1032bc34b9ba1760891b606082015260800190565b60208082526027908201527f537061726b4e46543a2076616c756520646f65736e27742066697420696e203360408201526619103134ba399760c91b606082015260800190565b60208082526029908201527f537061726b4e46543a205468657265206973206e6f206c65667420696e20746860408201526834b99034b9b9bab29760b91b606082015260800190565b60208082526030908201527f537061726b4e46543a204e465427732070726963652073686f756c642073657460408201526f10313c9037b73bb2b91037b31034ba1760811b606082015260800190565b6020808252818101527f537061726b4e46543a2054686973204e4654206973206e6f742065786973742e604082015260600190565b6020808252602e908201527f537061726b4e46543a20617070726f76656420717565727920666f72206e6f6e60408201526d32bc34b9ba32b73a103a37b5b2b760911b606082015260800190565b60208082526022908201527f537061726b4e46543a2054686973206973737565206973206e6f7420657869736040820152613a1760f11b606082015260800190565b60208082526034908201527f537061726b4e46543a207472616e7366657220746f206e6f6e204552433732316040820152732932b1b2b4bb32b91034b6b83632b6b2b73a32b960611b606082015260800190565b60208082526026908201527f537061726b4e46543a2076616c756520646f65736e27742066697420696e203660408201526534206269747360d01b606082015260800190565b60208082526036908201527f537061726b4e46543a205468657265206973206e6f2072656d61696e207368696040820152753636103a34b6b2b9903337b9103a3434b99027232a1760511b606082015260800190565b6020808252603a908201527f537061726b4e46543a20617070726f76652063616c6c6572206973206e6f742060408201527f6f776e6572206e6f7220617070726f76656420666f7220616c6c000000000000606082015260800190565b60208082526023908201527f537061726b4e46543a20617070726f76616c20746f2063757272656e74206f776040820152623732b960e91b606082015260800190565b60208082526033908201527f537061726b4e46543a207472616e736665722063616c6c6572206973206e6f74604082015272081bdddb995c881b9bdc88185c1c1c9bdd9959606a1b606082015260800190565b6020808252601e908201527f537061726b4e46543a20746f6b656e20616c7265616479206d696e7465640000604082015260600190565b6020808252602b908201527f537061726b4e46543a206f776e657220717565727920666f72206e6f6e65786960408201526a39ba32b73a103a37b5b2b760a91b606082015260800190565b60208082526019908201527f537061726b4e46543a206e6f7420656e6f756768742045544800000000000000604082015260600190565b6020808252601b908201527f537061726b4e46543a20617070726f766520746f2063616c6c65720000000000604082015260600190565b6020808252602b908201527f537061726b4e46543a207472616e73666572206f6620746f6b656e207468617460408201526a1034b9903737ba1037bbb760a91b606082015260800190565b6020808252602b908201527f537061726b4e46543a20526f79616c7479206665652073686f756c64206c657360408201526a39903a3430b7101898181760a91b606082015260800190565b6020808252602c908201527f537061726b4e46543a2062616c616e636520717565727920666f72207468652060408201526b7a65726f206164647265737360a01b606082015260800190565b60208082526026908201527f537061726b4e46543a207472616e7366657220746f20746865207a65726f206160408201526564647265737360d01b606082015260800190565b60208082526029908201527f537061726b4e46543a2055524920717565727920666f72206e6f6e657869737460408201526832b73a103a37b5b2b760b91b606082015260800190565b6020808252602e908201527f537061726b4e46543a206f70657261746f7220717565727920666f72206e6f6e60408201526d32bc34b9ba32b73a103a37b5b2b760911b606082015260800190565b6001600160801b0391909116815260200190565b90815260200190565b63ffffffff91909116815260200190565b6001600160401b0391909116815260200190565b60ff91909116815260200190565b60006001600160801b0380831681851680830382111561289057612890612a0d565b01949350505050565b600063ffffffff80831681851680830382111561289057612890612a0d565b60006001600160401b0380831681851680830382111561289057612890612a0d565b60006001600160801b038084168061290057634e487b7160e01b83526012600452602483fd5b92169190910492915050565b60006001600160801b038083168185168183048111821515161561293257612932612a0d565b02949350505050565b60006001600160801b038381169083168181101561295b5761295b612a0d565b039392505050565b60006001600160401b038381169083168181101561295b5761295b612a0d565b600060ff821660ff84168082101561299d5761299d612a0d565b90039392505050565b60005b838110156129c15781810151838201526020016129a9565b838111156115c15750506000910152565b6002810460018216806129e657607f821691505b60208210811415612a0757634e487b7160e01b600052602260045260246000fd5b50919050565b634e487b7160e01b600052601160045260246000fd5b6001600160e01b0319811681146109d057600080fdfea26469706673582212207cbe4b3bad83e31a4954fea41f95194f6eb856d5cf2e7b5a5d680909e478357864736f6c63430008000033",
  "linkReferences": {},
  "deployedLinkReferences": {}
}