{
  "_format": "hh-sol-artifact-1",
  "contractName": "SparkNFT",
  "sourceName": "contracts/SparkNFT.sol",
  "abi": [
    {
      "inputs": [],
      "stateMutability": "nonpayable",
      "type": "constructor"
    },
    {
      "anonymous": false,
      "inputs": [
        {
          "indexed": true,
          "internalType": "address",
          "name": "owner",
          "type": "address"
        },
        {
          "indexed": true,
          "internalType": "address",
          "name": "approved",
          "type": "address"
        },
        {
          "indexed": true,
          "internalType": "uint256",
          "name": "tokenId",
          "type": "uint256"
        }
      ],
      "name": "Approval",
      "type": "event"
    },
    {
      "anonymous": false,
      "inputs": [
        {
          "indexed": true,
          "internalType": "address",
          "name": "owner",
          "type": "address"
        },
        {
          "indexed": true,
          "internalType": "address",
          "name": "operator",
          "type": "address"
        },
        {
          "indexed": false,
          "internalType": "bool",
          "name": "approved",
          "type": "bool"
        }
      ],
      "name": "ApprovalForAll",
      "type": "event"
    },
    {
      "anonymous": false,
      "inputs": [
        {
          "indexed": true,
          "internalType": "uint64",
          "name": "NFT_id",
          "type": "uint64"
        },
        {
          "indexed": true,
          "internalType": "address",
          "name": "receiver",
          "type": "address"
        },
        {
          "indexed": false,
          "internalType": "uint128",
          "name": "amount",
          "type": "uint128"
        }
      ],
      "name": "Claim",
      "type": "event"
    },
    {
      "anonymous": false,
      "inputs": [
        {
          "indexed": true,
          "internalType": "uint64",
          "name": "NFT_id",
          "type": "uint64"
        },
        {
          "indexed": false,
          "internalType": "uint128",
          "name": "transfer_price",
          "type": "uint128"
        }
      ],
      "name": "DeterminePrice",
      "type": "event"
    },
    {
      "anonymous": false,
      "inputs": [
        {
          "indexed": true,
          "internalType": "uint64",
          "name": "NFT_id",
          "type": "uint64"
        },
        {
          "indexed": false,
          "internalType": "uint128",
          "name": "transfer_price",
          "type": "uint128"
        },
        {
          "indexed": true,
          "internalType": "address",
          "name": "to",
          "type": "address"
        }
      ],
      "name": "DeterminePriceAndApprove",
      "type": "event"
    },
    {
      "anonymous": false,
      "inputs": [
        {
          "indexed": true,
          "internalType": "uint64",
          "name": "NFT_id",
          "type": "uint64"
        },
        {
          "indexed": false,
          "internalType": "string",
          "name": "content",
          "type": "string"
        }
      ],
      "name": "Label",
      "type": "event"
    },
    {
      "anonymous": false,
      "inputs": [
        {
          "indexed": true,
          "internalType": "uint32",
          "name": "issue_id",
          "type": "uint32"
        },
        {
          "indexed": true,
          "internalType": "address",
          "name": "publisher",
          "type": "address"
        },
        {
          "indexed": false,
          "internalType": "uint64",
          "name": "rootNFTId",
          "type": "uint64"
        }
      ],
      "name": "Publish",
      "type": "event"
    },
    {
      "anonymous": false,
      "inputs": [
        {
          "indexed": true,
          "internalType": "uint64",
          "name": "NFT_id",
          "type": "uint64"
        },
        {
          "indexed": false,
          "internalType": "bytes32",
          "name": "old_URI",
          "type": "bytes32"
        },
        {
          "indexed": false,
          "internalType": "bytes32",
          "name": "new_URI",
          "type": "bytes32"
        }
      ],
      "name": "SetURI",
      "type": "event"
    },
    {
      "anonymous": false,
      "inputs": [
        {
          "indexed": true,
          "internalType": "address",
          "name": "from",
          "type": "address"
        },
        {
          "indexed": true,
          "internalType": "address",
          "name": "to",
          "type": "address"
        },
        {
          "indexed": true,
          "internalType": "uint256",
          "name": "tokenId",
          "type": "uint256"
        }
      ],
      "name": "Transfer",
      "type": "event"
    },
    {
      "inputs": [
        {
          "internalType": "uint64",
          "name": "_NFT_id",
          "type": "uint64"
        }
      ],
      "name": "acceptShill",
      "outputs": [],
      "stateMutability": "payable",
      "type": "function"
    },
    {
      "inputs": [
        {
          "internalType": "address",
          "name": "to",
          "type": "address"
        },
        {
          "internalType": "uint256",
          "name": "tokenId",
          "type": "uint256"
        }
      ],
      "name": "approve",
      "outputs": [],
      "stateMutability": "nonpayable",
      "type": "function"
    },
    {
      "inputs": [
        {
          "internalType": "address",
          "name": "owner",
          "type": "address"
        }
      ],
      "name": "balanceOf",
      "outputs": [
        {
          "internalType": "uint256",
          "name": "",
          "type": "uint256"
        }
      ],
      "stateMutability": "view",
      "type": "function"
    },
    {
      "inputs": [
        {
          "internalType": "uint64",
          "name": "_NFT_id",
          "type": "uint64"
        }
      ],
      "name": "claimProfit",
      "outputs": [],
      "stateMutability": "nonpayable",
      "type": "function"
    },
    {
      "inputs": [
        {
          "internalType": "uint64",
          "name": "_NFT_id",
          "type": "uint64"
        },
        {
          "internalType": "uint128",
          "name": "_price",
          "type": "uint128"
        }
      ],
      "name": "determinePrice",
      "outputs": [],
      "stateMutability": "nonpayable",
      "type": "function"
    },
    {
      "inputs": [
        {
          "internalType": "uint64",
          "name": "_NFT_id",
          "type": "uint64"
        },
        {
          "internalType": "uint128",
          "name": "_price",
          "type": "uint128"
        },
        {
          "internalType": "address",
          "name": "_to",
          "type": "address"
        }
      ],
      "name": "determinePriceAndApprove",
      "outputs": [],
      "stateMutability": "nonpayable",
      "type": "function"
    },
    {
      "inputs": [
        {
          "internalType": "uint256",
          "name": "tokenId",
          "type": "uint256"
        }
      ],
      "name": "getApproved",
      "outputs": [
        {
          "internalType": "address",
          "name": "",
          "type": "address"
        }
      ],
      "stateMutability": "view",
      "type": "function"
    },
    {
      "inputs": [
        {
          "internalType": "uint64",
          "name": "_NFT_id",
          "type": "uint64"
        }
      ],
      "name": "getDepthByNFTId",
      "outputs": [
        {
          "internalType": "uint64",
          "name": "",
          "type": "uint64"
        }
      ],
      "stateMutability": "view",
      "type": "function"
    },
    {
      "inputs": [
        {
          "internalType": "uint64",
          "name": "_NFT_id",
          "type": "uint64"
        }
      ],
      "name": "getEditionIdByNFTId",
      "outputs": [
        {
          "internalType": "uint32",
          "name": "",
          "type": "uint32"
        }
      ],
      "stateMutability": "pure",
      "type": "function"
    },
    {
      "inputs": [
        {
          "internalType": "uint64",
          "name": "_NFT_id",
          "type": "uint64"
        }
      ],
      "name": "getFatherByNFTId",
      "outputs": [
        {
          "internalType": "uint64",
          "name": "",
          "type": "uint64"
        }
      ],
      "stateMutability": "view",
      "type": "function"
    },
    {
      "inputs": [
        {
          "internalType": "uint64",
          "name": "_NFT_id",
          "type": "uint64"
        }
      ],
      "name": "getIssueIdByNFTId",
      "outputs": [
        {
          "internalType": "uint32",
          "name": "",
          "type": "uint32"
        }
      ],
      "stateMutability": "pure",
      "type": "function"
    },
    {
      "inputs": [],
      "name": "getLossRatio",
      "outputs": [
        {
          "internalType": "uint8",
          "name": "",
          "type": "uint8"
        }
      ],
      "stateMutability": "pure",
      "type": "function"
    },
    {
      "inputs": [
        {
          "internalType": "uint64",
          "name": "_NFT_id",
          "type": "uint64"
        }
      ],
      "name": "getProfitByNFTId",
      "outputs": [
        {
          "internalType": "uint128",
          "name": "",
          "type": "uint128"
        }
      ],
      "stateMutability": "view",
      "type": "function"
    },
    {
      "inputs": [
        {
          "internalType": "uint64",
          "name": "_NFT_id",
          "type": "uint64"
        }
      ],
      "name": "getRemainShillTimesByNFTId",
      "outputs": [
        {
          "internalType": "uint8",
          "name": "",
          "type": "uint8"
        }
      ],
      "stateMutability": "view",
      "type": "function"
    },
    {
      "inputs": [
        {
          "internalType": "uint32",
          "name": "_issue_id",
          "type": "uint32"
        }
      ],
      "name": "getRootNFTIdByIssueId",
      "outputs": [
        {
          "internalType": "uint64",
          "name": "",
          "type": "uint64"
        }
      ],
      "stateMutability": "pure",
      "type": "function"
    },
    {
      "inputs": [
        {
          "internalType": "uint32",
          "name": "_issue_id",
          "type": "uint32"
        }
      ],
      "name": "getRoyaltyFeeByIssueId",
      "outputs": [
        {
          "internalType": "uint8",
          "name": "",
          "type": "uint8"
        }
      ],
      "stateMutability": "view",
      "type": "function"
    },
    {
      "inputs": [
        {
          "internalType": "uint64",
          "name": "_NFT_id",
          "type": "uint64"
        }
      ],
      "name": "getShillPriceByNFTId",
      "outputs": [
        {
          "internalType": "uint128",
          "name": "",
          "type": "uint128"
        }
      ],
      "stateMutability": "view",
      "type": "function"
    },
    {
      "inputs": [
        {
          "internalType": "uint32",
          "name": "_issue_id",
          "type": "uint32"
        }
      ],
      "name": "getShillTimesByIssueId",
      "outputs": [
        {
          "internalType": "uint8",
          "name": "",
          "type": "uint8"
        }
      ],
      "stateMutability": "view",
      "type": "function"
    },
    {
      "inputs": [
        {
          "internalType": "uint32",
          "name": "_issue_id",
          "type": "uint32"
        }
      ],
      "name": "getTotalAmountByIssueId",
      "outputs": [
        {
          "internalType": "uint32",
          "name": "",
          "type": "uint32"
        }
      ],
      "stateMutability": "view",
      "type": "function"
    },
    {
      "inputs": [
        {
          "internalType": "uint64",
          "name": "_NFT_id",
          "type": "uint64"
        }
      ],
      "name": "getTransferPriceByNFTId",
      "outputs": [
        {
          "internalType": "uint128",
          "name": "",
          "type": "uint128"
        }
      ],
      "stateMutability": "view",
      "type": "function"
    },
    {
      "inputs": [
        {
          "internalType": "address",
          "name": "owner",
          "type": "address"
        },
        {
          "internalType": "address",
          "name": "operator",
          "type": "address"
        }
      ],
      "name": "isApprovedForAll",
      "outputs": [
        {
          "internalType": "bool",
          "name": "",
          "type": "bool"
        }
      ],
      "stateMutability": "view",
      "type": "function"
    },
    {
      "inputs": [
        {
          "internalType": "uint64",
          "name": "_NFT_id",
          "type": "uint64"
        }
      ],
      "name": "isEditionExist",
      "outputs": [
        {
          "internalType": "bool",
          "name": "",
          "type": "bool"
        }
      ],
      "stateMutability": "view",
      "type": "function"
    },
    {
      "inputs": [
        {
          "internalType": "uint32",
          "name": "_issue_id",
          "type": "uint32"
        }
      ],
      "name": "isIssueExist",
      "outputs": [
        {
          "internalType": "bool",
          "name": "",
          "type": "bool"
        }
      ],
      "stateMutability": "view",
      "type": "function"
    },
    {
      "inputs": [
        {
          "internalType": "uint64",
          "name": "_NFT_id",
          "type": "uint64"
        }
      ],
      "name": "isRootNFT",
      "outputs": [
        {
          "internalType": "bool",
          "name": "",
          "type": "bool"
        }
      ],
      "stateMutability": "pure",
      "type": "function"
    },
    {
      "inputs": [
        {
          "internalType": "uint64",
          "name": "_NFT_id",
          "type": "uint64"
        },
        {
          "internalType": "string",
          "name": "content",
          "type": "string"
        }
      ],
      "name": "label",
      "outputs": [],
      "stateMutability": "nonpayable",
      "type": "function"
    },
    {
      "inputs": [],
      "name": "name",
      "outputs": [
        {
          "internalType": "string",
          "name": "",
          "type": "string"
        }
      ],
      "stateMutability": "view",
      "type": "function"
    },
    {
      "inputs": [
        {
          "internalType": "uint256",
          "name": "tokenId",
          "type": "uint256"
        }
      ],
      "name": "ownerOf",
      "outputs": [
        {
          "internalType": "address",
          "name": "",
          "type": "address"
        }
      ],
      "stateMutability": "view",
      "type": "function"
    },
    {
      "inputs": [
        {
          "internalType": "uint128",
          "name": "_first_sell_price",
          "type": "uint128"
        },
        {
          "internalType": "uint8",
          "name": "_royalty_fee",
          "type": "uint8"
        },
        {
          "internalType": "uint8",
          "name": "_shill_times",
          "type": "uint8"
        },
        {
          "internalType": "bytes32",
          "name": "_ipfs_hash",
          "type": "bytes32"
        }
      ],
      "name": "publish",
      "outputs": [],
      "stateMutability": "nonpayable",
      "type": "function"
    },
    {
      "inputs": [
        {
          "internalType": "address",
          "name": "from",
          "type": "address"
        },
        {
          "internalType": "address",
          "name": "to",
          "type": "address"
        },
        {
          "internalType": "uint256",
          "name": "tokenId",
          "type": "uint256"
        }
      ],
      "name": "safeTransferFrom",
      "outputs": [],
      "stateMutability": "payable",
      "type": "function"
    },
    {
      "inputs": [
        {
          "internalType": "address",
          "name": "from",
          "type": "address"
        },
        {
          "internalType": "address",
          "name": "to",
          "type": "address"
        },
        {
          "internalType": "uint256",
          "name": "tokenId",
          "type": "uint256"
        },
        {
          "internalType": "bytes",
          "name": "_data",
          "type": "bytes"
        }
      ],
      "name": "safeTransferFrom",
      "outputs": [],
      "stateMutability": "payable",
      "type": "function"
    },
    {
      "inputs": [
        {
          "internalType": "address",
          "name": "operator",
          "type": "address"
        },
        {
          "internalType": "bool",
          "name": "approved",
          "type": "bool"
        }
      ],
      "name": "setApprovalForAll",
      "outputs": [],
      "stateMutability": "nonpayable",
      "type": "function"
    },
    {
      "inputs": [
        {
          "internalType": "uint64",
          "name": "_NFT_id",
          "type": "uint64"
        },
        {
          "internalType": "bytes32",
          "name": "ipfs_hash",
          "type": "bytes32"
        }
      ],
      "name": "setURI",
      "outputs": [],
      "stateMutability": "nonpayable",
      "type": "function"
    },
    {
      "inputs": [
        {
          "internalType": "bytes4",
          "name": "interfaceId",
          "type": "bytes4"
        }
      ],
      "name": "supportsInterface",
      "outputs": [
        {
          "internalType": "bool",
          "name": "",
          "type": "bool"
        }
      ],
      "stateMutability": "view",
      "type": "function"
    },
    {
      "inputs": [],
      "name": "symbol",
      "outputs": [
        {
          "internalType": "string",
          "name": "",
          "type": "string"
        }
      ],
      "stateMutability": "view",
      "type": "function"
    },
    {
      "inputs": [
        {
          "internalType": "uint256",
          "name": "tokenId",
          "type": "uint256"
        }
      ],
      "name": "tokenURI",
      "outputs": [
        {
          "internalType": "string",
          "name": "",
          "type": "string"
        }
      ],
      "stateMutability": "view",
      "type": "function"
    },
    {
      "inputs": [
        {
          "internalType": "address",
          "name": "from",
          "type": "address"
        },
        {
          "internalType": "address",
          "name": "to",
          "type": "address"
        },
        {
          "internalType": "uint256",
          "name": "tokenId",
          "type": "uint256"
        }
      ],
      "name": "transferFrom",
      "outputs": [],
      "stateMutability": "payable",
      "type": "function"
    }
  ],
  "bytecode": "0x60806040523480156200001157600080fd5b506040805180820190915260088082526714dc185c9ad3919560c21b602090920191825262000043916001916200007c565b506040805180820190915260088082526714dc185c9ad3919560c21b602090920191825262000075916002916200007c565b506200015f565b8280546200008a9062000122565b90600052602060002090601f016020900481019282620000ae5760008555620000f9565b82601f10620000c957805160ff1916838001178555620000f9565b82800160010185558215620000f9579182015b82811115620000f9578251825591602001919060010190620000dc565b50620001079291506200010b565b5090565b5b808211156200010757600081556001016200010c565b600181811c908216806200013757607f821691505b602082108114156200015957634e487b7160e01b600052602260045260246000fd5b50919050565b6132e3806200016f6000396000f3fe60806040526004361061020f5760003560e01c80637f52b12a11610118578063c87b56dd116100a0578063f1ac67d31161006f578063f1ac67d314610672578063f208c0f314610692578063f6e9274d146106c2578063fc6b6dea146106e2578063fee032991461070257600080fd5b8063c87b56dd146105c9578063d8a288bd146105e9578063d8d17e7914610609578063e985e9c51461062957600080fd5b8063a7c9e881116100e7578063a7c9e8811461052b578063b88d4fde14610563578063bbe07d7914610576578063bd3355ed14610589578063bdea26fa146105a957600080fd5b80637f52b12a146104af57806392e6f9ac146104cf57806395d89b41146104f6578063a22cb4651461050b57600080fd5b80635a034b3b1161019b5780636352211e1161016a5780636352211e1461040157806365cb8c9314610421578063668432081461044157806370a082311461046157806377738ad21461048f57600080fd5b80635a034b3b146103815780635ca01327146103a15780635e7efa2e146103c157806362f8dcd5146103e157600080fd5b8063095ea7b3116101e2578063095ea7b3146102c5578063177e67f2146102e75780631dab1af71461032357806323b872dd1461035b57806342842e0e1461036e57600080fd5b806301ffc9a7146102145780630292ec361461024957806306fdde031461026b578063081812fc1461028d575b600080fd5b34801561022057600080fd5b5061023461022f366004612c43565b610722565b60405190151581526020015b60405180910390f35b34801561025557600080fd5b50605a5b60405160ff9091168152602001610240565b34801561027757600080fd5b50610280610774565b6040516102409190612f1f565b34801561029957600080fd5b506102ad6102a8366004612cc5565b610806565b6040516001600160a01b039091168152602001610240565b3480156102d157600080fd5b506102e56102e0366004612c1a565b6108b2565b005b3480156102f357600080fd5b5061030e610302366004612d01565b60201c63ffffffff1690565b60405163ffffffff9091168152602001610240565b34801561032f57600080fd5b5061034361033e366004612d01565b6109d2565b6040516001600160401b039091168152602001610240565b6102e5610369366004612b10565b610a27565b6102e561037c366004612b10565b610a3a565b34801561038d57600080fd5b506102e561039c366004612d01565b610a5d565b3480156103ad57600080fd5b506102e56103bc366004612c7b565b610bf8565b3480156103cd57600080fd5b506102596103dc366004612cdd565b610eb5565b3480156103ed57600080fd5b506102346103fc366004612cdd565b610f1c565b34801561040d57600080fd5b506102ad61041c366004612cc5565b610f37565b34801561042d57600080fd5b506102e561043c366004612d36565b610fd0565b34801561044d57600080fd5b506102e561045c366004612d1b565b61108e565b34801561046d57600080fd5b5061048161047c366004612ac4565b611114565b604051908152602001610240565b34801561049b57600080fd5b506102e56104aa366004612e1b565b6111a6565b3480156104bb57600080fd5b506102346104ca366004612d01565b61121a565b3480156104db57600080fd5b506102346104ea366004612d01565b63ffffffff1660011490565b34801561050257600080fd5b50610280611243565b34801561051757600080fd5b506102e5610526366004612be0565b611252565b34801561053757600080fd5b5061054b610546366004612d01565b611310565b6040516001600160801b039091168152602001610240565b6102e5610571366004612b4b565b611363565b6102e5610584366004612d01565b6113b4565b34801561059557600080fd5b5061054b6105a4366004612d01565b6115dd565b3480156105b557600080fd5b506103436105c4366004612d01565b61169f565b3480156105d557600080fd5b506102806105e4366004612cc5565b611750565b3480156105f557600080fd5b5061030e610604366004612cdd565b611860565b34801561061557600080fd5b50610259610624366004612d01565b6118b5565b34801561063557600080fd5b50610234610644366004612ade565b6001600160a01b03918216600090815260056020908152604080832093909416825291909152205460ff1690565b34801561067e57600080fd5b5061030e61068d366004612d01565b611902565b34801561069e57600080fd5b506103436106ad366004612cdd565b63ffffffff60201b60209190911b1660011790565b3480156106ce57600080fd5b5061054b6106dd366004612d01565b611910565b3480156106ee57600080fd5b506102596106fd366004612cdd565b61195f565b34801561070e57600080fd5b506102e561071d366004612df2565b6119a5565b60006001600160e01b031982166380ac58cd60e01b148061075357506001600160e01b03198216635b5e139f60e01b145b8061076e57506301ffc9a760e01b6001600160e01b03198316145b92915050565b60606001805461078390613191565b80601f01602080910402602001604051908101604052809291908181526020018280546107af90613191565b80156107fc5780601f106107d1576101008083540402835291602001916107fc565b820191906000526020600020905b8154815290600101906020018083116107df57829003601f168201915b5050505050905090565b60006108146104ca83611b05565b61087c5760405162461bcd60e51b815260206004820152602e60248201527f537061726b4e46543a20617070726f76656420717565727920666f72206e6f6e60448201526d32bc34b9ba32b73a103a37b5b2b760911b60648201526084015b60405180910390fd5b6004600061088984611b05565b6001600160401b031681526020810191909152604001600020546001600160a01b031692915050565b60006108bd82610f37565b9050806001600160a01b0316836001600160a01b0316141561092d5760405162461bcd60e51b815260206004820152602360248201527f537061726b4e46543a20617070726f76616c20746f2063757272656e74206f776044820152623732b960e91b6064820152608401610873565b336001600160a01b038216148061094957506109498133610644565b6109bb5760405162461bcd60e51b815260206004820152603a60248201527f537061726b4e46543a20617070726f76652063616c6c6572206973206e6f742060448201527f6f776e6572206e6f7220617070726f76656420666f7220616c6c0000000000006064820152608401610873565b6109cd836109c884611b05565b611b71565b505050565b60006109dd8261121a565b6109f95760405162461bcd60e51b815260040161087390612f32565b60005b600163ffffffff84161461076e57610a15600182613039565b9050610a208361169f565b92506109fc565b6109cd8383610a3584611b05565b611be7565b6109cd8383610a4884611b05565b60405180602001604052806000815250611f33565b610a668161121a565b610a825760405162461bcd60e51b815260040161087390612f32565b6001600160401b038116600090815260066020526040902060030154600160801b90046001600160801b031615610bf5576001600160401b038116600090815260066020526040902060030180546001600160801b03808216909255600160801b90041663ffffffff8216600114610b34576000610b1282610b0d602086901c63ffffffff1661195f565b611f6c565b9050610b26610b208461169f565b82611f8e565b610b3081836130e3565b9150505b610b46826001600160401b0316610f37565b6001600160a01b03166108fc826001600160801b03169081150290604051600060405180830381858888f19350505050158015610b87573d6000803e3d6000fd5b50610b9a826001600160401b0316610f37565b6001600160a01b0316826001600160401b03167f3dc1a77733195d8bbde8f8bc719f598f47f377c9c4b854d561b4d607a8e81f6283604051610beb91906001600160801b0391909116815260200190565b60405180910390a3505b50565b60648360ff161115610c605760405162461bcd60e51b815260206004820152602b60248201527f537061726b4e46543a20526f79616c7479206665652073686f756c64206c657360448201526a39903a3430b7101898181760a91b6064820152608401610873565b610c6e600080546001019055565b63ffffffff610c7c60005490565b1115610cda5760405162461bcd60e51b815260206004820152602760248201527f537061726b4e46543a2076616c756520646f65736e27742066697420696e203360448201526619103134ba399760c91b6064820152608401610873565b60008054906001602083901b63ffffffff60201b16179050610d0e6000338360405180602001604052806000815250612000565b610d2a5760405162461bcd60e51b815260040161087390612fab565b6001600160401b038116600090815260066020526040902066ff00000000000019603887901b16603086901b17610d62600182613039565b82546001600160401b0382811667ffffffffffffffff60ff60c01b011990921691909117600160c01b60ff8a160217600160401b600160c01b031916600160401b6001600160801b038c160217845560018085018054336001600160a01b031990911681179091556002860189905560009081526003602052604081208054949550919391929091610df691859116613039565b92506101000a8154816001600160401b0302191690836001600160401b03160217905550826001600160401b0316336001600160a01b031660006001600160a01b03167fddf252ad1be2c89b69c2b068fc378daa952ba7f163c4a11628f55a4df523b3ef60405160405180910390a46040516001600160401b0384168152339063ffffffff8616907f7076939bab881558c26bdfd19cefffacd29a6dcea17a02353fbceb3e9a53c2999060200160405180910390a35050505050505050565b6000610ec082610f1c565b610edc5760405162461bcd60e51b815260040161087390612f69565b61076e6030600660006001602087901b63ffffffff60201b16175b6001600160401b0390811682526020820192909252604001600020541660ff911c1690565b600061076e6001602084901b63ffffffff60201b161761121a565b60008060066000610f4785611b05565b6001600160401b031681526020810191909152604001600020600101546001600160a01b031690508061076e5760405162461bcd60e51b815260206004820152602b60248201527f537061726b4e46543a206f776e657220717565727920666f72206e6f6e65786960448201526a39ba32b73a103a37b5b2b760a91b6064820152608401610873565b33610fe36001600160401b038416610f37565b6001600160a01b0316146110495760405162461bcd60e51b815260206004820152602760248201527f537061726b4e46543a204f6e6c79206f776e65722063616e206c6162656c20746044820152661a1a5cc813919560ca1b6064820152608401610873565b816001600160401b03167f07fabc8249b7822cdf933a532a49e1b0589177b1683b4145ee271dbd66700dfa826040516110829190612f1f565b60405180910390a25050565b336110a16001600160401b038416610f37565b6001600160a01b0316146111065760405162461bcd60e51b815260206004820152602660248201527f537061726b4e46543a204f6e6c79206f776e65722063616e2073657420746f6b604482015265656e2055524960d01b6064820152608401610873565b611110828261210d565b5050565b60006001600160a01b0382166111815760405162461bcd60e51b815260206004820152602c60248201527f537061726b4e46543a2062616c616e636520717565727920666f72207468652060448201526b7a65726f206164647265737360a01b6064820152608401610873565b506001600160a01b03166000908152600360205260409020546001600160401b031690565b6111b083836119a5565b6111c381846001600160401b03166108b2565b6040516001600160801b03831681526001600160a01b038216906001600160401b038516907ff4a029974225230e783a906bf72b4c1037aee2b37958b9a6b5e689da1477729b9060200160405180910390a3505050565b6001600160401b03166000908152600660205260409020600101546001600160a01b0316151590565b60606002805461078390613191565b6001600160a01b0382163314156112ab5760405162461bcd60e51b815260206004820152601b60248201527f537061726b4e46543a20617070726f766520746f2063616c6c657200000000006044820152606401610873565b3360008181526005602090815260408083206001600160a01b03871680855290835292819020805460ff191686151590811790915590519081529192917f17307eab39ab6107e8899845ad3d59bd9653f200f220920489ca2b5937696c319101610beb565b600061131b8261121a565b6113375760405162461bcd60e51b815260040161087390612f32565b506001600160401b0316600090815260066020526040902054600160401b90046001600160801b031690565b6113ad858561137186611b05565b85858080601f016020809104026020016040519081016040528093929190818152602001838380828437600092019190915250611f3392505050565b5050505050565b6113bd8161121a565b6114095760405162461bcd60e51b815260206004820181905260248201527f537061726b4e46543a2054686973204e4654206973206e6f742065786973742e6044820152606401610873565b6001600160401b038116600090815260066020526040902054600160c01b900460ff166114975760405162461bcd60e51b815260206004820152603660248201527f537061726b4e46543a205468657265206973206e6f2072656d61696e207368696044820152753636103a34b6b2b9903337b9103a3434b99027232a1760511b6064820152608401610873565b6001600160401b038116600090815260066020526040902054600160401b90046001600160801b0316341461150e5760405162461bcd60e51b815260206004820152601760248201527f537061726b4e46543a20696e636f7272656374204554480000000000000000006044820152606401610873565b6001600160401b038116600090815260066020526040902054611542908290600160401b90046001600160801b0316611f8e565b6001600160401b0381166000908152600660205260409020805460019190601890611578908490600160c01b900460ff16613142565b92506101000a81548160ff021916908360ff16021790555061159a813361216f565b506001600160401b038116600090815260066020526040902054600160c01b900460ff16610bf557611110816115d8836001600160401b0316610f37565b61216f565b60006115e88261121a565b6116045760405162461bcd60e51b815260040161087390612f32565b6001600160401b038216600090815260066020526040902060030154600160801b90046001600160801b03166116408363ffffffff1660011490565b61076e576001600160401b03831660009081526006602052604081206003015461168b906001600160801b03600160801b90910416610b0d6106fd8763ffffffff60209190911c1690565b905061169781836130e3565b949350505050565b60006116aa8261121a565b6116c65760405162461bcd60e51b815260040161087390612f32565b600163ffffffff831614156117315760405162461bcd60e51b815260206004820152602b60248201527f537061726b4e46543a20526f6f74204e465420646f65736e277420686176652060448201526a3330ba3432b91027232a1760a91b6064820152608401610873565b506001600160401b039081166000908152600660205260409020541690565b606061175e6104ca83611b05565b6117bc5760405162461bcd60e51b815260206004820152602960248201527f537061726b4e46543a2055524920717565727920666f72206e6f6e657869737460448201526832b73a103a37b5b2b760b91b6064820152608401610873565b6000600660006117cb85611b05565b6001600160401b03166001600160401b0316815260200190815260200160002060020154905060006117fc8261236e565b9050600061183260408051808201909152601581527468747470733a2f2f697066732e696f2f697066732f60581b602082015290565b90508082604051602001611847929190612eab565b6040516020818303038152906040529350505050919050565b600061186b82610f1c565b6118875760405162461bcd60e51b815260040161087390612f69565b63ffffffff60201b602083811b9190911660011760009081526006909152604090205463ffffffff1661076e565b60006118c08261121a565b6118dc5760405162461bcd60e51b815260040161087390612f32565b506001600160401b0316600090815260066020526040902054600160c01b900460ff1690565b600063ffffffff821661076e565b600061191b8261121a565b6119375760405162461bcd60e51b815260040161087390612f32565b506001600160401b03166000908152600660205260409020600301546001600160801b031690565b600061196a82610f1c565b6119865760405162461bcd60e51b815260040161087390612f69565b61076e6038600660006001602087901b63ffffffff60201b1617610ef7565b6119ae8261121a565b611a125760405162461bcd60e51b815260206004820152602f60248201527f537061726b4e46543a20546865204e465420796f752077616e7420746f20627560448201526e3c9034b9903737ba1032bc34b9ba1760891b6064820152608401610873565b611a24826001600160401b0316610f37565b6001600160a01b0316336001600160a01b031614611a9d5760405162461bcd60e51b815260206004820152603060248201527f537061726b4e46543a204e465427732070726963652073686f756c642073657460448201526f10313c9037bbb732b91037b31034ba1760811b6064820152608401610873565b6001600160401b03821660008181526006602090815260409182902060030180546001600160801b0319166001600160801b03861690811790915591519182527fca72e8ac93611c80ca0e2046cbd0f09834fcca6a61e4979bd62bb6765ff7a9e79101611082565b60006001600160401b03821115611b6d5760405162461bcd60e51b815260206004820152602660248201527f537061726b4e46543a2076616c756520646f65736e27742066697420696e203660448201526534206269747360d01b6064820152608401610873565b5090565b6001600160401b038116600081815260046020526040902080546001600160a01b0319166001600160a01b038516908117909155611bae82610f37565b6001600160a01b03167f8c5be1e5ebec7d5bd14f71427d1e84f3dd0314c0f7b2291e5b200ac8c7c3b92560405160405180910390a45050565b826001600160a01b0316611c03826001600160401b0316610f37565b6001600160a01b031614611c6d5760405162461bcd60e51b815260206004820152602b60248201527f537061726b4e46543a207472616e73666572206f6620746f6b656e207468617460448201526a1034b9903737ba1037bbb760a91b6064820152608401610873565b611c773382612584565b611cdf5760405162461bcd60e51b815260206004820152603360248201527f537061726b4e46543a207472616e736665722063616c6c6572206973206e6f74604482015272081bdddb995c881b9bdc88185c1c1c9bdd9959606a1b6064820152608401610873565b6001600160a01b038216611d445760405162461bcd60e51b815260206004820152602660248201527f537061726b4e46543a207472616e7366657220746f20746865207a65726f206160448201526564647265737360d01b6064820152608401610873565b611d56816001600160401b0316610f37565b6001600160a01b0316336001600160a01b031614611e1f576001600160401b0381166000908152600660205260409020600301546001600160801b03163414611de15760405162461bcd60e51b815260206004820152601960248201527f537061726b4e46543a206e6f7420656e6f7567687420455448000000000000006044820152606401610873565b6001600160401b038116600090815260066020526040902060030154611e119082906001600160801b0316611f8e565b611e1a81610a5d565b611e28565b611e2881610a5d565b611e318161267e565b6001600160a01b0383166000908152600360205260408120805460019290611e639084906001600160401b0316613122565b82546101009290920a6001600160401b038181021990931691831602179091556001600160a01b03841660009081526003602052604081208054600194509092611eaf91859116613039565b82546101009290920a6001600160401b03818102199093169183160217909155821660008181526006602052604080822060010180546001600160a01b0319166001600160a01b0388811691821790925591519394509092908716917fddf252ad1be2c89b69c2b068fc378daa952ba7f163c4a11628f55a4df523b3ef91a4505050565b611f3e848484611be7565b611f4a84848484612000565b611f665760405162461bcd60e51b815260040161087390612fab565b50505050565b60006064611f7d60ff841685613095565b611f87919061305b565b9392505050565b6001600160401b038216600090815260066020526040902060030154611fc5908290600160801b90046001600160801b0316612fff565b6001600160401b03909216600090815260066020526040902060030180546001600160801b03938416600160801b0293169290921790915550565b60006001600160a01b0384163b1561210257604051630a85bd0160e11b81526001600160a01b0385169063150b7a0290612044903390899088908890600401612eda565b602060405180830381600087803b15801561205e57600080fd5b505af192505050801561208e575060408051601f3d908101601f1916820190925261208b91810190612c5f565b60015b6120e8573d8080156120bc576040519150601f19603f3d011682016040523d82523d6000602084013e6120c1565b606091505b5080516120e05760405162461bcd60e51b815260040161087390612fab565b805181602001fd5b6001600160e01b031916630a85bd0160e11b149050611697565b506001949350505050565b6001600160401b038216600081815260066020908152604091829020600201805490859055825181815291820185905292917f901ae3afe5e7d5594d462fab7cb487880c27d5fc0e3863487a5cfd2a08d350ed910160405180910390a2505050565b600063ffffffff602084901c16612185816126b3565b600061219082611860565b9050600063ffffffff60201b602084901b1663ffffffff83161790506121c86000868360405180602001604052806000815250612000565b6121e45760405162461bcd60e51b815260040161087390612fab565b6001600160401b038116600090815260066020526040902061220584610eb5565b815467ffffffffffffffff60ff60c01b011916600160c01b60ff929092169190910267ffffffffffffffff1916176001600160401b038816908117825560009081526006602052604090205461226c90600160401b90046001600160801b0316605a611f6c565b81546001600160801b0391909116600160401b02600160401b600160c01b0319909116178155600180820180546001600160a01b0389166001600160a01b031990911681179091556001600160401b03808a166000908152600660209081526040808320600290810154908801559382526003905291822080549092916122f591859116613039565b92506101000a8154816001600160401b0302191690836001600160401b03160217905550816001600160401b0316866001600160a01b031660006001600160a01b03167fddf252ad1be2c89b69c2b068fc378daa952ba7f163c4a11628f55a4df523b3ef60405160405180910390a45095945050505050565b60606000604051806040016040528060028152602001609160f51b8152508360405160200161239e929190612e89565b60408051601f198184030181528183526108208301825292506000919060208201610800803683370190505090506000816000815181106123ef57634e487b7160e01b600052603260045260246000fd5b60ff90921660209283029190910190910152600160005b835181101561256057600084828151811061243157634e487b7160e01b600052603260045260246000fd5b016020015160f81c905060005b8360ff168110156124e75784818151811061246957634e487b7160e01b600052603260045260246000fd5b602002602001015160ff1661010061248191906130c4565b61248b9083613021565b9150612498603a83613207565b8582815181106124b857634e487b7160e01b600052603260045260246000fd5b60ff909216602092830291909101909101526124d5603a83613081565b91506124e0816131cc565b905061243e565b505b801561254f576124fa603a82613207565b848460ff168151811061251d57634e487b7160e01b600052603260045260246000fd5b60ff9092166020928302919091019091015282612539816131e7565b93506125489050603a82613081565b90506124e9565b50612559816131cc565b9050612406565b5061257b6125766125718484612786565b612861565b61294f565b95945050505050565b600061258f8261121a565b6125f25760405162461bcd60e51b815260206004820152602e60248201527f537061726b4e46543a206f70657261746f7220717565727920666f72206e6f6e60448201526d32bc34b9ba32b73a103a37b5b2b760911b6064820152608401610873565b6000612606836001600160401b0316610f37565b9050806001600160a01b0316846001600160a01b0316148061264a5750836001600160a01b031661263f846001600160401b0316610806565b6001600160a01b0316145b8061169757506001600160a01b0380821660009081526005602090815260408083209388168352929052205460ff16611697565b612689600082611b71565b6001600160401b0316600090815260066020526040902060030180546001600160801b0319169055565b63ffffffff6126c182611860565b63ffffffff16106127265760405162461bcd60e51b815260206004820152602960248201527f537061726b4e46543a205468657265206973206e6f206c65667420696e20746860448201526834b99034b9b9bab29760b91b6064820152608401610873565b6001602082811b63ffffffff60201b1682176000908152600690915260408120805490919061275f9084906001600160401b0316613039565b92506101000a8154816001600160401b0302191690836001600160401b0316021790555050565b606060008260ff166001600160401b038111156127b357634e487b7160e01b600052604160045260246000fd5b6040519080825280602002602001820160405280156127dc578160200160208202803683370190505b50905060005b8360ff168110156128595784818151811061280d57634e487b7160e01b600052603260045260246000fd5b602002602001015182828151811061283557634e487b7160e01b600052603260045260246000fd5b60ff9092166020928302919091019091015280612851816131cc565b9150506127e2565b509392505050565b6060600082516001600160401b0381111561288c57634e487b7160e01b600052604160045260246000fd5b6040519080825280602002602001820160405280156128b5578160200160208202803683370190505b50905060005b8351811015612948578381600186516128d4919061310b565b6128de919061310b565b815181106128fc57634e487b7160e01b600052603260045260246000fd5b602002602001015182828151811061292457634e487b7160e01b600052603260045260246000fd5b60ff9092166020928302919091019091015280612940816131cc565b9150506128bb565b5092915050565b6060600082516001600160401b0381111561297a57634e487b7160e01b600052604160045260246000fd5b6040519080825280601f01601f1916602001820160405280156129a4576020820181803683370190505b50905060005b8351811015612948576040518060600160405280603a8152602001613274603a91398482815181106129ec57634e487b7160e01b600052603260045260246000fd5b602002602001015160ff1681518110612a1557634e487b7160e01b600052603260045260246000fd5b602001015160f81c60f81b828281518110612a4057634e487b7160e01b600052603260045260246000fd5b60200101906001600160f81b031916908160001a90535080612a61816131cc565b9150506129aa565b80356001600160a01b0381168114612a8057600080fd5b919050565b80356001600160801b0381168114612a8057600080fd5b80356001600160401b0381168114612a8057600080fd5b803560ff81168114612a8057600080fd5b600060208284031215612ad5578081fd5b611f8782612a69565b60008060408385031215612af0578081fd5b612af983612a69565b9150612b0760208401612a69565b90509250929050565b600080600060608486031215612b24578081fd5b612b2d84612a69565b9250612b3b60208501612a69565b9150604084013590509250925092565b600080600080600060808688031215612b62578081fd5b612b6b86612a69565b9450612b7960208701612a69565b93506040860135925060608601356001600160401b0380821115612b9b578283fd5b818801915088601f830112612bae578283fd5b813581811115612bbc578384fd5b896020828501011115612bcd578384fd5b9699959850939650602001949392505050565b60008060408385031215612bf2578182fd5b612bfb83612a69565b915060208301358015158114612c0f578182fd5b809150509250929050565b60008060408385031215612c2c578182fd5b612c3583612a69565b946020939093013593505050565b600060208284031215612c54578081fd5b8135611f878161325d565b600060208284031215612c70578081fd5b8151611f878161325d565b60008060008060808587031215612c90578384fd5b612c9985612a85565b9350612ca760208601612ab3565b9250612cb560408601612ab3565b9396929550929360600135925050565b600060208284031215612cd6578081fd5b5035919050565b600060208284031215612cee578081fd5b813563ffffffff81168114611f87578182fd5b600060208284031215612d12578081fd5b611f8782612a9c565b60008060408385031215612d2d578182fd5b612c3583612a9c565b60008060408385031215612d48578182fd5b612d5183612a9c565b915060208301356001600160401b0380821115612d6c578283fd5b818501915085601f830112612d7f578283fd5b813581811115612d9157612d91613247565b604051601f8201601f19908116603f01168101908382118183101715612db957612db9613247565b81604052828152886020848701011115612dd1578586fd5b82602086016020830137856020848301015280955050505050509250929050565b60008060408385031215612e04578182fd5b612e0d83612a9c565b9150612b0760208401612a85565b600080600060608486031215612e2f578081fd5b612e3884612a9c565b9250612e4660208501612a85565b9150612e5460408501612a69565b90509250925092565b60008151808452612e75816020860160208601613165565b601f01601f19169290920160200192915050565b60008351612e9b818460208801613165565b9190910191825250602001919050565b60008351612ebd818460208801613165565b835190830190612ed1818360208801613165565b01949350505050565b6001600160a01b038581168252841660208201526001600160401b0383166040820152608060608201819052600090612f1590830184612e5d565b9695505050505050565b602081526000611f876020830184612e5d565b6020808252601f908201527f537061726b4e46543a2045646974696f6e206973206e6f742065786973742e00604082015260600190565b60208082526022908201527f537061726b4e46543a2054686973206973737565206973206e6f7420657869736040820152613a1760f11b606082015260800190565b60208082526034908201527f537061726b4e46543a207472616e7366657220746f206e6f6e204552433732316040820152732932b1b2b4bb32b91034b6b83632b6b2b73a32b960611b606082015260800190565b60006001600160801b03808316818516808303821115612ed157612ed161321b565b600082198211156130345761303461321b565b500190565b60006001600160401b03808316818516808303821115612ed157612ed161321b565b60006001600160801b038084168061307557613075613231565b92169190910492915050565b60008261309057613090613231565b500490565b60006001600160801b03808316818516818304811182151516156130bb576130bb61321b565b02949350505050565b60008160001904831182151516156130de576130de61321b565b500290565b60006001600160801b03838116908316818110156131035761310361321b565b039392505050565b60008282101561311d5761311d61321b565b500390565b60006001600160401b03838116908316818110156131035761310361321b565b600060ff821660ff84168082101561315c5761315c61321b565b90039392505050565b60005b83811015613180578181015183820152602001613168565b83811115611f665750506000910152565b600181811c908216806131a557607f821691505b602082108114156131c657634e487b7160e01b600052602260045260246000fd5b50919050565b60006000198214156131e0576131e061321b565b5060010190565b600060ff821660ff8114156131fe576131fe61321b565b60010192915050565b60008261321657613216613231565b500690565b634e487b7160e01b600052601160045260246000fd5b634e487b7160e01b600052601260045260246000fd5b634e487b7160e01b600052604160045260246000fd5b6001600160e01b031981168114610bf557600080fdfe31323334353637383941424344454647484a4b4c4d4e505152535455565758595a6162636465666768696a6b6d6e6f707172737475767778797aa26469706673582212208977bc12774e61ce29913a233a252c891774733816ae6e5bf3f57cf4c0a405b764736f6c63430008040033",
  "linkReferences": {},
  "deployedLinkReferences": {}
}