{
  "_format": "hh-sol-artifact-1",
  "contractName": "SparkNFT",
  "sourceName": "contracts/SparkNFT.sol",
  "abi": [
    {
      "inputs": [],
      "stateMutability": "nonpayable",
      "type": "constructor"
    },
    {
      "anonymous": false,
      "inputs": [
        {
          "indexed": true,
          "internalType": "address",
          "name": "owner",
          "type": "address"
        },
        {
          "indexed": true,
          "internalType": "address",
          "name": "approved",
          "type": "address"
        },
        {
          "indexed": true,
          "internalType": "uint256",
          "name": "tokenId",
          "type": "uint256"
        }
      ],
      "name": "Approval",
      "type": "event"
    },
    {
      "anonymous": false,
      "inputs": [
        {
          "indexed": true,
          "internalType": "address",
          "name": "owner",
          "type": "address"
        },
        {
          "indexed": true,
          "internalType": "address",
          "name": "operator",
          "type": "address"
        },
        {
          "indexed": false,
          "internalType": "bool",
          "name": "approved",
          "type": "bool"
        }
      ],
      "name": "ApprovalForAll",
      "type": "event"
    },
    {
      "anonymous": false,
      "inputs": [
        {
          "indexed": true,
          "internalType": "uint64",
          "name": "NFT_id",
          "type": "uint64"
        },
        {
          "indexed": true,
          "internalType": "address",
          "name": "receiver",
          "type": "address"
        },
        {
          "indexed": false,
          "internalType": "uint128",
          "name": "amount",
          "type": "uint128"
        }
      ],
      "name": "Claim",
      "type": "event"
    },
    {
      "anonymous": false,
      "inputs": [
        {
          "indexed": true,
          "internalType": "uint64",
          "name": "NFT_id",
          "type": "uint64"
        },
        {
          "indexed": false,
          "internalType": "uint128",
          "name": "transfer_price",
          "type": "uint128"
        }
      ],
      "name": "DeterminePrice",
      "type": "event"
    },
    {
      "anonymous": false,
      "inputs": [
        {
          "indexed": true,
          "internalType": "uint64",
          "name": "NFT_id",
          "type": "uint64"
        },
        {
          "indexed": false,
          "internalType": "uint128",
          "name": "transfer_price",
          "type": "uint128"
        },
        {
          "indexed": true,
          "internalType": "address",
          "name": "to",
          "type": "address"
        }
      ],
      "name": "DeterminePriceAndApprove",
      "type": "event"
    },
    {
      "anonymous": false,
      "inputs": [
        {
          "indexed": true,
          "internalType": "uint32",
          "name": "issue_id",
          "type": "uint32"
        },
        {
          "indexed": true,
          "internalType": "address",
          "name": "publisher",
          "type": "address"
        },
        {
          "indexed": false,
          "internalType": "uint64",
          "name": "rootNFTId",
          "type": "uint64"
        }
      ],
      "name": "Publish",
      "type": "event"
    },
    {
      "anonymous": false,
      "inputs": [
        {
          "indexed": true,
          "internalType": "address",
          "name": "from",
          "type": "address"
        },
        {
          "indexed": true,
          "internalType": "address",
          "name": "to",
          "type": "address"
        },
        {
          "indexed": true,
          "internalType": "uint256",
          "name": "tokenId",
          "type": "uint256"
        }
      ],
      "name": "Transfer",
      "type": "event"
    },
    {
      "inputs": [
        {
          "internalType": "uint64",
          "name": "_NFT_id",
          "type": "uint64"
        }
      ],
      "name": "acceptShill",
      "outputs": [],
      "stateMutability": "payable",
      "type": "function"
    },
    {
      "inputs": [
        {
          "internalType": "address",
          "name": "to",
          "type": "address"
        },
        {
          "internalType": "uint256",
          "name": "tokenId",
          "type": "uint256"
        }
      ],
      "name": "approve",
      "outputs": [],
      "stateMutability": "nonpayable",
      "type": "function"
    },
    {
      "inputs": [
        {
          "internalType": "address",
          "name": "owner",
          "type": "address"
        }
      ],
      "name": "balanceOf",
      "outputs": [
        {
          "internalType": "uint256",
          "name": "",
          "type": "uint256"
        }
      ],
      "stateMutability": "view",
      "type": "function"
    },
    {
      "inputs": [
        {
          "internalType": "uint64",
          "name": "_NFT_id",
          "type": "uint64"
        }
      ],
      "name": "claimProfit",
      "outputs": [],
      "stateMutability": "nonpayable",
      "type": "function"
    },
    {
      "inputs": [
        {
          "internalType": "uint64",
          "name": "_NFT_id",
          "type": "uint64"
        },
        {
          "internalType": "uint128",
          "name": "_price",
          "type": "uint128"
        }
      ],
      "name": "determinePrice",
      "outputs": [],
      "stateMutability": "nonpayable",
      "type": "function"
    },
    {
      "inputs": [
        {
          "internalType": "uint64",
          "name": "_NFT_id",
          "type": "uint64"
        },
        {
          "internalType": "uint128",
          "name": "_price",
          "type": "uint128"
        },
        {
          "internalType": "address",
          "name": "_to",
          "type": "address"
        }
      ],
      "name": "determinePriceAndApprove",
      "outputs": [],
      "stateMutability": "nonpayable",
      "type": "function"
    },
    {
      "inputs": [
        {
          "internalType": "uint256",
          "name": "tokenId",
          "type": "uint256"
        }
      ],
      "name": "getApproved",
      "outputs": [
        {
          "internalType": "address",
          "name": "",
          "type": "address"
        }
      ],
      "stateMutability": "view",
      "type": "function"
    },
    {
      "inputs": [
        {
          "internalType": "uint64",
          "name": "_NFT_id",
          "type": "uint64"
        }
      ],
      "name": "getFatherByNFTId",
      "outputs": [
        {
          "internalType": "uint64",
          "name": "",
          "type": "uint64"
        }
      ],
      "stateMutability": "view",
      "type": "function"
    },
    {
      "inputs": [
        {
          "internalType": "uint64",
          "name": "_NFT_id",
          "type": "uint64"
        }
      ],
      "name": "getIssueIdByNFTId",
      "outputs": [
        {
          "internalType": "uint32",
          "name": "",
          "type": "uint32"
        }
      ],
      "stateMutability": "pure",
      "type": "function"
    },
    {
      "inputs": [],
      "name": "getLossRatio",
      "outputs": [
        {
          "internalType": "uint8",
          "name": "",
          "type": "uint8"
        }
      ],
      "stateMutability": "pure",
      "type": "function"
    },
    {
      "inputs": [
        {
          "internalType": "uint64",
          "name": "_NFT_id",
          "type": "uint64"
        }
      ],
      "name": "getRemainShillTimesByNFTId",
      "outputs": [
        {
          "internalType": "uint8",
          "name": "",
          "type": "uint8"
        }
      ],
      "stateMutability": "view",
      "type": "function"
    },
    {
      "inputs": [
        {
          "internalType": "uint32",
          "name": "_issue_id",
          "type": "uint32"
        }
      ],
      "name": "getRootNFTIdByIssueId",
      "outputs": [
        {
          "internalType": "uint64",
          "name": "",
          "type": "uint64"
        }
      ],
      "stateMutability": "pure",
      "type": "function"
    },
    {
      "inputs": [
        {
          "internalType": "uint32",
          "name": "_issue_id",
          "type": "uint32"
        }
      ],
      "name": "getRoyaltyFeeByIssueId",
      "outputs": [
        {
          "internalType": "uint8",
          "name": "",
          "type": "uint8"
        }
      ],
      "stateMutability": "view",
      "type": "function"
    },
    {
      "inputs": [
        {
          "internalType": "uint64",
          "name": "_NFT_id",
          "type": "uint64"
        }
      ],
      "name": "getShillPriceByNFTId",
      "outputs": [
        {
          "internalType": "uint128",
          "name": "",
          "type": "uint128"
        }
      ],
      "stateMutability": "view",
      "type": "function"
    },
    {
      "inputs": [
        {
          "internalType": "uint32",
          "name": "_issue_id",
          "type": "uint32"
        }
      ],
      "name": "getShillTimesByIssueId",
      "outputs": [
        {
          "internalType": "uint8",
          "name": "",
          "type": "uint8"
        }
      ],
      "stateMutability": "view",
      "type": "function"
    },
    {
      "inputs": [
        {
          "internalType": "uint32",
          "name": "_issue_id",
          "type": "uint32"
        }
      ],
      "name": "getTotalAmountByIssueId",
      "outputs": [
        {
          "internalType": "uint32",
          "name": "",
          "type": "uint32"
        }
      ],
      "stateMutability": "view",
      "type": "function"
    },
    {
      "inputs": [
        {
          "internalType": "uint64",
          "name": "_NFT_id",
          "type": "uint64"
        }
      ],
      "name": "getTransferPriceByNFTId",
      "outputs": [
        {
          "internalType": "uint128",
          "name": "",
          "type": "uint128"
        }
      ],
      "stateMutability": "view",
      "type": "function"
    },
    {
      "inputs": [
        {
          "internalType": "address",
          "name": "owner",
          "type": "address"
        },
        {
          "internalType": "address",
          "name": "operator",
          "type": "address"
        }
      ],
      "name": "isApprovedForAll",
      "outputs": [
        {
          "internalType": "bool",
          "name": "",
          "type": "bool"
        }
      ],
      "stateMutability": "view",
      "type": "function"
    },
    {
      "inputs": [
        {
          "internalType": "uint64",
          "name": "_NFT_id",
          "type": "uint64"
        }
      ],
      "name": "isEditionExist",
      "outputs": [
        {
          "internalType": "bool",
          "name": "",
          "type": "bool"
        }
      ],
      "stateMutability": "view",
      "type": "function"
    },
    {
      "inputs": [
        {
          "internalType": "uint32",
          "name": "_issue_id",
          "type": "uint32"
        }
      ],
      "name": "isIssueExist",
      "outputs": [
        {
          "internalType": "bool",
          "name": "",
          "type": "bool"
        }
      ],
      "stateMutability": "view",
      "type": "function"
    },
    {
      "inputs": [
        {
          "internalType": "uint64",
          "name": "_NFT_id",
          "type": "uint64"
        }
      ],
      "name": "isRootNFT",
      "outputs": [
        {
          "internalType": "bool",
          "name": "",
          "type": "bool"
        }
      ],
      "stateMutability": "pure",
      "type": "function"
    },
    {
      "inputs": [],
      "name": "name",
      "outputs": [
        {
          "internalType": "string",
          "name": "",
          "type": "string"
        }
      ],
      "stateMutability": "view",
      "type": "function"
    },
    {
      "inputs": [
        {
          "internalType": "uint256",
          "name": "tokenId",
          "type": "uint256"
        }
      ],
      "name": "ownerOf",
      "outputs": [
        {
          "internalType": "address",
          "name": "",
          "type": "address"
        }
      ],
      "stateMutability": "view",
      "type": "function"
    },
    {
      "inputs": [
        {
          "internalType": "uint128",
          "name": "_first_sell_price",
          "type": "uint128"
        },
        {
          "internalType": "uint8",
          "name": "_royalty_fee",
          "type": "uint8"
        },
        {
          "internalType": "uint8",
          "name": "_shill_times",
          "type": "uint8"
        },
        {
          "internalType": "bytes32",
          "name": "_ipfs_hash",
          "type": "bytes32"
        }
      ],
      "name": "publish",
      "outputs": [],
      "stateMutability": "nonpayable",
      "type": "function"
    },
    {
      "inputs": [
        {
          "internalType": "address",
          "name": "from",
          "type": "address"
        },
        {
          "internalType": "address",
          "name": "to",
          "type": "address"
        },
        {
          "internalType": "uint256",
          "name": "tokenId",
          "type": "uint256"
        }
      ],
      "name": "safeTransferFrom",
      "outputs": [],
      "stateMutability": "payable",
      "type": "function"
    },
    {
      "inputs": [
        {
          "internalType": "address",
          "name": "from",
          "type": "address"
        },
        {
          "internalType": "address",
          "name": "to",
          "type": "address"
        },
        {
          "internalType": "uint256",
          "name": "tokenId",
          "type": "uint256"
        },
        {
          "internalType": "bytes",
          "name": "_data",
          "type": "bytes"
        }
      ],
      "name": "safeTransferFrom",
      "outputs": [],
      "stateMutability": "payable",
      "type": "function"
    },
    {
      "inputs": [
        {
          "internalType": "address",
          "name": "operator",
          "type": "address"
        },
        {
          "internalType": "bool",
          "name": "approved",
          "type": "bool"
        }
      ],
      "name": "setApprovalForAll",
      "outputs": [],
      "stateMutability": "nonpayable",
      "type": "function"
    },
    {
      "inputs": [
        {
          "internalType": "bytes4",
          "name": "interfaceId",
          "type": "bytes4"
        }
      ],
      "name": "supportsInterface",
      "outputs": [
        {
          "internalType": "bool",
          "name": "",
          "type": "bool"
        }
      ],
      "stateMutability": "view",
      "type": "function"
    },
    {
      "inputs": [],
      "name": "symbol",
      "outputs": [
        {
          "internalType": "string",
          "name": "",
          "type": "string"
        }
      ],
      "stateMutability": "view",
      "type": "function"
    },
    {
      "inputs": [
        {
          "internalType": "uint256",
          "name": "tokenId",
          "type": "uint256"
        }
      ],
      "name": "tokenURI",
      "outputs": [
        {
          "internalType": "string",
          "name": "",
          "type": "string"
        }
      ],
      "stateMutability": "view",
      "type": "function"
    },
    {
      "inputs": [
        {
          "internalType": "address",
          "name": "from",
          "type": "address"
        },
        {
          "internalType": "address",
          "name": "to",
          "type": "address"
        },
        {
          "internalType": "uint256",
          "name": "tokenId",
          "type": "uint256"
        }
      ],
      "name": "transferFrom",
      "outputs": [],
      "stateMutability": "payable",
      "type": "function"
    }
  ],
  "bytecode": "0x60806040523480156200001157600080fd5b506040805180820190915260088082526714dc185c9ad3919560c21b602090920191825262000043916002916200007c565b506040805180820190915260088082526714dc185c9ad3919560c21b602090920191825262000075916003916200007c565b506200015f565b8280546200008a9062000122565b90600052602060002090601f016020900481019282620000ae5760008555620000f9565b82601f10620000c957805160ff1916838001178555620000f9565b82800160010185558215620000f9579182015b82811115620000f9578251825591602001919060010190620000dc565b50620001079291506200010b565b5090565b5b808211156200010757600081556001016200010c565b6002810460018216806200013757607f821691505b602082108114156200015957634e487b7160e01b600052602260045260246000fd5b50919050565b61294d806200016f6000396000f3fe6080604052600436106101d85760003560e01c80637f52b12a11610102578063c87b56dd11610095578063f208c0f311610064578063f208c0f31461055b578063f6e9274d1461057b578063fc6b6dea1461059b578063fee03299146105bb576101d8565b8063c87b56dd146104db578063d8a288bd146104fb578063d8d17e791461051b578063e985e9c51461053b576101d8565b8063a7c9e881116100d1578063a7c9e8811461045b578063b88d4fde14610488578063bbe07d791461049b578063bdea26fa146104ae576101d8565b80637f52b12a146103e657806392e6f9ac1461040657806395d89b4114610426578063a22cb4651461043b576101d8565b806342842e0e1161017a57806362f8dcd51161014957806362f8dcd5146103595780636352211e1461037957806370a082311461039957806377738ad2146103c6576101d8565b806342842e0e146102e65780635a034b3b146102f95780635ca01327146103195780635e7efa2e14610339576101d8565b8063081812fc116101b6578063081812fc14610257578063095ea7b314610284578063177e67f2146102a657806323b872dd146102d3576101d8565b806301ffc9a7146101dd5780630292ec361461021357806306fdde0314610235575b600080fd5b3480156101e957600080fd5b506101fd6101f8366004611e8d565b6105db565b60405161020a9190612077565b60405180910390f35b34801561021f57600080fd5b50610228610623565b60405161020a919061275d565b34801561024157600080fd5b5061024a610628565b60405161020a9190612082565b34801561026357600080fd5b50610277610272366004611f0f565b6106ba565b60405161020a919061201e565b34801561029057600080fd5b506102a461029f366004611e64565b610723565b005b3480156102b257600080fd5b506102c66102c1366004611f4b565b6107c3565b60405161020a9190612738565b6102a46102e1366004611d5a565b6107cf565b6102a46102f4366004611d5a565b6107e2565b34801561030557600080fd5b506102a4610314366004611f4b565b610805565b34801561032557600080fd5b506102a4610334366004611ec5565b6109b3565b34801561034557600080fd5b50610228610354366004611f27565b610bf7565b34801561036557600080fd5b506101fd610374366004611f27565b610c52565b34801561038557600080fd5b50610277610394366004611f0f565b610c60565b3480156103a557600080fd5b506103b96103b4366004611d0e565b610cb5565b60405161020a919061272f565b3480156103d257600080fd5b506102a46103e1366004611f8e565b610d02565b3480156103f257600080fd5b506101fd610401366004611f4b565b610d6f565b34801561041257600080fd5b506101fd610421366004611f4b565b610d99565b34801561043257600080fd5b5061024a610db3565b34801561044757600080fd5b506102a4610456366004611e2a565b610dc2565b34801561046757600080fd5b5061047b610476366004611f4b565b610e84565b60405161020a919061271b565b6102a4610496366004611d95565b610ed7565b6102a46104a9366004611f4b565b610f28565b3480156104ba57600080fd5b506104ce6104c9366004611f4b565b6110a9565b60405161020a9190612749565b3480156104e757600080fd5b5061024a6104f6366004611f0f565b6110ef565b34801561050757600080fd5b506102c6610516366004611f27565b611185565b34801561052757600080fd5b50610228610536366004611f4b565b6111de565b34801561054757600080fd5b506101fd610556366004611d28565b61122b565b34801561056757600080fd5b506104ce610576366004611f27565b611259565b34801561058757600080fd5b5061047b610596366004611f4b565b61126f565b3480156105a757600080fd5b506102286105b6366004611f27565b6112be565b3480156105c757600080fd5b506102a46105d6366004611f65565b6112f7565b60006001600160e01b031982166380ac58cd60e01b148061060c57506001600160e01b03198216635b5e139f60e01b145b8061061b575061061b826113ce565b90505b919050565b605a90565b606060028054610637906128b0565b80601f0160208091040260200160405190810160405280929190818152602001828054610663906128b0565b80156106b05780601f10610685576101008083540402835291602001916106b0565b820191906000526020600020905b81548152906001019060200180831161069357829003601f168201915b5050505050905090565b60006106c8610401836113e7565b6106ed5760405162461bcd60e51b81526004016106e490612230565b60405180910390fd5b600560006106fa846113e7565b6001600160401b031681526020810191909152604001600020546001600160a01b031692915050565b600061072e82610c60565b9050806001600160a01b0316836001600160a01b031614156107625760405162461bcd60e51b81526004016106e49061240d565b806001600160a01b0316610774611414565b6001600160a01b03161480610790575061079081610556611414565b6107ac5760405162461bcd60e51b81526004016106e4906123b0565b6107be836107b9846113e7565b611418565b505050565b60201c63ffffffff1690565b6107be83836107dd846113e7565b61148e565b6107be83836107f0846113e7565b604051806020016040528060008152506116e4565b61080e81610d6f565b61082a5760405162461bcd60e51b81526004016106e490612095565b6001600160401b038116600090815260016020526040902060030154600160801b90046001600160801b0316156109b0576001600160401b038116600090815260016020526040902060030180546001600160801b03808216909255600160801b90041661089782610d99565b6108fe576001600160401b0382166000908152600160205260408120600301546108dc90600160801b90046001600160801b03166108d76105b6866107c3565b61171d565b90506108f06108ea846110a9565b8261173f565b6108fa8183612819565b9150505b610910826001600160401b0316610c60565b6001600160a01b03166108fc826001600160801b03169081150290604051600060405180830381858888f19350505050158015610951573d6000803e3d6000fd5b50610964826001600160401b0316610c60565b6001600160a01b0316826001600160401b03167f3dc1a77733195d8bbde8f8bc719f598f47f377c9c4b854d561b4d607a8e81f62836040516109a6919061271b565b60405180910390a3505b50565b60648360ff1611156109d75760405162461bcd60e51b81526004016106e4906125a7565b6109e160006117b1565b63ffffffff6109f060006117ba565b1115610a0e5760405162461bcd60e51b81526004016106e49061211b565b6000610a1a60006117ba565b90506000610a298260016117be565b9050610a4760003383604051806020016040528060008152506117d8565b610a635760405162461bcd60e51b81526004016106e4906122c0565b6001600160401b038116600090815260016020526040812090610a88603888836118f4565b9050610a96603087836118f4565b9050610aa3600182612796565b825467ffffffffffffffff19166001600160401b038281169190911760ff60c01b1916600160c01b60ff8a160217600160401b600160c01b031916600160401b6001600160801b038c160217845560018085018054336001600160a01b031990911681179091556002860189905560009081526004602052604081208054949550919391929091610b3691859116612796565b92506101000a8154816001600160401b0302191690836001600160401b03160217905550826001600160401b0316336001600160a01b031660006001600160a01b03167fddf252ad1be2c89b69c2b068fc378daa952ba7f163c4a11628f55a4df523b3ef60405160405180910390a4336001600160a01b03168463ffffffff167f7076939bab881558c26bdfd19cefffacd29a6dcea17a02353fbceb3e9a53c29985604051610be59190612749565b60405180910390a35050505050505050565b6000610c0282610c52565b610c1e5760405162461bcd60e51b81526004016106e49061227e565b61061b603060016000610c3086611259565b6001600160401b03908116825260208201929092526040016000205416611900565b600061061b61040183611259565b60008060016000610c70856113e7565b6001600160401b031681526020810191909152604001600020600101546001600160a01b031690508061061b5760405162461bcd60e51b81526004016106e4906124a3565b60006001600160a01b038216610cdd5760405162461bcd60e51b81526004016106e4906125f2565b506001600160a01b03166000908152600460205260409020546001600160401b031690565b610d0c83836112f7565b610d1f81846001600160401b0316610723565b806001600160a01b0316836001600160401b03167ff4a029974225230e783a906bf72b4c1037aee2b37958b9a6b5e689da1477729b84604051610d62919061271b565b60405180910390a3505050565b6001600160401b0316600090815260016020819052604090912001546001600160a01b0316151590565b60006001610da683611908565b63ffffffff161492915050565b606060038054610637906128b0565b610dca611414565b6001600160a01b0316826001600160a01b03161415610dfb5760405162461bcd60e51b81526004016106e490612525565b8060066000610e08611414565b6001600160a01b03908116825260208083019390935260409182016000908120918716808252919093529120805460ff191692151592909217909155610e4c611414565b6001600160a01b03167f17307eab39ab6107e8899845ad3d59bd9653f200f220920489ca2b5937696c31836040516109a69190612077565b6000610e8f82610d6f565b610eab5760405162461bcd60e51b81526004016106e490612095565b506001600160401b0316600090815260016020526040902054600160401b90046001600160801b031690565b610f218585610ee5866113e7565b85858080601f0160208091040260200160405190810160405280939291908181526020018383808284376000920191909152506116e492505050565b5050505050565b610f3181610d6f565b610f4d5760405162461bcd60e51b81526004016106e4906121fb565b6001600160401b038116600090815260016020526040902054600160c01b900460ff16610f8c5760405162461bcd60e51b81526004016106e49061235a565b6001600160401b038116600090815260016020526040902054600160401b90046001600160801b03163414610fd35760405162461bcd60e51b81526004016106e4906124ee565b6001600160401b038116600090815260016020526040902054611007908290600160401b90046001600160801b031661173f565b6110118133611911565b506001600160401b03811660009081526001602081905260409091208054601890611047908490600160c01b900460ff16612861565b82546101009290920a60ff8181021990931691831602179091556001600160401b038316600090815260016020526040902054600160c01b900416151590506109b0576110a5816110a0836001600160401b0316610c60565b611911565b5050565b60006110b482610d6f565b6110d05760405162461bcd60e51b81526004016106e490612095565b506001600160401b039081166000908152600160205260409020541690565b60606110fd610401836113e7565b6111195760405162461bcd60e51b81526004016106e490612684565b600060016000611128856113e7565b6001600160401b03166001600160401b031681526020019081526020016000206002015490506000611158611b2c565b9050808260405160200161116d929190611ffc565b60405160208183030381529060405292505050919050565b600061119082610c52565b6111ac5760405162461bcd60e51b81526004016106e49061227e565b61061b600160006111bc85611259565b6001600160401b03908116825260208201929092526040016000205416611908565b60006111e982610d6f565b6112055760405162461bcd60e51b81526004016106e490612095565b506001600160401b0316600090815260016020526040902054600160c01b900460ff1690565b6001600160a01b03918216600090815260066020908152604080832093909416825291909152205460ff1690565b600160209190911b67ffffffff00000000161790565b600061127a82610d6f565b6112965760405162461bcd60e51b81526004016106e490612095565b506001600160401b03166000908152600160205260409020600301546001600160801b031690565b60006112c982610c52565b6112e55760405162461bcd60e51b81526004016106e49061227e565b61061b603860016000610c3086611259565b61130082610d6f565b61131c5760405162461bcd60e51b81526004016106e4906120cc565b61132e826001600160401b0316610c60565b6001600160a01b0316336001600160a01b03161461135e5760405162461bcd60e51b81526004016106e4906121ab565b6001600160401b0382166000818152600160205260409081902060030180546001600160801b0319166001600160801b038516179055517fca72e8ac93611c80ca0e2046cbd0f09834fcca6a61e4979bd62bb6765ff7a9e7906113c290849061271b565b60405180910390a25050565b6001600160e01b031981166301ffc9a760e01b14919050565b60006001600160401b038211156114105760405162461bcd60e51b81526004016106e490612314565b5090565b3390565b6001600160401b038116600081815260056020526040902080546001600160a01b0319166001600160a01b03851690811790915561145582610c60565b6001600160a01b03167f8c5be1e5ebec7d5bd14f71427d1e84f3dd0314c0f7b2291e5b200ac8c7c3b92560405160405180910390a45050565b826001600160a01b03166114aa826001600160401b0316610c60565b6001600160a01b0316146114d05760405162461bcd60e51b81526004016106e49061255c565b6114e16114db611414565b82611b5b565b6114fd5760405162461bcd60e51b81526004016106e490612450565b6001600160a01b0382166115235760405162461bcd60e51b81526004016106e49061263e565b611535816001600160401b0316610c60565b6001600160a01b0316336001600160a01b0316146115ce576001600160401b0381166000908152600160205260409020600301546001600160801b031634146115905760405162461bcd60e51b81526004016106e4906124ee565b6001600160401b0381166000908152600160205260409020600301546115c09082906001600160801b031661173f565b6115c981610805565b6115d7565b6115d781610805565b6115e081611bea565b6001600160a01b03831660009081526004602052604081208054600192906116129084906001600160401b0316612841565b82546101009290920a6001600160401b038181021990931691831602179091556001600160a01b0384166000908152600460205260408120805460019450909261165e91859116612796565b82546101009290920a6001600160401b038181021990931691831602179091558216600081815260016020819052604080832090910180546001600160a01b0319166001600160a01b0388811691821790925591519394509092908716917fddf252ad1be2c89b69c2b068fc378daa952ba7f163c4a11628f55a4df523b3ef91a4505050565b6116ef84848461148e565b6116fb848484846117d8565b6117175760405162461bcd60e51b81526004016106e4906122c0565b50505050565b6000606461172e60ff8416856127ea565b61173891906127b8565b9392505050565b6001600160401b038216600090815260016020526040902060030154611776908290600160801b90046001600160801b031661276b565b6001600160401b03909216600090815260016020526040902060030180546001600160801b03938416600160801b0293169290921790915550565b80546001019055565b5490565b63ffffffff1660209190911b67ffffffff00000000161790565b60006117ec846001600160a01b0316611c1f565b156118e857836001600160a01b031663150b7a02611808611414565b8786866040518563ffffffff1660e01b815260040161182a9493929190612032565b602060405180830381600087803b15801561184457600080fd5b505af1925050508015611874575060408051601f3d908101601f1916820190925261187191810190611ea9565b60015b6118ce573d8080156118a2576040519150601f19603f3d011682016040523d82523d6000602084013e6118a7565b606091505b5080516118c65760405162461bcd60e51b81526004016106e4906122c0565b805181602001fd5b6001600160e01b031916630a85bd0160e11b1490506118ec565b5060015b949350505050565b60ff831b1916911b1790565b60ff911c1690565b63ffffffff1690565b60008061191d846107c3565b905061192881611c25565b600061193382611185565b9050600061194183836117be565b905061195f60008683604051806020016040528060008152506117d8565b61197b5760405162461bcd60e51b81526004016106e4906122c0565b6001600160401b038116600090815260016020526040902061199c84610bf7565b815460ff60c01b1916600160c01b60ff92909216919091021767ffffffffffffffff19166001600160401b03881690811782556000908152600160205260409020546119f990600160401b90046001600160801b0316605a61171d565b6001600160401b038816600090815260016020526040902054611a2c9190600160401b90046001600160801b0316612819565b81546001600160801b0391909116600160401b02600160401b600160c01b0319909116178155600180820180546001600160a01b0389166001600160a01b031990911681179091556001600160401b03808a1660009081526020848152604080832060029081015490880155938252600490529182208054909291611ab391859116612796565b92506101000a8154816001600160401b0302191690836001600160401b03160217905550816001600160401b0316866001600160a01b031660006001600160a01b03167fddf252ad1be2c89b69c2b068fc378daa952ba7f163c4a11628f55a4df523b3ef60405160405180910390a45095945050505050565b60408051808201909152601581527468747470733a2f2f697066732e696f2f697066732f60581b602082015290565b6000611b6682610d6f565b611b825760405162461bcd60e51b81526004016106e4906126cd565b6000611b96836001600160401b0316610c60565b9050806001600160a01b0316846001600160a01b03161480611bda5750836001600160a01b0316611bcf846001600160401b03166106ba565b6001600160a01b0316145b806118ec57506118ec818561122b565b611bf5600082611418565b6001600160401b0316600090815260016020526040902060030180546001600160801b0319169055565b3b151590565b63ffffffff611c3382611185565b63ffffffff1610611c565760405162461bcd60e51b81526004016106e490612162565b6001806000611c6484611259565b6001600160401b0390811682526020820192909252604001600090812080549092611c9191859116612796565b92506101000a8154816001600160401b0302191690836001600160401b0316021790555050565b80356001600160a01b038116811461061e57600080fd5b80356001600160801b038116811461061e57600080fd5b80356001600160401b038116811461061e57600080fd5b803560ff8116811461061e57600080fd5b600060208284031215611d1f578081fd5b61173882611cb8565b60008060408385031215611d3a578081fd5b611d4383611cb8565b9150611d5160208401611cb8565b90509250929050565b600080600060608486031215611d6e578081fd5b611d7784611cb8565b9250611d8560208501611cb8565b9150604084013590509250925092565b600080600080600060808688031215611dac578081fd5b611db586611cb8565b9450611dc360208701611cb8565b93506040860135925060608601356001600160401b0380821115611de5578283fd5b818801915088601f830112611df8578283fd5b813581811115611e06578384fd5b896020828501011115611e17578384fd5b9699959850939650602001949392505050565b60008060408385031215611e3c578182fd5b611e4583611cb8565b915060208301358015158114611e59578182fd5b809150509250929050565b60008060408385031215611e76578182fd5b611e7f83611cb8565b946020939093013593505050565b600060208284031215611e9e578081fd5b813561173881612901565b600060208284031215611eba578081fd5b815161173881612901565b60008060008060808587031215611eda578384fd5b611ee385611ccf565b9350611ef160208601611cfd565b9250611eff60408601611cfd565b9396929550929360600135925050565b600060208284031215611f20578081fd5b5035919050565b600060208284031215611f38578081fd5b813563ffffffff81168114611738578182fd5b600060208284031215611f5c578081fd5b61173882611ce6565b60008060408385031215611f77578182fd5b611f8083611ce6565b9150611d5160208401611ccf565b600080600060608486031215611fa2578081fd5b611fab84611ce6565b9250611fb960208501611ccf565b9150611fc760408501611cb8565b90509250925092565b60008151808452611fe8816020860160208601612884565b601f01601f19169290920160200192915050565b6000835161200e818460208801612884565b9190910191825250602001919050565b6001600160a01b0391909116815260200190565b6001600160a01b038581168252841660208201526001600160401b038316604082015260806060820181905260009061206d90830184611fd0565b9695505050505050565b901515815260200190565b6000602082526117386020830184611fd0565b6020808252601f908201527f537061726b4e46543a2045646974696f6e206973206e6f742065786973742e00604082015260600190565b6020808252602f908201527f537061726b4e46543a20546865204e465420796f752077616e7420746f20627560408201526e3c9034b9903737ba1032bc34b9ba1760891b606082015260800190565b60208082526027908201527f537061726b4e46543a2076616c756520646f65736e27742066697420696e203360408201526619103134ba399760c91b606082015260800190565b60208082526029908201527f537061726b4e46543a205468657265206973206e6f206c65667420696e20746860408201526834b99034b9b9bab29760b91b606082015260800190565b60208082526030908201527f537061726b4e46543a204e465427732070726963652073686f756c642073657460408201526f10313c9037b73bb2b91037b31034ba1760811b606082015260800190565b6020808252818101527f537061726b4e46543a2054686973204e4654206973206e6f742065786973742e604082015260600190565b6020808252602e908201527f537061726b4e46543a20617070726f76656420717565727920666f72206e6f6e60408201526d32bc34b9ba32b73a103a37b5b2b760911b606082015260800190565b60208082526022908201527f537061726b4e46543a2054686973206973737565206973206e6f7420657869736040820152613a1760f11b606082015260800190565b60208082526034908201527f537061726b4e46543a207472616e7366657220746f206e6f6e204552433732316040820152732932b1b2b4bb32b91034b6b83632b6b2b73a32b960611b606082015260800190565b60208082526026908201527f537061726b4e46543a2076616c756520646f65736e27742066697420696e203660408201526534206269747360d01b606082015260800190565b60208082526036908201527f537061726b4e46543a205468657265206973206e6f2072656d61696e207368696040820152753636103a34b6b2b9903337b9103a3434b99027232a1760511b606082015260800190565b6020808252603a908201527f537061726b4e46543a20617070726f76652063616c6c6572206973206e6f742060408201527f6f776e6572206e6f7220617070726f76656420666f7220616c6c000000000000606082015260800190565b60208082526023908201527f537061726b4e46543a20617070726f76616c20746f2063757272656e74206f776040820152623732b960e91b606082015260800190565b60208082526033908201527f537061726b4e46543a207472616e736665722063616c6c6572206973206e6f74604082015272081bdddb995c881b9bdc88185c1c1c9bdd9959606a1b606082015260800190565b6020808252602b908201527f537061726b4e46543a206f776e657220717565727920666f72206e6f6e65786960408201526a39ba32b73a103a37b5b2b760a91b606082015260800190565b60208082526019908201527f537061726b4e46543a206e6f7420656e6f756768742045544800000000000000604082015260600190565b6020808252601b908201527f537061726b4e46543a20617070726f766520746f2063616c6c65720000000000604082015260600190565b6020808252602b908201527f537061726b4e46543a207472616e73666572206f6620746f6b656e207468617460408201526a1034b9903737ba1037bbb760a91b606082015260800190565b6020808252602b908201527f537061726b4e46543a20526f79616c7479206665652073686f756c64206c657360408201526a39903a3430b7101898181760a91b606082015260800190565b6020808252602c908201527f537061726b4e46543a2062616c616e636520717565727920666f72207468652060408201526b7a65726f206164647265737360a01b606082015260800190565b60208082526026908201527f537061726b4e46543a207472616e7366657220746f20746865207a65726f206160408201526564647265737360d01b606082015260800190565b60208082526029908201527f537061726b4e46543a2055524920717565727920666f72206e6f6e657869737460408201526832b73a103a37b5b2b760b91b606082015260800190565b6020808252602e908201527f537061726b4e46543a206f70657261746f7220717565727920666f72206e6f6e60408201526d32bc34b9ba32b73a103a37b5b2b760911b606082015260800190565b6001600160801b0391909116815260200190565b90815260200190565b63ffffffff91909116815260200190565b6001600160401b0391909116815260200190565b60ff91909116815260200190565b60006001600160801b0380831681851680830382111561278d5761278d6128eb565b01949350505050565b60006001600160401b0380831681851680830382111561278d5761278d6128eb565b60006001600160801b03808416806127de57634e487b7160e01b83526012600452602483fd5b92169190910492915050565b60006001600160801b0380831681851681830481118215151615612810576128106128eb565b02949350505050565b60006001600160801b0383811690831681811015612839576128396128eb565b039392505050565b60006001600160401b0383811690831681811015612839576128396128eb565b600060ff821660ff84168082101561287b5761287b6128eb565b90039392505050565b60005b8381101561289f578181015183820152602001612887565b838111156117175750506000910152565b6002810460018216806128c457607f821691505b602082108114156128e557634e487b7160e01b600052602260045260246000fd5b50919050565b634e487b7160e01b600052601160045260246000fd5b6001600160e01b0319811681146109b057600080fdfea26469706673582212206cc7fdf926e1793a84350527a882a6621f85f2a681c5d27c45b0874dc24182e364736f6c63430008000033",
  "linkReferences": {},
  "deployedLinkReferences": {}
}