{
  "_format": "hh-sol-artifact-1",
  "contractName": "SparkNFT",
  "sourceName": "contracts/SparkNFT.sol",
  "abi": [
    {
      "inputs": [],
      "stateMutability": "nonpayable",
      "type": "constructor"
    },
    {
      "anonymous": false,
      "inputs": [
        {
          "indexed": true,
          "internalType": "address",
          "name": "owner",
          "type": "address"
        },
        {
          "indexed": true,
          "internalType": "address",
          "name": "approved",
          "type": "address"
        },
        {
          "indexed": true,
          "internalType": "uint256",
          "name": "tokenId",
          "type": "uint256"
        }
      ],
      "name": "Approval",
      "type": "event"
    },
    {
      "anonymous": false,
      "inputs": [
        {
          "indexed": true,
          "internalType": "address",
          "name": "owner",
          "type": "address"
        },
        {
          "indexed": true,
          "internalType": "address",
          "name": "operator",
          "type": "address"
        },
        {
          "indexed": false,
          "internalType": "bool",
          "name": "approved",
          "type": "bool"
        }
      ],
      "name": "ApprovalForAll",
      "type": "event"
    },
    {
      "anonymous": false,
      "inputs": [
        {
          "indexed": true,
          "internalType": "uint64",
          "name": "NFT_id",
          "type": "uint64"
        },
        {
          "indexed": true,
          "internalType": "address",
          "name": "receiver",
          "type": "address"
        },
        {
          "indexed": false,
          "internalType": "uint128",
          "name": "amount",
          "type": "uint128"
        }
      ],
      "name": "Claim",
      "type": "event"
    },
    {
      "anonymous": false,
      "inputs": [
        {
          "indexed": true,
          "internalType": "uint64",
          "name": "NFT_id",
          "type": "uint64"
        },
        {
          "indexed": false,
          "internalType": "uint128",
          "name": "transfer_price",
          "type": "uint128"
        }
      ],
      "name": "DeterminePrice",
      "type": "event"
    },
    {
      "anonymous": false,
      "inputs": [
        {
          "indexed": true,
          "internalType": "uint64",
          "name": "NFT_id",
          "type": "uint64"
        },
        {
          "indexed": false,
          "internalType": "uint128",
          "name": "transfer_price",
          "type": "uint128"
        },
        {
          "indexed": true,
          "internalType": "address",
          "name": "to",
          "type": "address"
        }
      ],
      "name": "DeterminePriceAndApprove",
      "type": "event"
    },
    {
      "anonymous": false,
      "inputs": [
        {
          "indexed": true,
          "internalType": "uint32",
          "name": "issue_id",
          "type": "uint32"
        },
        {
          "indexed": true,
          "internalType": "address",
          "name": "publisher",
          "type": "address"
        },
        {
          "indexed": false,
          "internalType": "uint64",
          "name": "rootNFTId",
          "type": "uint64"
        }
      ],
      "name": "Publish",
      "type": "event"
    },
    {
      "anonymous": false,
      "inputs": [
        {
          "indexed": true,
          "internalType": "address",
          "name": "from",
          "type": "address"
        },
        {
          "indexed": true,
          "internalType": "address",
          "name": "to",
          "type": "address"
        },
        {
          "indexed": true,
          "internalType": "uint256",
          "name": "tokenId",
          "type": "uint256"
        }
      ],
      "name": "Transfer",
      "type": "event"
    },
    {
      "inputs": [
        {
          "internalType": "uint64",
          "name": "_NFT_id",
          "type": "uint64"
        }
      ],
      "name": "acceptShill",
      "outputs": [],
      "stateMutability": "payable",
      "type": "function"
    },
    {
      "inputs": [
        {
          "internalType": "address",
          "name": "to",
          "type": "address"
        },
        {
          "internalType": "uint256",
          "name": "tokenId",
          "type": "uint256"
        }
      ],
      "name": "approve",
      "outputs": [],
      "stateMutability": "nonpayable",
      "type": "function"
    },
    {
      "inputs": [
        {
          "internalType": "address",
          "name": "owner",
          "type": "address"
        }
      ],
      "name": "balanceOf",
      "outputs": [
        {
          "internalType": "uint256",
          "name": "",
          "type": "uint256"
        }
      ],
      "stateMutability": "view",
      "type": "function"
    },
    {
      "inputs": [
        {
          "internalType": "uint64",
          "name": "_NFT_id",
          "type": "uint64"
        }
      ],
      "name": "claimProfit",
      "outputs": [],
      "stateMutability": "nonpayable",
      "type": "function"
    },
    {
      "inputs": [
        {
          "internalType": "uint64",
          "name": "_NFT_id",
          "type": "uint64"
        },
        {
          "internalType": "uint128",
          "name": "_price",
          "type": "uint128"
        }
      ],
      "name": "determinePrice",
      "outputs": [],
      "stateMutability": "nonpayable",
      "type": "function"
    },
    {
      "inputs": [
        {
          "internalType": "uint64",
          "name": "_NFT_id",
          "type": "uint64"
        },
        {
          "internalType": "uint128",
          "name": "_price",
          "type": "uint128"
        },
        {
          "internalType": "address",
          "name": "_to",
          "type": "address"
        }
      ],
      "name": "determinePriceAndApprove",
      "outputs": [],
      "stateMutability": "nonpayable",
      "type": "function"
    },
    {
      "inputs": [
        {
          "internalType": "uint256",
          "name": "tokenId",
          "type": "uint256"
        }
      ],
      "name": "getApproved",
      "outputs": [
        {
          "internalType": "address",
          "name": "",
          "type": "address"
        }
      ],
      "stateMutability": "view",
      "type": "function"
    },
    {
      "inputs": [
        {
          "internalType": "uint64",
          "name": "_NFT_id",
          "type": "uint64"
        }
      ],
      "name": "getDepthByNFTId",
      "outputs": [
        {
          "internalType": "uint64",
          "name": "",
          "type": "uint64"
        }
      ],
      "stateMutability": "view",
      "type": "function"
    },
    {
      "inputs": [
        {
          "internalType": "uint64",
          "name": "_NFT_id",
          "type": "uint64"
        }
      ],
      "name": "getEditionIdByNFTId",
      "outputs": [
        {
          "internalType": "uint32",
          "name": "",
          "type": "uint32"
        }
      ],
      "stateMutability": "pure",
      "type": "function"
    },
    {
      "inputs": [
        {
          "internalType": "uint64",
          "name": "_NFT_id",
          "type": "uint64"
        }
      ],
      "name": "getFatherByNFTId",
      "outputs": [
        {
          "internalType": "uint64",
          "name": "",
          "type": "uint64"
        }
      ],
      "stateMutability": "view",
      "type": "function"
    },
    {
      "inputs": [
        {
          "internalType": "uint64",
          "name": "_NFT_id",
          "type": "uint64"
        }
      ],
      "name": "getIssueIdByNFTId",
      "outputs": [
        {
          "internalType": "uint32",
          "name": "",
          "type": "uint32"
        }
      ],
      "stateMutability": "pure",
      "type": "function"
    },
    {
      "inputs": [],
      "name": "getLossRatio",
      "outputs": [
        {
          "internalType": "uint8",
          "name": "",
          "type": "uint8"
        }
      ],
      "stateMutability": "pure",
      "type": "function"
    },
    {
      "inputs": [
        {
          "internalType": "uint64",
          "name": "_NFT_id",
          "type": "uint64"
        }
      ],
      "name": "getProfitByNFTId",
      "outputs": [
        {
          "internalType": "uint128",
          "name": "",
          "type": "uint128"
        }
      ],
      "stateMutability": "view",
      "type": "function"
    },
    {
      "inputs": [
        {
          "internalType": "uint64",
          "name": "_NFT_id",
          "type": "uint64"
        }
      ],
      "name": "getRemainShillTimesByNFTId",
      "outputs": [
        {
          "internalType": "uint8",
          "name": "",
          "type": "uint8"
        }
      ],
      "stateMutability": "view",
      "type": "function"
    },
    {
      "inputs": [
        {
          "internalType": "uint32",
          "name": "_issue_id",
          "type": "uint32"
        }
      ],
      "name": "getRootNFTIdByIssueId",
      "outputs": [
        {
          "internalType": "uint64",
          "name": "",
          "type": "uint64"
        }
      ],
      "stateMutability": "pure",
      "type": "function"
    },
    {
      "inputs": [
        {
          "internalType": "uint32",
          "name": "_issue_id",
          "type": "uint32"
        }
      ],
      "name": "getRoyaltyFeeByIssueId",
      "outputs": [
        {
          "internalType": "uint8",
          "name": "",
          "type": "uint8"
        }
      ],
      "stateMutability": "view",
      "type": "function"
    },
    {
      "inputs": [
        {
          "internalType": "uint64",
          "name": "_NFT_id",
          "type": "uint64"
        }
      ],
      "name": "getShillPriceByNFTId",
      "outputs": [
        {
          "internalType": "uint128",
          "name": "",
          "type": "uint128"
        }
      ],
      "stateMutability": "view",
      "type": "function"
    },
    {
      "inputs": [
        {
          "internalType": "uint32",
          "name": "_issue_id",
          "type": "uint32"
        }
      ],
      "name": "getShillTimesByIssueId",
      "outputs": [
        {
          "internalType": "uint8",
          "name": "",
          "type": "uint8"
        }
      ],
      "stateMutability": "view",
      "type": "function"
    },
    {
      "inputs": [
        {
          "internalType": "uint32",
          "name": "_issue_id",
          "type": "uint32"
        }
      ],
      "name": "getTotalAmountByIssueId",
      "outputs": [
        {
          "internalType": "uint32",
          "name": "",
          "type": "uint32"
        }
      ],
      "stateMutability": "view",
      "type": "function"
    },
    {
      "inputs": [
        {
          "internalType": "uint64",
          "name": "_NFT_id",
          "type": "uint64"
        }
      ],
      "name": "getTransferPriceByNFTId",
      "outputs": [
        {
          "internalType": "uint128",
          "name": "",
          "type": "uint128"
        }
      ],
      "stateMutability": "view",
      "type": "function"
    },
    {
      "inputs": [
        {
          "internalType": "address",
          "name": "owner",
          "type": "address"
        },
        {
          "internalType": "address",
          "name": "operator",
          "type": "address"
        }
      ],
      "name": "isApprovedForAll",
      "outputs": [
        {
          "internalType": "bool",
          "name": "",
          "type": "bool"
        }
      ],
      "stateMutability": "view",
      "type": "function"
    },
    {
      "inputs": [
        {
          "internalType": "uint64",
          "name": "_NFT_id",
          "type": "uint64"
        }
      ],
      "name": "isEditionExist",
      "outputs": [
        {
          "internalType": "bool",
          "name": "",
          "type": "bool"
        }
      ],
      "stateMutability": "view",
      "type": "function"
    },
    {
      "inputs": [
        {
          "internalType": "uint32",
          "name": "_issue_id",
          "type": "uint32"
        }
      ],
      "name": "isIssueExist",
      "outputs": [
        {
          "internalType": "bool",
          "name": "",
          "type": "bool"
        }
      ],
      "stateMutability": "view",
      "type": "function"
    },
    {
      "inputs": [
        {
          "internalType": "uint64",
          "name": "_NFT_id",
          "type": "uint64"
        }
      ],
      "name": "isRootNFT",
      "outputs": [
        {
          "internalType": "bool",
          "name": "",
          "type": "bool"
        }
      ],
      "stateMutability": "pure",
      "type": "function"
    },
    {
      "inputs": [],
      "name": "name",
      "outputs": [
        {
          "internalType": "string",
          "name": "",
          "type": "string"
        }
      ],
      "stateMutability": "view",
      "type": "function"
    },
    {
      "inputs": [
        {
          "internalType": "uint256",
          "name": "tokenId",
          "type": "uint256"
        }
      ],
      "name": "ownerOf",
      "outputs": [
        {
          "internalType": "address",
          "name": "",
          "type": "address"
        }
      ],
      "stateMutability": "view",
      "type": "function"
    },
    {
      "inputs": [
        {
          "internalType": "uint128",
          "name": "_first_sell_price",
          "type": "uint128"
        },
        {
          "internalType": "uint8",
          "name": "_royalty_fee",
          "type": "uint8"
        },
        {
          "internalType": "uint8",
          "name": "_shill_times",
          "type": "uint8"
        },
        {
          "internalType": "bytes32",
          "name": "_ipfs_hash",
          "type": "bytes32"
        }
      ],
      "name": "publish",
      "outputs": [],
      "stateMutability": "nonpayable",
      "type": "function"
    },
    {
      "inputs": [
        {
          "internalType": "address",
          "name": "from",
          "type": "address"
        },
        {
          "internalType": "address",
          "name": "to",
          "type": "address"
        },
        {
          "internalType": "uint256",
          "name": "tokenId",
          "type": "uint256"
        }
      ],
      "name": "safeTransferFrom",
      "outputs": [],
      "stateMutability": "payable",
      "type": "function"
    },
    {
      "inputs": [
        {
          "internalType": "address",
          "name": "from",
          "type": "address"
        },
        {
          "internalType": "address",
          "name": "to",
          "type": "address"
        },
        {
          "internalType": "uint256",
          "name": "tokenId",
          "type": "uint256"
        },
        {
          "internalType": "bytes",
          "name": "_data",
          "type": "bytes"
        }
      ],
      "name": "safeTransferFrom",
      "outputs": [],
      "stateMutability": "payable",
      "type": "function"
    },
    {
      "inputs": [
        {
          "internalType": "address",
          "name": "operator",
          "type": "address"
        },
        {
          "internalType": "bool",
          "name": "approved",
          "type": "bool"
        }
      ],
      "name": "setApprovalForAll",
      "outputs": [],
      "stateMutability": "nonpayable",
      "type": "function"
    },
    {
      "inputs": [
        {
          "internalType": "bytes4",
          "name": "interfaceId",
          "type": "bytes4"
        }
      ],
      "name": "supportsInterface",
      "outputs": [
        {
          "internalType": "bool",
          "name": "",
          "type": "bool"
        }
      ],
      "stateMutability": "view",
      "type": "function"
    },
    {
      "inputs": [],
      "name": "symbol",
      "outputs": [
        {
          "internalType": "string",
          "name": "",
          "type": "string"
        }
      ],
      "stateMutability": "view",
      "type": "function"
    },
    {
      "inputs": [
        {
          "internalType": "uint256",
          "name": "tokenId",
          "type": "uint256"
        }
      ],
      "name": "tokenURI",
      "outputs": [
        {
          "internalType": "string",
          "name": "",
          "type": "string"
        }
      ],
      "stateMutability": "view",
      "type": "function"
    },
    {
      "inputs": [
        {
          "internalType": "address",
          "name": "from",
          "type": "address"
        },
        {
          "internalType": "address",
          "name": "to",
          "type": "address"
        },
        {
          "internalType": "uint256",
          "name": "tokenId",
          "type": "uint256"
        }
      ],
      "name": "transferFrom",
      "outputs": [],
      "stateMutability": "payable",
      "type": "function"
    }
  ],
  "bytecode": "0x60806040523480156200001157600080fd5b506040805180820190915260088082526714dc185c9ad3919560c21b602090920191825262000043916002916200007c565b506040805180820190915260088082526714dc185c9ad3919560c21b602090920191825262000075916003916200007c565b506200015f565b8280546200008a9062000122565b90600052602060002090601f016020900481019282620000ae5760008555620000f9565b82601f10620000c957805160ff1916838001178555620000f9565b82800160010185558215620000f9579182015b82811115620000f9578251825591602001919060010190620000dc565b50620001079291506200010b565b5090565b5b808211156200010757600081556001016200010c565b600181811c908216806200013757607f821691505b602082108114156200015957634e487b7160e01b600052602260045260246000fd5b50919050565b613004806200016f6000396000f3fe6080604052600436106101f95760003560e01c806392e6f9ac1161010d578063c87b56dd116100a0578063f1ac67d31161006f578063f1ac67d31461061c578063f208c0f31461063c578063f6e9274d1461066c578063fc6b6dea1461068c578063fee03299146106ac57600080fd5b8063c87b56dd14610573578063d8a288bd14610593578063d8d17e79146105b3578063e985e9c5146105d357600080fd5b8063b88d4fde116100dc578063b88d4fde1461050d578063bbe07d7914610520578063bd3355ed14610533578063bdea26fa1461055357600080fd5b806392e6f9ac1461047957806395d89b41146104a0578063a22cb465146104b5578063a7c9e881146104d557600080fd5b806342842e0e1161019057806362f8dcd51161015f57806362f8dcd5146103cb5780636352211e146103eb57806370a082311461040b57806377738ad2146104395780637f52b12a1461045957600080fd5b806342842e0e146103585780635a034b3b1461036b5780635ca013271461038b5780635e7efa2e146103ab57600080fd5b8063095ea7b3116101cc578063095ea7b3146102af578063177e67f2146102d15780631dab1af71461030d57806323b872dd1461034557600080fd5b806301ffc9a7146101fe5780630292ec361461023357806306fdde0314610255578063081812fc14610277575b600080fd5b34801561020a57600080fd5b5061021e610219366004612a51565b6106cc565b60405190151581526020015b60405180910390f35b34801561023f57600080fd5b50605a5b60405160ff909116815260200161022a565b34801561026157600080fd5b5061026a61071e565b60405161022a9190612c56565b34801561028357600080fd5b50610297610292366004612ad3565b6107b0565b6040516001600160a01b03909116815260200161022a565b3480156102bb57600080fd5b506102cf6102ca366004612a28565b61085c565b005b3480156102dd57600080fd5b506102f86102ec366004612b0f565b60201c63ffffffff1690565b60405163ffffffff909116815260200161022a565b34801561031957600080fd5b5061032d610328366004612b0f565b61097c565b6040516001600160401b03909116815260200161022a565b6102cf61035336600461291e565b6109d1565b6102cf61036636600461291e565b6109e4565b34801561037757600080fd5b506102cf610386366004612b0f565b610a07565b34801561039757600080fd5b506102cf6103a6366004612a89565b610ba8565b3480156103b757600080fd5b506102436103c6366004612aeb565b610e69565b3480156103d757600080fd5b5061021e6103e6366004612aeb565b610ecf565b3480156103f757600080fd5b50610297610406366004612ad3565b610eea565b34801561041757600080fd5b5061042b6104263660046128d2565b610f83565b60405190815260200161022a565b34801561044557600080fd5b506102cf610454366004612b52565b611015565b34801561046557600080fd5b5061021e610474366004612b0f565b611089565b34801561048557600080fd5b5061021e610494366004612b0f565b63ffffffff1660011490565b3480156104ac57600080fd5b5061026a6110b3565b3480156104c157600080fd5b506102cf6104d03660046129ee565b6110c2565b3480156104e157600080fd5b506104f56104f0366004612b0f565b611180565b6040516001600160801b03909116815260200161022a565b6102cf61051b366004612959565b6111d3565b6102cf61052e366004612b0f565b611224565b34801561053f57600080fd5b506104f561054e366004612b0f565b611450565b34801561055f57600080fd5b5061032d61056e366004612b0f565b611512565b34801561057f57600080fd5b5061026a61058e366004612ad3565b6115c3565b34801561059f57600080fd5b506102f86105ae366004612aeb565b6116d3565b3480156105bf57600080fd5b506102436105ce366004612b0f565b611724565b3480156105df57600080fd5b5061021e6105ee3660046128ec565b6001600160a01b03918216600090815260066020908152604080832093909416825291909152205460ff1690565b34801561062857600080fd5b506102f8610637366004612b0f565b611771565b34801561064857600080fd5b5061032d610657366004612aeb565b63ffffffff60201b60209190911b1660011790565b34801561067857600080fd5b506104f5610687366004612b0f565b61177f565b34801561069857600080fd5b506102436106a7366004612aeb565b6117ce565b3480156106b857600080fd5b506102cf6106c7366004612b29565b611813565b60006001600160e01b031982166380ac58cd60e01b14806106fd57506001600160e01b03198216635b5e139f60e01b145b8061071857506301ffc9a760e01b6001600160e01b03198316145b92915050565b60606002805461072d90612ec8565b80601f016020809104026020016040519081016040528092919081815260200182805461075990612ec8565b80156107a65780601f1061077b576101008083540402835291602001916107a6565b820191906000526020600020905b81548152906001019060200180831161078957829003601f168201915b5050505050905090565b60006107be6104748361197a565b6108265760405162461bcd60e51b815260206004820152602e60248201527f537061726b4e46543a20617070726f76656420717565727920666f72206e6f6e60448201526d32bc34b9ba32b73a103a37b5b2b760911b60648201526084015b60405180910390fd5b600560006108338461197a565b6001600160401b031681526020810191909152604001600020546001600160a01b031692915050565b600061086782610eea565b9050806001600160a01b0316836001600160a01b031614156108d75760405162461bcd60e51b815260206004820152602360248201527f537061726b4e46543a20617070726f76616c20746f2063757272656e74206f776044820152623732b960e91b606482015260840161081d565b336001600160a01b03821614806108f357506108f381336105ee565b6109655760405162461bcd60e51b815260206004820152603a60248201527f537061726b4e46543a20617070726f76652063616c6c6572206973206e6f742060448201527f6f776e6572206e6f7220617070726f76656420666f7220616c6c000000000000606482015260840161081d565b610977836109728461197a565b6119e6565b505050565b600061098782611089565b6109a35760405162461bcd60e51b815260040161081d90612c69565b60005b600163ffffffff841614610718576109bf600182612d70565b90506109ca83611512565b92506109a6565b61097783836109df8461197a565b611a5c565b61097783836109f28461197a565b60405180602001604052806000815250611da6565b610a1081611089565b610a2c5760405162461bcd60e51b815260040161081d90612c69565b6001600160401b038116600090815260016020526040902060030154600160801b90046001600160801b031615610ba5576001600160401b038116600090815260016020526040902060030180546001600160801b03808216909255600160801b900416610aa08263ffffffff1660011490565b610ae4576000610ac282610abd602086901c63ffffffff166117ce565b611ddf565b9050610ad6610ad084611512565b82611e01565b610ae08183612e1a565b9150505b610af6826001600160401b0316610eea565b6001600160a01b03166108fc826001600160801b03169081150290604051600060405180830381858888f19350505050158015610b37573d6000803e3d6000fd5b50610b4a826001600160401b0316610eea565b6001600160a01b0316826001600160401b03167f3dc1a77733195d8bbde8f8bc719f598f47f377c9c4b854d561b4d607a8e81f6283604051610b9b91906001600160801b0391909116815260200190565b60405180910390a3505b50565b60648360ff161115610c105760405162461bcd60e51b815260206004820152602b60248201527f537061726b4e46543a20526f79616c7479206665652073686f756c64206c657360448201526a39903a3430b7101898181760a91b606482015260840161081d565b610c1e600080546001019055565b63ffffffff610c2c60005490565b1115610c8a5760405162461bcd60e51b815260206004820152602760248201527f537061726b4e46543a2076616c756520646f65736e27742066697420696e203360448201526619103134ba399760c91b606482015260840161081d565b60008054906001602083901b63ffffffff60201b16179050610cbe6000338360405180602001604052806000815250611e73565b610cda5760405162461bcd60e51b815260040161081d90612ce2565b6001600160401b03811660009081526001602081905260409091209066ff00000000000019603888901b16603087901b1790610d169082612d70565b82546001600160401b0382811667ffffffffffffffff60ff60c01b011990921691909117600160c01b60ff8a160217600160401b600160c01b031916600160401b6001600160801b038c160217845560018085018054336001600160a01b031990911681179091556002860189905560009081526004602052604081208054949550919391929091610daa91859116612d70565b92506101000a8154816001600160401b0302191690836001600160401b03160217905550826001600160401b0316336001600160a01b031660006001600160a01b03167fddf252ad1be2c89b69c2b068fc378daa952ba7f163c4a11628f55a4df523b3ef60405160405180910390a46040516001600160401b0384168152339063ffffffff8616907f7076939bab881558c26bdfd19cefffacd29a6dcea17a02353fbceb3e9a53c2999060200160405180910390a35050505050505050565b6000610e7482610ecf565b610e905760405162461bcd60e51b815260040161081d90612ca0565b610718603060016000602086901b63ffffffff60201b1682175b6001600160401b0390811682526020820192909252604001600020541660ff911c1690565b60006107186001602084901b63ffffffff60201b1617611089565b60008060016000610efa8561197a565b6001600160401b031681526020810191909152604001600020600101546001600160a01b03169050806107185760405162461bcd60e51b815260206004820152602b60248201527f537061726b4e46543a206f776e657220717565727920666f72206e6f6e65786960448201526a39ba32b73a103a37b5b2b760a91b606482015260840161081d565b60006001600160a01b038216610ff05760405162461bcd60e51b815260206004820152602c60248201527f537061726b4e46543a2062616c616e636520717565727920666f72207468652060448201526b7a65726f206164647265737360a01b606482015260840161081d565b506001600160a01b03166000908152600460205260409020546001600160401b031690565b61101f8383611813565b61103281846001600160401b031661085c565b6040516001600160801b03831681526001600160a01b038216906001600160401b038516907ff4a029974225230e783a906bf72b4c1037aee2b37958b9a6b5e689da1477729b9060200160405180910390a3505050565b6001600160401b0316600090815260016020819052604090912001546001600160a01b0316151590565b60606003805461072d90612ec8565b6001600160a01b03821633141561111b5760405162461bcd60e51b815260206004820152601b60248201527f537061726b4e46543a20617070726f766520746f2063616c6c65720000000000604482015260640161081d565b3360008181526006602090815260408083206001600160a01b03871680855290835292819020805460ff191686151590811790915590519081529192917f17307eab39ab6107e8899845ad3d59bd9653f200f220920489ca2b5937696c319101610b9b565b600061118b82611089565b6111a75760405162461bcd60e51b815260040161081d90612c69565b506001600160401b0316600090815260016020526040902054600160401b90046001600160801b031690565b61121d85856111e18661197a565b85858080601f016020809104026020016040519081016040528093929190818152602001838380828437600092019190915250611da692505050565b5050505050565b61122d81611089565b6112795760405162461bcd60e51b815260206004820181905260248201527f537061726b4e46543a2054686973204e4654206973206e6f742065786973742e604482015260640161081d565b6001600160401b038116600090815260016020526040902054600160c01b900460ff166113075760405162461bcd60e51b815260206004820152603660248201527f537061726b4e46543a205468657265206973206e6f2072656d61696e207368696044820152753636103a34b6b2b9903337b9103a3434b99027232a1760511b606482015260840161081d565b6001600160401b038116600090815260016020526040902054600160401b90046001600160801b0316341461137a5760405162461bcd60e51b81526020600482015260196024820152780a6e0c2e4d69c8ca87440dcdee840cadcdeeaced0e8408aa89603b1b604482015260640161081d565b6001600160401b0381166000908152600160205260409020546113ae908290600160401b90046001600160801b0316611e01565b6113b88133611f80565b506001600160401b038116600090815260016020819052604090912080546018906113ee908490600160c01b900460ff16612e79565b82546101009290920a60ff8181021990931691831602179091556001600160401b038316600090815260016020526040902054600160c01b90041615159050610ba55761144c81611447836001600160401b0316610eea565b611f80565b5050565b600061145b82611089565b6114775760405162461bcd60e51b815260040161081d90612c69565b6001600160401b038216600090815260016020526040902060030154600160801b90046001600160801b03166114b38363ffffffff1660011490565b610718576001600160401b0383166000908152600160205260408120600301546114fe906001600160801b03600160801b90910416610abd6106a78763ffffffff60209190911c1690565b905061150a8183612e1a565b949350505050565b600061151d82611089565b6115395760405162461bcd60e51b815260040161081d90612c69565b600163ffffffff831614156115a45760405162461bcd60e51b815260206004820152602b60248201527f537061726b4e46543a20526f6f74204e465420646f65736e277420686176652060448201526a3330ba3432b91027232a1760a91b606482015260840161081d565b506001600160401b039081166000908152600160205260409020541690565b60606115d16104748361197a565b61162f5760405162461bcd60e51b815260206004820152602960248201527f537061726b4e46543a2055524920717565727920666f72206e6f6e657869737460448201526832b73a103a37b5b2b760b91b606482015260840161081d565b60006001600061163e8561197a565b6001600160401b03166001600160401b03168152602001908152602001600020600201549050600061166f8261217d565b905060006116a560408051808201909152601581527468747470733a2f2f697066732e696f2f697066732f60581b602082015290565b905080826040516020016116ba929190612be2565b6040516020818303038152906040529350505050919050565b60006116de82610ecf565b6116fa5760405162461bcd60e51b815260040161081d90612ca0565b6001602083811b63ffffffff60201b1682176000908152919052604090205463ffffffff16610718565b600061172f82611089565b61174b5760405162461bcd60e51b815260040161081d90612c69565b506001600160401b0316600090815260016020526040902054600160c01b900460ff1690565b600063ffffffff8216610718565b600061178a82611089565b6117a65760405162461bcd60e51b815260040161081d90612c69565b506001600160401b03166000908152600160205260409020600301546001600160801b031690565b60006117d982610ecf565b6117f55760405162461bcd60e51b815260040161081d90612ca0565b610718603860016000602086901b63ffffffff60201b168217610eaa565b61181c82611089565b6118805760405162461bcd60e51b815260206004820152602f60248201527f537061726b4e46543a20546865204e465420796f752077616e7420746f20627560448201526e3c9034b9903737ba1032bc34b9ba1760891b606482015260840161081d565b611892826001600160401b0316610eea565b6001600160a01b0316336001600160a01b03161461190b5760405162461bcd60e51b815260206004820152603060248201527f537061726b4e46543a204e465427732070726963652073686f756c642073657460448201526f10313c9037b73bb2b91037b31034ba1760811b606482015260840161081d565b6001600160401b03821660008181526001602090815260409182902060030180546001600160801b0319166001600160801b03861690811790915591519182527fca72e8ac93611c80ca0e2046cbd0f09834fcca6a61e4979bd62bb6765ff7a9e7910160405180910390a25050565b60006001600160401b038211156119e25760405162461bcd60e51b815260206004820152602660248201527f537061726b4e46543a2076616c756520646f65736e27742066697420696e203660448201526534206269747360d01b606482015260840161081d565b5090565b6001600160401b038116600081815260056020526040902080546001600160a01b0319166001600160a01b038516908117909155611a2382610eea565b6001600160a01b03167f8c5be1e5ebec7d5bd14f71427d1e84f3dd0314c0f7b2291e5b200ac8c7c3b92560405160405180910390a45050565b826001600160a01b0316611a78826001600160401b0316610eea565b6001600160a01b031614611ae25760405162461bcd60e51b815260206004820152602b60248201527f537061726b4e46543a207472616e73666572206f6620746f6b656e207468617460448201526a1034b9903737ba1037bbb760a91b606482015260840161081d565b611aec3382612393565b611b545760405162461bcd60e51b815260206004820152603360248201527f537061726b4e46543a207472616e736665722063616c6c6572206973206e6f74604482015272081bdddb995c881b9bdc88185c1c1c9bdd9959606a1b606482015260840161081d565b6001600160a01b038216611bb95760405162461bcd60e51b815260206004820152602660248201527f537061726b4e46543a207472616e7366657220746f20746865207a65726f206160448201526564647265737360d01b606482015260840161081d565b611bcb816001600160401b0316610eea565b6001600160a01b0316336001600160a01b031614611c90576001600160401b0381166000908152600160205260409020600301546001600160801b03163414611c525760405162461bcd60e51b81526020600482015260196024820152780a6e0c2e4d69c8ca87440dcdee840cadcdeeaced0e8408aa89603b1b604482015260640161081d565b6001600160401b038116600090815260016020526040902060030154611c829082906001600160801b0316611e01565b611c8b81610a07565b611c99565b611c9981610a07565b611ca28161248d565b6001600160a01b0383166000908152600460205260408120805460019290611cd49084906001600160401b0316612e59565b82546101009290920a6001600160401b038181021990931691831602179091556001600160a01b03841660009081526004602052604081208054600194509092611d2091859116612d70565b82546101009290920a6001600160401b038181021990931691831602179091558216600081815260016020819052604080832090910180546001600160a01b0319166001600160a01b0388811691821790925591519394509092908716917fddf252ad1be2c89b69c2b068fc378daa952ba7f163c4a11628f55a4df523b3ef91a4505050565b611db1848484611a5c565b611dbd84848484611e73565b611dd95760405162461bcd60e51b815260040161081d90612ce2565b50505050565b60006064611df060ff841685612dcc565b611dfa9190612d92565b9392505050565b6001600160401b038216600090815260016020526040902060030154611e38908290600160801b90046001600160801b0316612d36565b6001600160401b03909216600090815260016020526040902060030180546001600160801b03938416600160801b0293169290921790915550565b60006001600160a01b0384163b15611f7557604051630a85bd0160e11b81526001600160a01b0385169063150b7a0290611eb7903390899088908890600401612c11565b602060405180830381600087803b158015611ed157600080fd5b505af1925050508015611f01575060408051601f3d908101601f19168201909252611efe91810190612a6d565b60015b611f5b573d808015611f2f576040519150601f19603f3d011682016040523d82523d6000602084013e611f34565b606091505b508051611f535760405162461bcd60e51b815260040161081d90612ce2565b805181602001fd5b6001600160e01b031916630a85bd0160e11b14905061150a565b506001949350505050565b600063ffffffff602084901c16611f96816124c2565b6000611fa1826116d3565b9050600063ffffffff60201b602084901b1663ffffffff8316179050611fd96000868360405180602001604052806000815250611e73565b611ff55760405162461bcd60e51b815260040161081d90612ce2565b6001600160401b038116600090815260016020526040902061201684610e69565b815467ffffffffffffffff60ff60c01b011916600160c01b60ff929092169190910267ffffffffffffffff1916176001600160401b038816908117825560009081526001602052604090205461207d90600160401b90046001600160801b0316605a611ddf565b81546001600160801b0391909116600160401b02600160401b600160c01b0319909116178155600180820180546001600160a01b0389166001600160a01b031990911681179091556001600160401b03808a166000908152602084815260408083206002908101549088015593825260049052918220805490929161210491859116612d70565b92506101000a8154816001600160401b0302191690836001600160401b03160217905550816001600160401b0316866001600160a01b031660006001600160a01b03167fddf252ad1be2c89b69c2b068fc378daa952ba7f163c4a11628f55a4df523b3ef60405160405180910390a45095945050505050565b60606000604051806040016040528060028152602001609160f51b815250836040516020016121ad929190612bc0565b60408051601f198184030181528183526108208301825292506000919060208201610800803683370190505090506000816000815181106121fe57634e487b7160e01b600052603260045260246000fd5b60ff90921660209283029190910190910152600160005b835181101561236f57600084828151811061224057634e487b7160e01b600052603260045260246000fd5b016020015160f81c905060005b8360ff168110156122f65784818151811061227857634e487b7160e01b600052603260045260246000fd5b602002602001015160ff166101006122909190612dfb565b61229a9083612d58565b91506122a7603a83612f3e565b8582815181106122c757634e487b7160e01b600052603260045260246000fd5b60ff909216602092830291909101909101526122e4603a83612db8565b91506122ef81612f03565b905061224d565b505b801561235e57612309603a82612f3e565b848460ff168151811061232c57634e487b7160e01b600052603260045260246000fd5b60ff909216602092830291909101909101528261234881612f1e565b93506123579050603a82612db8565b90506122f8565b5061236881612f03565b9050612215565b5061238a6123856123808484612594565b61266f565b61275d565b95945050505050565b600061239e82611089565b6124015760405162461bcd60e51b815260206004820152602e60248201527f537061726b4e46543a206f70657261746f7220717565727920666f72206e6f6e60448201526d32bc34b9ba32b73a103a37b5b2b760911b606482015260840161081d565b6000612415836001600160401b0316610eea565b9050806001600160a01b0316846001600160a01b031614806124595750836001600160a01b031661244e846001600160401b03166107b0565b6001600160a01b0316145b8061150a57506001600160a01b0380821660009081526006602090815260408083209388168352929052205460ff1661150a565b6124986000826119e6565b6001600160401b0316600090815260016020526040902060030180546001600160801b0319169055565b63ffffffff6124d0826116d3565b63ffffffff16106125355760405162461bcd60e51b815260206004820152602960248201527f537061726b4e46543a205468657265206973206e6f206c65667420696e20746860448201526834b99034b9b9bab29760b91b606482015260840161081d565b6001602082811b63ffffffff60201b16821760009081529082905260408120805490919061256d9084906001600160401b0316612d70565b92506101000a8154816001600160401b0302191690836001600160401b0316021790555050565b606060008260ff166001600160401b038111156125c157634e487b7160e01b600052604160045260246000fd5b6040519080825280602002602001820160405280156125ea578160200160208202803683370190505b50905060005b8360ff168110156126675784818151811061261b57634e487b7160e01b600052603260045260246000fd5b602002602001015182828151811061264357634e487b7160e01b600052603260045260246000fd5b60ff909216602092830291909101909101528061265f81612f03565b9150506125f0565b509392505050565b6060600082516001600160401b0381111561269a57634e487b7160e01b600052604160045260246000fd5b6040519080825280602002602001820160405280156126c3578160200160208202803683370190505b50905060005b8351811015612756578381600186516126e29190612e42565b6126ec9190612e42565b8151811061270a57634e487b7160e01b600052603260045260246000fd5b602002602001015182828151811061273257634e487b7160e01b600052603260045260246000fd5b60ff909216602092830291909101909101528061274e81612f03565b9150506126c9565b5092915050565b6060600082516001600160401b0381111561278857634e487b7160e01b600052604160045260246000fd5b6040519080825280601f01601f1916602001820160405280156127b2576020820181803683370190505b50905060005b8351811015612756576040518060600160405280603a8152602001612f95603a91398482815181106127fa57634e487b7160e01b600052603260045260246000fd5b602002602001015160ff168151811061282357634e487b7160e01b600052603260045260246000fd5b602001015160f81c60f81b82828151811061284e57634e487b7160e01b600052603260045260246000fd5b60200101906001600160f81b031916908160001a9053508061286f81612f03565b9150506127b8565b80356001600160a01b038116811461288e57600080fd5b919050565b80356001600160801b038116811461288e57600080fd5b80356001600160401b038116811461288e57600080fd5b803560ff8116811461288e57600080fd5b6000602082840312156128e3578081fd5b611dfa82612877565b600080604083850312156128fe578081fd5b61290783612877565b915061291560208401612877565b90509250929050565b600080600060608486031215612932578081fd5b61293b84612877565b925061294960208501612877565b9150604084013590509250925092565b600080600080600060808688031215612970578081fd5b61297986612877565b945061298760208701612877565b93506040860135925060608601356001600160401b03808211156129a9578283fd5b818801915088601f8301126129bc578283fd5b8135818111156129ca578384fd5b8960208285010111156129db578384fd5b9699959850939650602001949392505050565b60008060408385031215612a00578182fd5b612a0983612877565b915060208301358015158114612a1d578182fd5b809150509250929050565b60008060408385031215612a3a578182fd5b612a4383612877565b946020939093013593505050565b600060208284031215612a62578081fd5b8135611dfa81612f7e565b600060208284031215612a7e578081fd5b8151611dfa81612f7e565b60008060008060808587031215612a9e578384fd5b612aa785612893565b9350612ab5602086016128c1565b9250612ac3604086016128c1565b9396929550929360600135925050565b600060208284031215612ae4578081fd5b5035919050565b600060208284031215612afc578081fd5b813563ffffffff81168114611dfa578182fd5b600060208284031215612b20578081fd5b611dfa826128aa565b60008060408385031215612b3b578182fd5b612b44836128aa565b915061291560208401612893565b600080600060608486031215612b66578081fd5b612b6f846128aa565b9250612b7d60208501612893565b9150612b8b60408501612877565b90509250925092565b60008151808452612bac816020860160208601612e9c565b601f01601f19169290920160200192915050565b60008351612bd2818460208801612e9c565b9190910191825250602001919050565b60008351612bf4818460208801612e9c565b835190830190612c08818360208801612e9c565b01949350505050565b6001600160a01b038581168252841660208201526001600160401b0383166040820152608060608201819052600090612c4c90830184612b94565b9695505050505050565b602081526000611dfa6020830184612b94565b6020808252601f908201527f537061726b4e46543a2045646974696f6e206973206e6f742065786973742e00604082015260600190565b60208082526022908201527f537061726b4e46543a2054686973206973737565206973206e6f7420657869736040820152613a1760f11b606082015260800190565b60208082526034908201527f537061726b4e46543a207472616e7366657220746f206e6f6e204552433732316040820152732932b1b2b4bb32b91034b6b83632b6b2b73a32b960611b606082015260800190565b60006001600160801b03808316818516808303821115612c0857612c08612f52565b60008219821115612d6b57612d6b612f52565b500190565b60006001600160401b03808316818516808303821115612c0857612c08612f52565b60006001600160801b0380841680612dac57612dac612f68565b92169190910492915050565b600082612dc757612dc7612f68565b500490565b60006001600160801b0380831681851681830481118215151615612df257612df2612f52565b02949350505050565b6000816000190483118215151615612e1557612e15612f52565b500290565b60006001600160801b0383811690831681811015612e3a57612e3a612f52565b039392505050565b600082821015612e5457612e54612f52565b500390565b60006001600160401b0383811690831681811015612e3a57612e3a612f52565b600060ff821660ff841680821015612e9357612e93612f52565b90039392505050565b60005b83811015612eb7578181015183820152602001612e9f565b83811115611dd95750506000910152565b600181811c90821680612edc57607f821691505b60208210811415612efd57634e487b7160e01b600052602260045260246000fd5b50919050565b6000600019821415612f1757612f17612f52565b5060010190565b600060ff821660ff811415612f3557612f35612f52565b60010192915050565b600082612f4d57612f4d612f68565b500690565b634e487b7160e01b600052601160045260246000fd5b634e487b7160e01b600052601260045260246000fd5b6001600160e01b031981168114610ba557600080fdfe31323334353637383941424344454647484a4b4c4d4e505152535455565758595a6162636465666768696a6b6d6e6f707172737475767778797aa26469706673582212205162c5b62da1e6137736c721491d30bd4ec93e02a04b1d50c46bf9c409a832a664736f6c63430008040033",
  "linkReferences": {},
  "deployedLinkReferences": {}
}